:020000040800F2
:10000000D850002031030008593F0008513B000838
:10001000553F000829090008A5530008000000000A
:100020000000000000000000000000007102000855
:10003000FD0E000800000000CD020008B7480008CF
:100040004B0300084B0300084B0300084B03000858
:100050004B0300084B0300084B0300084B03000848
:100060004B0300084B0300084B0300084B03000838
:100070004B0300084B0300084B0300084B03000828
:100080004B0300084B0300084B0300084B03000818
:100090002D0900084B0300084B0300084B03000820
:1000A0004B0300084B0300084B0300084B030008F8
:1000B0004B0300084B0300084B0300084B030008E8
:1000C0004B0300084B0300084B0300084B030008D8
:1000D0004B030008855300084B0300084B0300083E
:1000E0004B0300084B0300084B0300084B030008B8
:1000F0004B0300084B0300084B0300084B030008A8
:100100004B0300084B0300084B0300084B03000897
:100110004B0300084B0300084B0300084B03000887
:100120004B030008BD0C0008CD0C00084B03000871
:100130004B0300084B0300084B0300084B03000867
:100140003D0900084B0300084B0300084B0300085F
:100150004B030008DD0C0008ED0C00089553000867
:100160004B0300084B0300084B0300084B03000837
:100170004B0300084B0300084B030008000000007D
:100180004B0300084B03000800F002F800F060F891
:100190000AA090E8000C82448344AAF10107DA45E2
:1001A00001D100F055F8AFF2090EBAE80F0013F0D4
:1001B000010F18BFFB1A43F001031847909100008C
:1001C000B09100000A444FF0000C10F8013B13F00E
:1001D000070408BF10F8014B1D1108BF10F8015BA0
:1001E000641E05D010F8016B641E01F8016BF9D193
:1001F00013F0080F1EBF10F8014BAD1C0C1B09D1EA
:100200006D1E58BF01F801CBFAD505E014F8016B5B
:1002100001F8016B6D1EF9D59142D6D370470000ED
:100220000023002400250026103A28BF78C1FBD8FF
:10023000520728BF30C148BF0B6070471FB508F098
:10024000E1FE9DE8030000F0D3F91FBD10B510BD1D
:1002500000F078FA1146FFF7F1FF06F033FD00F0E9
:1002600096FA03B4FFF7F2FF03BC00F0CDFA0000EA
:100270002C4B19680868B0E8F04F80F30988BFF389
:100280006F8F4FF0000080F311887047000000006E
:1002900008480068006880F308884FF0000080F389
:1002A000148862B661B6BFF34F8FBFF36F8F00DF64
:1002B00000BF00BF08ED00E0DFF80C00016841F46A
:1002C00070010160704700BF88ED00E0EFF3098026
:1002D000BFF36F8F134B1A681EF0100F08BF20ED8D
:1002E000108A20E9F04F106009B44FF0500080F3FD
:1002F0001188BFF34F8FBFF36F8F07F05FFA4FF096
:10030000000080F3118809BC19680868B0E8F04F54
:100310001EF0100F08BFB0EC108A80F30988BFF3FD
:100320006F8F704718030020EFF3058070470000BF
:100330000948804709480047FEE7FEE7FEE7FEE779
:10034000FEE7FEE7FEE7FEE7FEE7FEE704480549B5
:10035000054A064B704700008549000889010008DE
:10036000D84A0020D8500020D84C0020D84C00207B
:1003700070B5064600F020F9056806F10B0020F084
:100380000704B4429CBF002070BD2B466A68BAB116
:100390001068A04210D304F1080188423CBF5068A5
:1003A000586007D35168101941601168091B01603A
:1003B00058601460101D70BD13465268002AE7D1C2
:1003C0002146284600F000F90028DED170BD53EA2E
:1003D000020C00F069802DE9F04B4FF00006002B75
:1003E0001FBFB3FA83F503FA05F424FA05F65E405D
:1003F00012BF1643B2FA82F502FA05F4C5F12005E0
:100400001EBF22FA05FC44EA0C04203556EA044CCF
:100410004FEA144418BF641C4FF000084FF0000965
:10042000904271EB030C39D3002919BFB1FA81F75F
:1004300001FA07F6B0FA80F700FA07F6C7F12007CD
:100440001EBF20FA07FC46EA0C062037B6FBF4FC78
:10045000A7EB0507103F07F01F0BCBF120060CFAA6
:100460000BFB2CFA06F644BFB3460026202FA4BF90
:100470005E464FF0000B5BEA060C08BF4FF0010B25
:1004800019EB0B09ABFB027C48EB0608C01B06FB13
:1004900002CC0BFB03CC71EB0C01C1E70B4602460F
:1004A00041464846BDE8F08B13B54FF000004FF0D1
:1004B0000001AFF30080BDE81C40704710B5203A42
:1004C000C0F00B80B1E81850203AA0E81850B1E80D
:1004D0001850A0E81850BFF4F5AF5FEA027C24BFC3
:1004E000B1E81850A0E8185044BF18C918C0BDE8BA
:1004F00010405FEA827C24BF51F8043B40F8043B83
:1005000008BF7047D20728BF31F8023B48BF11F837
:10051000012B28BF20F8023B48BF00F8012B704791
:100520004FF000020429C0F0128010F0030C00F01C
:100530001B80CCF1040CBCF1020F18BF00F8012B9A
:10054000A8BF20F8022BA1EB0C0100F00DB85FEA68
:10055000C17C24BF00F8012B00F8012B48BF00F834
:10056000012B70474FF0000200B5134694469646A3
:10057000203922BFA0E80C50A0E80C50B1F12001B6
:10058000BFF4F7AF090728BFA0E80C5048BF0CC064
:100590005DF804EB890028BF40F8042B08BF7047C2
:1005A00048BF20F8022B11F0804F18BF00F8012B34
:1005B0007047704770477047004870477C4A00207A
:1005C000704770477047704738B504460A460020A8
:1005D0006946AFF30080002808BF38BD0246009985
:1005E000204600F075F8012038BD012000F0A2B8C7
:1005F000F8B5AFF30080054600200C46102000BF80
:100600000646A819A0420DD9324669460020AFF32C
:100610000080070008BF00F08DF80098A04218BFC6
:100620000546C419FFF7C8FF05600746F01D20F016
:1006300007004619284600F00AF8B44208BFF8BD82
:10064000A21B31463868BDE8F84000F041B80021EF
:100650000160C0E9011070471020704770B5044672
:10066000051FFFF7A9FF0068002C14BF446870BD88
:10067000002C18BFAC423CBF20466468F8D3016828
:100680000A18AA4218BF456003D12A6805461144DA
:10069000016028684119A1421CBF6C6070BD61688F
:1006A000696021680844286070BD10B500F00CF83E
:1006B000006810BD10B5044600F006F8046010BDD7
:1006C00000487047744A002000487047744A002070
:1006D000034640688C46002818BF88423CBF03464A
:1006E0004068F8D318681844884207D00CF103001A
:1006F00020F00700001D411A521A0146081D0A6029
:10070000FFF7ACBF1FB584B000200A9C06AB04AA5B
:1007100002A90094AFF3008018B1DDE9020108B02E
:1007200010BD0348204000F040F800200146F6E7E5
:100730000000207C10B500F03FF8BDE8104000F04C
:100740002FB870477546FFF7BBFFAE4605006946F8
:10075000534620F00700854618B020B5FFF7F6FD98
:10076000BDE820404FF000064FF000074FF00008B2
:100770004FF0000B21F00701AC46ACE8C009ACE833
:10078000C009ACE8C009ACE8C0098D46704710B597
:100790000446AFF300802046BDE81040FFF761BD7E
:1007A000002801D000F030B8704710B500F04CF8C8
:1007B000BDE81040FFF7F4BF10B5012805D00021B7
:1007C00003A000F027F8012010BD09A1F8E7000000
:1007D00053494752544D454D3A204F7574206F662A
:1007E0002068656170206D656D6F72790000000092
:1007F0003A2048656170206D656D6F727920636F76
:10080000727275707465640001491820ABBEFEE712
:100810002600020070B505460C460A2000E06D1C5B
:1008200000F068F835B128780028F8D102E0641C9F
:1008300000F060F814B120780028F8D1BDE87040CD
:100840000A2000F057B8000010B5022803D041017B
:1008500003D50DA112E0002010BD010101D50FA1AB
:100860000CE0C10001D511A108E0810001D512A161
:1008700004E0400001D513A100E0002115A0FFF71E
:10088000C9FF012010BD0000496E76616C696420CB
:100890004F7065726174696F6E000000446976691B
:1008A0006465204279205A65726F00004F76657248
:1008B000666C6F7700000000556E646572666C6F41
:1008C00077000000496E6578616374205265737526
:1008D0006C7400005349474650453A204172697490
:1008E000686D6574696320657863657074696F6E9F
:1008F0003A20000008B569468DF800000320ABBE21
:1009000008BD00000DE004F003FB064800F01EF8EF
:10091000012006F01CFA034800F08EF8012006F0D2
:1009200016FAF0E78C0C002000BFFEE710B5024875
:1009300000F0FFFC10BD0000D405002010B50248F7
:1009400000F0F7FC10BD0000FC0500201FB50446B8
:10095000D4ED000AB0EE600A10209FED301ADFEDF2
:10096000300A06F02EF980B2ADF80400D4ED010A89
:10097000B0EE600A10209FED2B1ADFED2B0A06F077
:1009800020F980B2ADF80600D4ED020AB0EE600A9C
:1009900010209FED241ADFED240A06F012F980B230
:1009A000ADF80800D4ED030AB0EE600A10209FED08
:1009B0001D1ADFED1D0A06F004F980B2ADF80A0039
:1009C0004FF40C701949086000208860C860082046
:1009D0000861BDF80400001215490870BDF8040054
:1009E0004870BDF8060000128870BDF80600C87097
:1009F000BDF8080000120871BDF808004871BDF884
:100A00000A0000128871BDF80A00C8716B460A46D8
:100A10000649084800F08BFA1FBD0000000048425C
:100A2000000048C2DA0FC940DA0FC9C06C0D0020BF
:100A300000030020FC0500201FB50446D4ED040A85
:100A4000B0EE600A10209FED201ADFED200A06F0BC
:100A5000B8F880B2ADF80C00D4ED050AB0EE600A2B
:100A600010209FED191ADFED190A06F0AAF880B2DE
:100A7000ADF80E0040F23120154908600020886072
:100A8000C86008200861BDF80C0000121149087008
:100A9000BDF80C004870BDF80E0000128870BDF85B
:100AA0000E00C8700C480088001208710A480078CF
:100AB000487100208871C8716B460A46044907488E
:100AC00000F035FA1FBD0000DA0FC940DA0FC9C0C7
:100AD0006C0D0020000300200E030020FC05002008
:100AE00038B505460C464FF400700D4908600020EB
:100AF0008860C86008200861280A0A4908704D709B
:100B0000200A8870CC700020087148718871C87103
:100B10006B460A460249044800F009FA38BD000055
:100B2000540D0020F8020020D40500200FB438B581
:100B300004460E48046000200C498860C860082004
:100B40000861FF200A49087048708870C8700871F1
:100B500048718871FD20C8716B460A46034905A893
:100B600000F0E5F938BC5DF814FB0000540D0020DE
:100B7000F80200200FB438B504460E480460002087
:100B80000C498860C86008200861FF200A49087085
:100B900048708870C870087148718871FC20C871ED
:100BA0006B460A46034905A800F0C1F938BC5DF858
:100BB00014FB0000540D0020F80200200FB42DEDAE
:100BC000060B2DE9F0432DED068B81B0B0EE40AA67
:100BD000B0EE608AF0EE418AB0EE619AF0EE429A91
:100BE000044610209FED2F1ADFED2F0AB0EE4A0ABF
:100BF00005F0E7FF85B20C20B3EE041AFBEE040A01
:100C0000B0EE480A05F0DDFF86B20C209FED271AF2
:100C1000DFED270AB0EE680A05F0D3FF87B20C209B
:100C2000B1EE041ADFED220AB0EE490A05F0C9FF61
:100C30001FFA80F80C20B2EE041AFAEE040AB0EEA5
:100C4000690A05F0BEFF1FFA80F91A480460002007
:100C500018498860C8600820086128121649087081
:100C60004D70C6F3071088703007000E40EA272049
:100C7000C8700F71C8F3071048714FEA0870000E72
:100C800040EA2920887181F807906B460A46094995
:100C900015A800F04CF901B0BDEC068BBDE8F003DF
:100CA0005DF82CFBDC0F4940DC0F49C00000FA4323
:100CB00000000000540D0020F802002010B502488A
:100CC00001F04AF910BD00000408002010B50248E8
:100CD00001F042F910BD00004407002010B50248A1
:100CE00001F03AF910BD00006408002010B5024878
:100CF00001F032F910BD0000A40700200146087879
:100D000010381823B0FBF3F20848805CC865032A4A
:100D100005D908686FF30900001D886503E00868BD
:100D20006FF309008865886D70470000D89200084D
:100D3000014600208A6A8B69CBB932B1012A0DD0F5
:100D4000022A03D0032A10D10EE000BFCB6A03F0C1
:100D50008073B3F1807F00D1012007E0CB6AB3F14B
:100D6000C07F00D1012001E000E000BF34E08B69CA
:100D7000B3F5005F1AD132B1012A07D0022A03D09D
:100D8000032A11D10AE000BF01200EE0CB6A03F074
:100D90008073B3F1807F00D1012006E0CB6AB3F10C
:100DA000C07F00D1012000E000BF15E032B1012A70
:100DB00005D0022A04D0032A0CD103E000BF00BFF3
:100DC000012008E0CB6A03F08073B3F1807F00D18B
:100DD000012000E000BF00BF7047000008B50848D0
:100DE00040680090074900980968884204D2064884
:100DF0000068401C0449086002490098086008BD6A
:100E0000001000E0400000203C0000200C49486831
:100E1000F0EE400A00BF0A494968091A01EE101AAB
:100E2000F8EE411A074991ED001AB8EE411A20EE8A
:100E3000811AF4EEC11AF1EE10FAECD370470000FB
:100E4000001000E03000002010B52DED028B82B0C4
:100E500004460E484068019020680199081A00EE87
:100E6000100AF8EE400A0A4890ED000AB8EE400A6F
:100E700080EE801AB0EE418A01982060FFF7AEFF45
:100E8000B0EE480A02B0BDEC028B10BD001000E0CD
:100E9000300000201249096841F08071104A116049
:100EA0000021104A51601146096841F001011160AA
:100EB0000D4941430D4A1160114609684FF47A7299
:100EC000B1FBF2F10A4A116008490968064AB1FB10
:100ED000F2F1084A11600021074A116070470000D2
:100EE000FCED00E0001000E040420F003000002068
:100EF00034000020380000203C000020704772B60B
:100F000000BFFEE710B5024692F82030012B01D059
:100F1000022B06D110684069084314686061002004
:100F200010BD506A40F4802050620120F8E7F0B50F
:100F300004460D461E4694F8207020688368A86811
:100F400000B900E000BF012F01D0022F7DD103F0D6
:100F5000806030B903F0006018B903F080500028B9
:100F60007ED0C3F30161012088403060A86860B979
:100F7000B5F800C0E86840EA4C5C206800F5C07035
:100F800000EB0110C0F800C00FE0D5E901C040EA55
:100F9000CC00D5F80CC040EA0C00D4F800C00CF529
:100FA000C07C0CEB011CCCF80000D5F810C0206808
:100FB00000F5C07000EB0110C0F804C0287D0128C6
:100FC0000ED1206800F5C07000EB0110406840F4BD
:100FD000807C206800F5C07000EB0110C0F804C0F0
:100FE000D079000692F806C040EA0C4092F805C09D
:100FF00040EA0C2092F804C040EA0C00D4F800C08B
:101000000CF5C07C0CEB011CCCF80C00D078000671
:1010100092F802C040EA0C4092F801C040EA0C206D
:1010200092F800C040EA0C00D4F800C00CF5C07C77
:101030000CEB011CCCF80800206800F5C07000EB38
:101040000110006840F0010C01E00FE008E02068AA
:1010500000F5C07000EB0110C0F800C00020F0BD2A
:10106000606A40F4001060620120F8E7606A40F4B2
:10107000802060620120F2E7F0B504460A4621684C
:1010800094F82050012D01D0022D7ED1424901F566
:101090000071086840F001000860086820F47C5086
:1010A00008600868566A40EA06200860107D00F073
:1010B0001F06012000FA06F3C8699843C861A1F52C
:1010C0000071D069C8B9D1F80C029843C1F80C027C
:1010D000908880B2968940EA064601F510705769FB
:1010E00040F83760108880B2168940EA064601F55C
:1010F0001070576900EBC7004660D069012819D10C
:10110000D1F80C021843C1F80C02908880B21688FE
:1011100040EA064601F51070576940F8376090893B
:1011200080B2168940EA064601F51070576900EB57
:10113000C7004660906928B9D1F804029843C1F805
:10114000040204E0D1F804021843C1F80402106953
:1011500028B9D1F814029843C1F8140204E0D1F878
:1011600014021843C1F81402106A012804D1D1F8FE
:101170001C021843C1F81C02D1F8000220F0010043
:10118000C1F800020020F0BDFFE7606A40F4802053
:1011900060620120F7E7000000640040704770B50E
:1011A000044694F82050012D01D0022D7DD151B973
:1011B0002068C06800F0030080B9606A40F4001045
:1011C0006062012070BD2068006900F0030028B94A
:1011D000606A40F4001060620120F3E7206800F5C7
:1011E000D87000EB0110006800F004009060906877
:1011F00040B9206800F5D87000EB01100068400D80
:10120000106007E0206800F5D87000EB011000685E
:10121000C0085060206800F5D87000EB011000682D
:1012200000F00200D060206800F5D87000EB0110DB
:10123000406800F00F00082802D30820106108E081
:10124000206800F5D87000EB0110406800F00F0036
:101250001061206800F5D87000EB0110406800F4C0
:101260007F40000A9061206800F5D87000EB011003
:101270004068000C5061206800F5D87000EB011048
:1012800080681870206800F5D87000EB0110806845
:1012900000F47F40000A5870206800F5D87000EB19
:1012A0000110806800F47F0000E03CE0000C9870C2
:1012B000206800F5D87000EB01108068000ED8702F
:1012C000206800F5D87000EB0110C0681871206824
:1012D00000F5D87000EB0110C06800F47F40000AF0
:1012E0005871206800F5D87000EB0110C06800F458
:1012F0007F00000C9871206800F5D87000EB011099
:10130000C068000ED87131B92068C06840F0200074
:101310002668F06005E02068006940F0200026683B
:10132000306100204EE7606A40F480206062012056
:1013300048E72DE9F05F04460025206846692068EB
:10134000D0F80490206887682068D0F80CA0206846
:10135000D0F810B02068D0F8188006F001000028FE
:1013600055D007F00100C0B101202168886007F066
:10137000020018B1204600F07EFD0EE007F00400E8
:1013800010B145F4006508E007F0080010B145F41D
:10139000805502E0204600F06DFD07F48070C8B172
:1013A0004FF480702168886007F4007018B12046FF
:1013B00000F063FD0EE007F4806010B145F40055C5
:1013C00008E007F4006010B145F4804502E02046D3
:1013D00000F052FD07F48030C8B14FF4803021682E
:1013E000886007F4003018B1204600F048FD0EE098
:1013F00007F4802010B145F4004508E007F4002010
:1014000010B145F4803502E0204600F037FD06F0CB
:10141000080038B10AF0100020B145F40075102022
:101420002168C86006F0040040B10AF0080028B145
:1014300008202168C860204600F00CFA06F002007F
:1014400038B12068C06800F0030010B1204600F0F9
:1014500003FA06F0400038B10BF0100020B145F45B
:10146000806510202168086106F0200040B10BF073
:10147000080028B1082021680861204600F0C8FC57
:1014800006F0100038B12068006900F0030010B1C8
:10149000204600F0BEFC06F4003040B109F0100018
:1014A00028B1102021684860204600F0B3FC06F403
:1014B000803040B109F0080028B108202168486058
:1014C000204600F0DDFC06F4004088B309F004007B
:1014D00078B306F4807020B108F0010008B145F03F
:1014E000010506F4007020B108F0020008B145F0D3
:1014F000020506F4806020B108F0040008B145F050
:10150000040506F40060A0B108F0700088B108F08E
:101510007000402817D006DC10280BD020280CD0F3
:10152000302819D10CE0502810D0602814D110E0D8
:101530001DE019E045F008050FE045F010050CE04E
:1015400045F0200509E045F0400506E045F080053E
:1015500003E045F4807500E000BF00BF20688069AB
:1015600020F07000216888610420216848602DB156
:10157000606A284360622046FFF710FEBDE8F09FD6
:1015800070B504460CB9012070BD94F8200010B964
:10159000204600F0AFF82068006840F001002168A4
:1015A000086000F069FF05460DE000F065FF401B94
:1015B0000A2808D9606A40F400306062052084F887
:1015C00020000120E0E72068406800F001000028CA
:1015D000EBD02068006820F002002168086000F06D
:1015E0004BFF05460DE000F047FF401B0A2808D9D5
:1015F000606A40F400306062052084F82000012019
:10160000C2E72068406800F002000028EBD1207E8D
:10161000012806D12068006840F080002168086039
:1016200005E02068006820F0800021680860607E86
:10163000012806D12068006840F040002168086059
:1016400005E02068006820F0400021680860A07E66
:10165000012806D12068006840F020002168086059
:1016600005E02068006820F0200021680860E07E26
:10167000012806D12068006820F010002168086069
:1016800005E02068006840F0100021680860207FB5
:10169000012806D12068006840F008002168086031
:1016A00005E02068006820F0080021680860607F7D
:1016B000012806D12068006840F004002168086015
:1016C00005E02068006820F0040021680860D4E983
:1016D0000201084321690843616908436168491EA2
:1016E00008432168C86100206062012084F820005E
:1016F000002049E710B586B00446142101A8FEF782
:1017000031FF4E492068884241D14D480068401C55
:101710004B4908600846006801280FD100BF00202F
:1017200000904848006840F000704649086008464C
:10173000006800F00070009000BF00BF00BF0020F4
:10174000009040481038006840F008003D491039CA
:1017500008600846006800F00800009000BF00BF65
:1017600003200190022002900020039003200490A7
:101770000920059001A9344800F084FD00220521CC
:10178000142000F00DFF142000F0F6FE54E02F4965
:101790002068884250D100BF00200090294800688E
:1017A00040F08060274908600846006800F08060CB
:1017B000009000BF00BF22480068401C204908601C
:1017C0000846006801280FD100BF002000901D4886
:1017D000006840F000701B4908600846006800F08F
:1017E0000070009000BF00BF00BF002000901548AF
:1017F0001038006840F002001249103908600846AD
:10180000006800F00200009000BF00BF602001905F
:1018100002200290002003900320049009200590EC
:1018200001A90B4800F02EFD00220521402000F008
:10183000B7FE402000F0A0FE06B010BD00640040DE
:101840001000002040380240000C024000680040B8
:10185000000402407047000010B58AB0044601AB96
:1018600003AA00212046FFF79AFCFE48844277D164
:101870000398042875D003DC48B1022872D173E0C4
:10188000A0F2012000286ED00128F7D183E19DF855
:1018900006009DF8051040EA012000EE100A9DF8B0
:1018A000070000019DF8081040EA111000EE900AB0
:1018B0009DF809009DF8081001F00F0140EA012091
:1018C00001EE100A9DF8040000F0F000E6490874EB
:1018D0009DF8040000F00F01E34841749DF80400F6
:1018E0000111E1488174F8EE401A9FEDE02A61EEA3
:1018F000821AB0EE002A61EE821A9FEDDD2AC1EE57
:10190000822ADFEDDA1A72EEE11AC0ED051AF8EE5E
:10191000601AB3EE042A61EE821AB0EE002A61EE7C
:10192000821A9FEDD42AC1EE822AF3EE041A72EED7
:10193000E11AC0ED061AF8EE411AB2EE042A61EE81
:10194000821AB0EE002A61EE821A9FEDCA2AC1EE19
:10195000822AF2EE041A72EEE11AC0ED071A56E17D
:1019600056E16DE052E1D7E09DF806009DF80510C4
:1019700040EA012000EE100A9DF8070000019DF8E2
:10198000081040EA111000EE900A9DF809009DF839
:10199000081001F00F0140EA012001EE100A9DF845
:1019A000040000F0F000B04981F820009DF8040028
:1019B00000F00F01AC4880F821109DF804000111DF
:1019C000A94880F82210F8EE401A9FEDA82A61EE8F
:1019D000821AB0EE002A61EE821A9FEDA52AC1EEAE
:1019E000822ADFEDA21A72EEE11AC0ED091AF8EEB2
:1019F000601AB3EE042A61EE821AB0EE002A61EE9C
:101A0000821ADFED9C2A81EEA22AF3EE041A72EE0E
:101A1000611AC0ED0A1AF8EE411AB2EE042A61EE1C
:101A2000821AB0EE002A61EE821ADFED922A81EE70
:101A3000A22AF2EE041A72EE611AC0ED0B1AE6E069
:101A40009DF806009DF8051040EA012000EE100AFE
:101A50009DF8070000019DF8081040EA111000EE03
:101A6000900A9DF809009DF8081001F00F0140EA66
:101A7000012001EE100A9DF8040000F0F0007A4900
:101A800081F830009DF8040000F00F01764880F8DE
:101A900031109DF804000111734880F83210F8EEFF
:101AA000401A9FED722A61EE821AB0EE002A61EEB2
:101AB000821ADFED6F2A81EEA22ADFED6C1A72EE38
:101AC000611AC0ED0D1AF8EE601AB3EE042A61EE49
:101AD000821AB0EE002A61EE821A9FED662AC1EEEC
:101AE000822AF3EE041A72EEE11AC0ED0E1AF8EE35
:101AF000411AB2EE042A61EE821AB0EE002A61EEBB
:101B0000821ADFED5C2A81EEA22AF2EE041A72EE4E
:101B1000611AC0ED0F1A7AE05748008800B25649A2
:101B200008819DF805009DF8041040EA0120524903
:101B300008809DF807009DF8061040EA012000B2D9
:101B40004D4948809DF809009DF8081040EA0120A1
:101B500000B2494988809DF80A00887108460088CB
:101B6000B1F90810401AB0F5805F05DD4348006BFD
:101B7000401E424908630DE03F4800883E49B1F9E4
:101B80000810401A10F5805F04DA3C48006B401CD6
:101B90003A4908633BE03848408901B236484182FF
:101BA0009DF805009DF8041040EA01203249488163
:101BB0009DF807009DF8061040EA012001B22E486A
:101BC00081819DF809009DF8081040EA012001B2CA
:101BD0002948C1819DF80A1001744189B0F91200A9
:101BE000081AB0F5805F04DD2448016D491E0165C7
:101BF0000BE021484189B0F91200081A10F5805F06
:101C000003DA1E48016D491C016500E000BFF1E0E8
:101C10001B488442FBD10398B0F5087F04D0A0F2A2
:101C2000212000287DD18EE09DF805009DF804104C
:101C300040EA012000EE100AB8EE400A114880ED9B
:101C4000000A9DF807009DF8061040EA012000EE0A
:101C5000100AB8EE400A0B4880ED010A9DF8090011
:101C600012E00000D4050020D40C0020DC0F494015
:101C700000FF7F4700F07F45C00C0020C408002013
:101C8000FC050020140D00209DF8081040EA0120FA
:101C900000EE100AB8EE400A574880ED020A9DF89F
:101CA0000B009DF80A1040EA012000EE100AB8EE81
:101CB000400A514880ED030A014691ED000ABDEE4D
:101CC000C00A10EE100A1021DFED4C0A9FED4C0AFD
:101CD00005F08CFB4B4880ED000A474991ED010A65
:101CE000BDEEC00A10EE100A1021DFED470A9FED8D
:101CF000470A05F07BFB434880ED010A3E4991ED20
:101D0000020ABDEEC00A10EE100A1021DFED3E0AF5
:101D10009FED3E0A05F06AFB3A4880ED020A36491B
:101D200000E066E091ED030ABDEEC00A10EE100A75
:101D30001021DFED350A9FED350A05F057FB3148DC
:101D400080ED030A55E09DF805009DF8041040EA77
:101D5000012000EE100AB8EE400A274880ED040A80
:101D60009DF807009DF8061040EA012000EE100AD9
:101D7000B8EE400A204880ED050A9DF809009DF85C
:101D8000081040EA01201C4908839DF80B009DF8CB
:101D90000A1040EA01201849488391ED040ABDEE7B
:101DA000C00A10EE100A1021DFED170A9FED170A86
:101DB00005F01CFB134880ED040A0F4991ED050A5C
:101DC000BDEEC00A10EE100A1021DFED0F0A9FEDE4
:101DD0000F0A05F00BFB0B4880ED050A0648008B47
:101DE000000A084988830448007EC8830248408B63
:101DF000488300BF0AB010BD140D00200000484207
:101E0000000048C2340D0020DA0FC940DA0FC9C003
:101E100070477047704770B5044694F82000012859
:101E200022D1022084F820002068006820F0010000
:101E30002168086000F020FB05460DE000F01CFB67
:101E4000401B0A2808D9606A40F40030606205200F
:101E500084F82000012070BD2068406800F0010077
:101E60000028EBD16062F6E7606A40F4002060620F
:101E70000120F0E770477047704770477047704720
:101E8000704770B50446A56D00F0F6FA064694F862
:101E90003500022808D08020606500BF002084F84B
:101EA000340000BF012070BD2068006820F01600DB
:101EB000216808602068406920F08000216848613E
:101EC000206C08B9A06C28B12068006820F00800D8
:101ED000216808602068006820F00100216808601F
:101EE00010E000F0C9FA801B05280BD9202060659E
:101EF000032084F8350000BF002084F8340000BFC0
:101F00000320D0E72068006800F001000028E8D135
:101F100094F85C103F208840A860012084F83500C8
:101F200000BF002084F8340000BF00BFBBE70146BB
:101F300091F83500022803D08020486501207047C1
:101F4000052081F835000868006820F001000A6863
:101F500010600020F3E70000F8B504460020009070
:101F60008C4800684FF41651B0FBF1F7A56D2E6850
:101F700094F85C1008208840304098B120680068D0
:101F800000F0040070B12068006820F004002168AF
:101F9000086094F85C1008208840A860606D40F0EC
:101FA0000100606594F85C1001208840304068B101
:101FB0002068406900F0800040B194F85C10012076
:101FC0008840A860606D40F00200606594F85C1085
:101FD00004208840304068B12068006800F00200AA
:101FE00040B194F85C1004208840A860606D40F017
:101FF0000400606594F85C1010208840304078B38D
:102000002068006800F0080050B394F85C101020BD
:102010008840A8602068006800F4802080B12068B3
:10202000006800F4002028B9206CC8B12046216C5B
:10203000884715E0A06C98B12046A16C88470FE056
:102040002068006800F4807028B92068006820F0DB
:10205000080021680860206C10B12046216C884778
:1020600094F85C10202088403040002865D020681B
:10207000006800F0100000285FD094F85C10202069
:102080008840A86094F83500052828D120680068A9
:1020900020F01600216808602068406920F0800068
:1020A00021684861206C08B9A06C28B120680068DC
:1020B00020F008002168086094F85C103F208840F8
:1020C000A860012084F8350000BF002084F83400A7
:1020D00000BF206D10B12046216D8847F8BD2068F3
:1020E000006800F4802080B12068006800F40020BF
:1020F00028B9606C10B12046616C88471DE0E06B28
:10210000D8B12046E16B884717E02068006800F4EA
:10211000807068B92068006820F0100021680860AD
:10212000012084F8350000BF002084F8340000BF8F
:10213000E06B10B12046E16B8847606D38B3606D8D
:1021400000F00100F0B1052084F835002068006837
:1021500020F001002168086000BF0098401C00903A
:10216000B84200D905E02068006800F001000028AE
:10217000F3D100BF012084F8350000BF002084F8AF
:10218000340000BFE06C10B12046E16C884700BF0E
:10219000A4E70000200000202DE9F04104460025BE
:1021A00000F06AF9074614B90120BDE8F081606AC1
:1021B00000B100BF022084F8350000BF002084F881
:1021C000340000BF2068006820F00100216808602A
:1021D0000AE000F051F9C01B052805D920206065F0
:1021E000032084F83500E0E72068006800F0010073
:1021F0000028EED12068056821480540D4E9010196
:102200000843E16808432169084361690843A169FB
:102210000843E1690843216A08430543606A0428CA
:1022200003D1D4E90B010843054320680560206809
:10223000456925F00705606A0543606A04280DD1E9
:10224000A06A0543E06A48B12046FEF771FD28B157
:1022500040206065012084F83500A6E720684561CC
:102260002046FEF74BFD064694F85C103F20884060
:10227000B06000206065012084F83500002094E7FC
:102280003F8010F0F8B502460B46002500240020E0
:102290000021D6E0012606FA01F51E6806EA0504CB
:1022A000AC4274D11E7906F00306012E04D01E79CB
:1022B00006F00306022E13D190684F000326BE409D
:1022C000B0434F00DE68BE40304390605068012646
:1022D0008E40B0431E79C6F300168E4030435060E6
:1022E0001E7906F00306032E09D0D0684F0003269E
:1022F000BE40B0434F009E68BE403043D0601E7960
:1023000006F00306022E13D1CF0802F1200656F87C
:1023100027004E07F70E0F26BE40B0434F07FF0EB3
:102320001E69BE403043CF0802F1200646F8270060
:1023300010684F000326BE40B0431E7906F0030626
:102340004F00BE40304310605E6806F44036002EF9
:1023500076D000BF002600963C4E366846F4804694
:102360003A4F3E603E46366806F48046009600BF0F
:1023700000BF374E8F0856F827008E07370F0F26FD
:10238000BE40B043334EB24202D1002624E057E0B3
:10239000314EB24201D101261EE0304EB24201D18F
:1023A000022619E02E4EB24201D1032614E02D4E32
:1023B000B24201D104260FE02B4EB24201D10526D4
:1023C0000AE02A4EB24201D1062605E0284EB2426A
:1023D00001D1072600E008268F073F0FBE4030439B
:1023E0001B4E8F0846F82700224E3068A0435E68D7
:1023F00006F4801606B120431E4E3060361D30684C
:10240000A0435E6806F4001606B12043194E361D3F
:102410003060184E361F3068A0435E6806F4003600
:1024200006B12043134E361F3060361F3068A0437C
:102430005E6806F4803606B120430E4E083E3060DA
:10244000491C1029FFF426AFF8BD000044380240B3
:102450000838014000000240000402400008024029
:10246000000C02400010024000140240001802401C
:10247000001C0240083C0140014800687047000011
:102480001400002003480068034909780844014902
:1024900008607047140000201C00002010B50D4893
:1024A000006840F400700B4908600846006840F47A
:1024B000806008600846006840F48070086003206F
:1024C00000F0ACF80F2000F007F800F02BF8002027
:1024D00010BD0000003C024070B504460E48007874
:1024E0004FF47A71B1FBF0F00C490968B1FBF0F5DB
:1024F000284600F035FC08B1012070BD102C07D231
:1025000000222146501E00F04BF80548046001E00F
:102510000120F2E70020F0E71C000020200000204E
:102520001800002008B500BF002000901148006886
:1025300040F480400F4908600846006800F480407D
:10254000009000BF00BF00BF00200090081F00687F
:1025500040F08050091F08600846006800F0805075
:10256000009000BF00BF00220F21901E00F018F85D
:1025700008BD0000443802400146084600280DDB33
:1025800000BF00BF00F01F0301229A4043099B00D7
:1025900003F1E023C3F8002100BF00BF00BF704774
:1025A0002DE9F05F80460D461646002702F0FCFE3E
:1025B000074639462A46334601F00700C0F1070AAC
:1025C000BAF1040F02D94FF0040A01E0C0F1070A82
:1025D000D14600F1040ABAF1070F02D24FF0000A07
:1025E00001E0A0F1030AD4464FF0010A0AFA09FA01
:1025F000AAF1010A0AEA020A0AFA0CFA4FF0010BE0
:102600000BFA0CFBABF1010B0BEA030B4AEA0B04D0
:102610002146404602F0D0FEBDE8F09F00BF00F02A
:102620000702064B19684FF6FF031940044B0B4392
:1026300043EA0221014B196000BF70470CED00E036
:102640000000FA0570B504460D460CB9012070BDB6
:102650005848006800F00700A84209D255490D709B
:102660000846006800F00700A84201D00120EEE70C
:10267000207800F0020002281DD1207800F004002C
:10268000042805D14C48006840F4E0504A490860ED
:10269000207800F00800082805D14748006840F479
:1026A0006040454908604448006820F0F000A16897
:1026B000084341490860207800F00100A8B3606831
:1026C000012807D13C4808380068C0F34040B8B939
:1026D0000120BCE76068022802D06068032807D1A7
:1026E000354808380068C0F3406048B90120AEE7BB
:1026F000314808380068C0F3400008B90120A6E757
:102700002D48006820F00300616808432A490860EA
:10271000FFF7B2FE064609E0FFF7AEFE801B41F26E
:102720008831884202D9032091E707E022480068F7
:1027300000F00C006168B0EB810FEDD11D4800681E
:1027400000F00700A84209D91A490D700846006830
:1027500000F00700A84201D0012078E7207800F0BF
:102760000400042807D11448006820F4E050E16810
:10277000084311490860207800F00800082808D1B3
:102780000D48006820F46040216940EAC1000A4910
:10279000086000F03FF808490968C1F30311074ACF
:1027A000515CC8400649086006480068FFF794FE7F
:1027B00000204CE7003C024008380240E09200084C
:1027C0002000002018000020014800687047000029
:1027D0002000002000B5FFF7F7FF04490968C1F3A6
:1027E0008221034A515CC84000BD00000838024005
:1027F000F092000800B5FFF7E7FF04490968C1F34C
:102800004231034A515CC84000BD00000838024014
:10281000F09200082DE9F047002400250026A1468B
:102820002548006800F00C0020B1042805D00828D5
:102830003AD105E0DFF8849039E0DFF8849036E0A3
:102840001D48001F006800F03F041B48001F00687F
:1028500000F4800078B11A481749091F0968C1F3CC
:102860008811A0FB01700146224600233846FDF77F
:10287000AEFD05460EE011480F49091F0968C1F376
:102880008811A0FB01700146224600233846FDF75F
:102890009EFD05460848001F0068C0F30140401C2B
:1028A0004600B5FBF6F902E0DFF8109000BF00BF6C
:1028B0004846BDE8F0870000083802400024F400D4
:1028C00040787D01F8B504460CB90120F8BD2078A8
:1028D00000F00100002874D0F948006800F00C00F6
:1028E00004280DD0F648006800F00C00082813D129
:1028F000F348001F006800F48000B0F5800F0BD192
:10290000EF4808380068C0F34040002859D060689C
:10291000002856D10120D9E700BF6068B0F5803F9C
:1029200008D1E7480838006840F48030E4490839A5
:1029300008601EE06068B0F5A02F0DD1E0480838AF
:10294000006840F48020DE490839086008460068C5
:1029500040F4803008600CE0D9480838006820F462
:102960008030D749083908600846006820F4802084
:10297000086000BF606890B1FFF77EFD054606E085
:10298000FFF77AFD401B642801D903209EE7CC485D
:1029900008380068C0F340400028F1D011E0FFF78C
:1029A0006BFD054606E0FFF767FD401B642801D973
:1029B00003208BE7C24808380068C0F34040002875
:1029C000F1D1207800F0020002285FD1BC480068F5
:1029D00000F00C0058B1BA48006800F00C0008285C
:1029E0001CD1B748001F006800F48000B0B9B4489B
:1029F00008380068C0F3400020B1E068012801D029
:102A0000012063E7AE480838006820F0F80021692B
:102A100040EAC100AA490839086037E0E06800B31D
:102A20000120A8490860FFF727FD054606E0FFF7EB
:102A300023FD401B022801D9032047E7A04808389E
:102A40000068C0F340000028F1D09D4808380068B5
:102A500020F0F800216940EAC1009949083908606E
:102A600014E0002097490860FFF706FD054606E0E0
:102A7000FFF702FD401B022801D9032026E79048FA
:102A800008380068C0F340000028F1D1207800F039
:102A9000080008282CD16069A8B101208A49086083
:102AA000FFF7EAFC054606E0FFF7E6FC401B0228BC
:102AB00001D903200AE782486C300068C0F3400067
:102AC0000028F1D014E000207F490860FFF7D4FC13
:102AD000054606E0FFF7D0FC401B022801D9032081
:102AE000F4E677486C300068C0F340000028F1D16C
:102AF000207800F00400042870D100277048383096
:102B0000006800F0805090B900BF002000906C4831
:102B10003830006840F08050694938310860084614
:102B2000006800F08050009000BF00BF0127674898
:102B3000006800F48070B0B96448006840F48070A8
:102B400062490860FFF798FC054606E0FFF794FC31
:102B5000401B022801D90320B8E65C48006800F455
:102B600080700028F2D000BFA068012808D1544826
:102B70006830006840F001005149683108601DE08C
:102B8000A06805280DD14E486830006840F0040068
:102B90004B49683108600846006840F00100086051
:102BA0000CE047486830006820F001004449683173
:102BB00008600846006820F00400086000BFA068B4
:102BC000A8B1FFF759FC054609E0FFF755FC401B8B
:102BD00041F28831884202D9032077E626E038485E
:102BE00068300068C0F340000028EED013E0FFF723
:102BF00043FC054608E0FFF73FFC401B41F28831EB
:102C0000884201D9032061E62D4868300068C0F38E
:102C100040000028EFD1012F07D129483830006843
:102C200020F0805026493831086000BFA069002894
:102C300045D02348006800F00C0008285DD0A0694A
:102C4000022845D100201F490866FFF715FC0546FC
:102C500006E0FFF711FC401B022801D9032035E6EE
:102C6000174808380068C0F340600028F1D1D4E963
:102C700007010843616A40EA81110122A06AC2EBA0
:102C8000500041EA00412C20005D41EA00600C49FF
:102C9000091F086001200B490866FFF7EDFB054698
:102CA00006E0FFF7E9FB401B022801D903200DE6EF
:102CB000034808380068C0F340600028F1D049E0BC
:102CC0000838024000004742800E47420070004032
:102CD000002021490866FFF7CFFB054606E0FFF715
:102CE000CBFB401B022801D90320EFE51B480068FD
:102CF000C0F340600028F2D12CE0A069012800D187
:102D0000E4E51648001D0668A069012820D006F4F5
:102D10008001E06981421BD106F03F01206A8142B7
:102D200016D147F6C0703040616AB0EB811F0FD1F9
:102D300006F440310122A06AC2EB5000B1EB004F13
:102D400006D106F070612C20005DB1EB006F01D060
:102D50000120BBE50020B9E50000474200380240F1
:102D600070B504462546681EB0F1807F01D301206E
:102D70000FE0681E4FF0E02148610F214FF0FF3057
:102D800002F01AFB00204FF0E02188610720086163
:102D9000002070BD10B50346002200BF93F83C0030
:102DA000012801D1022010BD012083F83C0000BFA2
:102DB00022F0FF00CC6840EA040222F440708C68E4
:102DC00040EA040222F480604C6840EA040222F4E3
:102DD00000600C6840EA040222F480500C6940EA6A
:102DE000040222F400504C6940EA040222F48040BC
:102DF000CC6940EA04021868426400BF002083F8EE
:102E00003C0000BF00BFCEE730B502460B4600BF16
:102E100092F83C00012801D1022030BD012082F847
:102E20003C0000BF022082F83D0010684468106832
:102E3000816824F070041868044310684460184DD9
:102E40001068A8421BD01068B0F1804F17D0154D04
:102E50001068A84213D0144D1068A8420FD0134D2B
:102E60001068A8420BD0124D1068A84207D0114D2F
:102E70001068A84203D0104D1068A84205D121F077
:102E800080015868014310688160012082F83D008C
:102E900000BF002082F83C0000BF00BFBDE700007B
:102EA000000001400004004000080040000C004009
:102EB00000040140004001400018004010B50446E5
:102EC0000CB9012010BD94F83D0028B9002084F809
:102ED0003C00204600F026F8022084F83D00211D29
:102EE000206801F077FE012084F8460000BF84F8D6
:102EF0003E0001213F200155402001554120015550
:102F000000BF00BF012084F8420043200155442047
:102F100001554520015500BF012084F83D000020E7
:102F2000D0E7000008B5154A016891420FD100BFF3
:102F3000002100911249096841F00101104A116015
:102F40001146096801F00101009100BF15E00D4A2A
:102F50000168914211D100BF002100910849091F69
:102F6000096841F00401064A121F11601146096800
:102F700001F00401009100BF00BF08BD0000014046
:102F80004438024000080040014691F83D00012805
:102F900001D001207047022081F83D001A4B0868DB
:102FA00098421BD00868B0F1804F17D0174B0868C3
:102FB000984213D0164B086898420FD0154B0868FA
:102FC00098420BD0144B0868984207D0134B0868FE
:102FD000984203D0124B086898420CD10868806868
:102FE00000F00702062A0CD00868006840F00100D3
:102FF0000B68186005E00868006840F001000B6885
:1030000018600020C6E700000000014000040040F6
:1030100000080040000C0040000401400040014056
:10302000001800402DE9F04104460D46002700BF7E
:1030300094F83C00012802D10220BDE8F081012073
:1030400084F83C0000BF022084F83D0020688668B8
:1030500026F0770626F47F46206886602868502888
:1030600033D00CDC202850D004DC00284BD01028B2
:1030700051D149E0302849D040284CD139E060286E
:103080002DD0702807D0B0F5805F03D0B0F5005F79
:1030900041D10DE041E0D5E902136A68206801F0F2
:1030A0001EFE2068866846F077062068866034E059
:1030B000D5E902136A68206801F011FE2068806873
:1030C00040F480402168886027E0EA6869682068E9
:1030D00001F0F6FE5021206801F00CFE1DE0EA68C8
:1030E0006968206801F0FFFE6021206801F002FE9F
:1030F00013E0EA686968206801F0E2FE4021206878
:1031000001F0F8FD09E000BF00BF00BF296820689A
:1031100001F0F0FD01E0012700BF00BF012084F8AD
:103120003D0000BF002084F83C0000BF384684E723
:1031300010B586B00446142101A8FDF713FA124910
:10314000206888421DD100BF002000900F48006811
:1031500040F010000D4908600846006800F01000BB
:10316000009000BF00BF4FF4D440019002200290B5
:103170000020039004900120059001A90448FFF766
:1031800081F806B010BD0000000001403038024058
:10319000001002402DE9F04104460D461646002776
:1031A00000BF94F83C00012802D10220BDE8F08164
:1031B000012084F83C0000BF36B1042E1BD0082E3D
:1031C00031D00C2E5ED145E02946206801F09CFDEF
:1031D0002068806940F00800216888612068806963
:1031E00020F004002168886120688069296908430B
:1031F0002168886148E02946206801F0BDFD20680B
:10320000806940F40060216888612068806920F44A
:1032100080602168886120688069296940EA01200E
:103220002168886130E02946206801F0E3FD2068CC
:10323000C06940F008002168C8612068C06920F0BA
:1032400004002168C8612068C069296908432168B1
:10325000C86119E02946206801F008FE2068C069AD
:1032600040F400602168C8612068C06920F4806073
:103270002168C8612068C069296940EA0120216885
:10328000C86101E0012700BF00BF00BF002084F833
:103290003C0000BF384689E710B504460CB9012050
:1032A00010BD94F83D0028B9002084F83C00204669
:1032B00000F025F8022084F83D00211D206801F06F
:1032C00089FC012084F8460000BF84F83E000121FB
:1032D0003F200155402001554120015500BF00BF4E
:1032E000012084F842004320015544200155452027
:1032F000015500BF012084F83D000020D0E7704751
:1033000070B504460D4615B994F83E000BE0042D47
:1033100002D13F20005D06E0082D02D14020005D73
:1033200001E04120005D012801D0012070BD1DB9E0
:10333000022084F83E000EE0042D03D102213F203C
:10334000015508E0082D03D102214020015502E07B
:1033500002214120015501222946206801F0AEFCDE
:1033600023492068884203D022492068884201D13D
:10337000012000E0002028B12068406C40F40040AB
:10338000216848641A49206888421BD02068B0F13F
:10339000804F17D018492068884213D017492068F9
:1033A00088420FD01649206888420BD01149206806
:1033B000884207D013492068884203D01249206808
:1033C00088420CD12068806800F00706062E0CD0D9
:1033D0002068006840F001002168086005E020686E
:1033E000006840F001002168086000209EE70000AE
:1033F00000000140000401400004004000080040BB
:10340000000C00400040014000180040F0B50446A8
:103410000D46002615B994F83E000BE0042D02D1AC
:103420003F20005D06E0082D02D14020005D01E054
:103430004120005D012801D00120F0BD1DB902200E
:1034400084F83E000EE0042D03D102213F200155F7
:1034500008E0082D03D102214020015502E002219D
:103460004120015535B1042D0BD0082D10D00C2D65
:103470001CD114E02068C06840F002002168C860D8
:1034800016E02068C06840F004002168C8600FE0C2
:103490002068C06840F008002168C86008E0206823
:1034A000C06840F010002168C86001E0012600BF3C
:1034B00000BFEEBB01222946206801F0FFFB244932
:1034C0002068884203D023492068884201D1012026
:1034D00000E0002028B12068406C40F400402168E2
:1034E00048641B49206888421BD02068B0F1804F97
:1034F00017D019492068884213D01849206888429B
:103500000FD01749206888420BD0124920688842A2
:1035100007D014492068884203D0134920688842A4
:103520000ED12068806800F00707062F0ED000E05B
:103530000CE02068006840F001002168086005E0A8
:103540002068006840F0010021680860304674E798
:103550000000014000040140000400400008004059
:10356000000C0040004001400018004070477047C8
:103570002DE9F84F0446206805682068C668206871
:1035800047694FF00009CA4605F00F09B9F1000F6D
:103590000AD105F0200038B106F0200020B1204605
:1035A00001F02CFDBDE8F88FB9F1000F7CD007F0D9
:1035B000010018B906F49070002875D005F00100DC
:1035C00030B106F4807018B1606C40F001006064A6
:1035D00005F0040030B107F0010018B1606C40F054
:1035E0000200606405F0020030B107F0010018B17C
:1035F000606C40F00400606405F0080048B106F01B
:10360000200010B907F0010018B1606C40F008000C
:103610006064606C002846D005F0200028B106F0F8
:10362000200010B1204601F0E9FC20684069C0F399
:10363000801A606C00F0080010B9BAF1000F2DD0AC
:10364000204601F095FC2068406900F040004028C9
:1036500020D100BF00BF2168143151E8001F21F0C4
:1036600040002168143141E80002002AF3D100BF74
:10367000E06B50B17748E16B0865E06BFEF757FCF3
:1036800088B1E06B016D88470DE02046FFF76FFFC2
:1036900009E009E02046FFF76AFF04E02046FFF753
:1036A00066FF002060647DE7206B012878D105F07B
:1036B0001000002874D006F010000028FAD000BFD7
:1036C000002000902068006800902068406800900A
:1036D00000BF00BF2068406900F04000402860D172
:1036E000E06B006840681FFA80F8B8F1000F56D010
:1036F000A08D404553DDA4F82E80E06BC069B0F585
:10370000807F43D000BF00BF21680C3151E8001F0B
:1037100021F4807021680C3141E80002002AF3D1C5
:1037200000BF00BF00BF2168143151E8001F21F025
:1037300001002168143141E80002002AF3D100BFE2
:1037400000BF00BF2168143151E8001F21F0400084
:103750002168143141E80002002AF3D100BF202083
:1037600084F842000020206300BF00BF21680C31B4
:1037700051E8001F21F0100021680C3141E80002DF
:10378000002AF3D100BFE06BFEF77BFB02206063F1
:10379000A08DE28D801A81B22046FFF7E7FE01E797
:1037A00042E0A08DE18D401A1FFA80F8E08DD0B381
:1037B000B8F1000F37D000BF00BF21680C3151E8CD
:1037C000001F21F4907021680C3141E80002002AAA
:1037D000F3D100BF00BF00BF2168143151E8001FC2
:1037E00021F001002168143141E80002002AF3D1E0
:1037F00000BF202084F842000020206300BF00BFEB
:1038000021680C3151E8001F21F0100021680C31B3
:1038100041E80002002AF3D100BF02206063414664
:103820002046FFF7A3FEBDE605F0800030B106F0AC
:10383000800018B1204601F075FDB3E605F04000A8
:1038400030B106F0400018B1204601F0C7FBA9E6F0
:1038500000BFA7E65D4F000810B504460CB9012073
:1038600010BDA06900B100E000BF94F8410028B984
:10387000002084F84000204600F02AF8242084F834
:1038800041002068C06820F400502168C8602046CC
:1038900001F032FC2068006920F490402168086142
:1038A0002068406920F02A00216848612068C068CB
:1038B00040F400502168C86000206064202084F833
:1038C000410084F842000020606300BFC8E70000A8
:1038D00010B586B00446142101A8FCF743FE9049B8
:1038E000206888427ED100BF002000908D4800688B
:1038F00040F010008B4908600846006800F0100096
:10390000009000BF00BF00BF002000908548143821
:10391000006840F0020083491439086008460068D6
:1039200000F00200009000BF00BF00BF0020009028
:103930000846006840F0010008600846006800F092
:103940000100009000BF00BF802001900220029083
:1039500000200390032004900720059001A97248DD
:10396000FEF790FC4FF400700190022002900020BE
:103970000390032004900720059001A96B48FEF7EF
:1039800081FC6B486B4908604FF000604860002183
:1039900068488160C1604FF480610161002141612C
:1039A0008161C1614FF44031016200214162FEF743
:1039B000F3FB08B1FDF7A3FA00BF5E48E063846340
:1039C00000BF5B4878305C4908604FF00060486099
:1039D0004021594881600021C1604FF4806101613C
:1039E000002100E01AE041618161C1614FF4403182
:1039F000016200214162FEF7CFFB08B1FDF77FFABB
:103A000000BF4D48A063846300BF0022052125202C
:103A1000FEF7C6FD2520FEF7AFFD7EE04749206892
:103A200088427AD100BF002000903E48006840F0F4
:103A300020003C4908600846006800F02000009023
:103A400000BF00BF00BF0020009036481438006857
:103A500040F040003349143908600846006800F01F
:103A60004000009000BF00BF4FF48440019002204E
:103A7000029000200390032004900820059001A9E3
:103A80002F48FEF7FFFB2A4818382E4908608005AA
:103A9000486000212B488160C1604FF48061016162
:103AA000002141618161C1614FF440310162002117
:103AB0004162FEF771FB08B1FDF721FA00BF214812
:103AC000E063846300BF1A4860301F4908604FF00C
:103AD0002060486040211C4881600021C1604FF493
:103AE00080610161002141618161C1614FF4403118
:103AF000016200214162FEF74FFB08B1FDF7FFF9BB
:103B000000BF1148A063846300BF00220521472045
:103B1000FEF746FD4720FEF72FFD06B010BD000062
:103B200000100140443802400004024000000240FE
:103B30004064024044070020A40700200014014014
:103B400000180240040800206408002070477047F5
:103B500000BFFEE710B50E480E490860032048601C
:103B600000210C488160C1604FF4102101614FF4C5
:103B7000001141610021017641768176C17601779D
:103B80004177FDF7FDFC08B1FDF7B9F910BD000064
:103B900000640040D405002010B50E480E490860AE
:103BA0000320486000210C488160C1604FF410215F
:103BB00001614FF400114161002101764176817667
:103BC000C17601774177FDF7DBFC08B1FDF797F986
:103BD00010BD000000680040FC05002008B500BFD3
:103BE000002000901648006840F4800014490860E6
:103BF0000846006800F48000009000BF00BF00226B
:103C000005213920FEF7CCFC3920FEF7B5FC002257
:103C100005213A20FEF7C4FC3A20FEF7ADFC002255
:103C200005214520FEF7BCFC4520FEF7A5FC00223F
:103C300005214620FEF7B4FC4620FEF79DFC08BD9A
:103C40003038024000B595B01C2212490EA8FCF78E
:103C500035FC00210EA803F095F80F4908601C22DE
:103C60000C491C3107A8FCF729FC002107A803F028
:103C700089F80A4908601C22064938316846FCF771
:103C80001DFC0021684603F07DF80549086015B069
:103C900000BD000084920008000000200400002005
:103CA0000800002008B500BF002000902C480068E4
:103CB00040F002002A4908600846006800F002004F
:103CC000009000BF00BF00BF0020009008460068C1
:103CD00040F0400008600846006800F04000009096
:103CE00000BF00BF00BF002000900846006840F001
:103CF000010008600846006800F00100009000BF65
:103D000000BF00BF002000900846006840F0080097
:103D100008600846006800F00800009000BF00BF7F
:103D200000BF002000900846006840F08000086056
:103D30000846006800F08000009000BF00BF00BF90
:103D4000002000900846006840F010000860084617
:103D5000006800F01000009000BF00BF08BD000028
:103D60003038024000B595B00020119012901390A9
:103D700014900F9010901C2108A8FCF7F3FB202151
:103D80006846FCF7EFFB3A483A490860A7204860CC
:103D900000213848816044F61F61C1600021016143
:103DA00041618161FFF78AF808B1FDF7A8F84FF487
:103DB0008050119011A92F48FFF734F908B1FDF791
:103DC0009EF82C48FFF768FA08B1FDF798F8002034
:103DD0000F9010900FA92748FFF716F808B1FDF7CC
:103DE0008EF8602008904FF4FA60099000200A9045
:103DF0000B900C900D900E90002208A91D48FFF723
:103E0000C9F908B1FDF77BF800200990042208A940
:103E10001848FFF7BFF908B1FDF771F84FF4FA60E1
:103E20000990082208A91348FFF7B4F908B1FDF773
:103E300066F80C2208A90F48FFF7ACF908B1FDF7A6
:103E40005EF80020009001900290039004904FF4DF
:103E5000005005900020079069460648FEF79AFF3B
:103E600008B1FDF74CF80348FFF762F915B000BD43
:103E7000000001402406002000B587B00020039018
:103E8000049005900690019002901448144908602F
:103E90000020486000211248816045F20721C1607E
:103EA000002101618161FFF709F808B1FDF727F8EA
:103EB0004FF48050039003A90948FFF7B3F808B105
:103EC000FDF71DF800200190029001A90448FEF7BB
:103ED0009BFF08B1FDF713F807B000BD00080040D4
:103EE0006C06002010B50A480A4908600A48486074
:103EF000002108488160C16001610C2141610021FD
:103F00008161C161FFF7A8FC08B1FCF7F8FF10BDA3
:103F100000100140B406002000093D0010B50A4819
:103F20000A4908600A484860002108488160C16069
:103F300001610C21416100218161C161FFF78CFCAD
:103F400008B1FCF7DCFF10BD00140140FC060020A6
:103F500000093D0000BFFEE700BFFEE710B52DEDF4
:103F6000028B0446B0EE408AF0EE608AD4F8060078
:103F700090ED010A8A4880ED000A00201DE054F807
:103F8000062F411C02EB810191ED000A8449D1ED1D
:103F9000000A30EE600A216801EB800181ED000A21
:103FA0006268411C02EB810191ED000AA41F02EB43
:103FB000800181ED000A411C88B22188491E81429E
:103FC000DDDCD4F806102088801E01EB800090ED27
:103FD000000A30EE080A2088401E01EB800080EDC8
:103FE000000AD4F80A102088401E01EB8000C0EDC2
:103FF000008AD4F802002188884204D2D4F8020052
:10400000401CC4F80200102104F11A00FCF788FAE1
:1040100021886288891A88B24AE054F8061F01EBA9
:104020008001D1ED000A216801EB800191ED001AB9
:10403000616900EE101A00EE810A10EE101A61613B
:1040400054F8061901EB8001D1ED000AD4F81E10D6
:1040500000EE101A30EE800A10EE101AC4F81E108E
:10406000D4F8061001EB8001D1ED000AD4F80A1053
:1040700001EB800191ED001AD4F8221000EE101A25
:1040800000EE810A10EE101AC4F82210D4F80A10BB
:1040900001EB8001D1ED000AD4F8261000EE101AD1
:1040A00030EE800A10EE101AC4F82610411C88B2B7
:1040B00021888142B1DCD4F8220000EE100A208869
:1040C00000EE900AF8EE600A20EE200AD4F81E00F6
:1040D00000EE900AD4F8260001EE100A00EEC10AA4
:1040E000D4F81A0000EE900A208801EE100AB8EE0B
:1040F000411A20EE811AD4F81E0000EE900A01EE5B
:10410000900A00EEE11AC0EE010A10EE900AC4F81F
:104110000E009FED240A10EE100AC4F81600218844
:104120006288891A88B221E054F8061F01EB8001E9
:1041300091ED001AE16800EE101AA16800EE901AE5
:1041400000EE810A616801EB8001D1ED000A30EEDA
:10415000600AF0EEC00A216900EE101A30EE800A03
:1041600010EE101A2161A41F411C88B221888142DF
:10417000DADCD4F8160000EE100A208800EE900A6F
:10418000B8EE601AC0EE010A10EE900AC4F81600EC
:10419000D4F80E0000EE100ABDEC028B10BD00003A
:1041A0006C0000200000000070B504460D46A41C01
:1041B00024F8025C00202060A800FCF7D9F86060B9
:1041C000A800FCF7D5F8A0609FED0C0A10EE100ACD
:1041D000E0609FED0A0A10EE100A2061A9006068F5
:1041E000FCF7C0F9A900A068A41EFCF7BBF91021D8
:1041F00004F11A00FCF794F970BD00000000000003
:1042000010B52DED028B0446B0EE408AF0EE608AC8
:1042100094F8980000F0800010B1204602F014FCE1
:1042200004F18C00FCF710FE10EE100AC4F89000A8
:1042300018EE100A206118EE900A2060206800EE47
:10424000100A206900EE900A30EE600A10EE100AA3
:10425000A061D4F8A20018B1D4F8A2102046884773
:10426000A06900EE100AB5EEC00AF1EE10FA03DD07
:10427000A06900EE100A04E0A06900EE100AB1EE99
:10428000400AA06C00EE900AB4EEE00AF1EE10FADB
:104290007EDDD4F8940098BB606800EE100AA06937
:1042A00000EE900A20EE200A10EE100A6062A0686C
:1042B00000EE100AA06900EE900A60EE200AD4F821
:1042C000900000EE100A20EE800A10EE100A206323
:1042D000B4F86000022814DDA06900EE900AD4F85A
:1042E000900000EE100A04F16200FFF737FEE0686C
:1042F00000EE900A20EE200A10EE100AE0627FE045
:1043000016E0A06900EE100AE06900EE900A70EE77
:10431000600AE06800EE100A20EE801AD4F89000DF
:1043200000EE100AC1EE000A10EE900AE06267E0AB
:10433000606800EE100AD4F89400006800EE900A5D
:1043400070EE200AA06900EE100A20EE800A10EE3E
:10435000100A6062A06800EE100AD4F89400406869
:1043600000EE900A70EE200AA06900EE100A60EEDE
:10437000800AD4F8900000EE100A20EE800A10EEB9
:10438000100A2063B4F8600002281CDDA06900E078
:104390008EE000EE900AD4F8900000EE100A04F1CE
:1043A0006200FFF7DBFDE06800EE900AD4F89400AD
:1043B000806801EE100A70EE810A20EE200A10EEED
:1043C000100AE0621CE0E06800EE100AD4F89400E5
:1043D000806800EE900A30EE201AA06900EE100A04
:1043E000E06900EE900A30EE600A21EE001AD4F87F
:1043F000900000EE100AC1EE000A10EE900AE06292
:10440000D4F8A60018B1D4F8A6102046884794F82E
:10441000980000F0040010B1204602F092FB94F8DE
:10442000980000F0200010B1204602F029F994F81D
:10443000980000F0020010B1204602F0C4F994F890
:10444000980000F0400010B1204602F091F994F875
:10445000980000F0010010B1204602F02FFAA06A87
:1044600000EE100A206B00EE900A30EE200A10EEEB
:10447000100AA062606A00EE100AA06A00EE900ABC
:1044800070EE200AE06A00EE100A30EE800A10EEAC
:10449000100A606394F8980000F0100010B12046F4
:1044A00002F084FA204602F0ACFA204602F026FB25
:1044B00020696061606BA063E06AE063A069E0610D
:1044C000206B2062606B00EE100ABDEC028B10BD09
:1044D00010B52DED028B0446B0EE408AF0EE608AF6
:1044E00094F8980000F0800010B1204602F0ACFA79
:1044F00004F18C00FCF7A8FC10EE100AC4F8900040
:1045000018EE100A206118EE900A2060206800EE74
:10451000900A206901EE100A70EEC10AB0EE600A3E
:104520009FEDA31ADFEDA30A02F09BFB10EE100A29
:10453000A061D4F8A20018B1D4F8A2102046884790
:10454000A06900EE100AB5EEC00AF1EE10FA03DD24
:10455000A06900EE100A04E0A06900EE100AB1EEB6
:10456000400AA06C00EE900AB4EEE00AF1EE10FAF8
:104570007EDDD4F8940098BB606800EE100AA06954
:1045800000EE900A20EE200A10EE100A6062A06889
:1045900000EE100AA06900EE900A60EE200AD4F83E
:1045A000900000EE100A20EE800A10EE100A206340
:1045B000B4F86000022814DDA06900EE900AD4F877
:1045C000900000EE100A04F16200FFF7C7FCE068FB
:1045D00000EE900A20EE200A10EE100AE0627FE062
:1045E00016E0A06900EE100AE06900EE900A70EE95
:1045F000600AE06800EE100A20EE801AD4F89000FD
:1046000000EE100AC1EE000A10EE900AE06267E0C8
:10461000606800EE100AD4F89400006800EE900A7A
:1046200070EE200AA06900EE100A20EE800A10EE5B
:10463000100A6062A06800EE100AD4F89400406886
:1046400000EE900A70EE200AA06900EE100A60EEFB
:10465000800AD4F8900000EE100A20EE800A10EED6
:10466000100A2063B4F8600002281CDDA06900E095
:104670008EE000EE900AD4F8900000EE100A04F1EB
:104680006200FFF76BFCE06800EE900AD4F894003B
:10469000806801EE100A70EE810A20EE200A10EE0A
:1046A000100AE0621CE0E06800EE100AD4F8940002
:1046B000806800EE900A30EE201AA06900EE100A21
:1046C000E06900EE900A30EE600A21EE001AD4F89C
:1046D000900000EE100AC1EE000A10EE900AE062AF
:1046E000D4F8A60018B1D4F8A6102046884794F84C
:1046F000980000F0040010B1204602F022FA94F86D
:10470000980000F0200010B1204601F0B9FF94F8A5
:10471000980000F0020010B1204602F054F894F81E
:10472000980000F0400010B1204602F021F894F803
:10473000980000F0010010B1204602F0BFF8A06A16
:1047400000EE100A206B00EE900A30EE200A10EE08
:10475000100AA062606A00EE100AA06A00EE900AD9
:1047600070EE200AE06A00EE100A30EE800A10EEC9
:10477000100A606394F8980000F0100010B1204611
:1047800002F014F9204602F03CF9204602F0B6F996
:1047900020696061606BA063E06AE063A069E0612A
:1047A000206B2062606B00EE100ABDEC028B10BD26
:1047B000DB0F4940DB0F49C070B52DED0A8B044675
:1047C000B0EE408AF0EE608AB0EE419AF0EE619A67
:1047D000B0EE42AAF0EE62AAB0EE43BAF0EE63BACF
:1047E000B0EE44CAF0EE64CA0D46164619EE100A41
:1047F000A06418EE900A606418EE100A20649FED21
:104800001C0A10EE100A206019EE900A60601AEE81
:10481000100AA0601AEE900AE0609FED150A10EEF3
:10482000100A20631BEE100A20651BEE900A6065DB
:104830001CEE100AA0651CEE900AE065A4F860501A
:10484000294604F16200FFF7AFFC00208D3444F8E4
:10485000010CE6720021E16021618D3CA12001552F
:104860009FED030A10EE100A6063BDEC0A8B70BD69
:104870000000000010EE101A41607047F0EE400A90
:10488000F5EEC00AF1EE10FA02DDB7EE000A70474D
:10489000F5EEC00AF1EE10FA02D2BFEE000AF6E71A
:1048A0009FED010AF3E700000000000000BF0120B7
:1048B00002F04DFAFBE710B5FDF7E4FD03F022F935
:1048C000012801D003F074F810BD000000B593B0CA
:1048D000302107A8FBF746FE142102A8FBF742FE91
:1048E00000BF002001902548006840F08050234917
:1048F00008600846006800F08050019000BF00BFCB
:1049000000BF002001901E48006840F480401C4910
:1049100008600846006800F48040019000BF00BFB6
:104920000220079001200A9010200B9002200D9089
:1049300000210E9108210F91A821109102211191BF
:104940000421129107A8FDF7BDFF08B1FCF7D7FAC3
:104950000F20029002200390002004904FF4A050FA
:1049600005904FF480500690052102A8FDF76AFEDD
:1049700008B1FCF7C4FA13B000BD00004038024093
:10498000007000400348006840F47000014908606E
:104990007047000088ED00E010B52DED108B88B059
:1049A0000446F0EE409A9FED7B0AB0EE408A9FED00
:1049B000790AF0EE408A9FED770AB0EE409A9FEDBB
:1049C000750AF0EE40FA9FED730A8DED070A9FED30
:1049D000710AB0EE40FA9FED6F0A8DED060A94ED74
:1049E000070A30EE690A8DED060A94ED020AD4ED4D
:1049F000000A20EE200A84ED010A94ED030AD4EDAA
:104A0000010A20EE200AD4ED010A20EE200AB0EEC1
:104A1000408A94ED010AD4ED060A20EE200AF0EE59
:104A2000408A9DED060A30EE280AB0EE409A19EE53
:104A3000100A04F031FACDE900019DED000B00F001
:104A400077FD8DED020B9FED540B53EC102B9DED7C
:104A5000020B51EC100B03F079FC41EC1E0B18EE2D
:104A6000100A04F019FA53EC1E2BCDE904019DED58
:104A7000040B51EC100B03F0EDFA41EC1C0B18EE9B
:104A8000100A04F009FA41EC1D0B53EC1C2B03F047
:104A90005DFC41EC1B0BB0EE4B0AF0EE6B0A00F034
:104AA00051FDB0EE40AAF0EE60AA51EC1A0B03F0F3
:104AB0006FF90FEE900AB0EE490AFFF7DFFE7FEEC6
:104AC000C80A60EE200AB0EE001A80EE810A30EECD
:104AD000280A8DED070AF0EE480AB0EE490A02F006
:104AE00089F878EE890A60EE202AF0EE480AB0EEE6
:104AF000490A02F07FF8F7EE000A70EEC00A9DED59
:104B0000070A40EE202AB0EE62FA8FEE080AD4EDD2
:104B1000030AF1EE600A60EE202AF0EE480AB0EED9
:104B20004F0A02F067F862EE802AB0EE4F0AFFF7F4
:104B3000A5FED4ED030A20EE203AF0EE480AB0EECE
:104B40004F0A02F057F8F7EE000A30EEC00A43EEC3
:104B5000402AC4ED042A94ED040A84ED050A94ED7C
:104B6000060AD4ED000A94ED051A00EE810A84EDE0
:104B7000060A94ED070AD4ED000A94ED061A00EE39
:104B8000810A84ED070A94ED060A08B0BDEC108B8B
:104B900010BD0000000000000000000000002040E8
:104BA00080ED030A80ED001AC0ED020A9FED052A90
:104BB00080ED052A9FED032A80ED062AC0ED071A35
:104BC000704700000000000080ED030A704780ED90
:104BD000070A704710B502682D4B98420ED0B0F10D
:104BE000804F0BD02B4B984208D02B4B984205D0CE
:104BF0002A4B984202D02A4B984203D122F07002ED
:104C00004B681A43224B984220D0B0F1804F1DD000
:104C1000204B98421AD0204B984217D01F4B9842F5
:104C200014D01F4B984211D01E4B98420ED01E4BF1
:104C300098420BD01D4B984208D01D4B984205D08E
:104C40001C4B984202D01C4B984203D122F4407274
:104C5000CB681A4322F080034C6943EA04020260E5
:104C60008B68C3620B688362094B984202D00C4B7D
:104C7000984201D10B69036301234361036903F087
:104C800001031BB1036923F00103036110BD0000A0
:104C9000000001400004004000080040000C0040FB
:104CA0000004014000400140004401400048014030
:104CB00000180040001C00400020004030B501F00A
:104CC0001F05012404FA05F3046A9C430462046A84
:104CD00001F01F0502FA05F52C43046230BD30B522
:104CE0000C46816821F47F4142EA0325254329438C
:104CF000816030BD0A46816821F0700142F00703EF
:104D0000194381607047000030B5026A056A25F0DA
:104D1000010505624368846924F0700424F00304EB
:104D20000D682C4322F002028D682A43104DA842E0
:104D300000D103E00F4DA84206D100BF22F00802C7
:104D4000CD682A4322F00402094DA84202D0094D41
:104D5000A84207D123F4807323F400734D692B43D9
:104D60008D692B43436084614D684563026230BDA9
:104D7000000001400004014030B5026A056A25F0D8
:104D8000100505624368846924F4E04424F4407407
:104D90000D6844EA052422F020028D6842EA0512DB
:104DA000124DA84200D103E0114DA84207D100BF27
:104DB00022F08002CD6842EA051222F040020B4D3B
:104DC000A84202D00A4DA84209D123F4806323F4FB
:104DD00000634D6943EA85038D6943EA85034360B7
:104DE00084614D688563026230BD000000000140AF
:104DF0000004014030B5026A056A25F48075056239
:104E00004368C46924F0700424F003040D682C4343
:104E100022F400728D6842EA0522124DA84200D1A8
:104E200003E0114DA84207D100BF22F40062CD6813
:104E300042EA052222F480620A4DA84202D00A4DBD
:104E4000A84209D123F4805323F400534D6943EA67
:104E500005138D6943EA05134360C4614D68C5635A
:104E6000026230BD000001400004014030B5036A19
:104E7000056A25F4805505624468C26922F4E0425F
:104E800022F440720D6842EA052223F400538D6833
:104E900043EA0533084DA84202D0084DA84204D188
:104EA00024F480444D6944EA85144460C2614D682D
:104EB0000564036230BD00000000014000040140B1
:104EC00030B50B461446026A056A25F001050562F5
:104ED000816921F0F00141EA041122F00A021A432B
:104EE0008161026230BD30B50B461446026A056A24
:104EF00025F010050562816921F4704141EA043111
:104F000022F0A00242EA03128161026230BD000079
:104F10001048006890ED010A0F4880ED010A0D4825
:104F2000806890ED010A0C4880ED020A094800698A
:104F300090ED010A084880ED030A064890EDEC0A5E
:104F4000054880ED040A034890EDEE0A024880ED22
:104F5000050A7047C40800208C0C002070B5054677
:104F6000AC6B0020E085E0842046FEF700FB70BDBE
:104F700000BF00BF02680C3252E8002F22F490718B
:104F800002680C3242E80013002BF3D100BF00BFCF
:104F900000BF0268143252E8002F22F001010268BB
:104FA000143242E80013002BF3D100BF016B01293A
:104FB0000ED100BF00BF02680C3252E8002F22F071
:104FC000100102680C3242E80013002BF3D100BF3D
:104FD000202180F8421000210163704710B504467B
:104FE0002068C06820F040002168C860202084F854
:104FF00041002046FEF7ABFD002010BDF8B5044689
:1050000094F84200222875D1A068B0F5805F0CD1D9
:10501000206950B90025A66A20684068C0F30800DE
:105020003080A06A801CA06215E0A56A0026A068F6
:10503000B0F5805F03D0A06828B9206918B920684E
:105040004068287004E02068406800F07F00287005
:10505000A06A401CA062E08D401E80B2E08500285E
:1050600046D12068C06820F020002168C860206810
:10507000C06820F480702168C8602068406920F012
:10508000010021684861202084F84200002060630C
:10509000206B012826D10020206300BF00BF2168BB
:1050A0000C3151E8001F21F0100021680C3141E85B
:1050B0000002002AF3D100BF2068006800F0100051
:1050C00010280AD100BF00200090206800680090DE
:1050D00020684068009000BF00BFA18D2046FEF709
:1050E00045FA02E02046FEF731FD0020F8BD01E060
:1050F0000020FBE70220F9E72DE9F84F044620687D
:10510000006920F44050E168084321680861216982
:10511000A068084361690843E1690843009020687A
:10512000C06849F20C618843009908432168C8604F
:105130002068406920F44070A169084321684861F3
:1051400076492068884203D075492068884203D197
:10515000FDF750FB814602E0FDF73CFB8146E0692C
:10516000B0F5004F6CD102206168A0FB01500346EE
:105170001920A9FB007001462A463846FBF727F99B
:105180006421B0FBF1F04FEA001A02206168A0FB35
:1051900001510B461920A9FB00712A463846FBF73E
:1051A00016F9834602206168A0FB015003461920CE
:1051B000A9FB00712A463846FBF709F96421B0FBC8
:1051C000F1F000EBC00101EB0010ABEB80003221ED
:1051D00001EBC0006421B0FBF1F000F0F8000AEB35
:1051E000400A02206168A0FB015003461920A9FB78
:1051F000007001462A463846FBF7E9F8834602204C
:105200006168A0FB015003461920A9FB00712A46E2
:105210003846FBF7DCF86421B0FBF1F000EBC0018D
:1052200001EB0010ABEB8000322101EBC0006421E8
:10523000B0FBF1F000F007005044216888606AE09C
:1052400004206168A0FB015003461920A9FB0070EF
:1052500001462A463846FBF7BAF8824604206168C0
:10526000A0FB015003461920A9FB007001462A4605
:105270003846FBF7ACF86421B0FBF1F000EBC0015D
:1052800001EB0010AAEB8000322101EB0010642139
:10529000B0FBF1F000F0F00A04206168A0FB01709F
:1052A00003461920A9FB00513A462846FBF78FF820
:1052B0006421B0FBF1F00AEB001A04206168A0FB46
:1052C00001510B461920A9FB00712A463846FBF70D
:1052D0007EF8834604206168A0FB01500346192034
:1052E000A9FB007001462A463846FBF770F8642196
:1052F000B0FBF1F000EBC00101EB0010ABEB800064
:10530000322101EB00106421B0FBF1F000F00F003E
:10531000504421688860BDE8F88F0000001001400B
:1053200000140140014691F84100212828D18868E5
:10533000B0F5805F0BD1086948B90A6A1088C0F3DC
:1053400008000B685860086A801C086205E00B6A58
:10535000581C086218780B685860C88C401E80B2D0
:10536000C88458B90868C06820F080000B68D8600D
:105370000868C06840F040000B68D86000207047A3
:105380000220FCE710B50248FEF7F2F810BD00005D
:10539000B406002010B50248FEF7EAF810BD000080
:1053A000FC06002000BFFEE702480068C0F30220B0
:1053B000704700000CED00E010B5002804DB0A0780
:1053C000130E054A135406E00A07140E034A00F0B0
:1053D0000F031B1FD45410BD00E400E018ED00E0E3
:1053E00010EE101A08B5444A6846B2EB410F28D9AE
:1053F0004FF0E640B0EB410F94BF00204FF0FF307C
:1054000000900098002861DB60EE000A10F0010FA8
:1054100045D010F0020FDFED391A9FED391A00EE7A
:10542000E11ADFED381A40EE811A21EEA01AF0EEF3
:10543000400A40EE010A08BFF1EE600AB0EE600AD1
:1054400008BD314B21F0004293423CD911F0004F8E
:10545000DFED2E0A20EE201ADFED2D0A19BF31EE06
:10546000601A71EE200A31EE201A71EE600ABDEE6C
:10547000E01A11EE100A9FED271A00F0030000EE6B
:10548000C10A9FED251A009000EEC10A9FED231A74
:1054900000EEC10A9FED221A00EEC10AB1E79FEDAE
:1054A000211A9FED210A10F0020F00EE810A9FEDF4
:1054B0001F1A00EE801AB7EE000A00EE810A18BF2C
:1054C000B1EE400A08BD00F085F89AE710EE100A28
:1054D0004000B0F17F4F3CBFB7EE000A08BD07D1D6
:1054E0004FF00100FBF7E6F8BDE8084000F06AB8AD
:1054F000BDE8084000F063B8B61F927E336D4C39AA
:10550000DA82083CA0AA2ABE490E494683F9223F06
:105510000000004B0000C93F00A0FD390020A2336D
:105520001A61342CB93AB2BACA9F2A3DDDFFFFBED8
:105530002DED020B019820F0004001909DED000B35
:1055400002B0704700B52DED048BB0EE409AF0EE3E
:10555000609A83B051EC190B03F098F841EC180BEA
:1055600018EE100A18EE901A8DED008B002818BF67
:105570000120084320F00040C0F17F6000F1E040CE
:10558000C00F14D019EE101A19EE900A8DED009B81
:10559000002918BF0121084320F00040C0F17F60BE
:1055A00000F1E040C00F04BF0120FBF783F8B0EE2C
:1055B000480A03B0F0EE680ABDEC048B00BD30EE83
:1055C000000A7047DFED020A80EEA00A7047000073
:1055D000000000002DE9F0014FF07F42B2EB410FD7
:1055E0009FBF4FF0FF310160BDE8F00170474FF001
:1055F000004242EA0123C1F3C752783A551112F032
:105600001F0C434CCCF120067C44C1F3C752A2F1DD
:1056100078024FEA621204EB820254F8254008BF78
:10562000D2E9015612D0556804FA0CF425FA06F7AF
:105630003C43976805FA0CF527FA06F8D26807FA92
:105640000CFCF24045EA08054CEA0206A4FB034CB8
:10565000A5FB0352A6FB03631D449D4234BF0126F4
:1056600000261319334416B1934202D903E0934242
:1056700001D2012200E00022624402F1200C9206D5
:10568000DC0C42EA443200EE102A5B03DFED210A13
:10569000F8EEC01A00EE103A4FEA9C1C11F0004FD1
:1056A000B8EE400AC0F800C020EE201A00EE105AF2
:1056B000DFED190AB8EE400A20EE200A71EE810AE9
:1056C00070EE800A10EE902A02F500626FF30B0272
:1056D00000EE902A70EEE11A31EEC11ADFED101AD9
:1056E00030EE411A9FED0D0A20EE800A01EE210AEC
:1056F0009FED0C1A00EE810A04BFBDE8F00170476F
:10570000CCF180510160BDE8F001B1EE400A704774
:10571000EC3C0000000000360000802C22AAFD298D
:10572000DB0FC92F0000C92F30B591B004460CB96A
:1057300011B030BD002506E0691CC8B201F04EFE74
:1057400044F835006D1C032DF6DB002508E0E8B2B7
:1057500001F06AFA04F1180101EB451108606D1CB3
:10576000022DF4DB11220521DFED9E4A9FED9E4ABA
:10577000DFED9C3A9FED9B3ADFED9C2A9FED9C2A42
:10578000DFED9C1A9FED971ADFED9B0A9FED9B0AB8
:1057900004F15800FFF710F811220521DFED914ABE
:1057A0009FED914ADFED8F3A9FED8E3ADFED8F2A24
:1057B0009FED8F2ADFED8F1A9FED8A1ADFED8E0A9B
:1057C0009FED8E0A04F58170FEF7F6FF0122042199
:1057D000DFED844A9FED834ADFED823A9FED813A07
:1057E000DFED872AB1EE082AF3EE061A9FED7D1A47
:1057F000F0EE000A9FED830A04F5D670FEF7DCFF99
:1058000001220421DFED774A9FED764ADFED753AFC
:105810009FED743ADFED7A2AB1EE082AF3EE061A0C
:105820009FED701AF7EE000AB1EE000A04F256205E
:10583000FEF7C2FF2022744907A8FAF73FFE72481C
:1058400090F820008DF83C006F48406A10901C22B0
:105850000AA96846FAF732FE012007A90EC9FBF72C
:1058600065F9012001F073FA2022674907A8FAF7C9
:1058700025FE654890F820008DF83C006248406A9B
:1058800010901C220AA96846FAF718FE032007A9FF
:105890000EC9FBF74BF9012001F059FA20225A49B1
:1058A00007A8FAF70BFE584890F820008DF83C0046
:1058B0005548406A10901C220AA96846FAF7FEFD76
:1058C000052007A90EC9FBF731F9012001F03FFAC5
:1058D000204600F0FFF90020A4F8A003A4F8A403D8
:1058E000206890ED010A84ED010AA06890ED010A9C
:1058F00084ED030A206990ED010A84ED050A002079
:1059000084F8AA0300BF20E004F1180101EB401164
:1059100009680A8804F1180101EB40118A8204F138
:10592000180101EB401191ED020A04F1180101EB9D
:10593000401181ED010A9FED2B0A04F1180101EBE2
:10594000401181ED030A411C08B20228DCDBA0688B
:1059500090ED010AF0EE401A9FED2C1AF0EE000ACD
:10596000B1EE040A04F54070FFF71AF9206990EDD2
:10597000010AF0EE401A9FED251AF0EE000AB1EE92
:10598000040A04F54870FFF70BF9A06990ED010ACD
:10599000F0EE401A9FED1D1AF0EE000AB1EE040A77
:1059A00004F55070FFF7FCF894EDEC0AF0EE401AA5
:1059B0009FED161AF0EE000AB1EE040A04F55870D5
:1059C000FFF7EEF894EDEE0AF0EE401A9FED0F1A95
:1059D000F0EE000AB1EE040A04F56070FFF7E0F89B
:1059E00000BFA5E6000000005C128B3A6F12833AFC
:1059F00000004843000096430000FA4400401C4663
:105A00000AD7233C7B140E41D40500206F12033BC0
:105A100010B52DED048B82B0044694F8AA0320B98A
:105A20000021A186A4F854103FE194F8AA030128AC
:105A30002BD194ED091AF0EE410A94ED0A1AB0EE5A
:105A4000410A04F15800FEF7DBFB94ED230ABDEE9A
:105A5000C00A10EE100A01B2A18694ED111AF0EE00
:105A6000410A94ED121AB0EE410A04F58170FEF776
:105A7000C7FBD4F8360100EE100ABDEEC00A10EEE6
:105A8000100A01B2A4F854100FE194F8AA030228F6
:105A900004D10021A186A4F8541006E194F8AA03C9
:105AA0000328C1D194EDEE0AD4EDEF0A30EE600A7E
:105AB00010EE101A084603F0EFF941EC190BB0EEA6
:105AC000490AF0EE690AFFF733FDB0EE408AF0EEC6
:105AD000608A9FED780B53EC102B51EC180B02F001
