:020000040800F2
:10000000984D0020F1020008832B00087129000898
:10001000812B000819090008B5370008000000000E
:100020000000000000000000000000003102000895
:10003000950D0008000000008D0200083D33000807
:100040000B0300080B0300080B0300080B03000858
:100050000B0300080B0300080B0300080B03000848
:100060000B0300080B0300080B0300080B03000838
:100070000B0300080B0300080B0300080B03000828
:100080000B0300080B0300080B0300080B03000818
:100090001D0900080B0300080B0300080B030008F0
:1000A0000B0300080B0300080B0300080B030008F8
:1000B0000B0300080B0300080B0300080B030008E8
:1000C0000B0300080B0300080B0300080B030008D8
:1000D0000B0300089D3700080B0300080B03000802
:1000E0000B0300080B0300080B0300080B030008B8
:1000F0000B0300080B0300080B0300080B030008A8
:100100000B0300080B0300080B0300080B03000897
:100110000B0300080B0300080B0300080B03000887
:100120000B030008010C00080D0C00080B0300086D
:100130000B0300080B0300080B0300080B03000867
:10014000290900080B0300080B0300080B03000833
:100150000B030008190C0008250C0008A93700083B
:100160000B0300080B0300080B0300080B03000837
:100170000B0300080B0300080B030008000000003D
:100180000B0300080B03000800F002F800F040F831
:100190000AA090E8000C82448344AAF10107DA45E2
:1001A00001D100F035F8AFF2090EBAE80F0013F0F4
:1001B000010F18BFFB1A43F001031847A86A00009B
:1001C000C86A0000103A24BF78C878C1FAD852072C
:1001D00024BF30C830C144BF04680C6070470000C1
:1001E0000023002400250026103A28BF78C1FBD840
:1001F000520728BF30C148BF0B6070471FB506F0DB
:100200008DFB9DE8030000F0D3F91FBD10B510BDB4
:1002100000F078FA1146FFF7F1FF04F097FC00F0C8
:1002200096FA03B4FFF7F2FF03BC00F0CDFA00002A
:100230002C4B19680868B0E8F04F80F30988BFF3C9
:100240006F8F4FF0000080F31188704700000000AE
:1002500008480068006880F308884FF0000080F3C9
:10026000148862B661B6BFF34F8FBFF36F8F00DFA4
:1002700000BF00BF08ED00E0DFF80C00016841F4AA
:1002800070010160704700BF88ED00E0EFF3098066
:10029000BFF36F8F134B1A681EF0100F08BF20EDCD
:1002A000108A20E9F04F106009B44FF0500080F33D
:1002B0001188BFF34F8FBFF36F8F05F043F84FF0F6
:1002C000000080F3118809BC19680868B0E8F04F95
:1002D0001EF0100F08BFB0EC108A80F30988BFF33E
:1002E0006F8F704788000020EFF305807047000093
:1002F0000948804709480047FEE7FEE7FEE7FEE7BA
:10030000FEE7FEE7FEE7FEE7FEE7FEE704480549F5
:10031000054A064B70470000E933000889010008D0
:1003200098470020984D00209849002098490020C7
:1003300070B5064600F020F9056806F10B0020F0C4
:100340000704B4429CBF002070BD2B466A68BAB156
:100350001068A04210D304F1080188423CBF5068E5
:10036000586007D35168101941601168091B01607A
:1003700058601460101D70BD13465268002AE7D102
:100380002146284600F000F90028DED170BD53EA6E
:10039000020C00F069802DE9F04B4FF00006002BB5
:1003A0001FBFB3FA83F503FA05F424FA05F65E409D
:1003B00012BF1643B2FA82F502FA05F4C5F1200520
:1003C0001EBF22FA05FC44EA0C04203556EA044C10
:1003D0004FEA144418BF641C4FF000084FF00009A6
:1003E000904271EB030C39D3002919BFB1FA81F7A0
:1003F00001FA07F6B0FA80F700FA07F6C7F120070E
:100400001EBF20FA07FC46EA0C062037B6FBF4FCB8
:10041000A7EB0507103F07F01F0BCBF120060CFAE6
:100420000BFB2CFA06F644BFB3460026202FA4BFD0
:100430005E464FF0000B5BEA060C08BF4FF0010B65
:1004400019EB0B09ABFB027C48EB0608C01B06FB53
:1004500002CC0BFB03CC71EB0C01C1E70B4602464F
:1004600041464846BDE8F08B13B54FF000004FF011
:100470000001AFF30080BDE81C40704710B5203A82
:10048000C0F00B80B1E81850203AA0E81850B1E84D
:100490001850A0E81850BFF4F5AF5FEA027C24BF03
:1004A000B1E81850A0E8185044BF18C918C0BDE8FA
:1004B00010405FEA827C24BF51F8043B40F8043BC3
:1004C00008BF7047D20728BF31F8023B48BF11F878
:1004D000012B28BF20F8023B48BF00F8012B7047D2
:1004E0004FF000020429C0F0128010F0030C00F05D
:1004F0001B80CCF1040CBCF1020F18BF00F8012BDB
:10050000A8BF20F8022BA1EB0C0100F00DB85FEAA8
:10051000C17C24BF00F8012B00F8012B48BF00F874
:10052000012B70474FF0000200B5134694469646E3
:10053000203922BFA0E80C50A0E80C50B1F12001F6
:10054000BFF4F7AF090728BFA0E80C5048BF0CC0A4
:100550005DF804EB890028BF40F8042B08BF704702
:1005600048BF20F8022B11F0804F18BF00F8012B74
:100570007047704770477047004870473C470020FD
:10058000704770477047704738B504460A460020E8
:100590006946AFF30080002808BF38BD02460099C5
:1005A000204600F075F8012038BD012000F0A2B807
:1005B000F8B5AFF30080054600200C46102000BFC0
:1005C0000646A819A0420DD9324669460020AFF36D
:1005D0000080070008BF00F08DF80098A04218BF07
:1005E0000546C419FFF7C8FF05600746F01D20F057
:1005F00007004619284600F00AF8B44208BFF8BDC3
:10060000A21B31463868BDE8F84000F041B800212F
:100610000160C0E9011070471020704770B50446B2
:10062000051FFFF7A9FF0068002C14BF446870BDC8
:10063000002C18BFAC423CBF20466468F8D3016868
:100640000A18AA4218BF456003D12A68054611441A
:10065000016028684119A1421CBF6C6070BD6168CF
:10066000696021680844286070BD10B500F00CF87E
:10067000006810BD10B5044600F006F8046010BD17
:100680000048704734470020004870473447002036
:10069000034640688C46002818BF88423CBF03468A
:1006A0004068F8D318681844884207D00CF103005A
:1006B00020F00700001D411A521A0146081D0A6069
:1006C000FFF7ACBF1FB584B000200A9C06AB04AA9C
:1006D00002A90094AFF3008018B1DDE9020108B06F
:1006E00010BD0348204000F040F800200146F6E726
:1006F0000000207C10B500F03FF8BDE8104000F08D
:100700002FB870477546FFF7BBFFAE460500694638
:10071000534620F00700854618B020B5FFF7F6FDD8
:10072000BDE820404FF000064FF000074FF00008F2
:100730004FF0000B21F00701AC46ACE8C009ACE873
:10074000C009ACE8C009ACE8C0098D46704710B5D7
:100750000446AFF300802046BDE81040FFF761BDBE
:10076000002801D000F030B8704710B500F04CF808
:10077000BDE81040FFF7F4BF10B5012805D00021F7
:1007800003A000F027F8012010BD09A1F8E7000040
:1007900053494752544D454D3A204F7574206F666A
:1007A0002068656170206D656D6F727900000000D2
:1007B0003A2048656170206D656D6F727920636FB6
:1007C000727275707465640001491820ABBEFEE753
:1007D0002600020070B505460C460A2000E06D1C9C
:1007E00000F068F835B128780028F8D102E0641CE0
:1007F00000F060F814B120780028F8D1BDE870400E
:100800000A2000F057B8000010B5022803D04101BB
:1008100003D50DA112E0002010BD010101D50FA1EB
:100820000CE0C10001D511A108E0810001D512A1A1
:1008300004E0400001D513A100E0002115A0FFF75E
:10084000C9FF012010BD0000496E76616C6964200B
:100850004F7065726174696F6E000000446976695B
:100860006465204279205A65726F00004F76657288
:10087000666C6F7700000000556E646572666C6F81
:1008800077000000496E6578616374205265737566
:100890006C7400005349474650453A2041726974D0
:1008A000686D6574696320657863657074696F6EDF
:1008B0003A20000008B569468DF800000320ABBE61
:1008C00008BD0000124D134C286890ED010A84ED1C
:1008D000010AA86890ED010A84ED020A286990EDEA
:1008E000010A0C4884ED030A95EDEB0A84ED040A35
:1008F00095EDED0A84ED050A00F01CF8012004F0E6
:1009000045F9044800F070F8012004F03FF9DBE7F6
:10091000A405002068090020FEE70000014800F05F
:10092000AEBB000044030020014800F0A8BB00005B
:100930006C03002038B5034690ED000A10209FEDAF
:10094000231ADFED230A04F09EF8DFED221A9FED53
:10095000222A024693ED010A1020B0EE611AF0EE51
:10096000420A04F090F8044693ED020A1020B0EE1B
:10097000611AF0EE420A04F086F8054693ED030A88
:100980001020B0EE611AF0EE420A04F07CF8034643
:1009900012484FF40C71016000218160C160082190
:1009A00001610F49100A08704A70200A8870CC70E3
:1009B000280A08714D71180A8871CB710A466B4676
:1009C0000649084800F0FBF938BD00000000484225
:1009D000000048C2DA0FC940DA0FC9C02C0A002053
:1009E000800000206C03002038B5DFED191A9FED60
:1009F000192A024690ED040A1020B0EE611AF0EEBA
:100A0000420A04F040F8034692ED050A1020B0EEC9
:100A1000611AF0EE420A04F036F80F4940F2312232
:100A200008240A6000228A60C1E903240B491C0AD9
:100A30000C704B70030A8B70C8700A714A718A710E
:100A4000CA710A466B460449054800F0B8F938BD3A
:100A5000DA0FC940DA0FC9C02C0A0020800000203C
:100A60006C03002038B50D4A4FF40073082413605E
:100A700000239360C2E90334094A040A14705070D9
:100A8000080A9070D170137153719371D3716B46D2
:100A90000249044800F093F938BD0000140A002010
:100AA00078000020440300200FB40E4908B5086008
:100AB00000208860C860082008610B48FF210246BA
:100AC000017041708170C170017141718171FD21AE
:100AD000C1716B46034903A800F071F901B05DF8DC
:100AE00014FB0000140A0020780000200FB40E4907
:100AF00008B5086000208860C860082008610B48BD
:100B0000FF210246017041708170C1700171417115
:100B10008171FC21C1716B46034903A800F04FF9B4
:100B200001B05DF814FB0000140A002078000020DA
:100B30000FB4B0EE413A2DED060BF0EE602AF8B599
:100B4000064610209FED281ADFED280A03F09BFFD0
:100B500005460C20B3EE041AFBEE040AB0EE620A5E
:100B600003F091FFDFED232A04460C209FED201AAD
:100B7000F0EE620AB0EE430A03F085FF03460C2054
:100B8000B1EE041AF0EE620AB0EE610A03F07BFFE8
:100B900002460C20B2EE041AFAEE040AB0EE420A43
:100BA00003F071FF14490E6000268E60CE600826A7
:100BB0000E6112492E0A0E704D70250924018D70A8
:100BC00044EA1324CC700B7113094B71120142EAF1
:100BD00010228A71C8710A466B4607490DA800F0B9
:100BE000EEF8F8BC5DF82CFBDC0F4940DC0F49C087
:100BF0000000FA4300000000140A002078000020E2
:100C0000014800F0D5BE0000E4040020014800F0D7
:100C1000CFBE000024040020014800F0C9BE00003F
:100C200044050020014800F0C3BE000084040020F9
:100C300001681823CAB2103AB2FBF3F2054B6FF306
:100C40000901032A9B5CC36500D9091D816508461B
:100C500070470000F06B000810B5014600208B695A
:100C60008A6A4FF0C07453B1B3F5005F15D072B10A
:100C7000012A0CD0022A0AD0032A09D104E01AB1B1
:100C8000012A06D0022A03D1C96AC90100D5012070
:100C900010BDC96AA142FAD010BD002AF7D0012ABE
:100CA000F2D0022AF3D0032AF3D010BD074808B5CA
:100CB00040680090014606480269914202D2C1682C
:100CC000491CC1600099016108BD0000001000E0EE
:100CD000200000200A4948680A4AD2ED000A4A6802
:100CE000121AF8EE601A01EE102AB8EE411A60EE00
:100CF000211AB4EEE11AF1EE10FAF0D370470000B9
:100D0000001000E02000002000B50E492DED028B00
:100D100081B0496800910168009A511A00EE101ADA
:100D20000949F8EE400A91ED000A0260B8EE400A67
:100D300080EE808AFFF7BAFF01B0B0EE480ABDEC42
:100D4000028B00BD001000E0200000200D490A6861
:100D500042F080720A600C4900224A600B6843F03E
:100D600001030B6009494FF47A734843B0FBF3F376
:100D70000749C1E90003054BB0FBF3F0C1E90202EA
:100D800070470000FCED00E0001000E040420F0062
:100D900020000020704772B6FEE790F82020012A5C
:100DA00007D0022A05D0416A41F480214162012026
:100DB0007047006842690A43426100207047F0B5FD
:100DC00090F820500468A468012D05D0022D03D0AE
:100DD000416A41F480214DE014F0406F01D1E500FB
:100DE00045D5C4F301640125A5401D608D684FF40D
:100DF000C0739DB1CE6835434E6845EAC6050668A6
:100E000003EB0417F5514FF4C275076805EB0415A1
:100E10000E697E51097D012905D009E00E88CD6853
:100E200045EA4655EBE701684E5946F480764E5147
:100E30001179D2F805504FF4C67641EA05210568CC
:100E400006EB0416A9511178D2F801204FF4C475AD
:100E500041EA0221026805EB04155151006803EBD9
:100E60000411425842F0010242500020F0BD416A94
:100E700041F4001141620120F0BD000010B590F86E
:100E80002020012A07D0022A05D0416A41F480219E
:100E90004162012010BD3B48D0F8002242F001021F
:100EA000C0F80022D0F8002222F47C52C0F80022C0
:100EB000D0F800224B6A42EA0322C0F800220A7DE1
:100EC00002F01F0301229A40D0F81C329343C0F86D
:100ED0001C32CB69B3B9D0F80C329343C0F80C3252
:100EE0008C894B6864F31F434C6900EBC404C4F85D
:100EF00040320C890B6864F31F434C6900EBC40457
:100F0000C4F84432CB69012B16D1D0F80C3213430C
:100F1000C0F80C320C884B6864F31F434C6900EB3B
:100F2000C404C4F840320C89CB6864F31F434C6995
:100F300000EBC404C4F844328B69002BD0F80432AF
:100F40000ED01343C0F804320B69002BD0F81432D2
:100F500008D01343C0F81432096A012904D008E00C
:100F60009343EFE79343F5E7D0F81C121143C0F821
:100F70001C12D0F8001221F00101C0F8001200206C
:100F800010BD000000640040704770B590F820402C
:100F9000012C05D0022C03D0416A41F4802128E0C5
:100FA000046809B32469A40720D04FF4D8740568F5
:100FB00004EB01142D5915F00405956005682D59B1
:100FC0001AD0ED08556005682C5904F00204D4606D
:100FD0004FF4DA74056804EB01142E5906F00F067D
:100FE000082E0CD308250DE0E468DCE7416A41F4E3
:100FF00000114162012070BD6D0D1560E3E72D59B0
:1010000005F00F05156105682D59C5F30725956194
:1010100005682C59240C54614FF4DC72046802EB0F
:101020000112A4581C700468A458240A5C70046857
:10103000A458240C9C700468A258120EDA704FF465
:10104000DE72046802EB0112A4581C710468A458F3
:10105000240A5C710468A458240C9C710468A2588A
:10106000120EDA71006829B1016941F020010161B5
:10107000002070BDC16841F02001C160F8E72DE992
:10108000F05F0546006800244669D0F80490876840
:10109000D0F80CB0D0F810A0D0F81880F10748D0E4
:1010A000F90714D001218160B80703D5284600F064
:1010B0001EFC0CE0780702D54FF4006407E0380707
:1010C00002D54FF4805402E0284600F00FFCF805EA
:1010D00016D529684FF480708860B80503D5284676
:1010E00000F007FC0CE0780502D544F4005407E05A
:1010F000380502D544F4804402E0284600F0F8FBAD
:10110000F80316D529684FF480308860B80303D5FA
:10111000284600F0F0FB0CE0780302D544F40044CC
:1011200007E0380302D544F4803402E0284600F09A
:10113000E1FB300707D55FEACB6004D529681020B2
:1011400044F40074C86070074FF0080707D55FEAE1
:101150000B7004D52868C760284600F099F9B007DD
:1011600006D52868C068800702D0284600F092F9AA
:10117000700607D55FEACA6004D52968102044F4D8
:1011800080640861B00607D55FEA0A7004D5286854
:101190000761284600F07AFBF00606D5286800694A
:1011A000800702D0284600F072FBB00308D55FEA42
:1011B000C96005D5296810204860284600F068FB02
:1011C000F00307D55FEA097004D528684760284610
:1011D00000F092FB300446D55FEA497040D5F00537
:1011E00004D55FEAC87001D044F00104B00504D50D
:1011F0005FEA887001D544F00204700504D55FEA07
:10120000487001D544F00404300529D518F0700F5A
:1012100026D008F07000402815D006DC102809D030
:1012200020280AD0302816D10AE050280ED0602895
:1012300011D10EE044F008040DE044F010040AE07F
:1012400044F0200407E044F0400404E044F080044B
:1012500001E044F480742868816921F070018161A3
:10126000296804204860002C05D0686A2043686221
:101270002846FFF789FEBDE8F09F70B5040003D053
:1012800094F8200010B104E0012070BD204600F069
:1012900081F82068016841F00101016000F0BAFDA9
:1012A0000546052604E000F0B5FD401B0A2811D8CC
:1012B00020684068C007F6D02068016821F002016C
:1012C000016000F0A7FD05460BE000F0A3FD401B08
:1012D0000A2806D9606A40F40030606284F8206011
:1012E000D2E7206840688007EFD4207E012820687C
:1012F00001683DD021F080010160607E01282068F6
:10130000016838D021F040010160A07E01282068EA
:10131000016833D021F020010160E07E01282068BF
:1013200001682ED041F010010160207F0128206863
:10133000016829D021F008010160607F0128206840
:10134000016824D021F004010160D4E902010843BE
:10135000D4E90412114308436168491E0843216817
:10136000C86100206062012084F82000002070BD68
:1013700041F08001C0E741F04001C5E741F02001A4
:10138000CAE721F01001CFE741F00801D4E741F0AE
:101390000401D9E7F0B587B0044614216846FFF789
:1013A000C1F8364B3648DFF8D0E01968D4F800C0F1
:1013B000334A03250226092710300024491CF4452E
:1013C00022D11960012907D1016841F00071016043
:1013D000006800F000700590106840F00800106090
:1013E0001068CDE9005600F00800CDE904706946A8
:1013F0002448CDE9024500F015FC00220521142007
:1014000000F07AFD142032E0DFF87CE0F44530D1C2
:10141000D0F800C04CF0806CC0F800C0D0F800C01C
:1014200001290CF0806CCDF814C0196007D1016857
:1014300041F000710160006800F0007005901068D4
:1014400040F002001060106802AB00F0020005904E
:101450006020CDE9000683E8B00069460B4800F043
:10146000E1FB00220521402000F046FD402000F075
:1014700035FD07B0F0BD0000006400400C00002006
:1014800030380240000C0240006800400004024076
:101490007047000070B58AB004466B4602AA00216E
:1014A000FFF773FDEE48844272D1EE489FEDEE0ADD
:1014B000F0EE002A9FEDED3AB3EE041ADFEDEC1AE0
:1014C000029AF2EE040A042A7ED03DDCDAB3022A44
:1014D0007BD1BDF801109DF8032049BA02EE101A25
:1014E00013019DF80420B8EE422A43EA12139DF836
:1014F000054002F00F0222EE002A44EA02249DF881
:10150000002022EE222A02F0F00500F8205F02F00F
:101510000F05C2EE033A45701209827033EEC00A1D
:1015200080ED010A00EE103AB8EE400A20EE010A02
:1015300020EE220A80EE212A32EE410A80ED020AD4
:1015400000EE104AAAE024E0C6494FF48054C9488E
:1015500065421439A2F50072013A7DD0012A5FD1AB
:10156000B1F90A304B82BDF8002052BA4A81BDF869
:10157000026076BA8E81BDF8046076BACE819DF89D
:1015800006600E74D11AA14267DD016D491EB4E0F8
:10159000B5E09DF803209DF8054013019DF8042057
:1015A000BDF8011043EA121302F00F0244EA0222CE
:1015B0009DF8004049BA04F0F005057404F00F05E9
:1015C00045742409847401E02CE029E002EE101A2D
:1015D000B8EE422A22EE002A22EE222AC2EE033A76
:1015E00033EEC00A80ED050A00EE103AB8EE400A6C
:1015F00020EE010A20EE220A80EE212A32EE410A74
:1016000080ED060A00EE102AB8EE400A20EE200A0D
:1016100020EE220A80EE211A31EE600A80ED070AE0
:101620000AB070BD9DF80320BDF8011013019DF8AC
:10163000042049BA43EA12149DF8053002F00F0263
:1016400043EA02239DF8002002F0F00500F8305F25
:1016500002F00F05457001E02DE04AE002EE101A9D
:1016600012098270B8EE422A22EE002A22EE222AC5
:10167000C2EE033A33EEC00A80ED010A00EE104AD2
:10168000B8EE400A20EE010A20EE220A80EE212A5E
:1016900032EE410A80ED020A00EE103AB8EE400A3E
:1016A00020EE200A20EE220A80EE211A31EE600A96
:1016B00080ED030AB4E7B1F900200A81BDF80030DB
:1016C0005BBA0B80BDF8026076BA4E80BDF804604C
:1016D00076BA8E809DF806608E71991AA14202DD5D
:1016E000016B491E03E0A9429ADA016B491C0163B0
:1016F00096E7A94294DA016D491C016590E75E48BE
:1017000084428DD1574A403202F120039FED5B2A7B
:10171000DFED5B2A0298B0F5087F41D0A0F500709C
:101720002138C7D1BDF80000102140BA00EE100AE0
:10173000F8EE400AC2ED040ABDF8020040BA01EE1C
:10174000100AB8EE410A82ED050ABDF80400BDEEAC
:10175000E00A40BA1083BDF80600F0EE420A40BA33
:10176000508310EE100AB0EE620A03F081FC83EDA4
:10177000040A92ED050A1021F0EE420ABDEEC00AFD
:1017800010EE100AB0EE620A03F072FC83ED050A57
:10179000108B010A9983C0B2D883508B58833FE7DE
:1017A000BDF80000102140BA00EE100AB8EE400A61
:1017B00082ED000ABDF80200BDEEC00A40BA00EE9C
:1017C000900AF8EE600AC2ED010ABDF8040040BAC2
:1017D00000EE900AF8EE600AC2ED020ABDF80600BB
:1017E00040BA00EE900A10EE100A9FED270AF8EEBC
:1017F000600AC2ED030ADFED230A03F039FC83ED32
:10180000000A92ED010A1021F0EE420ABDEEC00A74
:1018100010EE100AB0EE620A03F02AFC83ED010A12
:1018200092ED020A1021F0EE420ABDEEC00A10EE5F
:10183000100AB0EE620A03F01BFC83ED020A92ED7F
:10184000030A1021F0EE420ABDEEC00A10EE100AA3
:10185000B0EE620A03F00CFC83ED030AE0E6000040
:101860004403002094090020DC0F494000FF7F471B
:1018700000F07F45A40500206C030020DA0FC9406A
:10188000DA0FC9C000004842000048C270477047E4
:101890007047000070B5044690F82000012804D07D
:1018A000606A40F40020606218E0022084F82000A2
:1018B0002068016821F00101016000F0ABFA0546E3
:1018C0000EE000BF00F0A6FA401B0A2808D9606AA3
:1018D00040F400306062052084F82000012070BDD3
:1018E00020684068C007EDD1606270BD70477047E6
:1018F000704770477047704770472DE9F0410446C4
:10190000876D00F087FA064694F835000025022816
:1019100006D08020606584F834500120BDE8F08155
:101920002068016821F0160101602068416921F0FA
:1019300080014161206C08B9A06C20B12068016869
:1019400021F0080101602068016821F001010160B7
:101950000CE000F05FFA801B052807D920206065A5
:10196000032084F8350084F83450D7E720680068F5
:10197000C007EED194F85C103F208840B860012089
:1019800084F8350084F834500020C7E790F835100B
:10199000022903D08021416501207047052180F88C
:1019A00035100068016821F00101016000207047D6
:1019B0002DE9F84304464FF00009CDF80090634844
:1019C0004FF41651A56D0068B0FBF1F72E6894F83E
:1019D0005C10082000FA01F131420FD021680A683A
:1019E00052070BD50A6822F004020A6094F85C10D2
:1019F0008840A860606D40F00100606594F85C105C
:101A00004FF0010808FA01F0304208D02168496916
:101A1000090604D5A860606D40F00200606594F886
:101A20005C1004208840304208D02168096889078A
:101A300004D5A860606D40F00400606594F85C1007
:101A400010208840304218D021680968090714D551
:101A5000A86020680168490304D50068000308D520
:101A6000A16C07E00168C90503D4016821F00801F1
:101A70000160216C09B12046884794F85C10202051
:101A80008840304231D021680968C9062DD5A86048
:101A900094F8350005282068016806D0490347D529
:101AA000006800031DD4616C1CE021F01601016088
:101AB0002068416921F080014161206C08B9A06C67
:101AC00020B12068016821F00801016094F85C10E1
:101AD0003F208840A86084F8358084F83490216DD8
:101AE0001FE0E16B09B120468847606D00282BD0CC
:101AF000606DC00714D0052084F8350020680168A7
:101B000021F0010101600098401C0090B84203D808
:101B100020680068C007F6D184F8358084F83490D6
:101B2000E16C002910D001B02046BDE8F043084721
:101B30000168C905D5D4016821F01001016084F85D
:101B4000358084F83490CCE7BDE8F8831C00002091
:101B50002DE9F041044600F05DF906465CB1022033
:101B600084F83500002584F834502068016821F09D
:101B7000010101600DE00120BDE8F08100F04AF9AB
:101B8000801B052805D920206065032084F83500D6
:101B9000F2E720680068C007F0D122681168204889
:101BA0000140D4E901031843D4E903363343184311
:101BB00063691843A3691843E3691843236A184308
:101BC0000843616A042903D1D4E90B13194308437C
:101BD000106020684069666A20F0070130460E43B5
:101BE000012704280CD1A06A0643E06A40B12046D0
:101BF000FFF732F820B14020606584F83570BAE70D
:101C0000206846612046FFF713F894F85C203F21D6
:101C100091408160656584F835700020ACE7000074
:101C20003F8010F02DE9F84FDFF8BCA1002201251C
:101C300003264FF00F090AF1040BAAF1040E00BFAE
:101C40000B6805FA02F42340A34270D10F7907F024
:101C50000307012F01D0022F16D187684FEA4208EF
:101C600006FA08FC27EA0C07D1F80CC00CFA08FCAD
:101C70004CEA070CC0F808C04768A7430C79C4F3C6
:101C8000001494403C4344600C79E443A4070AD018
:101C9000C4684FEA420C06FA0CF7BC438F6807FA97
:101CA0000CF72743C7600C7904F00304022C12D10F
:101CB000D40800EB840CDCF820405707FF0E09FA2B
:101CC00007F824EA0804D1F8108008FA07F848EA6F
:101CD0000408CCF8208004684FEA420C06FA0CF79E
:101CE000BC430F7907F0030707FA0CF72743076097
:101CF0004C6814F4403F70D03C4C276847F4804750
:101D00002760246822F0030704F480440094384CD0
:101D100007EB040CDCF8084897074FEA177809FA34
:101D200008F7BC43334FB84202D1002724E054E007
:101D3000314FB84201D101271EE0304FB84201D1E6
:101D4000022719E02E4FB84201D1032714E02D4F8E
:101D5000B84201D104270FE02B4FB84201D105272B
:101D60000AE02A4FB84201D1062705E0284FB842C1
:101D700001D1072700E0082707FA08F72743CCF826
:101D80000878DAF800405746D1F804C09C435FEA6F
:101D9000CC2C00D51C433C60DBF800405F46D1F8FA
:101DA00004C09C435FEA8C2C00D51C433C60DEF8E9
:101DB00000407746D1F804C09C435FEA8C3C00D5D4
:101DC0001C433C60084F083F3C68D1F804C09C436A
:101DD0005FEACC3C00D51C433C60521C102AFFF447
:101DE0002FAFBDE8F88F0000083C014044380240A6
:101DF00000300140000002400004024000080240A0
:101E0000000C024000100240001402400018024082
:101E1000001C02400148806870470000100000204C
:101E200002488168027811448160704710000020E8
:101E30000B4810B5016841F400710160016841F47C
:101E400080610160016841F480710160032000F04D
:101E500073F80F2000F006F800F024F8002010BD01
:101E6000003C024070B50D4D04464FF47A7128785D
:101E7000B1FBF0F00A490968B1FBF0F000F010FB8B
:101E800048B9102C07D200222146501E00F034F829
:101E900000206C6070BD012070BD000010000020AB
:101EA0001C0000200C4882B0016841F480410160B0
:101EB000006800F4804000900748001F016841F06E
:101EC000805101600068002200F0805000900F21D6
:101ED000901E02B000F010B844380240002809DB20
:101EE00000F01F02012191404009800000F1E02034
:101EF000C0F8001170470000F0B40E4B1B680C4690
:101F0000C3F30223C3F10705042D00D90425191DCD
:101F1000072901D2002300E0DB1E012606FA05F1A5
:101F2000491E214099409E40761E16403143F0BC28
:101F300001F041BC0CED00E0064900F00702086822
:101F40004FF6FF03184040EA0220034A104308609E
:101F5000704700000CED00E00000FA052DE9F047A5
:101F60000E46050065D0DFF81481D8F80000F7B2FE
:101F700000F00700B04207D288F80070D8F80000DF
:101F800000F00700B04254D128683D4C810712D5BB
:101F9000400703D5206840F4E0502060287800070F
:101FA00003D5206840F4604020602068A96820F0D4
:101FB000F000084320602878C0072DD030496868B9
:101FC0000839012812D0022813D0032811D009683B
:101FD000890700292DDA216821F0030101432160DE
:101FE000FFF718FF814641F2883A0EE0096889033D
:101FF000EFE709688901ECE7FFF70CFFA0EB0901A7
:10200000514502D90320BDE8F0872068696800F0D7
:102010000C00B0EB810FEFD1D8F80010404601F072
:102020000701B14207D90770006800F00700B0420D
:1020300001D00120E7E72878400705D52068E96846
:1020400020F4E050084320602878000706D5206877
:10205000296920F4604040EAC100206000F038F8AF
:102060002168084AC1F30311515CC8400649086061
:1020700006480068FFF7F6FE0020C4E7003C024077
:1020800008380240F86B00081C00002014000020F3
:102090000448054900680968044AC1F38221515C7B
:1020A000C84070471C00002008380240086C000837
:1020B0000448054900680968044AC1F34231515C8B
:1020C000C84070471C00002008380240086C000817
:1020D000154810B5006810F00C02144813D01449CC
:1020E000042A0FD0082A0ED10F4C241F226823681F
:1020F00002F03F025B0207D52068C0F38810A0FB06
:10210000010106E0084610BD2168C1F38811A1FB5A
:1021100000010023FEF73BF92168C1F30141491C8E
:102120004900B0FBF1F010BD083802400024F40073
:1021300040787D012DE9F84F04006ED02078DFF85B
:102140004C93C007A9F104054AD009F104000168C5
:10215000C1F38101012908D00068C0F38100022881
:102160000AD1D9F80000400206D52868800337D587
:1021700060680028E1D033E06068B0F5803F10D09F
:10218000B0F5A02F286810D020F48030286028688F
:1021900020F4802028606068A8B1FFF73BFE064667
:1021A0000DE0286840F48030F4E740F48020286097
:1021B000F7E700BFFFF72EFE801B642873D828685E
:1021C0008003F7D50CE0FFF725FE064605E000BFCB
:1021D000FFF720FE801B6428F0D828688003F7D41E
:1021E0002078DFF8AC8280074FF0000A3ED5A74880
:1021F000001D016811F00C0F08D00068C0F38100C9
:1022000002280BD1D9F80000400207D428688007C3
:1022100016D5E068012800D112E033E1E068B8B1DA
:102220000120C8F80000FFF7F5FD064605E000BFF5
:10223000FFF7F0FD801B0228C0D828688007F7D57B
:102240002868216920F0F80040EAC10028600DE00C
:10225000C8F800A0FFF7DEFD064604E0FFF7DAFD50
:10226000801B02281FD828688007F7D42078000731
:1022700022D5864F87486169703771B101210160AD
:10228000FFF7C8FD064604E0FFF7C4FD801B0228E7
:1022900009D838688007F7D50EE0C0F800A0FFF72E
:1022A000B9FD064605E082E0FFF7B4FD801B022879
:1022B0007DD838688007F7D42078400768D5DFF8E4
:1022C000CCB100270BF13C0BDBF80000C0000BD4B5
:1022D000DBF8001041F08051CBF80010DBF8000073
:1022E000012700F0805000906B4E3068C00510D47C
:1022F000306840F480703060FFF78CFD009005E09E
:10230000FFF788FD0099401A022850D83068C005B0
:10231000F6D55E4EA0686C3601280FD005283068CF
:1023200010D020F001003060306820F004003060F0
:10233000A068B8B1FFF76EFD00900FE0306840F084
:102340000100F4E740F004003060F7E7FFF762FDBA
:102350000099411A41F28830814266D8306880077E
:10236000F4D50EE0FFF756FD009007E0FFF752FDB1
:102370000099411A41F28830814256D8306880076E
:10238000F4D42FB1DBF8001021F08051CBF800100D
:10239000A069C8B33D49091D0968C1F3810102293B
:1023A0004AD00228504607D0C8F8600000E03CE060
:1023B000FFF730FD04463BE04746C8F86000FFF7F2
:1023C00029FD064605E000BFFFF724FD801B02281B
:1023D0002BD828688001F7D4D4E907010843A16A03
:1023E0002E4A490802EB0141626A41EA8211084320
:1023F00094F82C1040EA0161C9F8001001203866F9
:10240000FFF708FD044606E03EE000BFFFF702FDCF
:10241000001B022809D828688001F7D534E000BFE6
:10242000FFF7F8FC001B022802D90320BDE8F88F53
:1024300028688001F4D427E00128F7D0D9F80000FB
:10244000E26900F4800191421CD1226A00F03F0150
:10245000914217D147F6C071626A0140B1EB821F09
:1024600010D1A26A4FF0FF3300F4403103EB520267
:10247000B1EB024F06D194F82C1000F07060B0EB75
:10248000016F01D00120D1E70020CFE704380240DE
:1024900000004742800E4742007000400000FFFFEE
:1024A00010B5401EB0F1807F01D3012010BD4FF068
:1024B000E02460610F21601701F07DF90020A06128
:1024C00007202061002010BD70477047F8B50168F3
:1024D00004460868CA684B6910F00F0F4FF00005FA
:1024E00059D003F0010602F49077374365D0C10755
:1024F00005D0D10503D5616C41F00101616441074C
:1025000005D5D90703D0616C41F0020161648107F0
:1025100005D5D90703D0616C41F00401616401075E
:1025200007D502F02001314303D0616C41F008016E
:102530006164616C00293AD0800604D5900602D50A
:10254000204601F044F820684069616CC0F38010B7
:10255000090700D460B3204601F012F820684069F2
:10256000400621D52068143050E8001F21F04001BA
:1025700040E80012002AF5D1E06BA8B16E49016570
:10258000E06BFFF703FA002811D0E06B016D01B09A
:10259000BDE8F040084783060FD593060DD52046C9
:1025A000BDE8F84001F013B82046FFF78EFFF8BDF4
:1025B0002046FFF78AFF6564F8BD266B2023012EB5
:1025C0007DD1C6067BD5D60679D5086848680090C7
:1025D00048694FF00206400641D5E16B0868406843
:1025E0000004000CE8D0A28D8242E5D9E085C869DC
:1025F000B0F5807F2DD020680C3050E8001F21F40A
:10260000807140E80012002AF5D12068143050E8AB
:10261000001F21F0010140E80012002AF5D12068D6
:10262000143050E8001F21F0400140E80012002A59
:10263000F5D184F84230256320680C3050E8001F43
:1026400021F0100140E80012002AF5D1E06BFFF7FD
:1026500054F96663A08DE18D401A81B22AE0A08D05
:10266000E18D401A81B2E08D0028A5D00029A3D0C9
:1026700022680C3252E8000F20F4907042E8000704
:10268000002FF5D12068143050E8002F22F001020D
:1026900040E80027002FF5D184F8423025632068F8
:1026A0000C3050E8002F22F0100240E80023002BED
:1026B000F5D166632046FFF707FFF8BDFFE7050683
:1026C0002BD5150629D594F841002128F5D1A0680D
:1026D000B0F5805F01D12069B0B1206A411C216250
:1026E000216800784860E08C401E0004000CE08403
:1026F000E3D12068C16821F08001C1602068C16811
:1027000041F04001C160D8E7206A0088C0F30800AA
:102710004860206A801C2062E5E74006CDD550065F
:10272000CBD5CA68204622F04002CA6084F8413006
:1027300000F01DF9C1E700007135000870B5040014
:1027400004D094F84100002510B106E0012070BDCE
:1027500084F84050204600F023F8242084F84100FB
:102760002068C16821F40051C160204600F090FF4C
:102770002068016921F4904101612068416921F0DC
:102780002A0141612068C16841F40051C16065645B
:10279000202084F8410084F842006563002070BD69
:1027A0002DE9F04F87B0044614216846FDF7BAFEC4
:1027B0006648654B226865491438022603270025C0
:1027C0004FF4806A4FF4403B9A4263D10A6842F06A
:1027D00010020A60096801F010010591016841F0DA
:1027E00002010160016801F002010591016841F0F8
:1027F00001010160006802AA00F00100059080203C
:10280000CDE900064FF0070882E8A001694650486C
:10281000FFF708FA3002CDE9000602AA694682E80D
:10282000A0014C48FFF7FEF94C4E4B484FF00069B1
:102830003060C6E90195C6E9035A7561B561C6E91C
:10284000075B5746D84630467562FFF781F908B1F5
:10285000FEF7A1FAE663B463404E3F486036783035
:10286000E6E802094020A1C63C4846F81459603009
:10287000B561C6E907587562FFF76AF908B1FEF756
:102880008AFAA663002205212520B463FFF734FBF2
:10289000252054E0324B9A4253D10A6842F020027C
:1028A0000A60096801F020010591016841F04001CA
:1028B00001600068029500F0400005904FF48440EC
:1028C000CDE900060820CDE9037069462548FFF7E9
:1028D000A9F9224E2048C036183830604FF02069E0
:1028E000C6E90195C6E9035A7561B561C6E9075B9A
:1028F000D0465F4630467562FFF72AF908B1FEF709
:102900004AFAE663B4631448174E6030E6E80209F9
:102910004020A6E82101144846F81459B561C6E9DB
:1029200007577562FFF714F908B1FEF734FAA6638A
:10293000002205214720B463FFF7DEFA4720FFF7A6
:10294000CDFA07B0BDE8F08F0010014044380240D6
:1029500000040240000002404064024024040020C1
:1029600000140140001802404405002070477047E1
:10297000FEE700000F4810B50D49016003214160DA
:1029800000214FF410228160C0E903124FF40012BD
:102990004261017641768176C17601774177FEF713
:1029A0006CFC002803D0BDE81040FEF7F4B910BD60
:1029B00000640040440300200F4810B50D49016039
:1029C0000321416000214FF410228160C0E903120D
:1029D0004FF400124261017641768176C17601772B
:1029E0004177FEF74AFC002803D0BDE81040FEF70F
:1029F000D2B910BD006800406C030020154808B52E
:102A0000016841F4800101600068002200F4800048
:102A1000009005213920FFF76FFA3920FFF75EFAA1
:102A2000002205213A20FFF767FA3A20FFF756FA0D
:102A3000002205214520FFF75FFA4520FFF74EFAF7
:102A4000002205214620FFF757FABDE8084046203E
:102A5000FFF744BA3038024010B596B01C22114935
:102A60006846FDF70BFD0021684602F0A7F80E4C02
:102A70000C491C2220601C3107A8FDF7FFFC002137
:102A800007A802F09BF8074960601C2238310EA8A5
:102A9000FDF7F4FC00210EA802F090F8A06016B03B
:102AA00010BD00009C6B000800000020154808B510
:102AB000016841F002010160016801F0020100912A
:102AC000016841F040010160016801F0400100919E
:102AD000016841F001010160016801F0010100910C
:102AE000016841F008010160016801F008010091EE
:102AF000016841F080010160006800F080000090F2
:102B000008BD0000303802400C4810B50A49016089
:102B10000B494160002181600C22C160C0E90412B0
:102B20008161C161FFF70AFE002803D0BDE81040B3
:102B3000FEF731B910BD00000010014094030020E1
:102B400000093D000C4810B50A4901600B4941607D
:102B5000002181600C22C160C0E904128161C16161
:102B6000FFF7ECFD002803D0BDE81040FEF713B9D5
:102B700010BD000000140140DC03002000093D00EE
:102B8000FEE7FEE770B50446D0F8060090ED011AA6
:102B9000784880ED011A0020042217E0D4F80610CE
:102BA00002EB8003CD1801EB8001D5ED001A71EE28
:102BB000C11AC1ED001AD4F80A100B4401EB8001D0
:102BC000D3ED001A401CC1ED001A80B22188491EC5
:102BD0008142E3DC2188D4F806006FF0070202EBA3
:102BE0008102024492ED001A6FF0030202EB8101B0
:102BF00031EE000A084480ED000A2188D4F80A006A
:102C000002EB81010844C0ED000AD4F802002188DB
:102C1000884202D2401CC4F80200102104F11A00BC
:102C2000FDF75EFC2088D4F80210431A99B23BE00D
:102C3000D4F80620D4F81A5002EB810200EE905A24
:102C400092ED000A40EE000A10EE905AC4F81A50B5
:102C5000D4F81E50D2ED000A00EE105A30EE800A71
:102C600010EE105AC4F81E50D2ED000AD4F80A2013
:102C7000D4F8225002EB810200EE105A92ED001AB5
:102C8000491C89B200EE810A10EE105AC4F8225095
:102C9000D2ED000AD4F8262000EE102A30EE800A89
:102CA00010EE102AC4F826208842C1D800EE100A7F
:102CB000D4F82210D4F82620B8EE400A00EE901A7C
:102CC000D4F81E1001EE102A60EE800A00EE101AF1
:102CD000D4F81A2040EE410A00EE100A01EE102A44
:102CE000B8EE400A21EE001A00EE101A002100EEA4
:102CF000401A80EE810A10EE102AC4F80E20C4F8A3
:102D0000161099B224E000BFD4F8063000EE902AE5
:102D100003EB810393ED001AD4F8123000EE103A61
:102D2000D4F80A3000EE810A03EB8103491CD3ED8D
:102D3000000AD4F8163089B230EE600AF0EEC00A0C
:102D400000EE103A30EE800A10EE103AC4F8163059
:102D50008842D9D800EE100A54F8161FB8EE401A6F
:102D600000EE901A80EE810A10EE100A00EE102A92
:102D7000206070BD6000002070B50446002524F876
:102D8000021B8E0025603046FDF7D2FA60603046A7
:102D9000FDF7CEFAA060E560256160683146FDF779
:102DA000C1FBA0683146A41EFDF7BCFB04F11A006C
:102DB000BDE870401021FDF793BB000070B50446DC
:102DC0002DED028BB0EE608A90F89800F0EE408A0C
:102DD000000602D5204601F0B3FD04F18C00FDF79A
:102DE00093FF10EE100A18EE101AC4F8900018EEB7
:102DF000900A08EE101A206108EE900A216038EE61
:102E0000680A10EE100AA061D4F8A21009B1204699
:102E10008847A06900EE100AB5EEC00AF1EE10FA7C
:102E200000EE100A01DCB1EE400AA16C00EE901A2F
:102E3000B4EEE00AF1EE10FA79DDD4F8942061687E
:102E400004F16203EAB300EE101A116800EE901A62
:102E500070EE200A00EE100A20EE800A10EE101A22
:102E60006162A16800EE101A516800EE901AD4F861
:102E7000901070EE200A00EE100A60EE800A00EE5C
:102E8000101A20EE800A10EE105A2563B4F8605034
:102E9000022D4DD900EE900A00EE101A1846FFF7E9
:102EA00071FEE06800EE900AD4F89400806801EEAC
:102EB000100A70EE810A00BF20EE200A10EE100A00
:102EC0004DE0FFE700EE901A00EE100A20EE800AB7
:102ED00010EE101A00EE100A6162A16800EE901A5E
:102EE000D4F8901060EE800A00EE101A20EE800AEE
:102EF00010EE102A2263B4F86020022A0AD900EEEC
:102F0000900A00EE101A1846FFF73CFEE06800EE4B
:102F1000900AD1E700EE100AE06900EE900AE0683E
:102F200070EE600A00EE100A20EE801A11E066E0F2
:102F3000E368926800EE103A00EE902A30EE201A14
:102F400000EE100AE06900EE900A30EE600A21EE11
:102F5000001A00EE101AC1EE000A10EE900AE062AC
:102F6000D4F8A61009B12046884794F89800400785
:102F700002D5204601F056FD94F89800800602D54F
:102F8000204601F06BFB94F89800800702D520469C
:102F900001F0E4FB94F89800400602D5204601F0C9
:102FA000B6FB94F89800C00702D0204601F033FC2D
:102FB000A06A00EE100A206B00EE900A30EE200AA4
:102FC00010EE100AA062616A00EE100A00EE901A7C
:102FD000E06A70EE800A00EE100A30EE800A10EE11
:102FE000100A606394F89800C00602D5204601F0EC
:102FF0005FFC204601F083FC204601F0F3FC2069D1
:103000006061606BA063E16AE163A169E161216BCA
:10301000216200EE100ABDEC028B70BD70B5044653
:103020002DED028BB0EE608A90F89800F0EE408AA9
:10303000000602D5204601F083FC04F18C00FDF768
:1030400063FE10EE100A18EE101AC4F8900018EE85
:10305000900A08EE101A206108EE900A216038EEFE
:10306000680A9FED891ADFED890A01F04BFD10EE29
:10307000100AA061D4F8A21009B120468847A069BF
:1030800000EE100AB5EEC00AF1EE10FA00EE100ADA
:1030900001DCB1EE400AA16C00EE901AB4EEE00A39
:1030A000F1EE10FA79DDD4F89420616804F162033E
:1030B000EAB300EE101A116800EE901A70EE200AC2
:1030C00000EE100A20EE800A10EE101A6162A1686C
:1030D00000EE101A516800EE901AD4F8901070EEBD
:1030E000200A00EE100A60EE800A00EE101A20EEB0
:1030F000800A10EE105A2563B4F86050022D4DD9A5
:1031000000EE900A00EE101A1846FFF73BFDE0684B
:1031100000EE900AD4F89400806801EE100A70EE78
:10312000810A00BF20EE200A10EE100A4DE0FFE7F2
:1031300000EE901A00EE100A20EE800A10EE101A2F
:1031400000EE100A6162A16800EE901AD4F89010A7
:1031500060EE800A00EE101A20EE800A10EE102AAF
:103160002263B4F86020022A0AD900EE900A00EE29
:10317000101A1846FFF706FDE06800EE900AD1E746
:1031800000EE100AE06900EE900AE06870EE600A56
:1031900000EE100A20EE801A11E066E0E368926803
:1031A00000EE103A00EE902A30EE201A00EE100ADF
:1031B000E06900EE900A30EE600A21EE001A00EE9F
:1031C000101AC1EE000A10EE900AE062D4F8A610C0
:1031D00009B12046884794F89800400702D5204658
:1031E00001F020FC94F89800800602D5204601F0FA
:1031F00035FA94F89800800702D5204601F0AEFA1F
:1032000094F89800400602D5204601F080FA94F820
:103210009800C00702D0204601F0FDFAA06A00EE37
:10322000100A206B00EE900A30EE200A10EE100A11
:10323000A062616A00EE100A00EE901AE06A70EE79
:10324000800A00EE100A30EE800A10EE100A606369
:1032500094F89800C00602D5204601F029FB2046CC
:1032600001F04DFB204601F0BDFB20696061606B01
:10327000A063E16AE163A169E161216B216200EE73
:10328000100ABDEC028B70BDDB0F4940DB0F49C05B
:1032900070B5044611EE100A0025A06410EE900AE5
:1032A0001646606410EE100A206411EE900A256044
:1032B000606012EE100AA06012EE900AE06013EE59
:1032C000100A2563206513EE900A606514EE100A5B
:1032D000A06514EE900AE065A4F8601004F16200A5
:1032E000FFF74AFDC4F88C5084F898600021C4F8B8
:1032F0009910C4F89D1084F8A150656370BD10EE5C
:10330000101A416070470000B5EEC00AF1EE10FAE5
:1033100002DDB7EE000A7047B5EEC00AF1EE10FA12
:1033200002D2BFEE000A70479FED010A704700000D
:1033300000000000012001F029FCFBE710B5FEF7BA
:103340006FFD02F015F9012803D0BDE8104002F02E
:10335000A1B810BD30B593B030216846FDF7E2F852
:1033600014210CA8FDF7DEF81D480025016841F086
:1033700080510160006800F0805011901948016888
:1033800041F4804101600068022400F48040119003
:103390000120039010200490009406940820CDE9A9
:1033A0000750A820CDE9090404200B906846FEF7D9
:1033B000C1FE08B172B6FEE70CA90F2081E831000A
:1033C0004FF4A0500F904FF48050109005210CA89E
:1033D000FEF7C4FD002801D072B6FEE713B030BD81
:1033E00040380240007000400248016841F470011A
:1033F0000160704788ED00E010B504462DED068BA6
:10340000D0ED070A90ED001A70EEC00A90ED020AA6
:1034100020EE010A80ED010A90ED031A21EE001A58
:1034200061EE008A90ED061A20EE019A70EE899AFC
:10343000B0EEE90A10EE100A03F0BAF99FED3E1B58
:1034400053EC112B02F00EFC41EC1A0B18EE900A13
:1034500003F0AEF953EC1A2B02F0D0FA41EC1A0B40
:1034600018EE900A03F0A4F953EC1A2B02F0FAFBC1
:1034700041EC100B00F058FA51EC100B02F05CF923
:1034800000EE900AB0EE690AFFF73EFF70EEE80A20
:10349000B0EE498A20EE200AF6EE000A00EE208AFD
:1034A000F0EE680AB0EE690A01F001FB79EE290A34
:1034B00060EE202AF0EE680AB0EE690A01F0F7FA31
:1034C000B7EE003AD4ED030A33EE400A48EE002A84
:1034D00082EEA80A20EEC02AF0EE680AB0EE620A78
:1034E00001F0E5FA22EE002AB0EE620AFFF70CFFC7
:1034F000D4ED030A60EE203AF0EE680AB0EE620AFC
:1035000001F0D5FA33EE400A03EEC02A84ED042A16
:1035100084ED052A94ED060AD4ED000A00EE820A35
:1035200084ED060A94ED071A00EE801A84ED071A5E
:10353000BDEC068B10BD0000000000000000204024
:1035400080ED030A80ED001A9FED050AC0ED020A26
:1035500080ED050A80ED060AC0ED071A70470000ED
:103560000000000080ED030A704780ED070A7047F5
:1035700010B5806B0021C185C184FEF7A6FF10BD88
:1035800001680C3151E8002F22F4907241E80023C9
:10359000002BF5D10168143151E8002F22F001020F
:1035A00041E80023002BF5D1016B012909D1016805
:1035B0000C3151E8002F22F0100241E80023002BCB
:1035C000F5D1202180F8421000210163704708B531
:1035D00090F84210222901D0022008BD82684FF4E1
:1035E00080539A4201D1016921B1816A9A421BD06C
:1035F0004AB10AE00268816A5268C2F308020A808E
:10360000816A891C08E0026972B10268526802F09E
:103610007F020A70816A491C8162C18D491E0904BA
:10362000090CC18503D01BE002685268F1E701680C
:10363000CA6822F02002CA600168CA6822F4807257
:10364000CA6001684A6922F001024A61202180F8BB
:10365000421000214163026B012A03D0FFF786F973
:10366000002008BD016301680C3151E8002F22F0F1
:10367000100241E80023002BF5D101680A68D20648
:1036800002D50A6849680091818DFEF71DFFE7E7C2
:1036900070B5044600680169E26821F440511143A5
:1036A00001612169A068E269084361691143084327
:1036B0002168CA6849F20C639A430243CA602068D1
:1036C0004169A26921F44071114341613149206887
:1036D000884202D03049884202D1FEF7E9FC01E07D
:1036E000FEF7D6FCE2690023192164253226B2F5E3
:1036F000004F626828D0A0FB0101930F9200FCF7F5
:1037000046FE0146B0FBF5F06FF01802504301EBA6
:10371000800006EB0010B0FBF5F000F0F002B1FB0A
:10372000F5F002EB0012B1FBF5F06FF0180358430F
:1037300001EB800006EB0010B0FBF5F000F00F008D
:1037400021681044886070BDA0FB010192185B41A4
:10375000FCF71DFE0146B0FBF5F00201B1FBF5F0F0
:103760006FF01803584301EB800006EBC000B0FB7C
:10377000F5F000F0F80002EB4002B1FBF5F0584321
:1037800001EB800006EBC000B0FBF5F000F0070095
:10379000D6E7000000100140001401400148FEF788
:1037A00095BE0000940300200148FEF78FBE000084
:1037B000DC030020FEE70907090E002804DB00F106
:1037C000E02080F80014704700F00F0000F1E020C6
:1037D00080F8141D7047000010EE101A08B5444A16
:1037E0006846B2EB410F28D94FF0E640B0EB410FED
:1037F00094BF00204FF0FF3000900098002861DB5C
:1038000060EE000A10F0010F45D010F0020FDFED5E
:10381000391A9FED391A00EEE11ADFED381A40EE41
:10382000811A21EEA01AF0EE400A40EE010A08BF0C
:10383000F1EE600AB0EE600A08BD314B21F00042A3
:1038400093423CD911F0004FDFED2E0A20EE201AF2
:10385000DFED2D0A19BF31EE601A71EE200A31EE4C
:10386000201A71EE600ABDEEE01A11EE100A9FED0B
:10387000271A00F0030000EEC10A9FED251A009000
:1038800000EEC10A9FED231A00EEC10A9FED221A35
:1038900000EEC10AB1E79FED211A9FED210A10F059
:1038A000020F00EE810A9FED1F1A00EE801AB7EE9C
:1038B000000A00EE810A18BFB1EE400A08BD00F010
:1038C0007BF89AE710EE100A4000B0F17F4F3CBF42
:1038D000B7EE000A08BD07D14FF00100FCF7CAFEA1
:1038E000BDE8084000F060B8BDE8084000F059B8F5
:1038F000B61F927E336D4C39DA82083CA0AA2ABEEC
:10390000490E494683F9223F0000004B0000C93FA1
:1039100000A0FD390020A2331A61342CB93AB2BAA2
:10392000CA9F2A3DDDFFFFBE00B52DED048BB0EE32
:10393000409AF0EE609A83B051EC190B02F032FB22
:1039400041EC180B18EE100A18EE901A8DED008B52
:10395000002818BF0120084320F00040C0F17F601C
:1039600000F1E040C00F14D019EE101A19EE900AC1
:103970008DED009B002918BF0121084320F0004075
:10398000C0F17F6000F1E040C00F04BF0120FCF7F0
:1039900071FEB0EE480A03B0F0EE680ABDEC048B8D
:1039A00000BD30EE000A7047DFED020A80EEA00A8B
:1039B00070470000000000002DE9F0014FF07F4249
:1039C000B2EB410F9FBF4FF0FF310160BDE8F00146
:1039D00070474FF0004242EA0123C1F3C752783AE0
:1039E000551112F01F0C434CCCF120067C44C1F35E
:1039F000C752A2F178024FEA621204EB820254F835
:103A0000254008BFD2E9015612D0556804FA0CF4DB
:103A100025FA06F73C43976805FA0CF527FA06F8ED
:103A2000D26807FA0CFCF24045EA08054CEA0206A7
:103A3000A4FB034CA5FB0352A6FB03631D449D425C
:103A400034BF012600261319334416B1934202D91C
:103A500003E0934201D2012200E00022624402F11D
:103A6000200C9206DC0C42EA443200EE102A5B0382
:103A7000DFED210AF8EEC01A00EE103A4FEA9C1C66
:103A800011F0004FB8EE400AC0F800C020EE201A36
:103A900000EE105ADFED190AB8EE400A20EE200AB7
:103AA00071EE810A70EE800A10EE902A02F5006233
:103AB0006FF30B0200EE902A70EEE11A31EEC11A9C
:103AC000DFED101A30EE411A9FED0D0A20EE800A4C
:103AD00001EE210A9FED0C1A00EE810A04BFBDE839
:103AE000F0017047CCF180510160BDE8F001B1EE0A
:103AF000400A704720320000000000360000802C91
:103B000022AAFD29DB0FC92F0000C92F30B5040000
:103B10002DED088B91B07CD00025681CC0B201F05F
:103B2000A1FA44F835006D1C032DF6DB0025E8B240
:103B300000F0D2FF04EB45116D1C8861022DF6DB0D
:103B4000112205219FED9B8AF0EE484ADFED9A8A0B
:103B5000F0EE483AB0EE483AB0EE684A9FED979AD8
:103B6000F0EE492ADFED969AB0EE692A9FED95AA0C
:103B7000B0EE481AF0EE4A1ADFED93AAF0EE6A0AA8
:103B80009FED92BA04F15800B0EE4B0AFFF780FBAC
:103B900011220521F0EE484AB0EE684AF0EE483AAC
:103BA000B0EE483AF0EE492AB0EE692AF0EE4A1A31
:103BB000B0EE481AF0EE6A0AB0EE4B0A04F58170D6
:103BC000FFF766FB01220421F0EE484AB0EE484AB6
:103BD000F0EE483AB0EE483ADFED7D8AB1EE082AC1
:103BE000F3EE061AF0EE682AB0EE481AF0EE000A7C
:103BF0009FED780A04F5D670FFF74AFB01220421F5
:103C0000F0EE484AB0EE484AF0EE483AB0EE483A94
:103C100000E0CAE0F0EE682AB1EE082AF3EE061AD8
:103C2000B0EE481AF7EE000AB1EE000A04F2562090
:103C3000FFF72EFB2022684907A8FCF71FFC664D02
:103C400015F8200F8DF83C00686810901C220AA916
:103C50006846FCF713FC0DF11C0C01209CE80E00DB
:103C6000FCF722FF012000F091FF20225A4907A80B
:103C7000FCF704FC28788DF83C00686810901C2242
:103C80000AA96846FCF7FAFB0DF11C0C03209CE81E
:103C90000E00FCF709FF012000F078FF20224E49BA
:103CA00007A8FCF7EBFB28788DF83C0068681090BB
:103CB0001C220AA96846FCF7E1FB07AD052095E840
:103CC0000E00FCF7F1FE012000F060FF204600F03E
:103CD0004FF90020A4F8A003A4F8A403216891EDF3
:103CE000010A84ED010AA16891ED010A84ED030A3D
:103CF000216991ED010A84ED050A84F8AA0300BF49
:103D000004EB4011401C8A6900B2022812888A859F
:103D100091ED080A81ED070A81ED098AF0DBA068C0
:103D20009FED2E8AF0EE000AD0ED011AB0EE481A8F
:103D3000B2EE080A04F54070FFF702FC2069B0EE0D
:103D4000481AF0EE000AD0ED011AB2EE080A04F5A6
:103D50004870FFF7F5FBA069B0EE481AF0EE000AD4
:103D6000D0ED011AB2EE080A04F55070FFF7E8FB37
:103D7000D4EDEB1AB0EE481AF0EE000AB3EE020AE8
:103D800004F55870FFF7DCFBD4EDED1A11B0B0EE7E
:103D9000481ABDEC088B04F56070F0EE000AB3EE33
:103DA000020ABDE83040FFF7CBBB11B0BDEC088B79
:103DB00030BD0000000000005C128B3A6F12833AA5
:103DC00000004843000096430000FA4400401C46AF
:103DD0000AD7233C7B140E41440300206F12033B9F
:103DE0002DE9F04104462DED028B002290F8AA0344
:103DF000E8B304F1580504F5817601283FD0022884
:103E000036D0032837D1D4EDEE0A94EDED0A04F54F
:103E1000D670FFF703F9D4EDEC0A94EDEB0A04F247
:103E20005620FEF7CBFFD4F88A02D4ED780A00EED4
:103E3000100A284670EE200AC4ED090A94ED0A0A19
:103E4000FEF7BCFFD4F88A02D4ED780A00EE100A1F
:103E5000304670EEC00AC4ED110A94ED120AFEF766
:103E6000ADFF4048408B40B3012835D069E0FFE703
:103E7000A286A4F85420BDEC028BBDE8F081D4EDFD
:103E8000090A94ED0A0A2846FEF798FF94ED230AE2
:103E9000BDEEC00A10EE100AA086D4ED110A94ED12
:103EA000120A3046FEF78AFFD4F8360100EE100AF7
:103EB000BDEEC00A10EE100A51E094ED230ABDEEEB
:103EC000C00A10EE100A60F30F05D4F8360100EEB8
:103ED000100ABDEEC00A30E094EDED0AFFF77CFC5D
:103EE000214E9FED228AD6ED000A60EE208A94EDE5
:103EF000EB0A30EE480AFFF76FFCD4ED230A48EED8
:103F0000800ABDEEE00A10EE100A94EDED0A60F3AF
:103F10000F05FFF761FCD6ED000A60EE208A94EDF4
:103F2000EB0A30EE480AFFF757FCD4F8360100EEF2
:103F3000900A48EEC00ABDEEE00A10EE100A60F3E7
:103F40001F4542F21076774228B23246394600F0D9
:103F5000D1FDA08628143246394600F0CBFDA4F8E6
:103F6000540088E7F40900206C0000208FC2F53F60
:103F70002DE9F04104007CD000209FED470ADFEDE1
:103F8000470A9FED471A00BF04EB4011401C8A69A5
:103F900000B2B2F9023001EE903AF8EEE11A61EEA9
:103FA000801A81EEA02A81ED0A2A12880B6B02EB9F
:103FB00043328B8DD21A01EE902A0228F8EEE11AD4
:103FC00061EE811AC1ED081ADEDB364DB1EE081A3A
:103FD00095ED080AD5ED100A70EE200A80EE810AF0
:103FE0009FED311ADFED310A00F08CFD85EDED0A11
:103FF00095ED080AD5ED100A04F5407104F54878EE
:1040000030EE600AF0EE080A04F5507704F55876B1
:1040100080EE201A85EDEB1AB4F8A00304F5607564
:10402000012802D1B4F8A603D0B1B1EE040A0846C3
:10403000FFF798FAB1EE040A4046FFF793FAB1EEA3
:10404000040A3846FFF78EFAB1EE040A3046FFF74D
:1040500089FAB1EE040A2846BDE8F041FFF782BABA
:10406000B2EE040A0846FFF77DFAB2EE040A4046B3
:1040700000E00EE0FFF776FAB2EE040A3846FFF7EA
:1040800071FAB2EE040A3046FFF76CFAB2EE040A97
:10409000E1E7BDE8F08100005077D63D0000104216
:1040A000C2B8B237A4050020DB0F4940DB0F49C07E
:1040B0002DE9F04104003FD0B4F8A413384D04F5C5
:1040C000407004F5487704F55076B9B395ED010AD0
:1040D000FFF792F995ED020A3846FFF78DF995ED55
:1040E000030A3046FFF788F994EDC70A84ED010A08
:1040F00094EDCF0A84ED030A94EDD70A84ED050A06
:1041000094F8AA1304F5587004F56076D9B3012920
:1041100027D0022938D095ED040AFFF76DF995ED07
:10412000050A3046FFF768F994EDDF0A84EDEC0AE2
:1041300094EDE70A84EDEE0ABDE8F081FFE721681F
:1041400091ED010AFFF711FAA06890ED010A3846D7
:10415000FFF70BFA206990ED010A3046FFF705FAE8
:10416000CEE794EDEB0AFFF700FA94EDED0A304646
:10417000FFF7FBF9B8EE000A84ED090AB0EE000A79
:1041800084ED110AD8E7FFE794EDEB0AFFF7EDF9AC
:1041900094EDED0A3046BDE8F041FFF7E6B90000C6
:1041A000F409002070B504002DED028B7ED0B4F828
:1041B000A003A4F8A20342480025C18BA4F8A013D1
:1041C000B4F8A413A4F8A813828BA4F8A423408BFA
:1041D000A4F8A6032AB139B194F8AA03012806D09D
:1041E00053E084F8AA5364E0012084F8AA0394F809
:1041F000AB0301280DD004F158009FED328AB0EED8
:10420000480AFFF77CF8B0EE480A04F58170FFF722
:1042100076F894ED0A0A2C492C48B0EEC00A10EE4C
:10422000102A8A4203DA0268521C026000E005602C
:1042300094ED120AB0EEC00A10EE102A8A4203DA98
:104240004168491C416000E04560016896291CD91D
:104250004168962919D905604560022084F8AA03AF
:1042600025632565A0690088A085A06B0088A4F857
:104270004C0094EDEB0A04F55870FFF776F994EDD5
:10428000ED0A04F56070FFF770F994F8AA030228AC
:104290000FD194F8AB03022806D00E489FED0C0A0C
:1042A00084ED170AC4F80601032000E005E084F855
:1042B000AA0394F8AA0384F8AB03BDEC028B70BD8B
:1042C000F409002000C0A845CDCC4C3E7000002071
:1042D0000000FA440000FA442DED028B92B04FF436
:1042E000FA6000F0CBFFC048FFF710FC00F05AFC6A
:1042F000BD4D05F570769FEDBD8ABD4CDFEDBD8AE5
:104300003046FCF701FD85EDEF0AB748FFF74AFF9D
:10431000B548FFF72DFEB448FFF7CAFEB248FFF7D5
:104320005FFDB5F8A403002873D0286880780028C2
:104330006DD00128AE494FF0200207A868D0FCF7E5
:104340009DF894F820008DF83C00606A10901C22C3
:104350000AA96846FCF792F80DF11C0C01209CE8B4
:104360000E00FCF7A1FB00BFB0EE680AFCF7B2FC40
:10437000A868807800287CD001289D494FF0200251
:1043800007A877D0FCF77AF894F820008DF83C0065
:10439000606A10901C220AA96846FCF76FF80DF1BC
:1043A0001C0C03209CE80E00FCF77EFBB0EE680AB4
:1043B000FCF790FC2869807800286ED001288C4991
:1043C0004FF0200207A869D0FCF758F894F82000B5
:1043D0008DF83C00606A10901C220AA96846FCF720
:1043E0004DF80DF11C0C05209CE80E00FCF75CFB61
:1043F000B0EE680AFCF76EFCB5F95410B5F934005C
:10440000FCF730FB012000F0C1FB79E701E046E05A
:104410005DE02022764907A8FCF730F814F8200F59
:104420008DF83C00606810901C220AA96846FCF7D1
:1044300025F80DF11C0C01209CE80E00FCF734FB64
:10444000B0EE680AFCF746FC2022694907A8FCF791
:1044500015F820788DF83C00606810901C220AA99D
:104460006846FCF70BF80DF11C0C03209CE80E00CD
:1044700001E04BE062E0FCF717FBB0EE680AFCF7E6
:1044800029FC20225A4907A8FBF7F8FF14F8040B6F
:104490008DF83C0054F824099DE76EE085E0202269
:1044A000534907A8FBF7EAFF94F820008DF83C0079
:1044B000606A10901C220AA96846FBF7DFFF0DF125
:1044C0001C0C01209CE80E00FCF710FB4CE7FBF7EE
:1044D000D5FF94F820008DF83C00606A10901C22F3
:1044E0000AA96846FBF7CAFF0DF11C0CF0EE480A5A
:1044F0009CE80E0095ED010A0120B0EE602AF3EE73
:10450000041A9FED3D1AFCF713FB2DE720223849D2
:1045100007A8FBF7B3FF94F820008DF83C00606A11
:1045200010901C220AA96846FBF7A8FF0DF11C0C8D
:1045300003209CE80E00FCF7D9FA37E7FBF79EFF53
:1045400094F820008DF83C00606A10901C220AA9A3
:104550006846FBF793FF0DF11C0CF0EE480A9CE84F
:104560000E0095ED030A0320B0EE602AF1EE041A66
:104570009FED221AFCF7DCFA18E720221C4907A855
:10458000FBF77CFF94F820008DF83C00606A1090E7
:104590001C220AA96846FBF771FF0DF11C0C0520CF
:1045A0009CE80E00FCF7A2FA22E7FBF767FF94F8FD
:1045B00020008DF83C00606A10901C220AA9684611
:1045C000FBF75CFF0DF11C0CF0EE480A9CE80E00B6
:1045D00095ED050A0520B0EE602AF7EE001A9FED72
:1045E000081AFCF7A5FA03E7A40500200000000064
:1045F0004403002052499D3900401C4600C0DA4562
:104600000000C84200B58BB000200121CDE90601B1
:1046100008910090019002900390059004906946E3
:104620000C48FCF72BFC0B48FDF734F90221094834
:10463000FCF7B3FB0E200990059069460648FCF78D
:104640001DFC0548FDF726F902210348FCF7A5FBF0
:104650000BB000BD440300206C0300208169826A16
:1046600000EE101A00EE902A20EE200AB5EEC00AE5
:10467000F1EE10FA48DD00EE101AB5EEC00AF1EEC8
:1046800010FA00EE101A01DCB1EE400A436D00EEA4
:10469000903AB4EEE00AF1EE10FA35D9026D00EE70
:1046A000903A00EE102A70EE200A00EE101AB5EED5
:1046B000C00AF1EE10FA00EE101A01DCB1EE400A69
:1046C000F4EEC00AF1EE10FA1FDB00EE101A00EE55
:1046D000902AB5EEC00AF1EE10FA00EE101A01DCD5
:1046E000B1EE400A016B70EEC00A00EE103A30EEF7
:1046F000801A00EE102AC1EE000A00EE101A20EE19
:10470000800A10EE101A016370470021FBE7C16AAE
:10471000C26D00EE901AD0F89010C36B00EE101A24
:1047200060EE801A00EE902A00EE101A30EE800A39
:1047300000EE903A81EE801A00EE102A60EE801AA8
:1047400000EE102A00EE901A30EE200AC1EE800A28
:1047500031EE200A10EE101AC162704770B504469F
:10476000D0F8945000F16202B0F860300169D0F8DE
:104770009000D5B1022B36D900EE101AF1EE400AA6
:1047800000EE100A1046FEF7FDF9E06800EE900A10
:10479000D4F89400806801EE100A70EE810A00BF20
:1047A00020EE200A10EE100A1BE0022B0CD900EEBE
:1047B000101AF1EE400A00EE100A1046FEF7E2F978
:1047C000E06800EE900AEBE7626900EE101A00EE76
:1047D000902AE16870EEC00A00EE101A20EE801AEE
:1047E00012E0E06270BDE26800EE102AAA6800EEF6
:1047F000902A626930EE201A00EE902A00EE101A1C
:1048000030EEC00A21EE001A00EE100AC1EE000AD6
:1048100010EE900AE5E7026B816A00EE902A00EE46
:10482000101A426A70EE200A01EE102A00EE101AE9
:10483000C26A31EE001A00EE102A31EE000AB5EE1F
:10484000C00AF1EE10FA01DCB1EE400A026C01EE92
:10485000102A0022B4EEC10AF1EE10FA0CDD8369D1
:1048600000EE101A01EE103A21EE000AB5EEC00A71
:10487000F1EE10FA00DD0263416C00EE101AB4EEA6
:10488000E00AF1EE10FA01D20263816200EE101A22
:10489000B1EE400AB4EEE00AF1EE10FA07DD00EEE8
:1048A000101A0263B1EE400A10EE101A81627047CE
:1048B000416B826D00EE901AD0F89010836B00EE81
:1048C000101A60EE801A00EE902A00EE101A30EEF8
:1048D000800A00EE903A81EE801A00EE102A60EE17
:1048E000801A00EE102A00EE901A30EE200AC1EE77
:1048F000800A31EE200A10EE101A41637047416BB6
:1049000000EE901A016C00EE101AF4EEC00AF1EEFF
:1049100010FA00DD4163426B00EE101A00EE902A9F
:10492000B1EE400AF4EEC00AF1EE10FA06D200EE43
:10493000101AB1EE400A10EE101A416370470000E1
:1049400010B5416B9FED241A00EE901A016C00EE39
:10495000101A20EE010AF4EEC00AF1EE10FA3AD372
:1049600001681E4B00EE101AB0EEC00A10EE102ABD
:104970009A4230DB026900EE101A00EE902A184AC3
:1049800030EE600AF0EEC00A00EE101AB0EEC01A67
:1049900080EE810A10EE101A91420ADD50F8991F3C
:1049A0004268491C40F8041B42F1000240F89D296E
:1049B00004E00022C0F89920C0F89D20D0F899406A
:1049C000D0F89D204FF4FA7300211B1B914102D2B5
:1049D000012180F8A11010BD6F12833A17B7D138AA
:1049E0003333733F416A00EE901A016C00EE101AE7
:1049F000F4EEC00AF1EE10FA00DD4162426A00EE08
:104A0000101A00EE902AB1EE400AF4EEC00AF1EE60
:104A100010FA06D200EE101AB1EE400A10EE101A8B
:104A20004162704730B5D0F894508469C369826898
:104A3000D0F89010B6EE000AC5B100EE902A6A6870
:104A400001EE102A70EE811A00EE904A01EE103A43
:104A500070EE810A20EE800A61EE800A00EE101AE4
:104A600020EE800A10EE101A016330BD00EE904A6D
:104A700001EE103A70EE810A60EE800A00EE102A14
:104A800060EE800AEAE7012131EE601A814070EEA3
:104A9000600A491E00EE101AB8EEC00A20EE800A25
:104AA000C0EE010ABDEEE00A10EE100A7047B0EE4B
:104AB000401A00B531EE200AFEF726FCF0EE401A4F
:104AC00031EE600AFEF720FC31EEC00AF6EE000A75
:104AD00020EE200A00BD0000024900EB800001EB3F
:104AE0004000704780090020EFF30580002800D0C7
:104AF00001207047884201DA084670479042FCDD89
:104B000010467047B4EEE01AF1EE10FA0FD371EED2
:104B1000601AB4EEC10AF1EE10FA03DC08E000BF3F
:104B200030EE610AB4EEC10AF1EE10FAF8DC70471B
:104B3000B4EEE00AF1EE10FA02D3704730EE210A2B
:104B4000B4EEE00AF1EE10FAF8D37047FDF770F911
:104B5000FEF700FCFDF7AAFFFDF750FFFDF70AFF87
:104B6000FDF72AFFFDF7D0FFFDF7ECFFFFF74AFD49
:104B7000A820FCF7EBF8FDF76FFF00F00EF8FEE75A
:104B800001460020842900D0C81C704710B500B928
:104B9000012000F073FB002010BD10B500F094FB65
:104BA000002010BD10B5FFF79FFF18B1BDE8104001
:104BB00000F0F2BCBDE8104000F0E8BC7FB50D4647
:104BC00004464169B0F9080081B1A16971B1FFF7EC
:104BD000D7FFD4E905128DE80700D4E900102B4671
:104BE000226900F09AFC039004B070BDFFF7C8FF83
:104BF00003A9CDE90001208A2B4682B2D4E9001036
:104C000000F05EFC012801D00020EDE70398EBE7FF
:104C10002DE9F041184C0F460546E6682068001D56
:104C200000F03AFA38B9206890F82C10012088403A
:104C3000216981432161681C07D137B12168BDE832
:104C4000F0410E48091D00F06BBA20683544B542AA
:104C50004560216805D2A06BBDE8F041091D00F058
:104C600047BA606B091D00F043FAA06A854200D282
:104C7000A562BDE8F081000088000020200B002024
:104C80002DE9F041054600F057FA2E4CA068401C73
:104C9000A06020682C4F10B1606940B32DE0256002
:104CA000A068012829D1002606EB860007EB8000CA
:104CB00000F010FA761C072EF6D323488C3000F053
:104CC00009FA2148A03000F005FA1F48B43000F07E
:104CD00001FA1D48C83000F0FDF91B48DC3000F037
:104CE000F9F919488C3060631430A06305E020683E
:104CF000E96AC06A884200D82560606A401C606228
:104D0000E96A0120226988401043206101EB81009B
:104D100007EB8000291D00F003FA00F02DFA60690E
:104D200000280CD02068E96AC06A884207D2074987
:104D30004FF080500860BFF34F8FBFF36F8FBDE817
:104D4000F081000088000020440A002004ED00E00B
:104D500010B5044690F8510058B101280CD0022833
:104D60000FD0502080F31188BFF34F8FBFF36F8FA8
:104D7000FEE7206B00F014FA2046BDE8104000F07A
:104D80000FBA10BD10484FF47051420706D0C01D35
:104D90000D4920F00700411AC1F570510B4A00235C
:104DA0000144C2E900030839183A21F007011160F3
:104DB0004B600B600B1AC0E9001393604FF000408A
:104DC0005360506170470000340B0020DC0000206D
:104DD000144E154CA6F1C8074FF08058DFF84C90E0
:104DE00012E000BF00F0A8F9F068C568281D00F0C7
:104DF00053F9A068401EA0606068401E606000F02B
:104E0000BBF92846FFF7A4FF60680028EAD138689C
:104E10000128F9D9C9F80080BFF34F8FBFF36F8F16
:104E2000F2E700000C0B00208800002004ED00E0F9
:104E30002DE9F0479A46DDE9098481466FF00303C6
:104E4000206B03EB82021044089E20F007077807CE
:104E500007D0502080F31188BFF34F8FBFF36F8FBF
:104E6000FEE7002561B1002023180A5C83F8342096
:104E70000A5C12B1401C1028F6D384F8435001E0BC
:104E800084F83450072E00D30626E662C4E9116583
:104E9000201D00F02AF904F1180000F026F9246121
:104EA000C6F107006462A061E56484F85050524680
:104EB0004946384600F0C0F82060B8F1000F01D034
:104EC000C8F80040BDE8F08730B5114900E0114650
:104ED0000A688242FBD34B685C18844203D1406865
:104EE00018444860084643681C18944209D1084C8D
:104EF000183C2468A24209D052681A4442600A68E9
:104F000012680260814200D0086030BD0460F9E799
:104F1000DC0000200648416B096829B1416BC96873
:104F2000C9684968816270474FF0FF31FAE70000B5
:104F30008800002008484068401C4FF0500080F373
:104F4000118804D0BFF34F8FBFF36F8FFEE7BFF31D
:104F50004F8FBFF36F8FFEE7E40000202DE9F04193
:104F60000546002700F0E6F9324E306808B9FFF731
:104F700009FF706905424ED1C5B3083568070ED0E8
:104F800005F00700C0F108000544680707D050206D
:104F900080F31188BFF34F8FBFF36F8FFEE72DB300
:104FA0007068854237D82348183001460C6801E004
:104FB00020460C466168A94202D221680029F7D137
:104FC00031688C4227D00768216801606068083723
:104FD000411B10290FD96019420708D0502080F3D7
:104FE0001188BFF34F8FBFF36F8FFEE713E041606F
:104FF0006560FFF769FF61687068401A7060B268A9
:10500000904200D2B060706901430020C4E9000101
:10501000F068401CF06000F02DFB780707D05020AE
:1050200080F31188BFF34F8FBFF36F8FFEE73846D1
:10503000BDE8F081C400002010B5031F4FF080745C
:105040001C601B1F21F001011960191F044B0B602C
:1050500014390A60091F6FF0020244380A6010BD5B
:10506000354F0008014901EB0010704794090020FA
:1050700001EE100A70EEC00A0120B8EEC11A884095
:10508000401E21EE201A00EE900AF8EEE01AC1EE62
:10509000210A30EE800A7047D0E9013201699A6036
:1050A000D0E901235A604A68824201D182684A608D
:1050B000002202610868401E08600868704700000E
:1050C000034B036003F154000860802010607047B8
:1050D000F000002000F108014FF0FF32C0E901129A
:1050E000C1600161002101607047002101617047CA
:1050F00030B50B685A1C02D000F1080202E00269C8
:1051000004E02246546825689D42FAD953684B60F2
:1051100099608A60516008610168491C016030BD76
:1051200042684A6093688B60936859609160086137
:105130000168491C01607047502080F31188BFF35B
:105140004F8FBFF36F8F0A494868401C48600128A1
:105150000CD10848006810F0FF0F07D0502080F3F2
:105160001188BFF34F8FBFF36F8FFEE770470000CA
:10517000E400002004ED00E00849486828B1401E22
:10518000486001D180F311887047502080F3118866
:10519000BFF34F8FBFF36F8FFEE70000E4000020E6
:1051A00070B500282AD0164DA0F10804606869691E
:1051B000084207D1502080F31188BFF34F8FBFF30F
:1051C0006F8FFEE722683AB1502080F31188BFF359
:1051D0004F8FBFF36F8FFEE78843606000F0AAF83F
:1051E00060686968084468602046FFF76DFE2869BA
:1051F000401C2861BDE8704000F03CBA70BD000062
:10520000C40000204FF0E0200021016181610549C8
:105210004FF47A720968B1FBF2F1491E416107212E
:10522000016170471C00002010B5FBF75DF81149C3
:1052300010280ED300F1E02090F8F0030A78904295
:1052400007D2502080F31188BFF34F8FBFF36F8FC9
:10525000FEE709480068896800F4E060884207D9E1
:10526000502080F31188BFF34F8FBFF36F8FFEE79D
:1052700010BD0000E40000200CED00E010B50200BD
:1052800014D00F48006B38B1502080F31188BFF361
:105290004F8FBFF36F8FFEE700F04CF800211046F0
:1052A000FFF7B6FC00F0E6F9002807D105494FF0FA
:1052B00080500860BFF34F8FBFF36F8F10BD0000A9
:1052C0008800002004ED00E010B586B000240394AF
:1052D00005AA04A903A80494FFF7F2FEDDE903017F
:1052E0000094CDE9011000230EA11048059A00F0AA
:1052F00014F90F490028C86211D0502080F311889A
:10530000BFF34F8FBFF36F8F4FF0FF3088620120E4
:105310004861CC6006B0BDE8104000F041B806B06E
:1053200010BD000049444C4500000000D14D00086C
:10533000880000200248016B491C0163704700008F
:10534000880000201448016B11B10121C161704730
:105350000021C1610169B1FA81F1C1F11F0101EBC5
:1053600081020E4951F822306BB101EB820101F14B
:1053700008034A6852684A609A4201D152684A60FA
:10538000D16801607047502080F31188BFF34F8FC0
:10539000BFF36F8FFEE7000088000020440A002062
:1053A0001CB537480168374A914207D1502080F335
:1053B0001188BFF34F8FBFF36F8FFEE7006831494D
:1053C000491E884207D1502080F31188BFF34F8FC8
:1053D000BFF36F8FFEE72C4908780190FF2008701B
:1053E00008788DF800009DF800009DF8002000F07E
:1053F000F000904207D0502080F31188BFF34F8F08
:10540000BFF36F8FFEE79DF80000204C00F05000C6
:1054100020700720A06005E09DF8002052008DF864
:105420000020401E9DF800201206F5D4A06003283D
:1054300007D0502080F31188BFF34F8FBFF36F8FD9
:10544000FEE74FF44070A060019808700C482030CF
:10545000016841F470010160016841F07041016030
:10546000FFF7D0FE00206060FAF706FF08480168E9
:1054700041F040410160FAF7EBFE00201CBD000046
:1054800000ED00E071C20F4100E400E0E400002004
:1054900034EF00E010B5502080F31188BFF34F8F38
:1054A000BFF36F8F00F080F818B104494FF08050BF
:1054B0000860002080F3118810BD000004ED00E0BA
:1054C0002DE9FF5F8346DDE90E87994616468A4639
:1054D0009000FFF743FD05001CD05420FFF73EFD70
:1054E000040014D00020256384F85100CDE9024067
:1054F000CDE900874B46324651465846FFF798FCA7
:105500002046FFF7BDFB012004B0BDE8F09F284610
:10551000FFF746FE4FF0FF30F6E7F0B585B0DDE966
:105520000B640A9DA6B1DCB15427009726630226BE
:1055300084F85160002604AFCDE90246CDE900575A
:10554000FFF776FC2046FFF79BFB049805B0F0BD03
:10555000502080F31188BFF34F8FBFF36F8FFEE7AA
:10556000502080F31188BFF34F8FBFF36F8FFEE79A
:105570000548416919B1006B18B10020704701203E
:105580007047022070470000880000200148C06872
:10559000704700008800002010B5FFF745FE014865
:1055A000C06810BD880000202DE9F0412F4C002676
:1055B000206B28B1A069401CA0613046BDE8F08195
:1055C000E5686D1CE56013D1606B006838B1502050
:1055D00080F31188BFF34F8FBFF36F8FFEE7606BCF
:1055E000A16B6163A063206A401C2062FFF792FCFC
:1055F000A06ADFF87C80854209D3606B0068A0B1A7
:10560000606BC068C7687868854211D2A062206864
:10561000C06A00EB800158F82100012800D901265A
:10562000E0690028C9D00126C7E74FF0FF30EDE759
:10563000381DFFF731FDB86A18B107F11800FFF700
:105640002BFDF96A0120226988401043206101EB9B
:10565000810108EB8100391DFFF762FDF86A2168BE
:10566000C96A8842C9D30126C7E700008800002024
:10567000440A00202DE9F0472C4D00242746286BD2
:1056800038B1FFF759FD286B401E2863286B40B1E5
:1056900046E0502080F31188BFF34F8FBFF36F8F28
:1056A000FEE7A968224E0120D1B3A6F1B4098046D5
:1056B0003068E8B1F068C46804F11800FFF7ECFC4A
:1056C000201DFFF7E9FCE06A2A6908FA00F111439E
:1056D000296100EB800109EB8100211DFFF720FD0E
:1056E000E06A2968C96A8842E2D3C5F81C80DFE70E
:1056F0000CB1FFF70FFCAC6944B14646FFF754FF0D
:1057000000B1EE61641EF9D10020A861E86938B1EA
:105710000849012738070860BFF34F8FBFF36F8F29
:10572000FFF72AFD3846BDE8F0870000880000201A
:10573000F80A002004ED00E021F00042A2F16052DE
:10574000B2F5801F01F0004328BFD2F17E6C51D921
:10575000F1EE10CA1CF4400F14D15FEAC00C43EA0A
:10576000C20202EB507008BF70475FEA4C0C40F178
:105770000000DFF880C240F0258728BF20F001003C
:1057800000F020BFC30001F0004343EAC20202EB75
:10579000507008BF70471B4248BF4FEA4C0C1CF4C6
:1057A000000F08BF401CDFF84CC200F00BBFC30065
:1057B00001F0004343EAC20202EB507204BF1046FC
:1057C00070471B4248BF4FEA4C0C1CF4000FDFF837
:1057D00024C218BF104640F0F58608BF521C12F4D0
:1057E000000F08BF104600F0ED8621F0004201F0E6
:1057F000004330E050EA410C04BF084670475FEABE
:10580000125CBCF1FE0F1ED1F1EE10CA1CF4400F69
:10581000CDD15FEAC00C9BD05FEA001C4FEAC20CFE
:105820004CEB507C04BFC2002CEAD27C1CF4000F6D
:1058300004BF4CEA0300DFF8BCC100F0C38621F0CE
:105840000042A2F16052B2F5801F4FEA410C2ADB00
:105850001CF5001F16D2F1EE10CA1CF4806F06D0A2
:105860002CF0005C4CF0805CA1F140612AE04FF02C
:105870007F40DFF884C143EA500000F0A3BE084631
:1058800001F051B870B500F0CDFA00BF000000B9CA
:1058900088000004FFF7F3BF21F0704243EA507024
:1058A00040EAC2007047F1EE10CA2CF0805C4CF068
:1058B000005C1CF4006F25D04B00B3F5001F51D3E2
:1058C00001F140611CF4400F40F07E800CF0405C20
:1058D000C3004CF0880C11D05CF0404C10F0805F9D
:1058E0000CD0034610F1005041F10001020108BF45
:1058F00020F00050834218BF2CF0004C00F06040B4
:1059000001F00DB91CF4400F1AD01B4248BF4FEAFA
:105910004C0C1CF4000F13D112F1406248BF22F06E
:105920007F424FEAC00CBCF1010F43EAC20242EBD6
:1059300050704FF0880228BF42F0804200F0F8BF5C
:1059400012F1406248BF22F07F425FEAC00C43EA96
:10595000C20242EA50704FF0880218BF42F0404243
:1059600000F0E6BF01F0004321F00041094214D0ED
:10597000B1FA81FCACF10B0CCCF1200201FA0CF174
:1059800020FA02F241EA02014FEA0C5200FA0CF04E
:10599000A1EB020181EA03010FE0B0FA80F200FA04
:1059A00002F002F115024FEAD0214FEA0252A1EBB8
:1059B00002014FEA405081EA0301F1EE10CA2CF0D7
:1059C000805C4CF0005C7BE762460CF0405CC300FE
:1059D0004CF0880C92D05CF0404C094248BF520019
:1059E00012F4000F8AD110F1005041F100012CF0A7
:1059F000004C83D1880000408800001010B5DFF80B
:105A000040E211F5801C13F580141EEA4C0F18BFFC
:105A10001EEA440F00F0C88091EA030F48BF83F0EC
:105A2000004300F1D883841A71EB030C05D21219DC
:105A300043EB0C03001B61EB0C014FEA1154A4EB88
:105A4000135C23EA6E0321EA045143F48013DCF172
:105A5000200E53D322FA0CFE10EB0E0023FA0CFE9C
:105A600041EB0E01CCF1200E03FA0EFE10EB0E00FE
:105A700051F10001B1F5801FCCF1200E53D201EBA2
:105A8000045112FA0EF2BDE8104008BF7047F1EE63
:105A900010CA1CF4400F1ED14FF0110C92F0000FF1
:105AA0004CF0804C40F18E85401C38BF5FEA4202CA
:105AB00040F08885002814BF20F0010041F100016A
:105AC0004FEA410313F5001F24BF4CF0805CA1F1A5
:105AD000C04100F077BD11F0004F54BF1CF4000F1F
