:020000040800F2
:10000000F870002055030008713D000861350008B4
:10001000593B00089F0C00082D5D000800000000FF
:100020000000000000000000000000009502000831
:100030000D12000800000000F102000859530008EA
:100040006F0300086F0300086F0300086F030008C8
:100050006F0300086F0300086F0300086F030008B8
:100060006F0300086F0300086F0300086F030008A8
:100070002D1000086F030008391000086F030008F6
:1000800045100008511000086F0300086F030008B6
:10009000A10C00086F0300086F0300086F0300083D
:1000A0006F0300086F0300086F0300086F03000868
:1000B0006F0300086F0300086F0300086F03000858
:1000C0006F0300086F0300086F0300086F03000848
:1000D0006F030008395B0008F55B00086F03000838
:1000E0006F0300086F0300086F0300086F03000828
:1000F0006F0300086F0300086F0300086F03000818
:100100006F0300086F0300086F0300086F03000807
:100110006F0300086F0300086F0300086F030008F7
:100120006F0300085D100008691000086F030008E5
:100130006F0300086F0300086F0300086F030008D7
:10014000AD0C00086F0300086F0300086F03000880
:100150006F030008751000086F030008895C000831
:100160006F0300086F0300086F0300086F030008A7
:100170006F0300086F0300086F0300080000000011
:100180006F0300086F030008E1550008555600088A
:100190006F0300086F0300086F0300086F03000877
:1001A00000000000000000006F03000800F002F8EB
:1001B00000F060F80AA090E8000C82448344AAF1A1
:1001C0000107DA4501D100F055F8AFF2090EBAE89F
:1001D0000F0013F0010F18BFFB1A43F0010318477B
:1001E000F0D0000010D100000A444FF0000C10F8CD
:1001F000013B13F0070408BF10F8014B1D1108BFA5
:1002000010F8015B641E05D010F8016B641E01F844
:10021000016BF9D113F0080F1EBF10F8014BAD1C94
:100220000C1B09D16D1E58BF01F801CBFAD505E0B2
:1002300014F8016B01F8016B6D1EF9D59142D6D30C
:10024000704700000023002400250026103A28BF34
:1002500078C1FBD8520728BF30C148BF0B60704738
:100260001FB50BF0FBFF9DE8030000F09BFB1FBDDB
:1002700010B510BD00F01AFC1146FFF7F1FF09F0B0
:100280009AF900F038FC03B4FFF7F2FF03BC00F06A
:100290006FFC00002C4B19680868B0E8F04F80F341
:1002A0000988BFF36F8F4FF0000080F3118870470B
:1002B0000000000008480068006880F308884FF0DC
:1002C000000080F3148862B661B6BFF34F8FBFF3AE
:1002D0006F8F00DF00BF00BF08ED00E0DFF80C000B
:1002E000016841F470010160704700BF88ED00E0D3
:1002F000EFF30980BFF36F8F134B1A681EF0100FD6
:1003000008BF20ED108A20E9F04F106009B44FF0CB
:10031000500080F31188BFF34F8FBFF36F8F0AF047
:10032000FDF94FF0000080F3118809BC19680868D6
:10033000B0E8F04F1EF0100F08BFB0EC108A80F349
:100340000988BFF36F8F70472C000020EFF3058002
:10035000704700000948804709480047FEE7FEE76C
:10036000FEE7FEE7FEE7FEE7FEE7FEE7FEE7FEE765
:1003700004480549054A064B70470000055400082B
:10038000AD010008F86A0020F8700020F86C002029
:10039000F86C00209FED1A1AF5EE000A40EE010AF3
:1003A000BDEEE00AF5EEC00A10EE100AF1EE10FA0A
:1003B00038BF401E00EE100A1349F7EE001AB8EEDF
:1003C000C00A30EEC00ADFED0F0A20EE200AFCEE74
:1003D000C00A10EE900AC0F3080000EE900A01EB8C
:1003E0008000F8EE600A90ED011A70EE600A90ED60
:1003F000000A71EEE01A21EE800A00EE810A7047D1
:1004000083F9223E0000004474C90008DFED190A98
:10041000B5EEC00A60EE200ABDEEE01A11EE100A39
:10042000F1EE10FA38BF401E00EE100A1349F7EE45
:10043000001AB8EEC00A30EEC00ADFED0F0A60EE17
:10044000200ABCEEE00A10EE100AC0F3080000EE2D
:10045000100A01EB8000B8EE400A90ED011A70EE30
:10046000C00A90ED000A71EEE01A21EE800A00EE5B
:10047000810A704783F9223E0000004474C90008D5
:1004800001804280436070472DE9F04F82B046689A
:1004900053680193058847884B880020009008889E
:1004A000874201BFB2F800C06545528893421EBF23
:1004B0006FF0020002B0BDE8F08F9FED412A4FEAD5
:1004C000970EC7F3400B00BFDDE9000202EB800A84
:1004D0004A6898464FF00009B0EE420AB4465FEA17
:1004E0000E0025D092ED001ADCED001A02EB83021B
:1004F000DCED010A01EE810A92ED001A02EB8302A3
:10050000401ED2ED001A02EB830200EE810A9CED40
:10051000021ADCED030A00040CF1100C000C01EED1
:10052000210A92ED001A02EB830200EE810AD9D172
:1005300017F0030026D0ACF10404A2EB830210F004
:10054000010F08D002EB8302D4ED010A92ED001AEC
:10055000241D00EE810A5FEA0B0013D002EB830C2E
:10056000D4ED010A9CED001A02EBC302401E00EE1E
:10057000810AD4ED020A92ED001A04F1080400EE9B
:10058000810AEBD109F10100AAEC010A1FFA80F9F6
:10059000486800EB8902A8F101001FFA80F8B8F161
:1005A000000F99D1009806EB8706184480B200909E
:1005B000681E05042D0C87D102B00020BDE8F08F25
:1005C0000000000070B5064600F0D0F9056806F19D
:1005D0000B0020F00704B4429CBF002070BD2B46E6
:1005E0006A68BAB11068A04210D304F108018842C9
:1005F0003CBF5068586007D35168101941601168BA
:10060000091B016058601460101D70BD13465268CC
:10061000002AE7D12146284600F0B0F90028DED1B3
:1006200070BD70B50446051F00F0A0F90068002CED
:1006300014BF446870BD002C18BFAC423CBF2046BC
:100640006468F8D301680A18AA4218BF456003D14C
:100650002A6805461144016028684119A1421CBF5F
:100660006C6070BD6168696021680844286070BD75
:1006700053EA020C00F069802DE9F04B4FF00006C0
:10068000002B1FBFB3FA83F503FA05F424FA05F62D
:100690005E4012BF1643B2FA82F502FA05F4C5F1C4
:1006A00020051EBF22FA05FC44EA0C04203556EA58
:1006B000044C4FEA144418BF641C4FF000084FF07C
:1006C0000009904271EB030C39D3002919BFB1FA2C
:1006D00081F701FA07F6B0FA80F700FA07F6C7F1DA
:1006E00020071EBF20FA07FC46EA0C062037B6FB9F
:1006F000F4FCA7EB0507103F07F01F0BCBF120061A
:100700000CFA0BFB2CFA06F644BFB3460026202F4A
:10071000A4BF5E464FF0000B5BEA060C08BF4FF02B
:10072000010B19EB0B09ABFB027C48EB0608C01B65
:1007300006FB02CC0BFB03CC71EB0C01C1E70B46B3
:10074000024641464846BDE8F08B13B54FF0000025
:100750004FF00001AFF30080BDE81C40704740EA55
:100760000103024630B59B0710D14FF0013400E081
:1007700008C208C91D1B9D4315EAC41FF8D013F019
:10078000FF0102F8011B0DD01B0AF8E711F8013B2D
:10079000002B02F8013B05D011F8013B002B02F8B9
:1007A000013BF3D130BD10B5431C02E010F8011B32
:1007B00071B18107FAD14FF0013202C88C1A8C4313
:1007C00014EAC211F9D0C01A0A0603D0C01E10BD27
:1007D000C01A10BD0A0401D0801E10BD0902FCD051
:1007E000401E10BD032A40F2308010F0030C00F0D0
:1007F000158011F8013BBCF1020F624498BF11F85B
:1008000001CB00F8013B38BF11F8013BA2F1040213
:1008100098BF00F801CB38BF00F8013B11F003038B
:1008200000F02580083AC0F0088051F8043B083AEF
:1008300051F804CBA0E80810F5E7121D5CBF51F891
:10084000043B40F8043BAFF30080D20724BF11F80B
:10085000013B11F801CB48BF11F8012B24BF00F870
:10086000013B00F801CB48BF00F8012B704710B5E1
:10087000203AC0F00B80B1E81850203AA0E8185098
:10088000B1E81850A0E81850BFF4F5AF5FEA027C59
:1008900024BFB1E81850A0E8185044BF18C918C0C8
:1008A000BDE810405FEA827C24BF51F8043B40F869
:1008B000043B08BF7047D20728BF31F8023B48BF4E
:1008C00011F8012B28BF20F8023B48BF00F8012B8C
:1008D00070474FF000020429C0F0128010F0030CA2
:1008E00000F01B80CCF1040CBCF1020F18BF00F823
:1008F000012BA8BF20F8022BA1EB0C0100F00DB8D2
:100900005FEAC17C24BF00F8012B00F8012B48BF2F
:1009100000F8012B70474FF0000200B513469446D3
:100920009646203922BFA0E80C50A0E80C50B1F147
:100930002001BFF4F7AF090728BFA0E80C5048BF5B
:100940000CC05DF804EB890028BF40F8042B08BFF9
:10095000704748BF20F8022B11F0804F18BF00F8F5
:10096000012B704770477047704700000048704780
:10097000A06A0020704770477047704738B504463A
:100980000A4600206946AFF30080002808BF38BD42
:1009900002460099204600F04FF8012038BD0120A2
:1009A00000F07CB8F8B5AFF30080054600200C4697
:1009B000102000BF0646A819A0420DD9324669464C
:1009C0000020AFF30080070008BF00F067F8009830
:1009D000A04218BF0546C419FFF7C8FF05600746C7
:1009E000F01D20F007004619284600F00AF8B4422E
:1009F00008BFF8BDA21B31463868BDE8F84000F0DA
:100A00001BB800210160C0E9011070471020704739
:100A100010B500F00DF8006810BD10B5044600F0E8
:100A200007F8046010BD000000487047986A002075
:100A300000487047986A0020034640688C460028AA
:100A400018BF88423CBF03464068F8D31868184472
:100A5000884207D00CF1030020F00700001D411A66
:100A6000521A0146081D0A60FFF7DBBD1FB584B0AE
:100A700000200A9C06AB04AA02A90094AFF30080F0
:100A800018B1DDE9020108B010BD0348204000F0B4
:100A900040F800200146F6E70000207C10B500F089
:100AA0003FF8BDE8104000F02FB870477546FFF7DB
:100AB000BBFFAE4605006946534620F00700854659
:100AC00018B020B5FFF754FCBDE820404FF00006F9
:100AD0004FF000074FF000084FF0000B21F0070126
:100AE000AC46ACE8C009ACE8C009ACE8C009ACE869
:100AF000C0098D46704710B50446AFF3008020460C
:100B0000BDE81040FFF7BFBB002801D000F030B8AF
:100B1000704710B500F04CF8BDE81040FFF7F4BF87
:100B200010B5012805D0002103A000F027F801200E
:100B300010BD09A1F8E7000053494752544D454DF7
:100B40003A204F7574206F662068656170206D656E
:100B50006D6F7279000000003A2048656170206D69
:100B6000656D6F727920636F727275707465640061
:100B700001491820ABBEFEE72600020070B505460D
:100B80000C460A2000E06D1C00F068F835B12878AA
:100B90000028F8D102E0641C00F060F814B120785D
:100BA0000028F8D1BDE870400A2000F057B80000D6
:100BB00010B5022803D0410103D50DA112E0002099
:100BC00010BD010101D50FA10CE0C10001D511A19B
:100BD00008E0810001D512A104E0400001D513A175
:100BE00000E0002115A0FFF7C9FF012010BD0000A3
:100BF000496E76616C6964204F7065726174696FCB
:100C00006E000000446976696465204279205A6567
:100C1000726F00004F766572666C6F77000000009F
:100C2000556E646572666C6F77000000496E65787A
:100C300061637420526573756C74000053494746B4
:100C400050453A2041726974686D65746963206526
:100C50007863657074696F6E3A20000008B5694664
:100C60008DF800000320ABBE08BD00000FB4BFEE3E
:100C7000000A00204FEA0D0101EB8002D2ED000ACC
:100C8000F0EEE00AF4EEC00AF1EE10FA01DDB0EE8B
:100C9000600A401CC0B20528EED304B07047FEE7DE
:100CA000014800F088BC0000F8030020014800F073
:100CB00082BC000020040020F0B507462DED028B19
:100CC00081B090ED000A10209FED241ADFED240A78
:100CD00007F0B4FC9FED238ADFED238A064697EDEB
:100CE000010A1020B0EE481AF0EE680A07F0A6FCE0
:100CF000054697ED020A1020B0EE481AF0EE680A99
:100D000007F09CFC044697ED030A1020B0EE481A49
:100D1000F0EE680A07F092FC024614484FF408719E
:100D20006B46016000218160C160082101611049AA
:100D3000300A08704E70280A8870CD70200A087139
:100D40004C71100A8871CA710A460849094800F0B6
:100D5000D2FA01B0BDEC028BF0BD000000004842A9
:100D6000000048C2DA0FC940DA0FC9C0A0580020FD
:100D7000430100202004002070B506462DED028BB3
:100D800082B09FED1C8ADFED1C8A90ED040A0C46B0
:100D90001020B0EE481AF0EE680A07F04FFC054646
:100DA00096ED050A1020B0EE481AF0EE680A07F03A
:100DB00045FC0346114840F2212108220160002130
:100DC0008160C0E903120E4A280A10705570180A93
:100DD0009070D370200A107154710A4891716B465B
:100DE0000078D0710549084800F085FA02B0BDECE2
:100DF000028B70BDDA0FC940DA0FC9C0A0580020BD
:100E00004301002042010020200400200FB40E49BD
:100E100008B5086000208860C860082008610B4899
:100E2000FF210246017041708170C17001714171F2
:100E30008171FD21C1716B46034903A800F05BFA83
:100E400001B05DF814FB0000785900205401002027
:100E50000FB40E4908B5086000208860C8600820FB
:100E600008610B48FF210246017041708170C1701A
:100E7000017141718171FC21C1716B46034903A865
:100E800000F039FA01B05DF814FB00007859002039
:100E9000540100200FB4B0EE413A2DED060BF0EEF8
:100EA000602AF8B5064610209FED281ADFED280AC3
:100EB00007F0C4FB05460C20B3EE041AFBEE040A4F
:100EC000B0EE620A07F0BAFBDFED232A04460C20DD
:100ED0009FED201AF0EE620AB0EE430A07F0AEFB77
:100EE00003460C20B1EE041AF0EE620AB0EE610A7D
:100EF00007F0A4FB02460C20B2EE041AFAEE040A34
:100F0000B0EE420A07F09AFB14490E6000268E608C
:100F1000CE6008260E6112492E0A0E704D7025090A
:100F200024018D7044EA1324CC700B7113094B71AA
:100F3000120142EA10228A71C8710A466B460749BB
:100F40000DA800F0D8F9F8BC5DF82CFBDC0F494087
:100F5000DC0F49C00000FA4300000000785900206F
:100F60005401002038B50E4C4FF400752560002563
:100F7000A560E560082525610A4C050A25706070AA
:100F8000080AA070E170100A20716271180AA0713D
:100F9000E3716B4622460249034800F0ACF938BDC4
:100FA000605900204C010020F803002008B50C4ACD
:100FB00040F205210823116000219160C2E903136A
:100FC000084A030A137050709170D17011715171F9
:100FD0009171D1716B460249034800F08CF908BD4C
:100FE0007859002054010020F803002008B50C4A6D
:100FF00040F201210823116000219160C2E903132E
:10100000084A030A137050709170D17011715171B8
:101010009171D1716B460249034800F06CF908BD2B
:10102000785900205401002020040020014800F0DD
:10103000FBBE0000F8060020014800F0F5BE0000ED
:1010400098060020014800F0EFBE0000B80700201D
:10105000014800F0E9BE000018080020014800F037
:10106000E3BE000078080020014800F0DDBE00006B
:1010700058070020014800F0D7BE0000D808002023
:1010800001681823CAB2103AB2FBF3F2054B6FF3B2
:101090000901032A9B5CC36500D9091D81650846C7
:1010A00070470000BCC5000810B5014600208B69E0
:1010B0008A6A4FF0C07453B1B3F5005F15D072B1B6
:1010C000012A0CD0022A0AD0032A09D104E01AB15D
:1010D000012A06D0022A03D1C96AC90100D501201C
:1010E00010BDC96AA142FAD010BD002AF7D0012A6A
:1010F000F2D0022AF3D0032AF3D010BD30B5046831
:10110000256825F480252560046863608368402B8A
:10111000036803D099600068C26030BD9A600068BF
:10112000C16030BD074808B54068009001460648D8
:101130000269914202D2C168491CC16000990161F3
:1011400008BD0000001000E0980000200A4948682F
:101150000A4AD2ED000A4A68121AF8EE601A01EE45
:10116000102AB8EE411A60EE211AB4EEE11AF1EE3F
:1011700010FAF0D370470000001000E09800002043
:1011800000B50E492DED028B81B0496800910168D0
:10119000009A511A00EE101A0949F8EE400A91ED32
:1011A000000A0260B8EE400A80EE808AFFF7BAFFBC
:1011B00001B0B0EE480ABDEC028B00BD001000E0AB
:1011C000980000200D490A6842F080720A600C49BC
:1011D00000224A600B6843F001030B6009494FF499
:1011E0007A734843B0FBF3F30749C1E90003054BA9
:1011F000B0FBF3F0C1E9020270470000FCED00E033
:10120000001000E040420F0098000020704772B6C6
:10121000FEE770B50C462DED068B054690ED000AF5
:1012200005F0FEFAB0EE408A95ED010A05F0F8FAF5
:10123000B0EE401A95ED020AB0EE419A05F0F0FAD0
:10124000F0EE401A95ED000AF0EE619A05F0F4FA1E
:10125000F0EE408A95ED010A05F0EEFAB0EE40AAF4
:1012600095ED020A05F0E8FAF0EE400A29EE890A47
:1012700029EE8A1A84ED000A21EE280A00EEC80A37
:1012800084ED010A21EE080A00EEA80A84ED020AA4
:1012900020EE890A60EE8A0A84ED030A20EEA80A8D
:1012A00009EE880A84ED040A20EE880A09EEE80AAD
:1012B00084ED050AB1EE4A0A84ED060A29EE280AF1
:1012C00084ED070A29EE080A84ED080ABDEC068BB6
:1012D00070BD90F82020012A07D0022A05D0416A6B
:1012E00041F48021416201207047006842690A434D
:1012F000426100207047F0B590F820500468A4685F
:10130000012D05D0022D03D0416A41F480214DE02A
:1013100014F0406F01D1E50045D5C4F30164012507
:10132000A5401D608D684FF4C0739DB1CE683543F4
:101330004E6845EAC605066803EB0417F5514FF4FD
:10134000C275076805EB04150E697E51097D0129F8
:1013500005D009E00E88CD6845EA4655EBE70168FF
:101360004E5946F480764E511179D2F805504FF41B
:10137000C67641EA0521056806EB0416A9511178E5
:10138000D2F801204FF4C47541EA0221026805EB4E
:1013900004155151006803EB0411425842F0010258
:1013A00042500020F0BD416A41F400114162012029
:1013B000F0BD000010B590F82020012A07D0022AC5
:1013C00005D0416A41F480214162012010BD3B48B3
:1013D000D0F8002242F00102C0F80022D0F800222A
:1013E00022F47C52C0F80022D0F800224B6A42EA74
:1013F0000322C0F800220A7D02F01F0301229A4056
:10140000D0F81C329343C0F81C32CB69B3B9D0F882
:101410000C329343C0F80C328C894B6864F31F4341
:101420004C6900EBC404C4F840320C890B6864F3C7
:101430001F434C6900EBC404C4F84432CB69012B50
:1014400016D1D0F80C321343C0F80C320C884B681C
:1014500064F31F434C6900EBC404C4F840320C89A8
:10146000CB6864F31F434C6900EBC404C4F84432F6
:101470008B69002BD0F804320ED01343C0F804322D
:101480000B69002BD0F8143208D01343C0F8143283
:10149000096A012904D008E09343EFE79343F5E795
:1014A000D0F81C121143C0F81C12D0F8001221F021
:1014B0000101C0F80012002010BD000000640040CF
:1014C000704770B590F82040012C05D0022C03D055
:1014D000416A41F4802128E0046809B32469A40723
:1014E00020D04FF4D874056804EB01142D5915F081
:1014F0000405956005682D591AD0ED0855600568FA
:101500002C5904F00204D4604FF4DA74056804EB3B
:1015100001142E5906F00F06082E0CD308250DE0F5
:10152000E468DCE7416A41F400114162012070BDCA
:101530006D0D1560E3E72D5905F00F051561056880
:101540002D59C5F30725956105682C59240C546164
:101550004FF4DC72046802EB0112A4581C7004689A
:10156000A458240A5C700468A458240C9C70046875
:10157000A258120EDA704FF4DE72046802EB011208
:10158000A4581C710468A458240A5C710468A45807
:10159000240C9C710468A258120EDA71006829B1FB
:1015A000016941F020010161002070BDC16841F076
:1015B0002001C160F8E72DE9F05F054600680024CE
:1015C0004669D0F804908768D0F80CB0D0F810A025
:1015D000D0F81880F10748D0F90714D001218160B4
:1015E000B80703D5284600F0BEFB0CE0780702D50B
:1015F0004FF4006407E0380702D54FF4805402E04E
:10160000284600F0AFFBF80516D529684FF4807026
:101610008860B80503D5284600F0A7FB0CE07805E4
:1016200002D544F4005407E0380502D544F4804460
:1016300002E0284600F098FBF80316D529684FF41D
:1016400080308860B80303D5284600F090FB0CE09A
:10165000780302D544F4004407E0380302D544F48B
:10166000803402E0284600F081FB300707D55FEAAE
:10167000CB6004D52968102044F40074C86070075A
:101680004FF0080707D55FEA0B7004D52868C760DC
:10169000284600F099F9B00706D52868C068800789
:1016A00002D0284600F092F9700607D55FEACA60BA
:1016B00004D52968102044F480640861B00607D579
:1016C0005FEA0A7004D528680761284600F01AFB13
:1016D000F00606D528680069800702D0284600F089
:1016E00012FBB00308D55FEAC96005D52968102050
:1016F0004860284600F008FBF00307D55FEA097050
:1017000004D528684760284600F032FB300446D5EF
:101710005FEA497040D5F00504D55FEAC87001D092
:1017200044F00104B00504D55FEA887001D544F0A7
:101730000204700504D55FEA487001D544F0040442
:10174000300529D518F0700F26D008F07000402819
:1017500015D006DC102809D020280AD0302816D150
:101760000AE050280ED0602811D10EE044F00804A1
:101770000DE044F010040AE044F0200407E044F0D7
:10178000400404E044F0800401E044F480742868DC
:10179000816921F070018161296804204860002C72
:1017A00005D0686A204368622846FFF789FEBDE8D5
:1017B000F09F70B5040003D094F8200010B104E04D
:1017C000012070BD204600F081F82068016841F0DA
:1017D0000101016000F0D4FD0546052604E000F09B
:1017E000CFFD401B0A2811D820684068C007F6D0FA
:1017F0002068016821F00201016000F0C1FD05468A
:101800000BE000F0BDFD401B0A2806D9606A40F4D9
:101810000030606284F82060D2E72068406880076A
:10182000EFD4207E0128206801683DD021F080019E
:101830000160607E01282068016838D021F04001F5
:101840000160A07E01282068016833D021F02001CA
:101850000160E07E0128206801682ED041F010016F
:101860000160207F01282068016829D021F008014B
:101870000160607F01282068016824D021F0040104
:101880000160D4E902010843D4E90412114308437A
:101890006168491E08432168C86100206062012018
:1018A00084F82000002070BD41F08001C0E741F0C5
:1018B0004001C5E741F02001CAE721F01001CFE760
:1018C00041F00801D4E741F00401D9E7F0B587B051
:1018D000044614216846FFF71EF8364B3648DFF8F9
:1018E000D0E01968D4F800C0334A0325022609273E
:1018F00010300024491CF44522D11960012907D178
:10190000016841F000710160006800F0007005900E
:10191000106840F0080010601068CDE9005600F033
:101920000800CDE9047069462448CDE9024500F07D
:10193000FFFB00220521142000F094FD142033E069
:10194000DFF87CE0F44531D1D0F800C04CF0806C79
:10195000C0F800C0D0F800C001290CF0806CCDF8B0
:1019600014C0196007D1016841F00071016000687E
:1019700000F000700590106840F0020010601068E0
:1019800002AB00F0020005904FF44050CDE9000694
:1019900083E8B00069460B4800F0CAFB002205212D
:1019A000402000F05FFD402000F04EFD07B0F0BD8C
:1019B000006400401800002030380240000C024053
:1019C00000680040000402407047000030B589B054
:1019D00004466B4602AA0021FFF773FDBE4884420D
:1019E00039D10299BD48A1F2012105291ED2DFE8B3
:1019F00001F0030303031F00B94AC9B2117001EBE0
:101A0000410200EB820130F822300B81BDF800303A
:101A10005BBA20F82230BDF8020040BA4880BDF819
:101A2000040040BA88809DF80600887109B030BD76
:101A3000018E0187BDF8001049BA0186BDF8021079
:101A400049BA4186BDF8041049BA81869DF806104E
:101A500080F83610EAE7A3488442E7D19F483C303B
:101A60009FEDA12AB0EE000A9FEDA03AF3EE041A12
:101A7000DFED9F0A0299B2EE041AE9B302297CD085
:101A800000F1380200F12003DFED9A2A9FED9A2A37
:101A9000B1F50C7F72D0A1F500713139C6D1BDF816
:101AA0000000102140BA00EE100AB8EE400A82EDA4
:101AB000040ABDF80200BDEEC00A40BA00EE900A6A
:101AC00010EE100AB0EE420AF8EE600AC2ED050A06
:101AD000F0EE620A08F05CFC83ED040A92ED050A60
:101AE0001021F0EE620ABDEEC00A10EE100AB0EE50
:101AF000420A08F04DFC00E002E083ED050A95E79C
:101B0000BDF801109DF8032049BA02EE901A9DF825
:101B100004301201F8EE622A42EA13129DF80540E1
:101B200003F00F0362EE822A44EA03239DF800408B
:101B300062EE802A04F0F005057004F00F05C2EE95
:101B4000833A45702409847033EEC22A80ED012A5D
:101B500002EE102AB8EE422A22EE212A22EE002AB4
:101B6000C2EE202A72EEE11AC0ED021A01EE903A9E
:101B7000F8EE611A61EE811A01E009E04DE021EE14
:101B8000800AC0EE201A31EEC10A80ED030A4DE74B
:101B9000BDF801109DF8032049BA02EE901A130116
:101BA0009DF80420F8EE622A43EA12149DF80530ED
:101BB00002F00F0262EE822A43EA02229DF8003010
:101BC00062EE802A03F0F005057403F00F05C2EE03
:101BD000833A45741B09837433EEC22A80ED052ACB
:101BE00002EE104AB8EE422A22EE212A22EE002A04
:101BF000C2EE202A72EEE11AC0ED061A01EE902A1A
:101C0000F8EE611A61EE811A21EE800AC0EE201A08
:101C100031EEC10A80ED070A08E7BDF80000102187
:101C200040BA00EE100AB8EE400A82ED000ABDF894
:101C30000200BDEEC00A40BA00EE900AF8EE600A5B
:101C4000C2ED010ABDF8040040BA00EE900AF8EEB9
:101C5000600AC2ED020ABDF8060040BA00EE900A22
:101C600010EE100A9FED260AF8EE600AC2ED030A94
:101C7000DFED220A08F08CFB83ED000A92ED010AE9
:101C80001021F0EE620ABDEEC00A10EE100AB0EEAE
:101C9000420A08F07DFB83ED010A92ED020A102151
:101CA000F0EE620ABDEEC00A10EE100AB0EE420A73
:101CB00008F06EFB83ED020A92ED030A1021F0EEAC
:101CC000620ABDEEC00A10EE100AB0EE420A08F039
:101CD0005FFB83ED030AA9E6F8030020D458002037
:101CE0004B01002020040020DC0F494000FF7F470B
:101CF00000F07F45DA0FC940DA0FC9C00000484242
:101D0000000048C2704770477047000070B5044635
:101D100090F82000012804D0606A40F4002060623E
:101D200018E0022084F820002068016821F00101F9
:101D3000016000F025FB05460EE000BF00F020FB2F
:101D4000401B0A2808D9606A40F400306062052010
:101D500084F82000012070BD20684068C007EDD1E4
:101D6000606270BD7047704770477047704770473A
:101D700070472DE9F0410446876D00F001FB0646EF
:101D800094F835000025022806D08020606584F88C
:101D900034500120BDE8F0812068016821F016016F
:101DA00001602068416921F080014161206C08B91F
:101DB000A06C20B12068016821F008010160206852
:101DC000016821F0010101600CE000F0D9FA801BEC
:101DD000052807D920206065032084F8350084F8A1
:101DE0003450D7E720680068C007EED194F85C1043
:101DF0003F208840B860012084F8350084F83450D2
:101E00000020C7E790F83510022903D080214165F2
:101E100001207047052180F835100068016821F025
:101E200001010160002070472DE9F84304464FF09E
:101E30000009CDF8009063484FF41651A56D006875
:101E4000B0FBF1F72E6894F85C10082000FA01F15D
:101E500031420FD021680A6852070BD50A6822F078
:101E600004020A6094F85C108840A860606D40F03D
:101E70000100606594F85C104FF0010808FA01F069
:101E8000304208D021684969090604D5A860606D10
:101E900040F00200606594F85C10042088403042F5
:101EA00008D021680968890704D5A860606D40F0F2
:101EB0000400606594F85C1010208840304218D00F
:101EC00021680968090714D5A860206801684903DA
:101ED00004D50068000308D5A16C07E00168C905B6
:101EE00003D4016821F008010160216C09B120468A
:101EF000884794F85C1020208840304231D0216817
:101F00000968C9062DD5A86094F835000528206811
:101F1000016806D0490347D5006800031DD4616CF1
:101F20001CE021F0160101602068416921F0800168
:101F30004161206C08B9A06C20B12068016821F0D3
:101F40000801016094F85C103F208840A86084F884
:101F5000358084F83490216D1FE0E16B09B1204693
:101F60008847606D00282BD0606DC00714D0052015
:101F700084F835002068016821F0010101600098B3
:101F8000401C0090B84203D820680068C007F6D112
:101F900084F8358084F83490E16C002910D001B0C9
:101FA0002046BDE8F04308470168C905D5D401685B
:101FB00021F01001016084F8358084F83490CCE77A
:101FC000BDE8F883280000202DE9F041044600F028
:101FD000D7F906465CB1022084F83500002584F864
:101FE00034502068016821F0010101600DE00120FA
:101FF000BDE8F08100F0C4F9801B052805D9202038
:102000006065032084F83500F2E720680068C007A7
:10201000F0D12268116820480140D4E90103184337
:10202000D4E903363343184363691843A36918435B
:10203000E3691843236A18430843616A042903D1FA
:10204000D4E90B1319430843106020684069666A9D
:1020500020F0070130460E43012704280CD1A06A66
:102060000643E06A40B12046FFF71EF820B1402049
:10207000606584F83570BAE7206846612046FEF74F
:10208000FFFF94F85C203F2191408160656584F8F2
:1020900035700020ACE700003F8010F02DE9F041E2
:1020A0000446866D90F83400002501280DD00120EB
:1020B00084F8340094F835700020012F07D084F89C
:1020C000340002252846BDE8F0810220FBE7022704
:1020D00084F8357060652046FFF710F894F85C10BE
:1020E0003F208840B0602068016841F0160101601F
:1020F000206C20B12068016841F00801016020686F
:10210000016841F001010160DCE7000070B50446A0
:1021100000F036F90546601C02D0044800780444FB
:1021200000F02EF9401BA042FAD370BD1C00002025
:102130002DE9F84FDFF8F8A10022012403254FF024
:102140000F090AF1040BAAF1040E00BF0B6804FA90
:1021500002F63340B34270D10F7907F00307012F25
:1021600001D0022F16D187684FEA420805FA08FC11
:1021700027EA0C07D1F80CC00CFA08FC4CEA070C53
:10218000C0F808C04768B7430E79C6F300169640FA
:102190003E4346600E79F643B6070AD0C7684FEA59
:1021A000420C05FA0CF6B7438E6806FA0CF63E436D
:1021B000C6600E7906F00306022E10D1D60800EB99
:1021C0008608D8F8206057074FEAD76C09FA0CF751
:1021D000BE430F6907FA0CF73743C8F8207006684A
:1021E0004FEA420C05FA0CF7BE430F7907F00307DC
:1021F00007FA0CF7374307604E6816F4403F1CD0CF
:102200004C4E376847F480473760366822F0030742
:1022100006F480460096484E07EB060CDCF808688A
:1022200097073F0F09FA07F826EA0806DFF80C813E
:10223000404503D14FF0000841E072E0DFF8008133
:10224000404502D14FF0010839E0DFF8F880404501
:1022500002D14FF0020832E0DFF8EC80404502D1B5
:102260004FF003082BE0DFF8E480404502D14FF047
:10227000040824E0DFF8D880404502D14FF005087B
:102280001DE0DFF8D080404502D14FF0060816E08F
:10229000DFF8C480404502D14FF007080FE0DFF8B7
:1022A000BC80404502D14FF0080808E0DFF8B0805C
:1022B000404502D14FF0090801E04FF00A0808FA42
:1022C00007F848EA0608CCF80888DAF800605746AC
:1022D000D1F804C09E435FEACC2C00D51E433E607B
:1022E000DBF800605F46D1F804C09E435FEA8C2CA7
:1022F00000D51E433E60DEF800607746D1F804C08A
:102300009E435FEA8C3C00D51E433E60084F083F69
:102310003E68D1F804C09E435FEACC3C00D51E4322
:102320003E60521C102AFFF411AFBDE8F88F000088
:10233000083C0140443802400030014000000240A7
:102340000004024000080240000C0240001002405D
:102350000014024000180240001C0240002002400D
:1023600000240240426921EA02030A4043EA024192
:10237000816170470AB1816170470904FBE7000081
:1023800001488068704700001C00002002488168F6
:1023900002781144816070471C0000200B4810B582
:1023A000016841F400710160016841F480610160DD
:1023B000016841F480710160032000F073F80F2080
:1023C00000F006F800F024F8002010BD003C0240A8
:1023D00070B50D4D04464FF47A712878B1FBF0F0DA
:1023E0000A490968B1FBF0F000F09CFC48B9102CD8
:1023F00007D200222146501E00F034F800206C6005
:1024000070BD012070BD00001C00002028000020CD
:102410000C4882B0016841F480410160006800F41A
:10242000804000900748001F016841F08051016022
:102430000068002200F0805000900F21901E02B032
:1024400000F010B844380240002809DB00F01F02F9
:10245000012191404009800000F1E020C0F8001106
:1024600070470000F0B40E4B1B680C46C3F3022308
:10247000C3F10705042D00D90425191D072901D230
:10248000002300E0DB1E012606FA05F1491E21406B
:1024900099409E40761E16403143F0BC03F072BC5A
:1024A0000CED00E0064900F0070208684FF6FF0354
:1024B000184040EA0220034A1043086070470000B9
:1024C0000CED00E00000FA052DE9F0470E4605008E
:1024D00065D0DFF81481D8F80000F7B200F00F00E3
:1024E000B04207D288F80070D8F8000000F00F0062
:1024F000B04254D128683D4C810712D5400703D51E
:10250000206840F4E05020602878000703D5206858
:1025100040F4604020602068A96820F0F000084383
:1025200020602878C0072DD0304968680839012814
:1025300012D0022813D0032811D009688907002976
:102540002DDA216821F0030101432160FFF718FF14
:10255000814641F2883A0EE009688903EFE709688D
:102560008901ECE7FFF70CFFA0EB0901514502D907
:102570000320BDE8F0872068696800F00C00B0EB2C
:10258000810FEFD1D8F80010404601F00F01B142A1
:1025900007D90770006800F00F00B04201D0012099
:1025A000E7E72878400705D52068E96820F4E0507F
:1025B000084320602878000706D52068296920F4A0
:1025C000604040EAC100206000F038F82168084A05
:1025D000C1F30311515CC840064908600648006811
:1025E000FFF7F6FE0020C4E7003C02400838024036
:1025F000C4C5000828000020200000200448054928
:1026000000680968044AC1F38221515CC8407047E0
:102610002800002008380240D4C5000804480549B5
:1026200000680968044AC1F34231515CC8407047F0
:102630002800002008380240D4C50008154810B50D
:10264000006810F00C02144813D01449042A0FD06B
:10265000082A0ED10F4C241F2268236802F03F0283
:102660005B0207D52068C0F38810A0FB010106E0DB
:10267000084610BD2168C1F38811A1FB00010023A9
:10268000FDF7F6FF2168C1F30141491C4900B0FB89
:10269000F1F010BD083802400024F400001BB70020
:1026A0002DE9F84F04006ED02078DFF84C93C00776
:1026B000A9F104054AD009F104000168C1F38101C0
:1026C000012908D00068C0F3810002280AD1D9F896
:1026D0000000400206D52868800337D560680028CE
:1026E000E1D033E06068B0F5803F10D0B0F5A02FA6
:1026F000286810D020F480302860286820F48020DA
:1027000028606068A8B1FFF73BFE06460DE0286828
:1027100040F48030F4E740F480202860F7E700BF01
:10272000FFF72EFE801B642873D828688003F7D536
:102730000CE0FFF725FE064605E000BFFFF720FE90
:10274000801B6428F0D828688003F7D42078DFF84D
:10275000AC8280074FF0000A3ED5A748001D0168F3
:1027600011F00C0F08D00068C0F3810002280BD1D3
:10277000D9F80000400207D42868800716D5E06821
:10278000012800D112E033E1E068B8B10120C8F8B7
:102790000000FFF7F5FD064605E000BFFFF7F0FD7E
:1027A000801B0228C0D828688007F7D528682169CF
:1027B00020F0F80040EAC10028600DE0C8F800A051
:1027C000FFF7DEFD064604E0FFF7DAFD801B022876
:1027D0001FD828688007F7D42078000722D5864FB5
:1027E00087486169703771B101210160FFF7C8FD49
:1027F000064604E0FFF7C4FD801B022809D83868AC
:102800008007F7D50EE0C0F800A0FFF7B9FD064637
:1028100005E082E0FFF7B4FD801B02287DD8386810
:102820008007F7D42078400768D5DFF8CCB10027BF
:102830000BF13C0BDBF80000C0000BD4DBF8001000
:1028400041F08051CBF80010DBF80000012700F0C8
:10285000805000906B4E3068C00510D4306840F452
:1028600080703060FFF78CFD009005E0FFF788FD79
:102870000099401A022850D83068C005F6D55E4E3F
:10288000A0686C3601280FD00528306810D020F0E1
:1028900001003060306820F004003060A068B8B1FA
:1028A000FFF76EFD00900FE0306840F00100F4E7A4
:1028B00040F004003060F7E7FFF762FD0099411A2D
:1028C00041F28830814266D830688007F4D50EE046
:1028D000FFF756FD009007E0FFF752FD0099411AFF
:1028E00041F28830814256D830688007F4D42FB145
:1028F000DBF8001021F08051CBF80010A069C8B3BC
:102900003D49091D0968C1F3810102294AD0022805
:10291000504607D0C8F8600000E03CE0FFF730FD0B
:1029200004463BE04746C8F86000FFF729FD06462D
:1029300005E000BFFFF724FD801B02282BD8286884
:102940008001F7D4D4E907010843A16A2E4A490857
:1029500002EB0141626A41EA8211084394F82C10AB
:1029600040EA0161C9F8001001203866FFF708FD50
:10297000044606E03EE000BFFFF702FD001B022810
:1029800009D828688001F7D534E000BFFFF7F8FCCC
:10299000001B022802D90320BDE8F88F28688001B7
:1029A000F4D427E00128F7D0D9F80000E26900F458
:1029B000800191421CD1226A00F03F01914217D15F
:1029C00047F6C071626A0140B1EB821F10D1A26A62
:1029D0004FF0FF3300F4403103EB5202B1EB024FF2
:1029E00006D194F82C1000F07060B0EB016F01D0AC
:1029F0000120D1E70020CFE7043802400000474221
:102A0000800E4742007000400000FFFF70B50400D8
:102A100009D0606A002540B125616561A56294F81E
:102A2000510040B10CE0012070BD6068B0F5827FBC
:102A3000F4D0E561F2E784F85050204600F044F805
:102A4000022084F851002068016821F040010160F3
:102A5000A088218900F4827001F404410843A1890F
:102A600001F400610843217C01F002010843217D4B
:102A700001F001010843218B01F400710843217F1B
:102A800001F03801084394F8201001F08001084358
:102A9000218D01F40051084321680860A0690421D8
:102AA00001EA104094F8241001F010010843216855
:102AB00048602068C16921F40061C1616565012039
:102AC00084F85100002070BD10B586B00446142172
:102AD0006846FDF720FF14492068884221D1134839
:102AE0000021026842F480120260006800F4801045
:102AF00005900E481438026842F020020260006817
:102B000000F0200005904FF4607000900220CDE9A5
:102B10000101032003900520049069460448FFF753
:102B200007FB06B010BD00000050014044380240D1
:102B3000001402402DE9FF4F81B01D469346044624
:102B40004FF001090E9EFFF71BFC074694F8510059
:102B50006168012806D0B1F5827F3CD1A168C9BB6C
:102B6000042838D10298002871D0BBF1000FFBD0A7
:102B7000002DF9D094F8500001282CD04FF0010A14
:102B800084F850A094F85100042802D0052084F85D
:102B900051004FF00008C4F85480C4F838B0E587FD
:102BA000A58702992163E586A586C4F84080C4F80C
:102BB000448020680168490603D4016841F040015F
:102BC0000160E068B0F5006F606808D0F0B3012DD7
:102BD00049D081E0FFE7022005B0BDE8F08F08B1E1
:102BE000012D39D1206B21680088C860206B801CC2
:102BF0002063E08E401EE0862EE020688168890711
:102C00000FD5E18E69B1B9F1010F0AD1216B0988A5
:102C1000C160206B801C2063E08E401EE0864FF078
:102C2000000920688168C9070CD0E18F51B1C068E4
:102C3000A16B0880A06B801CA063E08F401EE08722
:102C40004FF00109FFF79CFBC01B01E00BE067E0C0
:102C5000B04201D3701C50D1E08E0028CDD1E08F5E
:102C60000028CAD13EE0206B216800780873206BF1
:102C7000401C2063E08E401EE0862DE020688168C5
:102C800089070FD5E18E69B1B9F1010F0AD1216B26
:102C900009780173206B401C2063E08E401EE086A3
:102CA0004FF0000920688168C9070CD0E18F51B14D
:102CB000C068A16B0870A06B401CA063E08F401E31
:102CC000E0874FF00109FFF75BFBC01BB04202D366
:102CD000701C01D011E086B1E08E0028CED1E08FCB
:102CE0000028CBD13A463146204601F011FD50B1C3
:102CF0002020606584F8508012E084F851A084F8A8
:102D00005080032068E7A06818B92068C16880680F
:102D1000009084F851A084F85080606D0028F1D0B4
:102D2000012059E710B5401EB0F1807F01D301208A
:102D300010BD4FF0E02460610F21601703F022F80E
:102D40000020A06107202061002010BD704770475F
:102D5000F8B5016804460868CA684B6910F00F0F9F
:102D60004FF0000559D003F0010602F49077374385
:102D700065D0C10705D0D10503D5616C41F00101D3
:102D80006164410705D5D90703D0616C41F00201A8
:102D90006164810705D5D90703D0616C41F0040156
:102DA0006164010707D502F02001314303D0616C53
:102DB00041F008016164616C00293AD0800604D5B5
:102DC000900602D5204602F025FD20684069616C1E
:102DD000C0F38010090700D460B3204602F0E5FC80
:102DE00020684069400621D52068143050E8001F53
:102DF00021F0400140E80012002AF5D1E06BA8B1B3
:102E00006E490165E06BFEF7FDFF002811D0E06B15
:102E1000016D01B0BDE8F040084783060FD5930669
:102E20000DD52046BDE8F84002F0F4BC2046FFF77F
:102E30008EFFF8BD2046FFF78AFF6564F8BD266B5C
:102E40002023012E7DD1C6067BD5D60679D508680C
:102E50004868009048694FF00206400641D5E16B92
:102E6000086840680004000CE8D0A28D8242E5D9D1
:102E7000E085C869B0F5807F2DD020680C3050E81F
:102E8000001F21F4807140E80012002AF5D120686B
:102E9000143050E8001F21F0010140E80012002A20
:102EA000F5D12068143050E8001F21F0400140E8BF
:102EB0000012002AF5D184F84230256320680C30D6
:102EC00050E8001F21F0100140E80012002AF5D15F
:102ED000E06BFEF74EFF6663A08DE18D401A81B274
:102EE0002AE0A08DE18D401A81B2E08D0028A5D0A6
:102EF0000029A3D022680C3252E8000F20F4907011
:102F000042E80007002FF5D12068143050E8002F68
:102F100022F0010240E80027002FF5D184F842306A
:102F2000256320680C3050E8002F22F0100240E8A2
:102F30000023002BF5D166632046FFF707FFF8BD9D
:102F4000FFE705062BD5150629D594F84100212861
:102F5000F5D1A068B0F5805F01D12069B0B1206AD9
:102F6000411C2162216800784860E08C401E00040A
:102F7000000CE084E3D12068C16821F08001C160C9
:102F80002068C16841F04001C160D8E7206A00882C
:102F9000C0F308004860206A801C2062E5E7400614
:102FA000CDD55006CBD5CA68204622F04002CA6073
:102FB00084F8413000F0D2FAC1E700006156000801
:102FC00070B5040004D094F84100002510B106E06B
:102FD000012070BD84F84050204600F023F82420E2
:102FE00084F841002068C16821F40051C160204686
:102FF00002F072FC2068016921F4904101612068AF
:10300000416921F02A0141612068C16841F4005101
:10301000C1606564202084F8410084F84200656343
:10302000002070BD2DE9F04F87B00446142168469A
:10303000FDF771FCEA48E94F2368E9491038032697
:10304000E84A00254FF002084FF00809BB4215D1AD
:103050000B6843F400230B60096801F4002105911B
:10306000016841F0040101600068694600F0040055
:103070000590B002CDE90008104629E0DA4FBB42C6
:103080002ED10B6843F480130B60096801F48011A2
:103090000591016841F004010160016801F004013B
:1030A0000591016841F008010160006802AB00F081
:1030B00008000590B814CDE9000883E8600269466D
:1030C0001046FFF735F80420CDE90008C7486946E7
:1030D00002AB83E86002FFF72BF807B0BDE8F08F82
:1030E000C34ADFF810C317154FF0400B4FF4403AB6
:1030F000934256D10A68002542F080420A6009686E
:1031000001F080410591016841F010010160006803
:1031100002AA00F0100005904FF4C070CDE900083D
:1031200082E8600269466046FFF702F8DFF8CC9259
:10313000B14948464FF02068C9F80010C0E9018540
:10314000C0E90357C9F81450C9F81850C9E9075A1B
:103150005646C9F82450FEF737FF08B1FEF757F876
:10316000A64DA548C4F83C9060353038C9F83840C1
:1031700085E801090020C5E903076861A861C5E980
:10318000070668622846FEF71FFF08B1FEF73FF802
:10319000A563002205215220AC63FFF763F952209A
:1031A00021E0974A934221D10A6842F000420A6026
:1031B000096801F000410591016841F010010160CA
:1031C0000068CDE9006800F01000CDE90490CDE979
:1031D000025669466046FEF7ABFF002205215320E8
:1031E000FFF740F95320FFF72FF976E7854ADFF81C
:1031F000F0C14FF0070E0CF1040C93423AD1DCF809
:10320000002042F01002CCF80020DCF8001001F0A1
:1032100010010591016841F002010160006802AAF5
:1032200000F002000590C020CDE9000882E860406F
:1032300069467548FEF77CFF704E7448C0363060B2
:103240004FF00060C6E90105C6E903577561B56135
:10325000C6E9075A30467562FEF7B6FE08B1FDF7BB
:10326000D6FFE663002205212520B463FFF7FAF8B4
:103270002520B8E7664A93424CD10A6842F40032EE
:103280000A60096801F400310591016841F0080104
:103290000160006802AA00F0080005906020CDE9F6
:1032A000000882E8604069465048FEF741FF5248F6
:1032B000584E30304FF000683060C6E90185C6E9ED
:1032C00003577561B561C6E9075A30467562FEF766
:1032D0007BFE08B1FDF79BFFE663B4634D4E4648A5
:1032E00060364830C6E903577561B561C6E9075ACB
:1032F000756286E801093046FEF766FE08B1FDF703
:1033000086FFA663002205212620B463FFF7AAF8F2
:10331000262068E740498B427FF467AFDCF8002045
:10332000AA4642F02002CCF80020DCF8001001F0A0
:1033300020010591016841F040010160006802AA86
:1033400000F0400005904FF48440CDE9000882E889
:10335000600269463148FEF7EBFE2C49DFF8B48085
:10336000183908F1C00840468E05C8F80010C0E9B9
:103370000165C0E90357C8F814504FF40031C8F88C
:103380001850C8E90751C8F82450FEF71DFE08B1CF
:10339000FDF73DFF1D48224DC4F83C806030C8F861
:1033A000384085E84108C5E903A7C5F814A0C5F869
:1033B00018A0C5F81CA0C5F820A02846C5F824A070
:1033C000FEF702FE08B1FDF722FFA56300220521EA
:1033D0004720AC63FFF746F8472004E7004C004065
:1033E000403802400008024000500040000C0240FB
:1033F000007800400010024058600240980600200B
:10340000007C004000100140000402404064024083
:1034100000440040B807002000140140001802409A
:10342000D808002090F84230202B01D002207047AD
:1034300021B11AB10023036302F0D4BA012070470E
:10344000704770472DE9F843044690F841009846CC
:1034500016460D46202802D00220BDE8F88385B12B
:103460007EB100206064212084F84100FEF788FFCF
:10347000A6848146E684A0682027B0F5805F02D04C
:1034800003E00120E9E7206910B12E4600250EE097
:1034900000260CE08021204602F0ECFAA8B9C6B163
:1034A00016F8010B21684860E08C401EE084E08C37
:1034B0004B464FF00002CDF800800028EAD14FF0D3
:1034C0004001204602F0D6FA40B184F84170032052
:1034D000C3E735F8020BC0F30800E3E784F8417056
:1034E0000020BAE770B5044690F84100202801D0CA
:1034F000022070BD49B342B32162A284E28400205D
:103500006064212384F84130A56B114BEB63A56BFC
:10351000104B2B64A56B104BEB64A36B18652568EF
:1035200013462A1DA06BFEF7B9FD21686FF040001D
:1035300008602068143050E8001F41F0800140E826
:103540000012002AF5D1002070BD012070BD0000DE
:103550005F570008A1570008715600087047704770
:10356000FEE7000070B598B0044660225B496846EB
:10357000FDF77DF900206B4603EB001104EB8002A0
:1035800091ED000A401C82ED000A91ED010A062827
:1035900082ED060A91ED020A82ED0C0AECDB0025B1
:1035A0004020FDF70FF804EB85064021F067FDF79A
:1035B000B2F904EBC500042211464C30F36FFCF75E
:1035C0005FFF6D1C062DEBDB00254020FCF7FAFFAA
:1035D00004EB8506402146F8EC0FFDF79CF904EB5F
:1035E000C50004221146DC303368FCF749FF6D1C2E
:1035F000022DEADB2420FCF7E5FF2421C4F8A80013
:10360000FDF789F90322114604F1A000D4F8A8308F
:10361000FCF736FF2420FCF7D5FF2421C4F8B400C2
:10362000FDF779F90322114604F1AC00D4F8B43067
:10363000FCF726FF2420FCF7C5FF2421C4F8C000B6
:10364000FDF769F90322114604F1B800D4F8C0303F
:10365000FCF716FF2420FCF7B5FF2421C4F89C00DA
:10366000FDF759F90322114604F19400D4F89C3077
:10367000FCF706FF2420FCF7A5FF2421C4F8FC007A
:10368000FDF749F90322114604F1F400D4F8FC30A7
:10369000FCF7F6FE0C20FCF795FF0025C4F8CC00E3
:1036A0000560456085600122032104F1C400D4F85F
:1036B000CC30FCF7E5FE0C20FCF784FFC4F8D80002
:1036C0000560456085600122032104F1D000D4F833
:1036D000D830FCF7D5FE18B070BD000014C9000842
:1036E0000F4810B50D4901600321416000214FF4DE
:1036F00010228160C0E903124FF40012426101768A
:1037000041768176C17601774177FEF752F800283D
:1037100003D0BDE81040FDF77ABD10BD0064004045
:10372000F80300200F4810B50D49016003214160E6
:1037300000214FF410228160C0E903124FF40012FF
:103740004261017641768176C17601774177FEF755
:1037500030F8002803D0BDE81040FDF758BD10BD7B
:103760000068004020040020254808B5016841F4A5
:1037700000110160016801F400110091016841F439
:10378000800101600068002200F4800000900521A3
:103790000C20FEF767FE0C20FEF756FE00220521E6
:1037A0000E20FEF75FFE0E20FEF74EFE00220521E2
:1037B0001020FEF757FE1020FEF746FE00220521DE
:1037C0001120FEF74FFE1120FEF73EFE00220521DC
:1037D0003920FEF747FE3920FEF736FE002205218C
:1037E0003A20FEF73FFE3A20FEF72EFE002205218A
:1037F0004520FEF737FEBDE808404520FEF724BE11
:103800003038024010B5B8B01C222C496846FDF78C
:103810002EF80021684606F083F9294C27491C221E
:1038200020601C3107A8FDF722F8002107A806F048
:1038300077F9224960601C2238310EA8FDF717F88D
:1038400000210EA806F06CF91C49A0601C2254311E
:1038500015A8FDF70CF8002115A806F061F9174925
:10386000E0601C2270311CA8FDF701F800211CA8A3
:1038700006F056F9114920611C228C3123A8FCF76F
:10388000F6FF002123A806F04BF90C4920611C2209
:10389000A8312AA8FCF7EBFF00212AA806F040F97E
:1038A000064920611C22C43131A8FCF7E0FF002149
:1038B00031A806F035F9606138B010BDDCC40008ED
:1038C0000000002070B586B014216846FDF723F88B
:1038D0002A480025016841F010010160016801F0EB
:1038E00010010591016841F040010160016801F09B
:1038F00040010591016841F004010160016801F097
:1039000004010591016841F001010160016801F0C5
:1039100001010591016841F002010160016801F0B7
:1039200002010591016841F008010160016801F0A0
:1039300008010591016841F080010160016801F012
:1039400080010591016841F02001016000680C4E82
:1039500000F020004FF480440590002221463046BC
:10396000FEF708FD0120CDE900400220CDE9020567
:1039700069463046FEF7DCFB06B070BD30380240C9
:1039800000100240104810B50E4901604FF48271DA
:10399000416000218160C1604FF400720161C0E9A3
:1039A00005123022C0E90721416281620A21C16209
:1039B000FFF72CF8002803D0BDE81040FDF727BC26
:1039C00010BD000000500140480400200C4810B514
:1039D0000A4901604FF4E1314160002181600C220D
:1039E000C160C0E904128161C161FFF7E9FA0028F2
:1039F00003D0BDE81040FDF70ABC10BD004C0040EC
:103A0000A00400200C4810B50A4901604FF4E131D0
:103A10004160002181600C22C160C0E90412816113
:103A2000C161FFF7CDFA002803D0BDE81040FDF7D3
:103A3000EEBB10BD00500040E80400200C4810B55B
:103A40000A4901604FF4E1314160002181600C229C
:103A5000C160C0E904128161C161FFF7B1FA0028B9
:103A600003D0BDE81040FDF7D2BB10BD0078004088
:103A7000300500200C4810B50A4901604FF4E131CF
:103A80004160002181600C22C160C0E904128161A3
:103A9000C161FFF795FA002803D0BDE81040FDF79B
:103AA000B6BB10BD007C0040780500200C4810B566
:103AB0000A4901600B494160002181600C22C1600C
:103AC000C0E904128161C161FFF77AFA002803D0CE
:103AD000BDE81040FDF79BBB10BD00000010014089
:103AE000C0050020A08601000C4810B50A490160FD
:103AF0004FF4E1314160002181600C22C160C0E9D6
:103B000004128161C161FFF75BFA002803D0BDE8B0
:103B10001040FDF77CBB10BD0044004008060020AB
:103B20000C4810B50A4901604FF4E13141600021B1
:103B300081600C22C160C0E904128161C161FFF79C
:103B40003FFA002803D0BDE81040FDF760BB10BD70
:103B50000014014050060020FEE700002DE9F0416E
:103B60008AB088460446012500F5317200F52771B8
:103B7000764BDC30009500F073FF00287DD00022EA
:103B8000104608AE226000EB40033554002104EBE0
:103B9000C30700BF07EB810393EDB10A04EBC10338
:103BA000D3EDE10AB4EEE00AF1EE10FA06DCD3ED53
:103BB000E20AB4EEE00AF1EE10FA00D23254491CE7
:103BC0000629E7DB315C11B12168491C2160401CEA
:103BD0000828D8DBDFED5E1A206800287ED09FED34
:103BE0005D1A00273D46705D00284FF000002BD085
:103BF00005EB450102AB04EBC10200BF02EB800103
:103C000091EDB10A81ED010A04EB8001D1EDA10A29
:103C100003EB8001401C30EEC00A062881ED000A4B
:103C2000ECDBDDE906010DF1080CCDE900019CE8B3
:103C30000F00FDF71BF8B4EEC10AF1EE10FA0ED238
:103C4000B0EE401AEFB20AE005EB450104EBC1010A
:103C500001EB8002401CC2ED011A0628F8DB6D1C46
:103C6000082DC0DB07EB470004EBC00595EDB10A5A
:103C700084ED310A95EDB20A00E05BE084ED320A92
:103C800095EDB30A314984ED330A95EDB40A00206D
:103C900084ED340A95EDB50A84ED350A95EDB60A42
:103CA00084ED360A04EB800292ED310A01EB8002CA
:103CB000401C82ED000A0628F4DB95EDB10A08F6F7
:103CC000981484ED000AD5F8C80208F011FA9FEDA7
:103CD000221B53EC112B07F0DDFD00E02DE006F078
:103CE00057FF6060D5F8CC0208F002FA9FED1C1B6C
:103CF00053EC112B07F0AEF806F04AFFA06095EDEB
:103D0000B40A84ED030A95EDB50AB1EE400A10EE4F
:103D1000100A08F0EDF99FED141B53EC112B07F07E
:103D200099F806F035FF206195EDB60AB1EE400A2C
:103D300084ED050A0AB0BDE8F08104EB8001401C67
:103D4000C1ED311A0628F8DBF4E70000885800209E
:103D50000000000000007A444260E5D022DBD1BFC1
:103D600079E9263108ACF43FAE47E17A14AEE73F7B
:103D7000FEE7000070B50446D0F8060090ED011A89
:103D8000784880ED011A0020042217E0D4F80610CC
:103D900002EB8003CD1801EB8001D5ED001A71EE26
:103DA000C11AC1ED001AD4F80A100B4401EB8001CE
:103DB000D3ED001A401CC1ED001A80B22188491EC3
:103DC0008142E3DC2188D4F806006FF0070202EBA1
:103DD0008102024492ED001A6FF0030202EB8101AE
:103DE00031EE000A084480ED000A2188D4F80A0068
:103DF00002EB81010844C0ED000AD4F802002188DA
:103E0000884202D2401CC4F80200102104F11A00BA
:103E1000FCF75FFD2088D4F80210431A99B23BE00A
:103E2000D4F80620D4F81A5002EB810200EE905A22
:103E300092ED000A40EE000A10EE905AC4F81A50B3
:103E4000D4F81E50D2ED000A00EE105A30EE800A6F
:103E500010EE105AC4F81E50D2ED000AD4F80A2011
:103E6000D4F8225002EB810200EE105A92ED001AB3
:103E7000491C89B200EE810A10EE105AC4F8225093
:103E8000D2ED000AD4F8262000EE102A30EE800A87
:103E900010EE102AC4F826208842C1D800EE100A7D
:103EA000D4F82210D4F82620B8EE400A00EE901A7A
:103EB000D4F81E1001EE102A60EE800A00EE101AEF
:103EC000D4F81A2040EE410A00EE100A01EE102A42
:103ED000B8EE400A21EE001A00EE101A002100EEA2
:103EE000401A80EE810A10EE102AC4F80E20C4F8A1
:103EF000161099B224E000BFD4F8063000EE902AE4
:103F000003EB810393ED001AD4F8123000EE103A5F
:103F1000D4F80A3000EE810A03EB8103491CD3ED8B
:103F2000000AD4F8163089B230EE600AF0EEC00A0A
:103F300000EE103A30EE800A10EE103AC4F8163057
:103F40008842D9D800EE100A54F8161FB8EE401A6D
:103F500000EE901A80EE810A10EE100A00EE102A90
:103F6000206070BD9401002070B50446002524F83F
:103F7000021B8E0025603046FCF724FB6060304653
:103F8000FCF720FBA060E560256160683146FCF726
:103F9000C2FCA0683146A41EFCF7BDFC04F11A0067
:103FA000BDE870401021FCF794BC000070B50446D9
:103FB0002DED028BB0EE608A90F89800F0EE408A0A
:103FC000000602D5204604F0F9F904F18C00FDF753
:103FD000D7F810EE100A18EE101AC4F8900018EE78
:103FE000900A08EE101A206108EE900A216038EE5F
:103FF000680A10EE100AA061D4F8A21009B1204698
:104000008847A06900EE100AB5EEC00AF1EE10FA7A
:1040100000EE100A01DCB1EE400AA16C00EE901A2D
:10402000B4EEE00AF1EE10FA79DDD4F8942061687C
:1040300004F16203EAB300EE101A116800EE901A60
:1040400070EE200A00EE100A20EE800A10EE101A20
:104050006162A16800EE101A516800EE901AD4F85F
:10406000901070EE200A00EE100A60EE800A00EE5A
:10407000101A20EE800A10EE105A2563B4F8605032
:10408000022D4DD900EE900A00EE101A1846FFF7E7
:1040900071FEE06800EE900AD4F89400806801EEAA
:1040A000100A70EE810A00BF20EE200A10EE100AFE
:1040B0004DE0FFE700EE901A00EE100A20EE800AB5
:1040C00010EE101A00EE100A6162A16800EE901A5C
:1040D000D4F8901060EE800A00EE101A20EE800AEC
:1040E00010EE102A2263B4F86020022A0AD900EEEA
:1040F000900A00EE101A1846FFF73CFEE06800EE4A
:10410000900AD1E700EE100AE06900EE900AE0683C
:1041100070EE600A00EE100A20EE801A11E066E0F0
:10412000E368926800EE103A00EE902A30EE201A12
:1041300000EE100AE06900EE900A30EE600A21EE0F
:10414000001A00EE101AC1EE000A10EE900AE062AA
:10415000D4F8A61009B12046884794F89800400783
:1041600002D5204604F09CF994F89800800602D508
:10417000204603F0B1FF94F89800800702D520464E
:1041800004F02AF894F89800400602D5204603F07F
:10419000FCFF94F89800C00702D0204604F079F89C
:1041A000A06A00EE100A206B00EE900A30EE200AA2
:1041B00010EE100AA062616A00EE100A00EE901A7A
:1041C000E06A70EE800A00EE100A30EE800A10EE0F
:1041D000100A606394F89800C00602D5204604F0E7
:1041E000A5F8204604F0C9F8204604F039F9206902
:1041F0006061606BA063E16AE163A169E161216BC9
:10420000216200EE100ABDEC028B70BD70B5044651
:1042100011EE100A0025A06410EE900A16466064A4
:1042200010EE100A206411EE900A2560606012EE14
:10423000100AA06012EE900AE06013EE100A2563E7
:10424000206513EE900A606514EE100AA06514EE66
:10425000900AE065A4F8601004F16200FFF784FEA4
:10426000C4F88C5084F898600021C4F89910C4F800
:104270009D1084F8A150656370BD90ED020AF7EEC1
:10428000000A60EE001AB0EE000AB0EE601A01EE0D
:10429000C01AD0ED031A61EEA11A01EEC01A81ED29
:1042A000001A90ED011AD0ED021A90ED032A21EECA
:1042B000001A21EE211AD0ED001A61EE801A01EEEB
:1042C000C21A81ED011A90ED011AD0ED031A90ED9A
:1042D000022A21EE001A21EE211AD0ED001A61EE19
:1042E000801A01EE821A81ED021A90ED011AD0EDCA
:1042F000021A90ED032A21EE001A21EE211AD0EDC8
:10430000001A61EE801A01EE821A81ED031A90ED17
:10431000011A61EE011AB0EE601A01EEC01AD0ED7A
:10432000031A61EEA11A01EEC01A81ED041A90ED94
:10433000021AD0ED031A90ED012A21EE001A21EEA7
:10434000211AD0ED001A61EE801A01EEC21A81ED39
:10435000051A90ED011AD0ED031A90ED022A21EE14
:10436000001A21EE211AD0ED001A61EE801A01EE3A
:10437000C21A81ED061A90ED021AD0ED031A90EDE3
:10438000012A21EE001A21EE211AD0ED001A61EE69
:10439000801A01EE821A81ED071A90ED011A21EEC2
:1043A000011A41EE400A90ED021A21EE011A41EE87
:1043B000400AC1ED080A7047D0ED002A91ED001ABD
:1043C00090ED012AD1ED010A22EE814A90ED023AE8
:1043D00091ED020AD0ED031A02EE604AD1ED033AE4
:1043E00003EE404A01EEE34A82ED004A22EEA04A83
:1043F00002EE014A03EE234A01EEC04A82ED014A71
:1044000022EE804A62EEA32A02EE634A42EE002ABE
:1044100003EE014A43EE602A01EEA04A41EE812AF2
:1044200082ED024AC2ED032A7047000030B5144BFA
:104430001C68656945F0400565611B68DC6844F0EF
:104440001004DC600F4B1C68256825F00105256011
:104450001C682568ED07F7D11D680B4CAC601C6823
:10446000E06018680161186842601868016841F4EA
:10447000802101601868016841F00101016030BDD0
:10448000C0050020580700200410014070B5044604
:104490002DED048B0D4690ED060A2E49F0EEC00A74
:1044A00010EE900A884223DDB5EEC00A9FED2A8AFD
:1044B000F1EE10FA09D2D4ED040ADFED288A94ED6A
:1044C000010A00BF02F084F809E0DFED258AD4ED8F
:1044D000040A94ED010A02F07BF8B1EE400A85ED82
:1044E000000AC5ED018A85ED028ABDEC048B70BD22
:1044F00094ED000AD4ED030A20EE000A00EEA00AB3
:1045000002F0D9F9F0EE400A94ED060AB1EE400A45
:1045100002F05EF8F0EE408A02F082F9B0EE409AC6
:1045200094ED000AC0EE090A94ED030A80EE091A20
:10453000B0EE410A02F04CF8B0EE408A94ED080A61
:10454000C0EE090A94ED070A80EE091AB0EE410A9E
:10455000B8E7000072F97F3F00000000DB0FC93FA1
:10456000DB0FC9BF2DE9F041B7EE002A2DED028B1C
:10457000B6EE008AD0ED001A90ED041AD0ED080ACC
:104580000E4631EE810A044630EE200AB5EEC00A2E
:10459000F1EE10FA37DD30EE020A10EE100A07F0E5
:1045A000A7FD41EC100B02F049F951EC100B06F09D
:1045B000EFFA00EE100A60EE080AC6ED000AC8EE37
:1045C000000A94ED070A94ED051A30EE410A20EE38
:1045D000200A86ED010A94ED020A94ED061A30EEE7
:1045E000410A20EE200A86ED020A94ED030A94EDBA
:1045F000011A30EE410A20EE200A86ED030ABDECD6
:10460000028BBDE8F081F4EEC11AF1EE10FA06D289
:10461000B4EEE01AF1EE10FA06D3012507E0F4EE4D
:10462000E01AF1EE10FA01D2022500E00025691C23
:10463000032091FBF0F200FB1217A91C91FBF0F292
:1046400000FB121804EB051090ED000A04EB0710B4
:10465000D0ED000A04EB081030EE600AD0ED000A3D
:1046600030EE600A30EE020A10EE100A07F040FD4C
:1046700041EC100B02F0E2F851EC100B06F088FA56
:1046800000EE100A06EB850008EB480160EE080A10
:1046900007EB4702C0ED010AC8EE000AC81904EB97
:1046A000800090ED000A02EB080004EB800090ED22
:1046B000001A501904EB800030EE410A05EB450268
:1046C00020EE200A86ED000A90ED000AD01904EBD6
:1046D000800090ED001A06EB870030EE010A20EE14
:1046E000200A80ED010A481904EB800090ED000AD1
:1046F00002EB080004EB800090ED001A06EB880046
:1047000030EE010A20EE200A80ED010A77E7000072
:10471000F8B515460E460B460092044601220221CA
:1047200000F02CF8A0B9134813490068B0FBF1F071
:104730004FF47A71484300906068B0F5827F0DD1E4
:104740003346002280212046009500F017F870B112
:10475000606D40F0200060650320F8BD009830B126
:10476000401E009020688068C0430006F6D50020F7
:10477000F8BD00002800002000366E012DE9F84346
:104780001E46914688460446089DFDF7F9FD401BEC
:10479000351AFDF7F5FD074625480068C0F3CB3014
:1047A000684338E0701C37D0FDF7EAFDC01BA84213
:1047B00003D215B1009860B32CE02068416821F065
:1047C000E00141606068B0F5827F0BD1A068B0F570
:1047D000004F02D0B0F5806F04D12068016821F04D
:1047E00040010160A06AB0F5005F09D1206801684E
:1047F00021F4005101602068016841F4005101601A
:10480000012084F85100002084F850000320BDE806
:10481000F8830025401E00902068816838EA010076
:1048200004D000214945BDD10020F0E70121F9E77E
:1048300028000020B5EEC00AF1EE10FA02DDB7EE56
:10484000000A7047B5EEC00AF1EE10FA02D2BFEED0
:10485000000A70479FED010A704700000000000049
:104860002DE9F04316462DED068B97B08946054697
:1048700000279FED798AB7EE00AA00BF05EB8704F9
:1048800094ED000A01F0CCFFF0EE408A94ED000AAE
:1048900001F0D2FF09EB8708B0EE409A98ED000ACC
:1048A00001F0BEFFB0EE401A98ED000AF0EE419A1A
:1048B00001F0C2FFE06FF0EE400A7F1CC0ED009AED
:1048C000E06FB1EE600A062F80ED010AE06F80ED27
:1048D000028AE06F94ED060A80ED030A28EEA00A32
:1048E000E06F80ED040A28EEA90AE06F80ED050A6A
:1048F000E06FB1EE490A80ED060A94ED0C0AE06F14
:1049000029EE400A80ED070A29EE200AE06F80EDCB
:10491000080A29EE290AE06F80ED090AE06FC0ED70
:104920000A8A94ED0C0AE06F20EE280A80ED0B0A4B
:10493000E06F80ED0C8AE06F80ED0D8AE06F80ED16
:104940000E8AE06F80ED0FAA98DB05F1DC021746B6
:1049500005F1540105F14C00FBF796FD85F8480080
:1049600005F1E402144605F15C013846FBF78CFDC5
:1049700085F848003A4605F164012046FBF784FDBE
:1049800085F84800224605F16C013846FBF77CFDAE
:1049900085F848003A4605F174012046FBF774FD9E
:1049A00085F84800002104AB002001EB410200BF64
:1049B000D5F8EC4000EB810704EB870494ED000A86
:1049C000141803EB8404401C84ED000A0328EFDB79
:1049D000491C0329E8DB0DA91846FFF757FD10A96C
:1049E00004A8FFF7BFFD55F8EC0F90ED030A86ED24
:1049F000000A286890ED070A86ED010A286890ED04
:104A00000B0A86ED020ADDED0D0A9FED140A60EE39
:104A1000800AC6ED030ADDED0E0A60EE800AC6EDDF
:104A2000040ADDED0F0A20EE800A86ED050A9DEDF1
:104A3000100A86ED060A9DED110A86ED070A9DED26
:104A4000120A86ED080A9DED130A86ED090A17B0D1
:104A5000BDEC068BBDE8F08300000000E12E65424E
:104A60002DE9FF4F0D462DED0E8BB3B0022104460C
:104A700099468A4613AE4E989FEDFA8A299107917E
:104A800088B305F11800D4F89C10FFF7F6FB00215D
:104A9000002201EB41039818D4F89C70521C07EBDC
:104AA000800706EB800097ED000A032A80ED000ADC
:104AB000F1DB491C0329EBDB08A913A8FFF7E6FC8F
:104AC0009DED080A20EE080A85ED030A9DED090A0E
:104AD00020EE080A85ED040A9DED0A0A20EE080A78
:104AE00085ED050A40E0FFE795ED030A08A8C0EE52
:104AF000080ACDED080A95ED040AC0EE080ACDEDCE
:104B0000090A95ED050AC0EE080ACDED0A0AD4F8A7
:104B10009C10FCF77EFB0020002100EB40035A189C
:104B2000D4F89C70491C07EB820706EB820297EDD4
:104B3000000A032982ED000AF1DB401C0328EBDBAD
:104B40000EA913A8FFF70EFD9DED0E0A85ED060ACE
:104B50009DED0F0A85ED070A9DED100A85ED080A07
:104B60009DED110A85ED090AD9ED021AD9ED002A49
:104B700099ED011A99ED042AD9ED050A99ED030A78
:104B8000002003AE06EB800100EB4007C1ED001AE8
:104B900025A901EBC001401CC1ED002A81ED011ADD
:104BA0001DA901EB8701022881ED000A81ED012A90
:104BB000C1ED020AE6DB9FEDACAAD4F8CC0080ED93
:104BC00000AAD4F8CC0080ED01AA9FEDA80AD4F881
:104BD000CC0004F1D00204F1C40180ED020A04F11A
:104BE00094002C90FBF750FC84F84800D4F8D800CF
:104BF00095ED000AB0EE009AD0ED000A94ED092A76
:104C000070EE60CA95ED010AD0ED010A6CEEAC1AA7
:104C100070EE60BA95ED020AD0ED020A4BEEAB1AC7
:104C200030EE600AD4ED0C0A70EE609AD4ED080AFA
:104C300094ED0F0A20EE891A49EEA91A61EE02AA34
:104C400021EE008A94ED071A21EE011A00EEA01A57
:104C5000D4ED0D0A02EE021A94ED0E2A00EEA01A0F
:104C600002EE021A00EE001A20EE890A00EE021A85
:104C700031EEC1BA7AEE8B0A9FED7DDA9FED7DCAE7
:104C8000F7EE008AF5EEC00AF1EE10FA2CD1B5EE7F
:104C9000C08AF1EE10FA0FD18DED03DA8DED04CA62
:104CA0005FF0000004EB0011401C81ED409A81EDA3
:104CB000509A0428F6DB9CE168EE090A3BEE6A0A8A
:104CC00001F086FC20EE090A5FF000008DED030A7A
:104CD0008DED040A04EB0011401CC1ED408AC1EDCA
:104CE000508A0428F6DB52E028EE080A0AEEAA0AE7
:104CF0000BEE4B0AB5EEC00AF1EE10FA2EDD2AEEED
:104D0000AA0A12A808EE080A0BEE4B0A02F0B6FC3B
:104D10007AEE8BAA9DED120A38EE000AF0EE6A0ACE
:104D200001F056FC20EE090AF0EE6A0A8DED030A46
:104D30009DED120A38EE400A01F04AFC20EE090A05
:104D40005FF000008DED040A04EB0011401C81EDC2
:104D5000409A81ED509A0428F6DB18E0B5EEC00ABF
:104D6000F1EE10FA7CD1B0EE480A01F031FC20EEF1
:104D7000090A00208DED030A8DED040A04EB0011F1
:104D8000401CC1ED408AC1ED508A0428F6DB0025A5
:104D9000DFED39DA03A800EB8506249696ED000ACC
:104DA00001F03EFDF0EE400A96ED000AB0EE608A9A
:104DB00001F042FDD4F8B400F1EE400A80ED008A23
:104DC000D4F8B40080ED010AD4F8B40080ED02AA52
:104DD000D4F8B400C0ED030AD4F8B40080ED048A1E
:104DE000D4F8B40080ED05AAD4F8B40080ED06AA8A
:104DF000D4F8B40080ED07AAD4F8B400C0ED088A56
:104E0000D4ED091A94ED0F1A94ED082A61EE880A80
:104E100021EE088A41EE000A01EEC08A30EE82EAF5
:104E200038EE29BAF1EE4EAAB5EEC0BAF1EE10FA9C
:104E30004ED1F5EEC0AAF1EE10FA2BD18DED26DAA7
:104E40008DED28CA5FF0000000EB850104EB011135
:104E5000401C81ED419A81ED499A0228F4DBC8E0BB
:104E60000CE00000E12E654200000000DFCF23428D
:104E7000DB0F49C0DB0F4940DB0FC9405FF000008A
:104E800004EB0011401C81ED40AA81ED50AA0428DA
:104E9000F6DBAEE0B0EE690AB0EE481A6AEE890AB7
:104EA00030EE410A01F094FB20EE090A5FF00000A9
:104EB0008DED260A8DED280A00EB850104EB01112A
:104EC000401CC1ED418AC1ED498A0228F4DB5EE055
:104ED0002AEEAA0AF0EE480A00EEA00AF0EE690AED
:104EE00000EEE00AB5EEC00AF1EE10FA32DDB0EEE7
:104EF000480AF0EE690A20EE000A12A80AEEAA0A91
:104F000000EEE00A02F0BAFB9DED120AF0EE4B0A49
:104F10003AEE800A01F05CFB20EE090AF0EE4B0A43
:104F20008DED260A9DED120A3AEEC00A01F050FB03
:104F300020EE090A5FF000008DED280A00EB8501E4
:104F400004EB0111401C81ED419A81ED499A022840
:104F5000F4DB1CE0B5EEC00AF1EE10FA3CD1F0EE45
:104F60004B0AB0EE6A0A01F033FB20EE090A00207A
:104F70008DED260A8DED280A00EB850104EB011169
:104F8000401CC1ED418AC1ED498A0228F4DB0026AC
:104F9000B1EE488A0DF1940808EBC60797ED010AB7
:104FA00001F03EFC60EE0EAA97ED010A01F044FC10
:104FB00040EE48AA94ED070A3AEE801AB5EEC01A00
:104FC000F1EE10FA1CD106EB850004EB001080ED29
:104FD00042AA80ED4AAA0CE05FF0000000EB8501D8
:104FE00004EB0111401C81ED41AA81ED49AA022880
:104FF000F4DB002033B0BDEC0E8B04B0BDE8F08FC5
:10500000CCEE810A8BEE810A01F0E2FA06EB850014
:1050100004EB001087ED000AC0ED428AC0ED4A8A19
:105020000798761C8642B7DB04F1A0003090183058
:105030002F900C3800272E90A8002D9004F1F4003A
:10504000239025A800EBC706B34696ED000A01F0B1
:10505000E7FBB0EE408A96ED000A01F0EDFBF0EEC2
:1050600040AA96ED010A01F0DBFBB0EE401A96ED86
:10507000010AB0EE41BA01F0DFFBF0EE400A28EE83
:105080000B0A54F8A80F80ED000A2BEE2A0A54F8F8
:10509000600980ED010A206EB1EE600A80ED020A1F
:1050A00028EE600A206E80ED030A2AEEE00A206EE8
:1050B00080ED040A206EB1EE4B0A80ED050A206EE9
:1050C000B1EE6A0A80ED060A206E80ED078A206E36
:1050D00080ED08AA239A2C993098FBF7D5F9207017
:1050E000DDE92E022399FBF7CFF904F8780B54F889
:1050F000C00990ED020AD0ED080A12A820EE000ABD
:1051000000EEA00A02F0BAFA8E4912984FF000069B
:1051100088422D9800EB4700029049DA00EE106AB1
:1051200006EB46011DA8B8EEC00A00EB810820EE90
:105130000C0A88ED010A99ED030A88ED000A01F0D6
:105140006FFBB0EE408A99ED030A01F075FB012078
:10515000A0EB460000EE900AD4F8C000F8EEE00A9A
:10516000D0ED001A90ED011A4FF0FF3000EB460031
:1051700002EE100A60EE880AB8EEC22A60EEA10ABA
:1051800022EE082A40EE410A22EE011A00EE611AD0
:10519000B0EE410A01F01CFA88ED020A0298304490
:1051A00004EB0010761CC0ED438A5645B6DB4CE09C
:1051B00054F8C00F9DED121A90ED050A4FF0FF3024
:1051C00000EB4600F1EE400A00EE100AB8EEC00A0D
:1051D00020EE010A01F0FCF906EB46011DA800EBE8
:1051E000810888ED010A01F027FB2068B0EE408AB3
:1051F00090ED020AB1EE400AC0EE080A90ED080AEE
:10520000B1EE400A80EE081AB0EE410A01F0E0F972
:1052100088ED000A54F8C00990ED030AB1EE400A87
:10522000C0EE080A90ED040A80EE081AB0EE410ABA
:1052300001F0CEF988ED020A0298304404EB001028
:10524000761C80ED439A5645B2DB2D99DFF8F8E0E5
:1052500001EB47032499002091ED000A764610EEF9
:10526000101AB14202DD70EE6D0A06E010EE101A5F
:10527000364A91420AD970EE2D0A191801EB410203
:10528000439901EBC201C1ED020A07E0191801EBD5
:105290004102439901EBC20181ED020A00211A1873
:1052A000DDF80CC102EB42020CEBC2020BEB810CED
:1052B000DCED000A10EE90CAB44502DD70EEED0A96
:1052C00007E010EE90CADFF88480C44501D970EE83
:1052D000AD0A02EB810C491CCCED000A0229E5DB8A
:1052E0000DF1740C00EB400600210CEB860600BFAC
:1052F00006EB810CDCED000A10EE908AF04502DD31
:1053000070EEED0A07E010EE90CADFF84080C44569
:1053100001D970EEAD0A02EB810C491CCCED030AF9
:105320000329E5DB401C504598DB07987F1C87422A
:10533000FFF687AE29986D1C8542FFF62BAD012044
:1053400058E60000ACC52737DB0F4940DB0F49C0EA
:10535000012004F0CDFBFBE710B5FDF717F805F0D1
:1053600027FB012803D0BDE8104005F0B3BA10BDFB
:1053700030B593B030216846FBF7CDFA14210CA864
:10538000FBF7C9FA1D480025016841F08051016012
:10539000006800F0805011901948016841F44041C4
:1053A00001600068022400F4404011900120009048
:1053B000000401908001CDE9064006200890A82055
:1053C000CDE9090404200B906846FDF769F908B19E
:1053D00072B6FEE70CA90F2081E831004FF4A0500F
:1053E0000F904FF48050109005210CA8FDF76CF839
:1053F000002801D072B6FEE713B030BD403802403D
:10540000007000400248016841F47001016070477B
:1054100088ED00E010B504462DED068BD0ED070AAF
:1054200090ED001A70EEC00A90ED020A20EE010A1B
:1054300080ED010A90ED031A21EE001A61EE008A58
:1054400090ED061A20EE019A70EE899AB0EEE90A04
:1054500010EE100A06F04CFE9FED3E1B53EC112B94
:1054600006F048F841EC1A0B18EE900A06F040FEE0
:1054700053EC1A2B05F0EEFC41EC1A0B18EE900AD7
:1054800006F036FE53EC1A2B06F034F841EC100B04
:1054900001F0D4F951EC100B05F07AFB00EE900A04
:1054A000B0EE690AFFF7C6F970EEE80AB0EE498A75
:1054B00020EE200AF6EE000A00EE208AF0EE680ADE
:1054C000B0EE690A03F0DEF879EE290A60EE202AD0
:1054D000F0EE680AB0EE690A03F0D4F8B7EE003ACD
:1054E000D4ED030A33EE400A48EE002A82EEA80A01
:1054F00020EEC02AF0EE680AB0EE620A03F0C2F8AD
:1055000022EE002AB0EE620AFFF794F9D4ED030A06
:1055100060EE203AF0EE680AB0EE620A03F0B2F8EC
:1055200033EE400A03EEC02A84ED042A84ED052AF6
:1055300094ED060AD4ED000A00EE820A84ED060A14
:1055400094ED071A00EE801A84ED071ABDEC068B65
:1055500010BD0000000000000000204080ED030AA4
:1055600080ED001A9FED050AC0ED020A80ED050AE4
:1055700080ED060AC0ED071A704700000000000029
:1055800080ED030A704780ED070A7047114890F8D4
:10559000AA1590F8A80541EA00210F4801800F499B
:1055A00091ED660A80ED010A91ED670A80ED020A2D
:1055B00091ED680A80ED030A91ED690A80ED040A15
:1055C00091ED6A0A80ED050A91ED6B0A80ED060AFD
:1055D0007047000090590020B85800208C520020DD
:1055E000184882B001680968C943C90626D416491B
:1055F0000A68136823F001031360006802684068BA
:105600000090124A08684FF00061904202D90F4A98
:105610004C3A04E00E4A904203D90C4A503A1160C9
:1056200008E00B4B0A4A603BB83A984201D9D16076
:1056300000E09160016841F001010160014802B0A1
:10564000FDF786BB30050020980600205864024014
:10565000B86002400148FDF77BBB000078050020E0
:1056600010B5806B0021C185C184FDF770FB10BDB2
:1056700070B5846B2068406994F84110C0F3C01085
:105680000025212904D118B1E584204600F0B4F8A2
:105690002068406994F84210C0F38010222904D198
:1056A00018B1E585204600F080F8606C40F01000ED
:1056B00060642046FDF74BFB70BD10B50146806B62
:1056C000096809684FF00002C9052ED4C285016837
:1056D0000C3151E8003F23F4807341E80034002C82
:1056E000F5D10168143151E8003F23F0010341E88E
:1056F0000034002CF5D10168143151E8003F23F04B
:10570000400341E80034002CF5D1202180F84210FC
:10571000016B012909D101680C3151E8003F23F0E8
:10572000100341E80034002CF5D14263016B0129DC
:1057300002D0FDF785FE10BD818DFDF707FB10BD82
:1057400010B5806B01214163016B012902D0FDF787
:1057500078FE10BD818D4908FDF7F8FA10BD10B52F
:105760000146806B09680968C90516D40021C18407
:105770000168143151E8002F22F0800241E8002333
:10578000002BF5D101680C3151E8002F42F04002A6
:1057900041E80023002BF5D110BDFDF7DFFE10BD61
:1057A00010B5806BFDF7DBFE10BD01680C3151E8D0
:1057B000002F22F4907241E80023002BF5D10168FC
:1057C000143151E8002F22F0010241E80023002BA0
:1057D000F5D1016B012909D101680C3151E8002F85
:1057E00022F0100241E80023002BF5D1202180F89F
:1057F000421000210163704701680C3151E8002F0D
:1058000022F0C00241E80023002BF5D1202180F8CE
:105810004110704708B590F84210222901D00220AB
:1058200008BD82684FF480539A4201D1016921B1C9
:10583000816A9A421BD04AB10AE00268816A5268C2
:10584000C2F308020A80816A891C08E0026972B109
:105850000268526802F07F020A70816A491C816204
:10586000C18D491E0904090CC18503D01BE00268E3
:105870005268F1E70168CA6822F02002CA60016834
:10588000CA6822F48072CA6001684A6922F0010283
:105890004A61202180F8421000214163026B012AF5
:1058A00003D0FDF7CDFD002008BD016301680C3178
:1058B00051E8002F22F0100241E80023002BF5D11F
:1058C00001680A68D20602D50A6849680091818D8C
:1058D000FDF73CFAE7E7000070B50446006801698F
:1058E000E26821F44051114301612169A068E26935
:1058F00008436169114308432168CA6849F20C638F
:105900009A430243CA6020684169A26921F4407148
:105910001143416131492068884202D030498842B0
:1059200002D1FCF77BFE01E0FCF768FEE269002390
:10593000192164253226B2F5004F626828D0A0FBF9
:105940000101930F9200FAF793FE0146B0FBF5F0C8
:105950006FF01802504301EB800006EB0010B0FB23
:10596000F5F000F0F002B1FBF5F002EB0012B1FB34
:10597000F5F06FF01803584301EB800006EB0010C0
:10598000B0FBF5F000F00F0021681044886070BD96
:10599000A0FB010192185B41FAF76AFE0146B0FBD9
:1059A000F5F00201B1FBF5F06FF01803584301EB7D
:1059B000800006EBC000B0FBF5F000F0F80002EB51
:1059C0004002B1FBF5F0584301EB800006EBC0004C
:1059D000B0FBF5F000F00700D6E700000010014032
:1059E0000014014038B581620446828500201346C8
:1059F0006064222284F84220E56B1B4AEA63E56B6F
:105A00001A4A2A64E56B1A4AEA64E26B10650A4690
:105A10002168E06B091DFCF741FB206801684068C4
:105A20000090206948B120680C3050E8001F41F414
:105A3000807140E80012002AF5D12068143050E847
:105A4000001F41F0010140E80012002AF5D1206852
:105A5000143050E8001F41F0400140E80012002AD5
:105A6000F5D1002038BD0000BB56000841570008A2
:105A7000715600082DE9F843984617460D4604462E
:105A8000089E24E0701C22D0FCF77AFCA0EB0800F2
:105A9000B0421AD8CEB12068C168490717D5802D09
:105AA00015D0402D13D00168C94309070FD40168F0
:105AB0000025406800902046FFF777FE08206064CC
:105AC00084F840500120BDE8F8830320FBE72068FC
:105AD000006835EA000004D00020B842D2D000208F
