:020000040800F2
:10000000D8BA00205D020008FB600008B544000873
:10001000F9600008591200083D7100080000000056
:100020000000000000000000000000009D0100082A
:100030001D1A000800000000F90100087D67000893
:1000400077020008770200087702000877020008AC
:1000500077020008770200081F1A000877020008DC
:1000600077020008251A00082B1A000877020008FA
:100070007916000877020008770200087702000866
:10008000770200087702000877020008770200086C
:100090005D1200087702000877020008311A000894
:1000A000770200087702000877020008770200084C
:1000B000770200087702000877020008770200083C
:1000C000770200087702000877020008770200082C
:1000D00077020008056F000877020008BD6F00086E
:1000E000770200087702000877020008770200080C
:1000F00077020008770200087702000877020008FC
:1001000077020008770200087702000877020008EB
:100110007702000877020008770200084D6800089F
:100120007702000885160008911600089D16000841
:1001300077020008770200087702000877020008BB
:1001400069120008770200087702000877020008A9
:10015000A9160008B5160008C11600082570000889
:10016000770200087702000877020008770200088B
:1001700077020008770200087702000800000000FC
:100180007702000877020008DFF80CD000F02EFE9E
:100190000048004765840008D8BA00202C4B196835
:1001A0000868B0E8F04F80F30988BFF36F8F4FF015
:1001B000000080F3118870470000000008480068C4
:1001C000006880F308884FF0000080F3148862B65E
:1001D00061B6BFF34F8FBFF36F8F00DF00BF00BF6B
:1001E00008ED00E0DFF80C00016841F470010160E7
:1001F000704700BF88ED00E0EFF30980BFF36F8F19
:10020000134B1A681EF0100F08BF20ED108A20E96A
:10021000F04F106009B44FF0500080F31188BFF325
:100220004F8FBFF36F8F08F051FF4FF0000080F346
:10023000118809BC19680868B0E8F04F1EF0100F6B
:1002400008BFB0EC108A80F30988BFF36F8F704746
:10025000E8000020EFF30580704700000648804763
:1002600006480047FEE7FEE7FEE7FEE7FEE7FEE79B
:10027000FEE7FEE7FEE7FEE73D68000889010008AB
:100280009FED1A1AF5EE000A40EE010ABDEEE00AF3
:10029000F5EEC00A10EE100AF1EE10FA38BF401E5B
:1002A00000EE100A1349F7EE001AB8EEC00A30EE5D
:1002B000C00ADFED0F0A20EE200AFCEEC00A10EEA5
:1002C000900AC0F3080000EE900A01EB8000F8EEFF
:1002D000600A90ED011A70EE600A90ED000A71EE6E
:1002E000E01A21EE800A00EE810A704783F9223E6F
:1002F0000000004420990008DFED190AB5EEC00A9D
:1003000060EE200ABDEEE01A11EE100AF1EE10FACE
:1003100038BF401E00EE100A1349F7EE001AB8EE7F
:10032000C00A30EEC00ADFED0F0A60EE200ABCEE14
:10033000E00A10EE100AC0F3080000EE100A01EB0C
:100340008000B8EE400A90ED011A70EEC00A90ED00
:10035000000A71EEE01A21EE800A00EE810A704771
:1003600083F9223E000000442099000870B40588FB
:100370000E884468D1F804C05368B54208D140885B
:100380004988884201BF11888D425188884203D034
:1003900070BC6FF00200704705FB00F1880827D0A1
:1003A00094ED001ADCED000A94ED010ADCED011A6F
:1003B00031EE201AD4ED020A70EE211A9CED020AE9
:1003C00083ED001AC3ED011A94ED031ADCED031A54
:1003D00030EE800A401E71EE210A83ED020A04F11C
:1003E0001004C3ED030A03F110030CF1100CD7D174
:1003F00011F0030030D0B0F1004F30D200282BDDD7
:10040000211F1B1FACF1040210F0010F0AD091ED67
:10041000010AD2ED010A091D121D30EE200A83EDFA
:10042000010A1B1D400817D091ED010AD2ED010A07
:10043000401E30EE200A83ED010A91ED020AD2ED52
:10044000020A01F1080102F1080230EE200A83EDF0
:10045000020A03F10803E7D170BC00207047B4EC36
:10046000010A401EFCEC010A30EE200AA3EC010A4E
:10047000F5D1F1E701804280436070472DE9F34FE9
:1004800084B0049840680090486801900498B0F8DF
:1004900000E04588DFEDFE0A00200290B0EE600A21
:1004A000AE4506D108884988884204BF7146864512
:1004B00004D06FF0020006B0BDE8F08F01985FEA4B
:1004C000010C18BFB7EE001A3DD000BFBEEB0C0107
:1004D00017D0B1F1004F80F01F82002911DD021FFB
:1004E00011F0010F1CBFC2ED010A121D4B1006D006
:1004F000C2ED010AC2ED020A08325B1EF8D100EB20
:100500008100BCF10102A0EC011A19D0B2F1004F38
:1005100080F00882002A13DD031F12F0010F1CBFB8
:10052000C3ED010A1B1D511008D000BFC3ED010A25
:10053000C3ED020A491E03F10803F7D100EB820064
:10054000BCF1010CC2D14FF000080395002D14BF7F
:10055000B0EE602A002000F0BF8100BF009908FBC8
:1005600005F001EB800B0199DBED002A01EB800027
:100570000346F0EE421AC64552D9AEEB0802ABEB89
:10058000850112F0010F17D001EB850191ED000AF2
:10059000B5EEC00AF1EE10FA07DDB4EEE10AF1EEB5
:1005A00010FA09DDF0EE401A06E0B1EE400AF4EE72
:1005B000C01AF1EE10FAF5D3521031D001EB850CD0
:1005C0009CED000AB5EEC00AF1EE10FA05DDB4EEBE
:1005D000E10AF1EE10FA09DD06E0B1EE400AF4EEB0
:1005E000C01AF1EE10FA01D2F0EE401A01EBC5018B
:1005F00091ED000AB5EEC00AF1EE10FA05DDB4EE99
:10060000E10AF1EE10FA09DD06E0B1EE400AF4EE7F
:10061000C01AF1EE10FA01D2F0EE401A521ECDD1FE
:10062000F5EEC01AF1EE10FA00F07381F5EEC02A73
:100630000126F1EE10FA0099D4BFB1EE620AB0EED5
:10064000620AB4EE610AF1EE10FA1CBFAEEB0802CA
:10065000B2F1010C47D005FB08F201EB820292EDEA
:10066000001A00BFB0EE410A05FB06F4B5EEC00A61
:1006700000EB8404F1EE10FACCBFF0EE400AF1EE8C
:10068000400AF4EE610AF1EE10FA28D1B5EB080C3D
:1006900011D0BCF1004F7DD2BCF1000F0BDD00BFCB
:1006A00092ED000AD1ED000ABCF1010CE2EC010A66
:1006B000A1EC010AF4D129000ED0B1F1004F6AD2A9
:1006C000002909DD94ED000AD0ED000A491EE4EC92
:1006D000010AA0EC010AF5D1012002900BE0761C82
:1006E000BCF1010CBED10298012804D0F5EEC02A5D
:1006F000F1EE10FA7ED09BED000AB5EB08009A46A9
:100700005946064622D0B0F1004F74D200281DDDB4
:10071000091F10F0010F06D0F0EE400A80EEA01A7B
:1007200081ED011A091D401010D000BFD1ED010A62
:10073000401E80EE801A81ED011A91ED021AC1EE81
:10074000000AC1ED020A01F10801EFD1280026D00C
:10075000B0F1004F7ED2002821DDAAF1040110F093
:10076000010F06D0D1ED010A80EE801A81ED011A49
:10077000091D401013D000BFD1ED010A401E80EECC
:10078000801A81ED011AD1ED020A80EE801A81ED06
:10079000021A01E0CBE0D6E001F10801ECD1DDE97D
:1007A00000124FF000095FEA0E0773D0C14504BF85
:1007B00001EB860102EB850274D091ED000ADC4664
:1007C0005046330035D01C46B6F1004F7ED2002C87
:1007D0002FDD0B1FABF1040C16F0010F0FD0F0EE64
:1007E000400ADCED011AB0EE601A00EEE11A83ED6A
:1007F000011A01E08DE0B1E01B1D0CF1040C741036
:1008000015D000BFD3ED010A9CED011A40EE410A5C
:10081000C3ED010AD3ED020A9CED021A0CF1080C9B
:1008200040EE410AC3ED020A0833641EEAD101EB2F
:1008300086012B0036D0B3F1004F72D2002B31DD90
:10084000A2F1040CAAF1040013F0010F0CD0DCEDAE
:10085000010A00E08BE090ED011A001D40EE410A14
:10086000CCED010A0CF1040C5C1019D0DCED010A8E
:1008700090ED011A40EE410ACCED010ADCED020ACE
:1008800090ED021A083040EE410ACCED020A03E076
:10089000000000000DE005E0641E0CF1080CE5D13D
:1008A00002EB830201EB88017F1E09F101097FF44D
:1008B0007DAF009808F10108001D00900398401ECC
:1008C00003907FF44BAE0299012900E058E004BF89
:1008D00006B0BDE8F08F00BFB5EEC00AF1EE10FA29
:1008E0007FF4E9AD04990EFB05F3002B4A684FF045
:1008F00000010BD902EB810C9CED000AB5EEC00A99
:10090000F1EE10FA02D1491C8B42F3D88B427FF4EE
:10091000D2AD6FF00400CEE5E0EC010A491EFBD138
:10092000EFE538E0E0EC010A521EFBD108E692ED5B
:10093000000AD1ED000ABCF1010CE2EC010AA1ECC5
:10094000010AF4D1B7E694ED000AD0ED000A491E81
:10095000E4EC010AA0EC010AF5D1BDE6D1ED000AF4
:10096000401E80EE801AA1EC011AF7D1EEE6D3ED1D
:10097000000A401E80EE801AA3EC011AF7D10EE7A0
:10098000BCEC011AD1ED000A5B1E40EE410AE1EC1D
:10099000010AF5D14DE7B0EC011AD2ED000A5B1E59
:1009A00040EE410AE2EC010AF5D17BE72DE9F04F78
:1009B00082B0466853680193058847884B880020B9
:1009C00000900888874201BFB2F800C06545528890
:1009D00093421EBF6FF0020002B0BDE8F08F9FEDA2
:1009E000412A4FEA970EC7F3400B00BFDDE9000232
:1009F00002EB800A4A6898464FF00009B0EE420ABE
:100A0000B4465FEA0E0025D092ED001ADCED001A24
:100A100002EB8302DCED010A01EE810A92ED001A7D
:100A200002EB8302401ED2ED001A02EB830200EEBD
:100A3000810A9CED021ADCED030A00040CF1100C93
:100A4000000C01EE210A92ED001A02EB830200EE87
:100A5000810AD9D117F0030026D0ACF10404A2EB2F
:100A6000830210F0010F08D002EB8302D4ED010ADB
:100A700092ED001A241D00EE810A5FEA0B0013D0EC
:100A800002EB830CD4ED010A9CED001A02EBC302C9
:100A9000401E00EE810AD4ED020A92ED001A04F124
:100AA000080400EE810AEBD109F10100AAEC010A69
:100AB0001FFA80F9486800EB8902A8F101001FFACB
:100AC00080F8B8F1000F99D1009806EB870618441A
:100AD00080B20090681E05042D0C87D102B0002062
:100AE000BDE8F08F0000000070B405880E884468EF
:100AF000D1F804C05368B54208D14088498888427B
:100B000001BF11888D425188884203D070BC6FF0BC
:100B10000200704705FB00F1880827D094ED001A09
:100B2000DCED000A94ED010ADCED011A31EE601AE9
:100B3000D4ED020A70EE611A9CED020A83ED001AF0
:100B4000C3ED011A94ED031ADCED031A30EEC00A6E
:100B5000401E71EE610A83ED020A04F11004C3ED38
:100B6000030A03F110030CF1100CD7D111F00300AC
:100B700030D0B0F1004F30D200282BDD211F1B1FD9
:100B8000ACF1040210F0010F0AD091ED010AD2ED90
:100B9000010A091D121D30EE600A83ED010A1B1DBA
:100BA000400817D091ED010AD2ED010A401E30EE47
:100BB000600A83ED010A91ED020AD2ED020A01F109
:100BC000080102F1080230EE600A83ED020A03F127
:100BD0000803E7D170BC00207047B4EC010A401E46
:100BE000FCEC010A30EE600AA3EC010AF5D1F1E752
:100BF0002DE9F04F02884768B0F802804888D1F8A4
:100C0000049082B04FF0000A1646824207BF09885E
:100C100088456FF0020002B018BFBDE8F08F4FEAC0
:100C2000980B02EB42000190C8F34000CDF80000A1
:100C300009EB8A01BBF1000F33D0019801EB820C64
:100C400001EB80043B46E64601EBC2054FEA0B0090
:100C500093ED000A401E81ED000A93ED010A01EBBD
:100C600002118CED000A93ED020A0CEB021C85EDDB
:100C7000000A93ED030A05EB021584ED000A04EB6C
:100C8000021403F11003E3D10EEB820000EB8200AB
:100C900000EB8201ABF10100504307EB0B1701EBB6
:100CA000001118F0030C21D03B1FA1EB82011CF0B6
:100CB000010F06D093ED010A01EB82011B1D81EDAE
:100CC000000A009880B100BF93ED010A01EB820495
:100CD00001EBC20184ED000A93ED020A401E81ED92
:100CE000000A03F10803EFD107EB8C070AF10100BA
:100CF0001FFA80FA701E0604360C99D102B000204B
:100D0000BDE8F08F2DE9F05F0546002092469B4636
:100D100088460646814640241BE028464146474611
:100D2000224600F053F853465A46C01A914110D358
:100D300011461846224600F03AF82D1A67EB0108D2
:100D40004F4622460120002100F031F817EB000940
:100D50004E41201EA4F10104DFDC484631462A46FC
:100D60004346BDE8F09F40EA01039B0703D009E03A
:100D700008C9121F08C0042AFAD203E011F8013B87
:100D800000F8013B521EF9D27047D2B201E000F8E0
:100D9000012B491EFBD270470022F6E710B513461F
:100DA0000A4604461946FFF7F0FF204610BD202AE8
:100DB00004DB203A00FA02F1002070479140C2F1B2
:100DC000200320FA03F3194390407047202A04DBE4
:100DD000203A21FA02F00021704721FA02F3D040B4
:100DE000C2F120029140084319467047064C074D56
:100DF00006E0E06840F0010394E8070098471034EB
:100E0000AC42F6D3FFF7C4F95CA100087CA100084E
:100E100070B58C1810F8015B15F0070301D110F8BC
:100E2000013B2A1106D110F8012B03E010F8016BE9
:100E300001F8016B5B1EF9D12B0705D40023521E6C
:100E40000DD401F8013BFAE710F8013BCB1A921CD4
:100E500003E013F8015B01F8015B521EF9D5A142D2
:100E6000D8D3002070BD000001221021014801F0FC
:100E7000FFBC00000000024000221021014801F0E8
:100E8000F7BC00000000024070470000012211463C
:100E9000014801F0EDBC00000004024000220121E5
:100EA000014801F0E5BC00000004024010B5044612
:100EB000204600F0E1F80028FAD110BD70B50446D4
:100EC000FFF7DAFF922000F039F906226649122076
:100ED00000F016F9FFF7C8FF634DA5F11C0668780E
:100EE0002978000200B2084300EE100AD6ED030A8A
:100EF000B8EEC00A60EE200A94ED080A60EE800A9F
:100F0000C4ED000AE878A978000200B2084300EEB8
:100F1000900AB8EEE01AD6ED030A21EE201A21EE6F
:100F2000001A84ED011A68792979000200B2084399
:100F3000308101EE100AB8EEC11A61EE200A20EEEF
:100F4000800A84ED020AFFF7A9FF08222946002043
:100F500000F0D6F8FFF79AFF28780F285DD1707857
:100F600080B3E878A978000200B2084300EE100AC6
:100F7000D4ED090AB8EEC01A96ED040A51EE000A43
:100F8000C4ED030A68792979000200B2084300EE33
:100F9000900A94ED0A1AF8EEE00A10EE801A84ED39
:100FA000041AE879A979000200B20843308100EE02
:100FB000900A94ED0B1AF8EEE00A10EE801A84ED18
:100FC000051A2AE0FFE7E878A978000200B2084392
:100FD00000EE100AF8EEC00A96ED040A60EE800AF0
:100FE000C4ED030A68792979000200B2084300EED3
:100FF000900AF8EEE00A60EE800AC4ED040AE8798F
:10100000A979000200B20843308100EE900AF8EEA0
:10101000E00A20EE800A84ED050AFFF72DFFA220EA
:1010200000F08CF802221049222000F069F8FFF746
:101030001BFF28786978C00040EA51103081B0F574
:10104000806F02DBA0F500603081B6F90800B4EED5
:10105000001A00EE100AF8EEC00AB3EE070A00EE1E
:10106000810A84ED070A70BD6C010020704707F00B
:1010700063BA06F0D3BC000070B50546184C0020DA
:101080002070FFF701FFFFF7F1FF06F037FB217833
:101090000843207006F0CEFB2178084320701DB174
:1010A000104800F0E7F818E00E489FED0F0A80EDB9
:1010B000090A9FED0E0A80ED0A0A9FED0D0A80EDE8
:1010C0000B0A9FED0C0A80ED0C0A9FED0B0A80EDD8
:1010D000080A9FED0A0A80ED060A207870BD00001C
:1010E00050010020B4520020C07EB33B4288E0BBD8
:1010F000CB30A33AB39B1C419C49803F0000204267
:1011000070B50D46144640F0800000F017F806E078
:10111000552000F013F805F8010B641EE4B2002C12
:10112000F6D170BD10B50C4640F0800000F006F816
:10113000552000F003F8207010BD000001B582B00A
:101140004FF47A700090012301AA02A9024802F02C
:1011500061F99DF804000EBD9005002010B50C4605
:10116000FFF7ECFF2046BDE81040FFF7E7BFB6EE03
:10117000002A92ED020AB0EE421AD2ED030A00EE06
:10118000401AD0ED001AD0ED013A00EEE01A21EE3F
:10119000213A92ED011AD2ED001A61EE002A41EED9
:1011A000E02A61EE200A41EE800A02EEA33A90EDB9
:1011B000020AF0EE002A00EE803A23EE220A81EDC8
:1011C000000A92ED010AD2ED021A92ED001AD2ED58
:1011D000030A20EE213AD0ED003A90ED014A01EEEB
:1011E000203A23EE233AF0EE423A40EE403A40EE07
:1011F000E03A61EEA00A41EE400A03EE843A90ED37
:10120000020A00EE803A23EE220A81ED010AD2EDB5
:10121000010AD2ED031A92ED020A92ED001A20EEB5
:10122000A13A60EE211AD0ED003A00EEE02A01EE7C
:10123000403A41EE201A90ED011A00EE402A23EECA
:10124000233A90ED020A01EE813A02EE003A23EED3
:10125000220A81ED020A7047FEE70000014800F013
:101260007FBD0000EC040020014800F079BD0000C3
:10127000140500202DE9F04F04462DED048B89B0B4
:10128000002007900890B1EE040A00F0FBFA00F08D
:1012900037FBEA4E86ED050A04AF0DF104084FF066
:1012A0007C5BDFF89C93DFF89CA300F029FBD6ED74
:1012B000050AE54930EE600A10EE100A884214DD96
:1012C0009FEDE20A84ED090A9FEDE10A84ED0A0A26
:1012D0009FEDE00A84ED0B0A9FEDDF0A84ED0C0A16
:1012E0009FEDDE0A84ED060A85E19FEDDD0A00F040
:1012F000C9FA9FEDDC0A84ED0C0A84ED090A84ED3D
:101300000A0A84ED0B0A0025F6E0FFF7B5FD9220EE
:10131000FFF714FF062207A91220FFF7F1FEFFF7DF
:10132000A3FD9DF81D009DF81C10000200B20843AB
:1013300000EE100AD6ED030AB8EEC00A20EE200A2D
:1013400084ED000A9DF81F009DF81E10000200B2F7
:10135000084300EE900A96ED031AF8EEE00A60EEFC
:10136000810AC4ED010A9DF821009DF820100002B9
:1013700000B2084301EE900AF8EEE11A21EE811A5C
:1013800084ED021A20EE000A00EEA00A01EE010A26
:1013900006F042F9B0EE408A94ED0C0A30EE080AED
:1013A00084ED0C0AFFF77AFD082207A90020FFF759
:1013B000A7FEFFF76BFD9DF81C000F2840D19DF89C
:1013C0001F009DF81E10000200B2084300EE100A34
:1013D000F8EEC00A96ED040A60EE800AC4ED030A36
:1013E00094ED091A71EE200AC4ED090A9DF8210056
:1013F0009DF82010000200B2084300EE900AF8EEBB
:10140000E00A60EE800AC4ED040A94ED0A1A71EE57
:10141000200AC4ED0A0A9DF823009DF8221000025C
:1014200000B2084300EE900AF8EEE00A20EE800ACF
:1014300084ED050AD4ED0B0A30EE800A84ED0B0A28
:10144000002D7DD0B4EEE88AF1EE10FA01DDF0EE69
:10145000488AB4EEC98AF1EE10FA01D2B0EE489A89
:10146000002004EB800191ED030A07EB8001D1ED30
:10147000000AB4EEE00AF1EE10FA01DD81ED000A97
:1014800008EB8001D1ED000AB4EEE00AF1EE10FAAB
:1014900001D281ED000A401CC0B20328E1D338EE2E
:1014A000C90A86ED060A002007EB8001D1ED000A8B
:1014B00008EB800191ED001A09EB800170EEC10A82
:1014C000C1ED000A401CC0B20328EDD310EE100A93
:1014D000584515DCD9F80000504511DCD9F8040056
:1014E00050450DDCD9F80800504509DC9FED5E0A37
:1014F00000F0C8F96D1CADB2F0888542FFF405AF6D
:10150000F288D4ED0C0A00EE102AB8EE400A80EE04
:10151000801A84ED0C1A002000EE102A04EB8001E2
:10152000B8EE400AD1ED090A80EE801A81ED091A61
:10153000401CC0B20328EFD3FFF79EFCA22000E0BE
:1015400066E0FFF7FBFD022207A92220FFF7D8FD86
:10155000FFF78AFC9DF81C009DF81D10C00040EAB2
:101560005110B0F5806F02DBA0F5006000B200EE14
:10157000100AB4EE001AF8EEC00AB3EE070A00EE45
:10158000810A84ED060AB088401CB080B0695845D5
:101590003FF78BAE94ED0C0ADFED340A30EE600AB3
:1015A000B0EEC00A10EE100A5845F1DCD9F8000080
:1015B0005045EDDCD9F804005045E9DCD9F80800C5
:1015C0005045E5DC94ED090A2949B0EEC00A10EE59
:1015D000100A8842DCDC94ED0A0AB0EEC00A10EE74
:1015E000100A8842D4DC94ED0B0AB0EEC00A10EE6B
:1015F000100A8842CCDC94ED0C0ADFED1E0A80EE66
:10160000801A84ED081A09B0BDEC048BBDE8F08F98
:10161000F0EE488AB0EE489A002004EB800191ED8C
:10162000030A07EB800181ED000A08EB800181EDE0
:10163000000A401CC0B20328EFD330E7500100205D
:10164000E85200209A99193E00007042C07EB33BD8
:101650004288E0BBCB30A33AB39B1C410000204240
:101660000AD7A33B000000006F12033ACDCC1C4107
:101670000AD7233CC3F51C41014800F057BE0000C7
:1016800054090020014800F051BE0000140A002057
:10169000014800F04BBE0000E8050020014800F0C2
:1016A00045BE000048060020014800F03FBE000093
:1016B000F4080020014800F039BE0000B409002001
:1016C000014800F033BE0000940800200168CAB24F
:1016D000103A1823B2FBF3F2064B9B5CC3656FF321
:1016E0000901032A02D9091D816500E08165806D29
:1016F000704700004095000810B5014600208A6A36
:101700008B694FF0C074002B0ED0B3F5005F1AD078
:1017100062B3012A2AD0022A28D0032A03D1C96A37
:10172000C90100D5012010BD1AB1012A06D0022A34
:10173000F9D1C96AC901F6D5012010BDC96AA14213
:10174000FBD1012010BD52B1012A0AD0022A06D0D5
:10175000032AF7D1C96AA142F4D1012010BD0120AA
:1017600010BDC96AC901FBD5012010BD012010BD03
:1017700030B50468256825F4802525600468636019
:101780008368402B04D0036899600068C26030BD54
:1017900003689A600068C16030BD000018B4294831
:1017A00000680168890604D501684068009018BC8B
:1017B000704725490968C906F9D501684068009055
:1017C000224A10680168224B09034FF024041CD4FC
:1017D000016821F00101016011684868C0F124002E
:1017E00080B218804C6011680B6843F400230B60D2
:1017F00011680A6842F001020A601228D7D115491F
:1018000018BC01F1310007F029BA016821F001018B
:10181000016011684868C0F1240080B218804C60F3
:101820000D498B6A23F400238B6211680A6842F029
:1018300001020A601228BAD1064918BC01F155000C
:1018400007F00CBA0C0800200048004054090020A2
:1018500098010020F45200200060024008B50748BB
:1018600040680090064800990269914202D2C1681E
:10187000491CC1600099016108BD0000001000E032
:10188000280000200A4841680A4AD2ED000A42684E
:10189000521AF8EE601A01EE102AB8EE411A60EE04
:1018A000211AB4EEE11AF1EE10FAF0D370470000FD
:1018B000001000E02800002000B52DED028B81B063
:1018C0000D49496800910168009A511A00EE101AFA
:1018D0000A49F8EE400A91ED000AB8EE400A80EE9F
:1018E000808A00990160FFF7B9FF01B0B0EE480AA5
:1018F000BDEC028B00BD0000001000E028000020BD
:1019000010B500F043F80C489FED0C1A818890ED5B
:10191000000A00EE901AC088B8EE400AF8EE600A9D
:1019200000EE810A00EE900A9FED051AF8EE600ABB
:1019300000EE810A10BD0000580000206F12833AAB
:10194000BD3786350D490A6842F080720A600C493D
:1019500000224A600B6843F001030B6009494843C9
:10196000094908604FF47A73B0FBF3F34B60054B01
:10197000B0FBF3F08860CA6070470000FCED00E047
:10198000001000E040420F00280000202DE9F84F31
:10199000204840680090FFF761FFDFF87C904FF02F
:1019A000000A0098D9F80C204FF0FF335146E2FBB3
:1019B000030104460D46C9E90E01D9F800B0002321
:1019C0005A4620462946FFF79DF906460F463046FF
:1019D000A0FB0B2107FB0B1106FB0A13A71A65EBF3
:1019E000030809F130042660D9F804600023324668
:1019F00041463846FFF786F980B2A0807043381A16
:101A000068EB0A010023D9F80820FFF77BF9E08092
:101A1000BDE8F88F001000E028000020704701208A
:101A200000F032BE082000F02FBE102000F02CBEC7
:101A3000202000F029BEB6EE002A92ED020AB0EE98
:101A4000421AD2ED030A00EE401AD0ED001AD0ED92
:101A5000013A00EEE01A21EE213A92ED011AD2EDA0
:101A6000001A61EE002A41EEA02A61EE200A41EE42
:101A7000C00A02EEA33A90ED020AF0EE002A00EE50
:101A8000803A23EE220A81ED000A92ED010AD2ED9E
:101A9000021A92ED001AD2ED030A20EE213AD0ED9F
:101AA000003A90ED014A01EE603A23EE233AF0EE5F
:101AB000423A40EE403A40EEE03A61EEA00A41EE92
:101AC000000A03EE843A90ED020A00EE803A23EE1B
:101AD000220A81ED010AD2ED010AD2ED031A92ED3C
:101AE000020A92ED001A20EEA13A60EE211AD0ED22
:101AF000003A00EEE02A01EE003A41EE601A90ED65
:101B0000011A00EE402A23EE233A90ED020A01EE7C
:101B1000813A02EE003A23EE220A81ED020A704772
:101B200072B6FEE790F82020012A07D0022A05D0DD
:101B3000416A41F480214162012070470068426996
:101B40000A4342610020704710B590F82020012A16
:101B500007D0022A05D0416A41F480214162012068
:101B600010BD3C4800F50070026842F001020260BE
:101B7000026822F47C52026002684B6A42EA032245
:101B800002600A7D02F01F0301229A40C369934359
:101B9000C361A0F50070CB69B3B9D0F80C329343A0
:101BA000C0F80C328C894B6864F31F434C6900EB1E
:101BB000C404C4F840320C890B6864F31F434C69B9
:101BC00000EBC404C4F84432CB69012B16D1D0F821
:101BD0000C321343C0F80C320C884B6864F31F437B
:101BE0004C6900EBC404C4F840320C89CB6864F340
:101BF0001F434C6900EBC404C4F844328B697BB1C9
:101C0000D0F804321343C0F804320B6973B1D0F832
:101C100014321343C0F81432096A01290CD010E0C1
:101C2000D0F804329343C0F80432EEE7D0F814320F
:101C30009343C0F81432EFE7D0F81C121143C0F8F8
:101C40001C12D0F8001221F00101C0F8001200208F
:101C500010BD000000640040704730B590F820408F
:101C6000012C07D0022C05D0416A41F48021416249
:101C7000012030BD21B104682469A4075FD003E0CE
:101C80000468E468A40754D04FF4D874056804EBE2
:101C900001142D5905F004059560F5B305682D591B
:101CA000ED08556005682C5904F00204D4604FF427
:101CB000DA74056804EB01142D5905F00F05156160
:101CC00005682D59C5F30725956105682C59240C25
:101CD00054614FF4DC72046802EB0112A4581C70CA
:101CE0000468A458240A5C700468A458240C9C70EE
:101CF0000468A258120EDA704FF4DE72046802EB28
:101D00000112A4581C710468A458240A5C71046868
:101D1000A458240C9C71046800E016E0A258120E2E
:101D2000DA71B9B10068016941F020010161002058
:101D300030BD416A41F400114162012030BD416A69
:101D400041F400114162012030BD05682D596D0D2F
:101D50001560A7E70068C16841F02001C160E6E7AF
:101D60002DE9F05F0546002428684669D0F8049004
:101D70008768D0F80CA0D0F810B0D0F81880F10720
:101D800048D0F90714D001218160B80703D528464F
:101D900000F06CFA0CE0780702D54FF4006407E01D
:101DA000380702D54FF4805402E0284600F05DFA6F
:101DB000F80516D529684FF480708860B80503D5FA
:101DC000284600F055FA0CE0780502D544F400549A
:101DD00007E0380502D544F4804402E0284600F0CC
:101DE00046FAF80316D529684FF480308860B803A6
:101DF00003D5284600F03EFA0CE0780302D544F4FF
:101E0000004407E0380302D544F4803402E0284659
:101E100000F02FFA300707D55FEACA6004D544F412
:101E2000007429681020C86070074FF0080707D5B4
:101E30005FEA0A7004D52868C760284600F0B8F940
:101E4000B00706D52868C068800702D0284600F091
:101E5000B1F9700607D55FEACB6004D544F480641D
:101E6000296810200861B00607D55FEA0B7004D519
:101E700028680761284600F0C9F9F00606D52868E9
:101E80000069800702D0284600F0C1F9B00308D5E8
:101E90005FEAC96005D5296810204860284600F02F
:101EA000B7F9F00307D55FEA097004D528684760E1
:101EB000284600F0E0F9300446D55FEA497040D585
:101EC000F00504D55FEAC87001D044F00104B00504
:101ED00004D55FEA887001D544F00204700504D58A
:101EE0005FEA487001D544F00404300529D518F0A4
:101EF000700F26D008F07000402815D006DC10289E
:101F000009D020280AD0302816D10AE050280ED057
:101F1000602811D10EE044F008040DE044F01004F4
:101F20000AE044F0200407E044F0400404E044F0F8
:101F3000800401E044F480742868816921F0700114
:101F40008161296804204860002C05D0686A20431C
:101F500068622846FFF780FEBDE8F09F70B5044632
:101F6000002C03D094F8200010B104E0012070BDD3
:101F7000204600F09DF82068016841F001010160F1
:101F800000F07EFC054605260CE000F079FC401BC5
:101F90000A2807D9606A40F40030606284F8206043
:101FA000012070BD20684068C007EED0206801683D
:101FB00021F00201016000F063FC05460CE000F036
:101FC0005FFC401B0A2807D9606A40F40030606259
:101FD00084F82060012070BD206840688007EED43E
:101FE000207E01283FD02068016821F08001016037
:101FF000607E01283DD02068016821F04001016029
:10200000A07E01283BD02068016821F020010160FA
:10201000E07E012839D02068016841F0100101609C
:10202000207F012837D02068016821F00801016075
:10203000607F012835D02068016821F0040101602B
:10204000D4E902010843D4E904121143084361684A
:10205000491E08432168C86100206062012084F89D
:102060002000002070BD2068016841F080010160FF
:10207000BEE72068016841F040010160C0E72068C8
:10208000016841F020010160C2E72068016821F089
:1020900010010160C4E72068016841F00801016097
:1020A000C6E72068016841F004010160C8E700004C
:1020B0002DE9F04186B00446142101A8FEF76CFE1C
:1020C000364B374ADFF8D08018682168344C032635
:1020D0000227401C103200254FF0090C414527D142
:1020E0001860012807D1106840F000701060106877
:1020F00000F000700090206840F008002060206828
:1021000000F0080000900196029703950496CDF820
:1021100014C001A9234800F0C3FA002205211420AD
:1021200000F062FD142000F051FD06B0BDE8F08122
:10213000DFF874804145F8D1116841F08061116089
:10214000116801F0806100911860012807D11068C2
:1021500040F000701060106800F00070009020687F
:1021600040F002002060206800F002000090602033
:102170000190029703950496CDF814C001A90B486D
:1021800000F08EFA00220521402000F02DFD4020B5
:1021900000F01CFDC9E70000006400400C000020B6
:1021A00030380240000C0240006800400004024049
:1021B0007047000010B58AB0044601AB03AA0021A5
:1021C0002046FFF74AFD0F4884420CD103980228AD
:1021D0000BD0039804280ED00398062803D101A938
:1021E000094805F07DFF0AB010BD074801A9203855
:1021F00005F0EAFEF7E7044801A9103805F02AFFC8
:10220000F1E70000EC0400206C0C002070477047E0
:10221000704770B5044694F82000012805D0606A24
:1022200040F400206062012070BD022084F820008C
:102230002068016821F00101016000F021FB0546E2
:102240000DE000F01DFB401B0A2808D9606A40F42D
:1022500000306062052084F82000012070BD2068F5
:102260004068C007EDD1606270BD7047704770472D
:1022700070477047704770472DE9F0410446A76DDD
:1022800000F0FEFA054694F835000026022806D034
:102290008020606584F834600120BDE8F08120680A
:1022A000016821F0160101602068416921F0800178
:1022B0004161206C08B9A06C20B12068016821F050
:1022C000080101602068016821F0010101600BE054
:1022D00000F0D6FA401B052806D9202034342062AD
:1022E000032060702670D8E720680068C007EFD12F
:1022F00034343F2094F828108840B8600120607082
:1023000026700020C9E790F83510022903D08021FB
:10231000416501207047052180F83510006801688B
:1023200021F0010101600020704700002DE9F84311
:1023300004464FF00009CDF800906F484FF4165155
:102340000068B0FBF1F7A56D2E6894F85C000822D8
:1023500002FA00F1314210D02068016849070CD51B
:10236000016821F00401016094F85C0002FA00F1B8
:10237000A960606D40F00100606594F85C104FF05A
:10238000010808FA01F0304208D0216849690906BD
:1023900004D5A860606D40F00200606594F85C10A0
:1023A00004208840304208D021680968890704D594
:1023B000A860606D40F00400606594F85C10102027
:1023C0008840304220D02168096809071CD5A860E0
:1023D0002068016849030CD50068000304D4216C0F
:1023E00091B1204688470FE0A16C69B1204688472B
:1023F0000AE00168C90503D4016821F00801016001
:10240000216C09B12046884794F85C102020884050
:1024100030424CD021680968C90648D5A86094F8B4
:10242000350005280BD020680168490330D50068C5
:10243000000328D4616C51B32046884737E02068F8
:10244000016821F0160101602068416921F08001D6
:102450004161206C08B9A06C20B12068016821F0AE
:102460000801016094F85C103F208840A86084F85F
:10247000358084F83490216D00293BD001B020468E
:10248000BDE8F0430847E16B09B1204688470EE0FC
:102490000168C90507D4016821F01001016084F8C2
:1024A000358084F83490E16B09B120468847606D2F
:1024B00000281FD0606DC00714D0052084F83500B7
:1024C0002068016821F0010101600098401C009023
:1024D000B84203D820680068C007F6D184F8358078
:1024E00084F83490E16C002904D001B02046BDE8A6
:1024F000F0430847BDE8F8831C0000202DE9F041B7
:10250000044600F0BDF905465CB1022084F83500B0
:10251000002684F834602068016821F00101016020
:102520000DE00120BDE8F08100F0AAF9401B05286C
:1025300005D920206065032084F83500F2E7206883
:102540000068C007F0D121680A6820480240D4E939
:1025500001031843D4E903352B4318436369184337
:10256000A3691843E3691843236A18431043626A56
:10257000042A03D1D4E90B231A43104308602068CE
:10258000406920F00700656A2946054301270429B0
:102590000DD1A06A0543E06A48B12046FFF7ACF8C8
:1025A00028B14020606584F835700120BAE72068C2
:1025B00045612046FFF78AF894F85C203F2191405E
:1025C0008160666584F835700020ABE73F8010F0CD
:1025D00070B50446002594F8340001280CD0012081
:1025E00084F8340094F835600020012E06D084F879
:1025F00034000225284670BD022070BD022684F8F2
:10260000356060652046FFF7B3F82068016841F047
:1026100001010160EEE72DE9F04104460025A66DB9
:1026200094F8340001280DD0012084F8340094F887
:1026300035700020012F07D084F834000225284689
:10264000BDE8F0810220FBE7022784F83570606561
:102650002046FFF78DF894F85C103F208840B0606A
:102660002068016841F016010160206C20B12068EB
:10267000016841F0080101602068016841F0010132
:102680000160DCE77047000010B504490A680242A7
:1026900002D00860FFF7F6FF10BD0000143C0140B7
:1026A0002DE9F84F0022DFF89C914FF00108032735
:1026B0004FF00F0C09F1040AA9F1040B08FA02F516
:1026C0000B682B40AB426ED10C7904F00304012C53
:1026D00001D0022C15D18668540007FA04FE26EAC0
:1026E0000E06D1F80CE00EFA04FE4EEA060EC0F813
:1026F00008E04468AC430D79C5F3001595402543C7
:1027000045600C79E443A40708D0C568540007FA73
:1027100004F6B5438E68A6402E43C6600C7904F0DB
:102720000304022C11D1D40800EB8406356A540747
:10273000E40E0CFA04FE25EA0E05D1F810E00EFABC
:1027400004FE4EEA050EC6F820E00568540007FABC
:1027500004F6B5430E7906F00306A6402E43066044
:102760004C6814F4403F67D0374C256845F48045E9
:102770002560246804F480440094344C22F003055E
:102780002E19D6F8085894074FEA147E0CFA0EF466
:10279000A5432F4CA04201D1002424E02D4CA0429F
:1027A00002D101241FE047E02B4CA04201D10224BA
:1027B00019E02A4CA04201D1032414E0284CA04285
:1027C00001D104240FE0274CA04201D105240AE0E6
:1027D000254CA04201D1062405E0244CA04201D1A1
:1027E000072400E0082404FA0EF42C43C6F8084835
:1027F000D9F800409C434D68ED0200D51C43C9F850
:102800000040DAF800409C434D68AD0200D51C43FF
:10281000CAF80040DBF800409C434D68AD0300D58A
:102820001C43CBF80040074D083D2C689C434E6884
:10283000F60300D51C432C60521C102AFFF43EAF57
:10284000BDE8F88F083C01404438024000300140A8
:10285000000002400004024000080240000C024058
:10286000001002400014024000180240001C024008
:10287000002A01D08161704709048161704700001E
:1028800001488068704700001000002070B50446C1
:10289000002C04D094F83D00002510B106E0012082
:1028A00070BD84F83C50204600F0BCF8242084F829
:1028B0003D002068016821F0010101602068016885
:1028C00041F4004101602068016821F40041016089
:1028D00000F086FA4F4B6168994203D84E4988420E
:1028E00003D304E04D49884201D2012070BD4C4918
:1028F000B0FBF1F12268566826F03F060E435660A1
:1029000062689A4201D8491C07E04FF4967251431D
:102910004FF47A72B1FBF2F1491C2268166A26F074
:102920003F06314311626168994210D84900401E48
:10293000B0FBF1F2521CC2F30B02042A01D20420B4
:1029400022E0B0FBF1F0401CC0F30B001CE0A268D9
:10295000F2B301EBC10303EB0116431EB3FBF6F325
:102960005B1C43F480431B0549D092B301EBC102C9
:1029700002EB0111401EB0FBF1F0401CC0F30B0054
:1029800040F4804040F400402168CA694CF6FF736F
:102990009A431043C861D4E90710014320680268D4
:1029A00022F0C00211430160D4E903010143206811
:1029B000826848F2FF339A4311438160D4E90510DD
:1029C00001432068C26822F0FF021143C16001E0A8
:1029D0000EE016E02068016841F001010160256405
:1029E000202084F83D00256384F83E50002070BD0F
:1029F00001EB4106431EB3FBF6F35B1CB3E701207A
:102A0000C2E701EB4101401EB0FBF1F0401CC0F3F6
:102A10000B00B7E7A086010080841E0000093D007E
:102A200040420F00F0B587B00446142102A8FEF71B
:102A3000B3F91D492068884233D100271B4801683B
:102A400041F004010160016801F004010191016895
:102A500041F001010160006800F0010001904FF4B5
:102A6000007002901226039604970324059404250F
:102A7000069502A90E48FFF713FEA80102900396DF
:102A800004970594069502A90A48FFF709FE07482E
:102A90001030016841F400010160006800F400009A
:102AA000019007B0F0BD0000005C004030380240EB
:102AB0000008024000000240024881680278114488
:102AC000816070471000002010B50B48016841F488
:102AD00000710160016841F480610160016841F4A6
:102AE00080710160032000F09FF80F2000F006F8CD
:102AF00000F050F8002010BD003C024030B587B017
:102B0000054600241E48016841F02001016000686C
:102B100000F02000009001A902A800F03DF90598FE
:102B2000A8B100F05DF940001649B0FBF1F1491E73
:102B30001648154A026040F2E732C2604160046103
:102B40008460846100F0CCFD04461CB115E000F007
:102B500047F9E9E70D4800F069FE04466CB93720F3
:102B600000F034F8102D07D200222946372000F05B
:102B70003BF80748056000E0012407B0204630BD5F
:102B80004038024040420F0000140040740A002008
:102B90001400002082B00C48016841F480410160BB
:102BA000006800F4804001900748001F016841F070
:102BB00080510160006800F08050019000220F21D8
:102BC000901E02B000F010B844380240002809DB23
:102BD00000F01F02012191404009800000F1E02037
:102BE000C0F8001170470000F0B40D460D4B1B6893
:102BF000C3F30223C3F10704042C00D90424191DD4
:102C0000072901D2002300E0DB1E012606FA04F1A9
:102C1000491E294099409E40761E16403143F0BC23
:102C200004F0A0BA0CED00E000F00701054A1068BE
:102C30004FF6FF03184040EA0120034908431060A3
:102C4000704700000CED00E00000FA052DE9F047A8
:102C500004460D46002C13D0DFF82891D9F8000067
:102C6000EFB200F00700A8420CD289F80070D9F842
:102C7000000000F00700A84204D00120BDE8F08762
:102C80000120FBE72068404E810712D5400703D59D
:102C9000306840F4E05030602078000703D5306899
:102CA00040F4604030603068A16820F0F0000843D4
:102CB00030602078C00731D0334960680839012876
:102CC00008D002280BD0032809D0096889070BD443
:102CD0000120D3E70968890306D40120CEE70968FB
:102CE000890101D40120C9E7316821F003010143C2
:102CF0003160FFF7C5FD804641F2883A07E0FFF7F3
:102D0000BFFDA0EB0800504501D90320B6E73068AD
:102D1000616800F00C00B0EB810FF0D1D9F8000031
:102D200000F00700A84209D989F80070D9F800001E
:102D300000F00700A84201D001209FE7207840075B
:102D400005D53068E16820F4E05008433060207811
:102D5000000706D53068216920F4604040EAC100D0
:102D6000306000F05DF83168084AC1F30311515C2E
:102D7000C8400749086007480068FFF7BFFE002009
:102D80007CE70000003C02400838024048950008FB
:102D90001C000020140000200F2202600B4A136860
:102DA00003F003034360136803F0F00383601368C8
:102DB00003F4E053C360126802F46042D208026177
:102DC0000348006800F007000860704708380240B8
:102DD000003C024001480068704700001C000020D1
:102DE00000B5FFF7F7FF04490968044AC1F38221DF
:102DF000515CC84000BD00000838024058950008EA
:102E000000B5FFF7E7FF04490968044AC1F34231FE
:102E1000515CC84000BD00000838024058950008C9
:102E200010B51748006810F00C01164816D0164B64
:102E3000042912D0082911D1114C241F216801F056
:102E40003F02216849020AD52068C0F38810A0FB20
:102E500003010023FDF756FF09E0184610BD216865
:102E60000023C1F38811A1FB0001FDF74BFF21688E
:102E7000C1F30141491C4900B0FBF1F010BD000055
:102E8000083802400024F40040787D012DE9F84F15
:102E90000446002C13D02078DFF8A083C007A8F1E7
:102EA000040556D008F104000168C1F3810101292D
:102EB0000CD00068C0F38100022803D00DE001208F
:102EC000BDE8F88FD8F80000400206D528688003D6
:102ED0003FD5606870BB0120F2E76068B0F5803FC5
:102EE00010D0B0F5A02F12D0286820F480302860D0
:102EF000286820F4802028606068E0B1FFF7C0FCFB
:102F0000064614E0286840F480302860F4E728681A
:102F100040F480202860286840F480302860EBE787
:102F2000FFF7AEFC801B642801D90320C8E728689E
:102F30008003F5D50DE0FFF7A3FC064606E0FFF79A
:102F40009FFC801B642801D90320B9E7286880030F
:102F5000F5D42078BA4F80074FF0000948D5B7481C
:102F6000001D016811F00C0F08D00068C0F381004B
:102F7000022813D1D8F8000040020FD42868800737
:102F800004D5E068012801D0012099E7286821696B
:102F900020F0F80040EAC100286029E0E068B8B1FC
:102FA00001203860FFF76CFC064606E0FFF768FC7E
:102FB000801B022801D9032082E728688007F5D505
:102FC0002868216920F0F80040EAC10028600FE07D
:102FD000C7F80090FFF754FC064606E0FFF750FCE8
:102FE000801B022801D903206AE728688007F5D4EE
:102FF0002078000729D5DFF844A2924861690AF1D8
:10300000700A89B101210160FFF73AFC064606E02B
:10301000FFF736FC801B022801D9032050E7DAF8BD
:1030200000008007F4D510E0C0F80090FFF728FCFE
:10303000064606E0FFF724FC801B022801D9032086
:103040003EE7DAF800008007F4D42078400778D50E
:103050004FF0000A79483C300068C0000BD4774834
:103060003C30016841F080510160006800F0805000
:1030700000904FF0010ADFF8D0B1DBF80000C00586
:1030800014D4DBF8000040F48070CBF80000FFF7A8
:10309000F7FB064606E0FFF7F3FB801B022801D989
:1030A00003200DE7DBF80000C005F4D5634EA068EF
:1030B0006C3601280FD0052812D0306820F00100AE
:1030C0003060306820F004003060A068F8B1FFF78D
:1030D000D7FB834617E0306840F001003060F4E72A
:1030E000306840F004003060306840F0010030602B
:1030F000EBE7FFF7C5FBA0EB0B0141F28830814203
:1031000001D90320DCE630688007F2D510E0FFF734
:10311000B7FB834609E0FFF7B3FBA0EB0B0141F2DD
:103120008830814201D90320CAE630688007F2D492
:10313000BAF1010F05D141483C30016821F08051BE
:103140000160A069C0B33D49091D09684FF0FF3611
:10315000C1F38101022946D0022805D0C7F860904A
:10316000FFF78EFB04463AE0C7F86090FFF788FB54
:10317000814607E0FFF784FBA0EB0900022801D994
:1031800003209DE628688001F4D4D4E907010843B0
:10319000616AA26A890106EB520241EA02410843D0
:1031A00094F82C1040EA0160C8F80000012038664D
:1031B000FFF766FB044607E03DE0FFF761FB001BFD
:1031C000022801D903207BE628688001F5D532E08A
:1031D000FFF756FB001B022801D9032070E6286880
:1031E0008001F5D427E0012823D0D8F80000E26957
:1031F00000F4800191421AD1226A00F03F0191420D
:1032000015D147F6C071626A0140B1EB821F0ED141
:10321000A26A00F4403106EB5202B1EB024F06D134
:1032200094F82C1000F07060B0EB016F03D0012017
:1032300046E6012044E6002042E600000438024051
:1032400000004742800E47420070004070B50446BF
:10325000002C09D0606A002540B125616561A56236
:1032600094F8510040B10CE0012070BD6068B0F5E9
:10327000827FF4D0E561F2E784F85050204600F0F8
:1032800045F8022084F851002068016821F04001CF
:103290000160A088218900F4827001F40441084390
:1032A000A18901F400610843217C01F00201084377
:1032B000217D01F001010843218B01F400710843D5
:1032C000217F01F03801084394F8201001F08001BB
:1032D0000843218D01F40051084321680860A0696A
:1032E000042101EA104094F8241001F01001084371
:1032F000216848602068C16921F40061C161656589
:10330000012084F85100002070BD00002DE9F0413B
:1033100086B00546142101A8FDF73EFD374928680F
:10332000884268D100263648016841F48051016026
:10333000006800F48050009031481438016841F072
:1033400002010160016801F002010091016841F091
:1033500001010160006800F0010000901820019058
:103360000227029703964FF00308CDF8108005243A
:10337000059401A92348FFF793F980200190029753
:103380000396CDF81080059401A91F48FFF788F92E
:103390001F4C1E4820604FF0C068C4F80480A6602F
:1033A000E660071527616661A661E6614FF440306B
:1033B000206266622046FFF7A1F808B1FEF7B0FB75
:1033C000EC64A5631148124C183060342060C4F8D6
:1033D00004804020A060E66027616661A661E66126
:1033E000C002206266622046FFF788F808B1FEF747
:1033F00097FBAC64A56306B0BDE8F08100300140E6
:103400004438024000040240000002404064024090
:10341000E80500202DE9F84F04460A9E8A469346A7
:103420001F4601254FF0000894F8500001280ED0E7
:10343000012084F85000FFF723FA814694F85100E8
:10344000616801280DD0B1F5827F07D102E002202A
:10345000BDE8F88FA16809B9042802D04FF002082E
:10346000C3E0BAF1000F28D0BBF1000F25D038001F
:1034700023D094F85100042802D0052084F851008C
:1034800000206065C4F838B0E787A787C4F830A08B
:10349000E786A7862064606420680168490603D433
:1034A000016841F040010160E068B0F5006F07D0AD
:1034B0006068E8B3012F48D07DE04FF0010894E048
:1034C000606808B1012F39D1206B21680088C8607D
:1034D000206B801C2063E08E401EE0862EE020687A
:1034E000816889070DD5E18E59B1012D09D1216B74
:1034F0000988C160206B801C2063E08E401EE0863E
:10350000002520688168C9070BD0E18F49B1C068E8
:10351000A16B0880A06B801CA063E08F401EE08739
:103520000125FFF7ADF9A0EB0900B04206D300E09A
:103530000BE0701C02D04FF0030856E0E08E00282C
:10354000CDD1E08F0028CAD13BE0206B2168007804
:103550000873206B401C2063E08E401EE0862AE04A
:103560002068816889070DD5E18E59B1012D09D1F7
:10357000216B09780173206B401C2063E08E401E94
:10358000E086002520688168C9070BD0E18F49B12A
:10359000C068A16B0870A06B401CA063E08F401E48
:1035A000E0870125FFF76CF9A0EB0900B04201D3D9
:1035B000701C11D186B1E08E0028D1D1E08F002897
:1035C000CED14A463146204603F04CF838B14FF090
:1035D00001082020606508E04FF0030805E0A068BE
:1035E00018B92068C168806800900120503460706C
:1035F0000020207040462BE77047704710B590F8C8
:103600003C20012A22D0012280F83C20CA680023F5
:103610008C6822F4407222434C6822F48062224378
:103620000C6822F4006222430C6922F48052224387
:103630004C6922F400522243C96922F480420A43B1
:1036400001684A6480F83C30002010BD022010BDA3
:1036500070B590F83C20012A31D0012680F83C60FA
:10366000022280F83D2002685468936824F07005B7
:103670000C682C435460134C0268A24214D0B2F17F
:10368000804F11D0104CA2420ED0104CA2420BD051
:103690000F4CA24208D00F4CA24205D00E4CA242C1
:1036A00002D00E4CA24204D123F080034968194392
:1036B00091603C30467000210170002070BD0220F6
:1036C00070BD000000000140000400400008004000
:1036D000000C004000040140004001400018004080
:1036E00010B50446002C03D094F83D0010B107E05B
:1036F000012010BD002084F83C00204600F016F8A0
:10370000022084F83D00211D206803F0A5F8012067
:103710003D3460726070A070E07020716071A071C3
:10372000E07120722070002010BD000008B5006814
:10373000194A1A49904208D1086840F0020008600E
:10374000086800F00200009008BD154A904208D1B8
:10375000086840F004000860086800F00400009069
:1037600008BD0E490F4A091D904208D1086840F073
:1037700002000860086800F00200009008BD0A4AD4
:103780009042FBD1086840F400300860086800F4FB
:103790000030009008BD00000004004040380240A6
:1037A00000080040000401400044014090F83D1032
:1037B000012901D001207047022180F83D100068E6
:1037C0001349884214D0B0F1804F11D0114988427A
:1037D0000ED0114988420BD01049884208D01049B8
:1037E000884205D00F49884202D00F49884209D14A
:1037F000816801F00701062908D0016841F0010144
:10380000016003E0016841F00101016000207047A0
:10381000000001400004004000080040000C00408F
:1038200000040140004001400018004090F83D10A5
:10383000012901D001207047022180F83D10016864
:10384000CA6842F00102CA6000681449884214D074
:10385000B0F1804F11D0124988420ED011498842F0
:103860000BD01149884208D01049884205D0104930
:10387000884202D00F49884209D1816801F00701CE
:10388000062908D0016841F00101016003E00168E8
:1038900041F001010160002070470000000001407C
:1038A0000004004000080040000C004000040140FB
:1038B000004001400018004070B50446002594F80F
:1038C0003C00012817D0012684F83C60022084F8CF
:1038D0003D002068826822F0770222F47F428260F5
:1038E0000868502838D00DDC202853D005DC90B370
:1038F000102811D14EE0022070BD30284AD0402857
:103900000AD13DE0602831D070280CD0B0F5805F3E
:1039100003D0B0F5005F12D001253C346670002062
:103920002070284670BDCB68D1E90121206803F0E2
:1039300006F82068816841F077018160EDE7CB6887
:10394000D1E90121206802F0FAFF2068816841F482
:1039500080418160E1E71DE0CA684968206803F0A2
:10396000D1F85021206802F0F4FFD6E7CA68496810
:10397000206803F0D8F86021206802F0EAFFCCE765
:10398000CA684968206803F0BDF84021206802F049
:10399000E0FFC2E722680146104602F0DAFFBCE70A
:1039A000704770B50446206801694FF00005C943AF
:1039B000890716D4C168C943890712D4E91E016179
:1039C0000120207720688069800703D02046FFF718
:1039D000E7FF05E0204600F00FF9204600F09FF9D0
:1039E000257720680169C943490718D4C168C943CC
:1039F000490714D46FF00401016102202077206888
:103A0000806910F4407F03D02046FFF7C9FF05E02E
:103A1000204600F0F1F8204600F081F92577206873
:103A20000169C943090717D4C168C943090713D4F9
:103A30006FF008010161042020772068C0698007C9
:103A400003D02046FFF7ACFF05E0204600F0D4F895
:103A5000204600F064F9257720680169C943C9064A
:103A600018D4C168C943C90614D46FF010010161AC
:103A7000082020772068C06910F4407F03D02046DA
:103A8000FFF78EFF05E0204600F0B6F8204600F074
:103A900046F9257720680169C943C90708D1C1687B
:103AA000C943C90704D1891E0161204600F0A6F967
:103AB00020680169C943090609D4C168C9430906D8
:103AC00005D46FF0800101612046FFF795FD206865
:103AD0000169C943490609D4C168C943490605D4E7
:103AE0006FF040010161204600F092F92068016901
:103AF000C94389060BD4C168C943890607D46FF04E
:103B0000200101612046BDE87040FFF776BD70BD21
:103B1000F0B587B00446142102A8FDF73DF92E4EFA
:103B2000216800252D4B022201242D48B14212D1DB
:103B3000196841F004011960196801F0040101914C
:103B400081150291039204940592069202A9FEF750
:103B5000A7FD07B0F0BD234EB14212D1186840F066
:103B600008001860186800F008000190081402901E
:103B7000039204950592069202A91B48FEF790FD58
:103B8000E7E71A4F40260325B94210D1196841F0E2
:103B900004011960196801F0040101910296039271
:103BA00004940592069502A9FEF77AFDD1E7104824
:103BB0008142CED1186840F020001860186800F0EB
:103BC000200001900296039204940592069502A9A2
:103BD0000848FEF765FDBCE70004004030380240AD
:103BE0000008024000080040000C024000040140B0
:103BF0000044014000140240704770B504460D4671
:103C0000002694F83C0001280FD0012084F83C00E5
:103C10006AB1042A1FD0082A32D00C2A44D00126C7
:103C2000002084F83C00304670BD022070BD29465B
:103C3000206802F097FE2068816941F008018161E7
:103C40002068816921F004018161206881692A6905
:103C500011438161E4E72946206802F0B7FE20683D
:103C6000816941F4006181612068816921F480618A
:103C70008161206881692A6941EA02218161CFE777
:103C80002946206802F0DCFE2068C16941F0080185
:103C9000C1612068C16921F00401C1612068C16966
:103CA0002A691143C161BBE72946206802F000FF81
:103CB0002068C16941F40061C1612068C16921F4D3
:103CC0008061C1612068C1692A6941EA0221C1613C
:103CD000A6E710B50446002C03D094F83D0010B1BF
:103CE00007E0012010BD002084F83C00204600F0D1
:103CF00015F8022084F83D00211D206802F0ACFD7B
:103D000001203D3460726070A070E07020716071BD
:103D1000A071E07120722070002010BD70477047C4
:103D200010B50446002909D004290AD008290BD06F
:103D300094F8410001280AD0012010BD94F83E00FB
:103D4000F8E794F83F00F5E794F84000F2E7022026
:103D5000A9B3042937D0082938D084F841000122BA
:103D6000206802F0DFFD1E4920681E4A884201D00B
:103D7000904203D1436C43F400434364206888427B
:103D800013D0B0F1804F10D0174988420DD0174999
:103D900088420AD01649884207D0904205D015497A
:103DA000884202D01449884213D1816801F007018A
:103DB000062912D0016841F0010101600DE0FFE722
:103DC00084F83E00CBE784F83F00C8E784F8400061
:103DD000C5E7016841F001010160002010BD00004D
:103DE00000000140000401400004004000080040C1
:103DF000000C0040004001400018004000680349EA
:103E0000884201D1FEF758BE704700000014004000
:103E10007047704770470000F8B504462268106884
:103E2000D168536900F00F06002E08D1850606D52B
:103E30008D0604D52046BDE8F84002F046BF0025B7
:103E4000002E66D003F0010601F49077374360D06E
:103E5000C20705D0CA0503D5226C42F001022264D4
:103E6000420705D5DA0703D0226C42F00202226431
:103E7000820705D5DA0703D0226C42F004022264DF
:103E8000020707D501F02002324303D0226C42F032
:103E900008022264226C002A31D0800604D58806EC
:103EA00002D5204602F011FF20684069C0F380105F
:103EB000216C090700D438B3204602F099FE20682F
:103EC000406940061CD52068143050E8001F21F0DE
:103ED000400140E80012002AF5D1A06B60B15749BB
:103EE0000165A06BFEF70FFA002808D0A06B016DEA
:103EF00001B0BDE8F04008472046FFF78BFFF8BD52
:103F00002046FFF787FFF8BD2046FFF783FF2564B3
:103F1000F8BD236B012B7ED1C3067CD5CB067AD5A9
:103F200010685068009050694FF02003400643D558
:103F3000A16B0868406880B20028E9D0A28D824257
:103F4000E6D9E085C869B0F5807F2DD020680C30B7
:103F500050E8001F21F4807140E80012002AF5D1DA
:103F60002068143050E8001F21F0010140E80012E1
:103F7000002AF5D12068143050E8001F21F04001DC
:103F800040E80012002AF5D184F83E30256320680D
:103F90000C3050E8001F21F0100140E80012002A08
:103FA000F5D1A06BFEF768F9A08DE18D401A81B2C2
:103FB0002046FFF72EFFF8BDA08DE18D401A81B29B
:103FC000E08D0028F7D00029F5D020680C3050E8AB
:103FD000002F22F4907240E80026002EF5D12068D0
:103FE000143050E8002F22F0010240E80026002E95
:103FF000F5D184F83E30256320680C3050E8002F5E
:1040000022F0100240E80023002BF5D12046FFF7F4
:1040100000FFF8BDFFE7020606D50A0604D52046D4
:10402000BDE8F84002F03EBF4006F2D54806F0D5A4
:104030002046BDE8F84002F002BE00004B6B0008CD
:1040400070B50446002C04D094F83D00002510B152
:1040500006E0012070BD84F83C50204600F022F8B4
:10406000242084F83D002068C16821F40051C1601B
:10407000204602F08DFE2068016921F49041016123
:104080002068416921F02A0141612068C16841F43A
:104090000051C1602564202084F83D0084F83E0072
:1040A000002070BD2DE9F04F87B00446142102A80E
:1040B000FCF772FE8E488D4B143822688C4902251D
:1040C000002607154FF003094FF0070B4FF0006A69
:1040D0004FF440389A426AD10A6842F010020A60EE
:1040E000096801F010010191016841F002010160CD
:1040F000016801F002010191016841F001010160D4
:10410000006800F001000190802002900395049661
:10411000CDF81490CDF818B002A97648FEF7C0FA91
:104120002802029003950496CDF81490CDF818B0AB
:1041300002A97148FEF7B4FA714D70482860C5F8BD
:1041400004A04020A860EE602F616E61AE61EE6158
:10415000C5F820806E622846FEF7D0F908B1FDF759
:10416000DFFC6563AC636548654D303860352860B9
:10417000C5F804A0AE60EE602F616E61AE6180157F
:10418000E861C5F820806E622846FEF7B7F908B1ED
:10419000FDF7C6FCA563AC63002205212520FEF7D0
:1041A00023FD2520FEF712FD07B0BDE8F08F554B2B
:1041B0009A423FD14E49091F0A6842F480220A60A0
:1041C000096801F480210191016841F00401016056
:1041D000006800F0040001904FF4406002900395E5
:1041E0000496CDF81490CDF818B002A94648FEF711
:1041F00057FA434D4548C0352860C5F804A0AE6065
:10420000EE602F616E61AE618015E861C5F82080B7
:104210006E622846FEF772F908B1FDF781FCA563CE
:10422000AC63002205212720FEF7DEFC2720FEF7E5
:10423000CDFCB9E7364B9A42B6D10A6842F020026B
:104240000A60096801F020010191016841F0400114
:104250000160006800F0400001904FF4844002903B
:1042600003950496CDF814900820069002A92948D9
:10427000FEF716FA2148284D183828604FF02069BB
:10428000C5F804904020A860EE602F616E61AE61B9
:10429000EE61C5F820806E622846FEF72FF908B15E
:1042A000FDF73EFC6563AC6314481B4D90386035E8
:1042B0002860C5F80490AE60EE602F616E61AE615B
:1042C000EE61C5F820806E622846FEF717F908B146
:1042D000FDF726FCA563AC63002205214720FEF70D
:1042E00083FC4720FEF772FC5EE7000000100140EF
:1042F000443802400004024000000240B86402401A
:104300009408002000480040000802402860024055
:104310000014014000180240B4090020704700005A
:10432000F7B5044694F83D00202801D00220FEBDD8
:10433000019999B392B394F83C00012831D001203F
:1043400084F83C002162A284E284002525642120B7
:1043500084F83D00636B1448D863636B134818649A
:10436000636B1348D864606B056526681346361D79
:104370003246606BFEF74FF921686FF0400008602D
:1043800084F83C502068143050E8001F41F0800150
:1043900040E80012002AF5D10020FEBDFFE7012011
:1043A000FBE70220F9E70000A56B0008E76B0008B7
:1043B0005B6B00087047704770B50446002020749E
:1043C0003B4DA27B616828884243D4F8F400FCF797
:1043D000CAFCA17B288841436068FCF7DDFCA07B18
:1043E00010FB00F128884143D4F81801FCF7D4FCF5
:1043F000207BA17B10FB01F128884143D4F80C01FC
:10440000FCF7CAFC002029E0D4F8F41001EB80028C
:1044100092ED000AB5EEC00AF1EE10FA1CD0227C33
:1044200001EB820181ED000A227C616A8854A16956
:10443000227B01EB8001237C91ED000A6169095C1C
:1044400012FB0311D4F80C21491E02EB810181ED0E
:10445000000A217C491C2174401CC0B2A17B81420E
:10446000D2D8002010E0636AE26900FB01011B5C06
:1044700002EB830292ED000AD4F8182102EB8101CD
:1044800081ED000A401CC0B2217C8142EBD85C3433
:1044900014F84C0CA08314F8500CE083A084E18441
:1044A000A186E186A087E18724F8141C70BD000076
:1044B000B0010020FEE70000F0B504462DED068BAC
:1044C00087B00E461546884FD4ED040A874897ED0D
:1044D000050A30EEC00AB0EEC00A10EE101A814292
:1044E00019DC94ED050A97ED061A30EE410AB0EE9C
:1044F000C00A10EE101A81420DDC94ED060A97ED09
:10450000071A30EE410AB0EEC00A10EE101A8142CE
:1045100001DC2078F0B3DFED76AA80EEAA0AFBF783
:10452000AFFEF0EE409AD4ED050A80EEAA0AFBF742
:10453000A7FEB0EE409AD4ED060A80EEAA0AFBF779
:104540009FFEB0EE40AAD4ED040A80EEAA0AFBF763
:10455000D3FEF0EE408AD4ED050A80EEAA0AFBF7FE
:10456000CBFEB0EE408AD4ED060A80EEAA0AFBF735
:10457000C3FE69EE8A0A68EE881AB0EE601A01EE90
:10458000801A87ED081A29EE281A87ED091A29EEF4
:10459000801A00E027E06AEE281A01EEC81A87EDBB
:1045A0000A1A29EE881A21EE001A0AEE681A87ED17
:1045B0000B1A29EE891A87ED0C1AB1EE681A21EE52
:1045C000001A00EEC81A87ED0D1AF1EE490A20EE26
:1045D000800A87ED0E0A87ED0F8A29EE0A0A87ED19
:1045E000100A00202070002004A906EB800292ED42
:1045F000000A04EB8002D2ED010A01EB800220EEFA
:10460000200A82ED000A401CC0B20328EDD39DEDC4
:10461000040A97ED085ADDED050A97ED094A20EEE8
:10462000052A9DED061AD7ED0A1A04EE202A01EE9E
:10463000812A86ED002A97ED0B2A97ED0C3AD7EDEB
:104640000D2A60EE023A43EE203A42EE813AC6ED80
:10465000013AD7ED0E3AD7ED0F4AD7ED105A20EEBA
:10466000230A04EEA00A05EE810A86ED020A002064
:1046700001A905EB800292ED000A01EB800282EDB8
:10468000000A401CC0B20328F3D39DED010ADDED02
:10469000020A9DED031A20EE055A04EE205A01EE9F
:1046A000815A85ED005A60EE021A43EE201A42EE5E
:1046B000811AC5ED011A20EE230A04EEA00A05EEC8
:1046C000810A85ED020A94ED040A87ED050A94ED4E
:1046D000050A87ED060A94ED060A87ED070A07B07A
:1046E000BDEC068BF0BD0000680000206F12833A1D
:1046F000E12E654270B52DED028B0125284C257009
:1047000084ED6C0AC4ED6D0A84ED6E1A9FED250AE6
:1047100084ED710A002084F83801D034002121672B
:104720006167A167E167D03C11EE900AB7EE008A9D
:10473000B0F17E5F01DDF0EE481AC4ED721A84ED2F
:10474000642A032300220621201D00F0CFFD8834B7
:10475000606E80ED008A606E9FED130A80ED010AA5
:10476000606E80ED020A606E80ED030A0F48A0645F
:104770000F48E0640F4820650F48606504F85A5CF4
:1047800004F8595C90220D49E06FFCF7ECFA606F79
:104790009022BDEC028B0A49BDE87040FCF7E3BAF9
:1047A00070530020CDCCCC3D00000000C547000870
:1047B000D54C0008F94700081D4E000890980008E5
:1047C000FC01002010B50446902254F8F81F084858
:1047D000FCF7C9FA48220748616AFCF7C4FA0548A1
:1047E00061694822BDE810404830FCF7BCBA0000BF
:1047F000FC0100204855002070B50446B0EE000AC8
:1048000054F8EC0F2B4DD0ED000A60EE800AC5ED98
:10481000090AD0ED010A60EE800AC5ED0A0AD0ED62
:10482000020A60EE800AC5ED0B0AD0ED030A20EE05
:10483000800A85ED0C0A14F8DE0C14F8E01C10FB5D
:1048400001F11D4800884143206AFCF7A5FA95ED67
:104850000B2A206AF1EE421AC0ED001A206A95ED8B
:104860000C0A80ED010AD5ED090A206AB1EE601A42
:1048700080ED021A206A95ED0A1A80ED031A206A6B
:1048800080ED061A206AC0ED070A206A80ED080A4A
:10489000206A80ED092A206AC0ED0C0A206AF1EE38
:1048A000410AC0ED0D0A206AC0ED0E1A206A80EDA3
:1048B0000F0A70BDB8010020B001002070B52DEDC9
:1048C000088BF0EE40AAF0EE60BAB0EE41BAB0EE5E
:1048D00061AAF0EE429AB0EE629AB0EE438AF04CD2
:1048E0002078DFEDF08A00280BD1B0EE682AF7EED1
:1048F000001A9FEDED1ADFEDED0AB2EE040AFFF7A4
:10490000F9FE04F5A47003C8084305D184ED5EAA3E
:10491000C4ED5F9A84ED609A04F5827484ED2E8A6A
:1049200094ED171A3AEEC10A84ED1A0A94ED181A9A
:104930007BEEC10AC4ED1B0A94ED191A3BEE411A35
:1049400084ED1C1AF6EE001AD94D20EE210A20EE55
:10495000080A85ED000A20EEA10A20EE080A85ED7E
:10496000010A21EE210A20EE080A85ED020A9022B2
:10497000D0492068FCF7F7F995ED000A2068B1EE00
:10498000402A80ED012AD5ED010A2068F1EE602A67
:10499000C0ED022A95ED021A2068F1EE411AC0ED31
:1049A000031A206880ED060A206880ED081A206846
:1049B000C0ED092A2068C0ED0C0A2068C0ED0D1A70
:1049C000206880ED0F0A206880ED121A2068C0ED83
:1049D000130A206880ED142A94ED1D0AD4ED230AF1
:1049E00094ED2E1A20EE202A31EE200AC2EE001A93
:1049F00021EE0A2AC2EE002A31EEA22A84ED1D2AF7
:104A0000D4ED1E1A61EEA02AC2EE801A61EE292AA8
:104A100082EE803A71EE831AC4ED1E1AD4ED1F2A7D
:104A200021EE091A62EEA02AC2EE800AC1EE002A27
:104A300070EEA20AC4ED1F0AA4F5827422EE020AE7
:104A400001EEA10A00EEA00A03F0F6FC85ED030AD0
:104A5000002004EB8001D1ED5E0AA16860EE800ABF
:104A600001EB8001C1ED000A401CC0B20328F0D365
:104A700094ED5B0AD4ED5C0A20EE000A00EEA00A79
:104A8000D4ED5D0A00EEA00A03F0D6FCB7EE009A62
:104A900089EE001A84ED651AD5ED030A89EE200A25
:104AA00084ED660A11EE100A834988420DDA10EE91
:104AB000100A8249884208DD10EE100A80498842B7
:104AC00003DA012084F8390102E0002084F839017A
:104AD00004F58C7494ED260AD4ED290A206820EEA2
:104AE000200A80ED000A94ED260AD4ED290A2068F8
:104AF00020EE200A80ED070A94ED260AD4ED290A5B
:104B0000206820EE200A80ED0E0A94ED260AD4EDEE
:104B1000290A206820EE200A80ED150A94ED270A64
:104B2000D4ED290A206820EE200A80ED1C0A94EDBD
:104B3000270AD4ED290A206820EE200A80ED230AF6
:104B4000606894ED280A80ED000A606894ED280AF8
:104B500080ED040A606894ED280AA4F58C7480ED59
:104B6000080A201D00F0A8FE606890ED001A84ED90
:104B7000541A90ED010A84ED550AD0ED021AC4EDE5
:104B8000561A90ED032A84ED572AD0ED040AC4ED9D
:104B9000580AD0ED050AC4ED590AC4ED5A8A61EEEF
:104BA000012A21EE021AB0EE008AF0EE490A40EE28
:104BB000002A00EE211A52EE880A21EE080A02F0BD
:104BC00003FCDFED408A20EE280A84ED6A0A94EDAA
:104BD000540A94ED571AF0EE490A60EE001A41EEBD
:104BE000011A51EE880AD4ED551A20EE210AD4EDAF
:104BF000561A01EE810A20EE080A02F0E5FB20EECB
:104C0000280A84ED690A94ED550AD4ED570A94ED0B
:104C1000561A20EE200AD4ED540A00EEC10AF8EE2E
:104C2000000A20EE200A02F039FB20EE280A84ED6B
:104C3000680A94ED6A0AD4ED740A234970EE600A9A
:104C400010EE900A884205DDB4F8CC01401EA4F8AD
:104C5000CC0109E010EE900A1C49884204D9B4F84E
:104C6000CC01401CA4F8CC0104F5A474DFED181AA3
:104C7000B4F9840000EE900AB8EEE01AF0EE400AB3
:104C800041EE210AC4ED190A84ED220AD4E900019B
:104C9000401C41F1000103C4BDEC088B70BD000055
:104CA00070530020000000008096184B6F12833A6A
:104CB000B8010020909800089A99993ECDCC1441F3
:104CC000CDCC2441E12E654200003443000034C3C2
:104CD0000000B44310B504462DED048BD4F8EC006D
:104CE000D0ED009AD0ED018A90ED028A90ED039A02
:104CF00029EEA90A08EEA80A08EE080A09EE090A30
:104D000003F09AFB0020D4F8EC1001EB8001D1ED08
:104D1000000A60EE800AC1ED000A401CC0B20428FF
:104D2000F1D354F8F81F3A4891ED1C0AD0ED720AFD
:104D300080EE201A81ED1C1A2168D0ED720A91EDE7
:104D4000230A80EE201A81ED231A54F8F819314A0B
:104D50009FED310A0B6F934201DD81ED1C0AD4F8FF
:104D6000F810D1F88C30934201DD81ED230A90EDEB
:104D70006F0A04F5807460EE280AB6EE000A216816
:104D800060EE800AC1ED040AD0ED6F0A216860EE82
:104D9000880A60EE800AC1ED050AD0ED6F0A21682D
:104DA00020EEA91AFEEE000A21EE201A81ED0A1A61
:104DB00090ED6F1A216821EE091A21EE001A81ED9B
:104DC0000B1A90ED6F1A216821EE091A21EE201AB4
:104DD00081ED101A90ED6F1A216821EE291A21EE4B
:104DE000201A81ED111A90ED6F1A216821EE081A30
:104DF00021EE000A81ED160A90ED6F0A206820EE80
:104E0000280A20EE200A80ED170ABDEC048B10BDA5
:104E10007053002000401C4600401C462DE9F84F0E
:104E2000044604F1800104F1780005460091FBF787
:104E3000DFFE6C3484F85C00A089A08734F8120C83
:104E4000E0876C3C04F1A80204F1580193468946BE
:104E50002846FBF7ABFD823484F84600E08CE08501
:104E600020882086823C04F1B00292465846009980
:104E7000FBF79CFD903484F83800208820826088FD
:104E80006082903C04F1A002154604F19001504666
:104E9000FBF76CFAB034207651462846FBF7EEFA61
:104EA0002076E06BC349D0ED001AC1ED0D1A90EDEC
:104EB000010A81ED0E0AD0ED020AC1ED0F0A90ED54
:104EC000031A81ED101A34F8380C20810125658110
:104ED00020EE012AF0EE002AE06F01EEE02A22EE39
:104EE000222A80ED002A21EE802AE06F00EE812A3E
:104EF00022EE222A80ED012A61EEA11AE06FB03C79
:104F000040EE401A40EEE01A41EE011AC0ED021ADE
:104F10000027A94ED4F82C0100EB870090ED000A81
:104F2000B0EEC00A02F02EF906EB870080ED610AB0
:104F30007F1CFFB2032FEDD3B4F84800A4F8C000E3
:104F4000A4F8C25004F1C00204F1B8011746884623
:104F500004F14800FBF7C8FDAA34A077E08A24F8E2
:104F6000020C25805A4639465046FBF71FFDA077B4
:104F7000E581E08A208241463846FBF739FEA0777A
:104F800024F8025C25805A4639464046FBF70EFD60
:104F9000A077D4F80200AA3CD0ED000AC6ED700A52
:104FA00096ED710AB6EE001A20EE011AF4EEC10A6F
:104FB000F1EE10FA01D286F83851F4EEC00A002062
:104FC000F1EE10FA3BDD96F83811B9B396F83911C5
:104FD00049B106F5A07106F5A07306C9491C42F156
:104FE000000206C304E00021C6F84011C6F84411CF
:104FF00006F5A0724FF0320C0CCA0021BCEB020285
:10500000994104D286F8380184F82C0039E06B4EBF
:10501000227B803430884243D4E91A01FBF7A3FE97
:1050200014F8740C10FB00F230884243D4E91E01DE
:10503000FBF799FE04F8545CBDE8F88FFFE79FED9D
:10504000601A20EE011AF4EEC10AF1EE10FA0DDD3D
:1050500096F8381151B170EE600A9FED5A1A20EEA1
:10506000010A80EE801A86ED671A03E0B7EE000AA7
:1050700086ED670A0022C6F84021C6F8442184F86C
:105080002C006C3434F8140CA087E08AE0875A4670
:1050900048460099FBF78AFC84F85C006C3C04F1FC
:1050A0009802914651465846FBF780FC84F8C800A8
:1050B00000200DE0D4F81C11D6ED670A01EB800149
:1050C00091ED000A20EE200A81ED000A401CC0B2DA
:1050D000B4F89810B4F89A2051438142EADC0421D4
:1050E0009FED390A00200A1F06EB820C01EB4103F9
:1050F0009CED611AD4F81C2103EB000AC1EE000AF2
:1051000002EB8A0292ED001A60EE810AC2ED000AFB
:10511000401CC0B20328EBD3491CC9B20629E1D315
:1051200034F8980F20846584424639464846FBF798
:105130003DFC84F83000983C96F8380150B30420C8
:10514000DFED220A9FED221AD4F8BC1096ED6F0A0B
:1051500001EB800120EE200AD1ED001AF4EEC01A16
:10516000F1EE10FA01DD81ED000AD4F8BC1096EDE5
:105170006F0A01EB800120EE010AD1ED001AF4EE76
:10518000C01AF1EE10FA01D281ED000A401CC0B243
:105190000728D9D3D4F8BC009FED0E0A80ED030A8E
:1051A00004F13002414604F13800FBF7DFF884F8DF
:1051B000C80041E7B801002070530020B001002072
:1051C000CDCCCC3D6666663FDA0FC93F0AD7233C9B
:1051D0000AD723BC0000000010B5104890ED070A64
:1051E0000F48D0ED030A0F4801F090F80D4890EDFC
:1051F0000D0A02F0D8FE00EE100A9FED0B1ADFED4B
:105200000B0AB8EEC00A02F0BEFE0949BCEEC00AA5
:10521000096810EE100A486310BD0000B452002067
:1052200068000020BC0A00200000804F0000000041
:105230008007002010B52DED028BB7EE000A214843
:1052400080ED010A80ED020A80ED030A9FED1E8ABF
:1052500080ED048A80ED058A80ED068A01210170C7
:10526000B0EE482AF7EE001A9FED181ADFED180A83
:10527000B2EE040AFFF73EFA00221146F0EE484A69
:10528000B0EE484AF0EE483AB0EE483AF0EE482A1E
:10529000B3EE042ADFED0F1AB0EE481ADFED0E0A66
:1052A0009FED0E0A0E4801F071F900210D48FEF73E
:1052B00037FD04489FED0C0A8C3880ED130ABDECD5
:1052C000028B10BDF40B0020000000008096184BEC
:1052D0006F12833A00007A44000096430000FA44BB
:1052E000BC0A00208007002096430B3C2DE9F047C4
:1052F00004460D4617461E46DFF8E4830420A8F84E
:1053000000000820A8F8020025736773A6734FF009
:10531000000984F81090304603F0D8F860613146F7
:10532000FBF73AFDB8F80000704303F0CFF8A06136
:10533000B8F800107143FBF72FFDB8F80000704378
:1053400003F0C4F8E061B8F800107143FBF724FDE6
:10535000B8F80000684303F0B9F82062B8F800100C
:105360006943FBF719FD304603F0B0F8606231463F
:10537000FBF712FDB8F80000684303F0A7F82060BF
:10538000B8F800106943FBF707FDB8F80000704358
:1053900003F09CF86060B8F800107143FBF7FCFC68
:1053A000B8F80000784303F091F8A060B8F8001056
:1053B0007943FBF7F1FCB8F80000684303F086F886
:1053C000C4F8E800B8F800106943FBF7E5FC217B5E
:1053D000012204F13000D4F8E830FBF74BF8B8F8BC
:1053E0000000684303F072F8C4F8EC00B8F800104D
:1053F0006943FBF7D1FC217B012204F13800D4F88A
:10540000EC30FBF737F89FB1B8F80000784303F0B1
:105410005DF8C4F8F000B8F800107943FBF7BCFC65
:10542000617B012204F14000D4F8F030FBF722F850
:10543000B8F80000704303F049F8C4F8F400B8F875
:1054400000107143FBF7A8FCA17B012204F1480086
:10545000D4F8F430FBF70EF8B8F80000684368435E
:1054600003F034F8C4F8F800B8F800106943694351
:10547000FBF792FC217B04F150000A46D4F8F83087
:10548000FAF7F8FFB8F800006843684303F01EF825
:10549000C4F8FC00B8F8001069436943FBF77CFCD2
:1054A000217B04F158000A46D4F8FC30FAF7E2FFF9
:1054B000B8F800006843684303F008F88834A06730
:1054C000B8F800006843684303F000F8E067B8F8F4
:1054D0000010A06F69436943FBF75EFCB8F8001049
:1054E000E06F69436943FBF757FC14F87C1CA36F1A
:1054F000883C0A4604F16000FAF7BCFF217B04F106
:1055000068000A46D4F80431FAF7B4FFAFB1B8F82E
:1055100000006843784302F0D9FFC4F80801B8F8E6
:10552000001069437943FBF737FC627B217B04F170
:105530007000D4F80831FAF79DFFB8F80000704306
:10554000684302F0C3FF9434A067B8F800006843D2
:10555000704302F0BBFFE067B8F80010A06F714322
:105560006943FBF719FCB8F80010E06F6943714319
:10557000FBF712FC14F8882C14F8861CA36F943CDB
:1055800004F17800FAF776FFA27B217B04F180001A
:10559000D4F81031FAF76EFFB8F80000684368439A
:1055A00002F094FFC4F81401B8F80010694369438D
:1055B000FBF7F2FB217B04F188000A46D4F8143192
:1055C000FAF758FFB8F800007043704302F07EFF0E
:1055D000C4F81801B8F8001071437143FBF7DCFB05
:1055E000A17B04F190000A46D4F81831FAF742FF83
:1055F000B8F800006843704302F068FFC4F81C016B
:10560000B8F8001069437143FBF7C6FBA27B217B0E
:1056100004F19800D4F81C31FAF72CFF207B10FB22
:1056200000F0B8F80010484302F050FFC4F8200121
:10563000207B10FB00F0B8F80010484302F046FF52
:10564000C4F82401207B10FB00F0B8F80010484398
:1056500002F03CFFC4F82801207BB8F80010484352
:1056600002F034FFC4F82C01207BB8F80010484346
:1056700002F02CFFC4F83001217B04F1A0000A469F
:10568000D4F82031FAF7F6FE217B04F1A8000A468F
:10569000D4F82431FAF7EEFE217B04F1B0000A467B
:1056A000D4F82831FAF7E6FE217B012204F1B80094
:1056B000D4F82C31FAF7DEFE217B012204F1C00080
:1056C000D4F83031FAF7D6FE84F8289084F829907F
:1056D00084F82A9084F82B9084F82C90BDE8F08709
:1056E000B001002070B504460F4DE07B002803D0C8
:1056F0002046FEF761FE0DE0A27B288861684243E8
:10570000D4F8F400FBF72FFBA17B288841436068A5
:10571000FBF742FB627B2888A1684243D4F8F00083
:10572000BDE87040FBF71FBBB00100202DE9F04140
:10573000044694F82C00002827D17434A08CA0864D
:10574000E188E186A08734F81A0CE087743C04F104
:10575000A802154604F1780104F19800FBF726F938
:1057600084F8C80004F1B00204F1580116460F464F
:105770002846FBF71BF984F8C80004F150023146B3
:105780003846FBF7B1F984F8C800BDE8F0812DE98F
:10579000F041044694F8290000282CD104F1680156
:1057A00004F160000D460746FBF722FA84F8C800B2
:1057B00004F15802164604F150013846FBF7F6F89A
:1057C00084F8C800B4F85800A4F8A800B4F86A0037
:1057D000A4F8AA0004F1A802174629463046FBF7B0
:1057E000E5F884F8C800324604F188013846FAF733
:1057F000BDFD84F8C800BDE8F0812DE9F0470446FE
:1058000094F82A00002855D104F1800104F17800B1
:105810000D460746FBF7ECF96C3484F85C00A08970
:10582000A08734F8120CE0876C3C04F1A80204F164
:105830005801164688463846FBF7B8F8823484F893
:105840004600E08CE08520882086823C04F1B0028E
:10585000174629463046FBF7A9F8903484F83800FB
:105860002088208260886082903C04F1A0029146EA
:1058700004F190013846FAF779FDAA34A077394649
:105880004846FAF7FBFDA07734F8520C24F8020CD6
:1058900034F8280C2080324629464046FBF786F82B
:1058A000A077AA3C04F1980239463046FBF77EF80F
:1058B00084F8C800BDE8F08770B504462046FFF7BD
:1058C00011FFD4F8CC1009B120468847204600F0DB
:1058D00067F8D4F8D01009B1204688472046FFF772
:1058E00056FFD4F8D41009B120468847207C2B4DB0
:1058F000C0B9E07BB0B1227B28884243D4E93A01A9
:10590000FBF731FA207B10FB00F228884243D4E9F0
:105910003E01FBF728FAD4F8E01009B12046884789
:10592000002029E02046FFF768FFD4F8D81009B11D
:1059300020468847204600F06DF8D4F8DC1009B105
:10594000204688472046FFF7F1FEE4E700FB01010F
:10595000D4F8F82002EB8101226AD1ED000A02EBB3
:10596000800292ED000AF4EEC00AF1EE10FA01D2C4
:1059700081ED000A401CC0B2217B8142E6D8227B27
:105980002888D4F8E81042432068FBF7ECF9D4F8F3
:10599000E41009B120468847206870BDB00100209E
:1059A0002DE9F041044694F8280000282AD1627BB2
:1059B00004F1300104F1600004F1380522B3227BC8
:1059C000A4F8B8200126A4F8BA6004F1B80217467A
:1059D000FAF7ECFF84F8C800207BA4F8C000A4F814
:1059E000C26004F1C002164604F1400104F17000E7
:1059F000FAF7DCFF04F8C80F2A4631463846FAF7B2
:105A0000B5FC2070BDE8F0812A46FAF7CFFF84F894
:105A1000C800F7E72DE9F041044694F82B00002870
:105A200036D1B4F87800A4F8B8000125A4F8BA502B
:105A300004F1B80204F1380116460F4604F178006B
:105A4000FAF7B4FFAA34A07734F8620CE082258319
:105A5000AA3C04F1C0029046314604F14800FBF72D
:105A600043F8983484F83000208820846584983C7A
:105A70003246414604F19800FAF798FF84F8C800CE
:105A800004F1300231463846FAF770FC84F8C80059
:105A9000BDE8F08110B50F480D4901600321416058
:105AA00000218160C1604FF4102202614FF40012A6
:105AB0004261017641768176C17601774177FCF7C4
:105AC0004DFA002803D0BDE81040FCF729B810BDFE
:105AD00000640040EC04002010B50F480D4901603F
