:020000040800F2
:10000000B8BF00205D020008358E00081D6700089B
:10001000318E0008EB13000875A3000800000000F3
:100020000000000000000000000000009D0100082A
:10003000451E000800000000F9010008499600086C
:1000400077020008770200087702000877020008AC
:100050007702000877020008A13200087702000842
:1000600077020008AB320008B532000877020008BA
:10007000611900087702000877020008770200087B
:10008000770200087702000877020008770200086C
:10009000F11300087702000877020008BF32000859
:1000A000770200087702000877020008770200084C
:1000B000770200087702000877020008770200083C
:1000C000770200087702000877020008770200082C
:1000D00077020008E99F00087702000815A10008D0
:1000E000770200087702000877020008770200080C
:1000F00077020008770200087702000877020008FC
:1001000077020008770200087702000877020008EB
:100110007702000877020008770200084997000874
:100120007702000871190008811900089119000868
:1001300077020008770200087702000877020008BB
:10014000011400087702000877020008770200080F
:10015000A1190008B1190008C119000899A10008E7
:10016000770200087702000877020008770200088B
:1001700077020008770200087702000800000000FC
:100180007702000877020008DFF80CD000F03CFE90
:1001900000480047F9B90008B8BF00202C4B196887
:1001A0000868B0E8F04F80F30988BFF36F8F4FF015
:1001B000000080F3118870470000000008480068C4
:1001C000006880F308884FF0000080F3148862B65E
:1001D00061B6BFF34F8FBFF36F8F00DF00BF00BF6B
:1001E00008ED00E0DFF80C00016841F470010160E7
:1001F000704700BF88ED00E0EFF30980BFF36F8F19
:10020000134B1A681EF0100F08BF20ED108A20E96A
:10021000F04F106009B44FF0500080F31188BFF325
:100220004F8FBFF36F8F0CF03BFD4FF0000080F35A
:10023000118809BC19680868B0E8F04F1EF0100F6B
:1002400008BFB0EC108A80F30988BFF36F8F704746
:1002500008010020EFF30580704700000648804742
:1002600006480047FEE7FEE7FEE7FEE7FEE7FEE79B
:10027000FEE7FEE7FEE7FEE7359700088901000884
:100280009FED1A1AF5EE000A40EE010ABDEEE00AF3
:10029000F5EEC00A10EE100AF1EE10FA38BF401E5B
:1002A00000EE100A1349F7EE001AB8EEC00A30EE5D
:1002B000C00ADFED0F0A20EE200AFCEEC00A10EEA5
:1002C000900AC0F3080000EE900A01EB8000F8EEFF
:1002D000600A90ED011A70EE600A90ED000A71EE6E
:1002E000E01A21EE800A00EE810A704783F9223E6F
:1002F00000000044E4D60008DFED190AB5EEC00A9C
:1003000060EE200ABDEEE01A11EE100AF1EE10FACE
:1003100038BF401E00EE100A1349F7EE001AB8EE7F
:10032000C00A30EEC00ADFED0F0A60EE200ABCEE14
:10033000E00A10EE100AC0F3080000EE100A01EB0C
:100340008000B8EE400A90ED011A70EEC00A90ED00
:10035000000A71EEE01A21EE800A00EE810A704771
:1003600083F9223E00000044E4D6000870B40588FA
:100370000E884468D1F804C05368B54208D140885B
:100380004988884201BF11888D425188884203D034
:1003900070BC6FF00200704705FB00F1880827D0A1
:1003A00094ED001ADCED000A94ED010ADCED011A6F
:1003B00031EE201AD4ED020A70EE211A9CED020AE9
:1003C00083ED001AC3ED011A94ED031ADCED031A54
:1003D00030EE800A401E71EE210A83ED020A04F11C
:1003E0001004C3ED030A03F110030CF1100CD7D174
:1003F00011F0030030D0B0F1004F30D200282BDDD7
:10040000211F1B1FACF1040210F0010F0AD091ED67
:10041000010AD2ED010A091D121D30EE200A83EDFA
:10042000010A1B1D400817D091ED010AD2ED010A07
:10043000401E30EE200A83ED010A91ED020AD2ED52
:10044000020A01F1080102F1080230EE200A83EDF0
:10045000020A03F10803E7D170BC00207047B4EC36
:10046000010A401EFCEC010A30EE200AA3EC010A4E
:10047000F5D1F1E701804280436070472DE9F34FE9
:1004800084B0049840680090486801900498B0F8DF
:1004900000E04588DFEDFE0A00200290B0EE600A21
:1004A000AE4506D108884988884204BF7146864512
:1004B00004D06FF0020006B0BDE8F08F01985FEA4B
:1004C000010C18BFB7EE001A3DD000BFBEEB0C0107
:1004D00017D0B1F1004F80F01F82002911DD021FFB
:1004E00011F0010F1CBFC2ED010A121D4B1006D006
:1004F000C2ED010AC2ED020A08325B1EF8D100EB20
:100500008100BCF10102A0EC011A19D0B2F1004F38
:1005100080F00882002A13DD031F12F0010F1CBFB8
:10052000C3ED010A1B1D511008D000BFC3ED010A25
:10053000C3ED020A491E03F10803F7D100EB820064
:10054000BCF1010CC2D14FF000080395002D14BF7F
:10055000B0EE602A002000F0BF8100BF009908FBC8
:1005600005F001EB800B0199DBED002A01EB800027
:100570000346F0EE421AC64552D9AEEB0802ABEB89
:10058000850112F0010F17D001EB850191ED000AF2
:10059000B5EEC00AF1EE10FA07DDB4EEE10AF1EEB5
:1005A00010FA09DDF0EE401A06E0B1EE400AF4EE72
:1005B000C01AF1EE10FAF5D3521031D001EB850CD0
:1005C0009CED000AB5EEC00AF1EE10FA05DDB4EEBE
:1005D000E10AF1EE10FA09DD06E0B1EE400AF4EEB0
:1005E000C01AF1EE10FA01D2F0EE401A01EBC5018B
:1005F00091ED000AB5EEC00AF1EE10FA05DDB4EE99
:10060000E10AF1EE10FA09DD06E0B1EE400AF4EE7F
:10061000C01AF1EE10FA01D2F0EE401A521ECDD1FE
:10062000F5EEC01AF1EE10FA00F07381F5EEC02A73
:100630000126F1EE10FA0099D4BFB1EE620AB0EED5
:10064000620AB4EE610AF1EE10FA1CBFAEEB0802CA
:10065000B2F1010C47D005FB08F201EB820292EDEA
:10066000001A00BFB0EE410A05FB06F4B5EEC00A61
:1006700000EB8404F1EE10FACCBFF0EE400AF1EE8C
:10068000400AF4EE610AF1EE10FA28D1B5EB080C3D
:1006900011D0BCF1004F7DD2BCF1000F0BDD00BFCB
:1006A00092ED000AD1ED000ABCF1010CE2EC010A66
:1006B000A1EC010AF4D129000ED0B1F1004F6AD2A9
:1006C000002909DD94ED000AD0ED000A491EE4EC92
:1006D000010AA0EC010AF5D1012002900BE0761C82
:1006E000BCF1010CBED10298012804D0F5EEC02A5D
:1006F000F1EE10FA7ED09BED000AB5EB08009A46A9
:100700005946064622D0B0F1004F74D200281DDDB4
:10071000091F10F0010F06D0F0EE400A80EEA01A7B
:1007200081ED011A091D401010D000BFD1ED010A62
:10073000401E80EE801A81ED011A91ED021AC1EE81
:10074000000AC1ED020A01F10801EFD1280026D00C
:10075000B0F1004F7ED2002821DDAAF1040110F093
:10076000010F06D0D1ED010A80EE801A81ED011A49
:10077000091D401013D000BFD1ED010A401E80EECC
:10078000801A81ED011AD1ED020A80EE801A81ED06
:10079000021A01E0CBE0D6E001F10801ECD1DDE97D
:1007A00000124FF000095FEA0E0773D0C14504BF85
:1007B00001EB860102EB850274D091ED000ADC4664
:1007C0005046330035D01C46B6F1004F7ED2002C87
:1007D0002FDD0B1FABF1040C16F0010F0FD0F0EE64
:1007E000400ADCED011AB0EE601A00EEE11A83ED6A
:1007F000011A01E08DE0B1E01B1D0CF1040C741036
:1008000015D000BFD3ED010A9CED011A40EE410A5C
:10081000C3ED010AD3ED020A9CED021A0CF1080C9B
:1008200040EE410AC3ED020A0833641EEAD101EB2F
:1008300086012B0036D0B3F1004F72D2002B31DD90
:10084000A2F1040CAAF1040013F0010F0CD0DCEDAE
:10085000010A00E08BE090ED011A001D40EE410A14
:10086000CCED010A0CF1040C5C1019D0DCED010A8E
:1008700090ED011A40EE410ACCED010ADCED020ACE
:1008800090ED021A083040EE410ACCED020A03E076
:10089000000000000DE005E0641E0CF1080CE5D13D
:1008A00002EB830201EB88017F1E09F101097FF44D
:1008B0007DAF009808F10108001D00900398401ECC
:1008C00003907FF44BAE0299012900E058E004BF89
:1008D00006B0BDE8F08F00BFB5EEC00AF1EE10FA29
:1008E0007FF4E9AD04990EFB05F3002B4A684FF045
:1008F00000010BD902EB810C9CED000AB5EEC00A99
:10090000F1EE10FA02D1491C8B42F3D88B427FF4EE
:10091000D2AD6FF00400CEE5E0EC010A491EFBD138
:10092000EFE538E0E0EC010A521EFBD108E692ED5B
:10093000000AD1ED000ABCF1010CE2EC010AA1ECC5
:10094000010AF4D1B7E694ED000AD0ED000A491E81
:10095000E4EC010AA0EC010AF5D1BDE6D1ED000AF4
:10096000401E80EE801AA1EC011AF7D1EEE6D3ED1D
:10097000000A401E80EE801AA3EC011AF7D10EE7A0
:10098000BCEC011AD1ED000A5B1E40EE410AE1EC1D
:10099000010AF5D14DE7B0EC011AD2ED000A5B1E59
:1009A00040EE410AE2EC010AF5D17BE72DE9F04F78
:1009B00082B0466853680193058847884B880020B9
:1009C00000900888874201BFB2F800C06545528890
:1009D00093421EBF6FF0020002B0BDE8F08F9FEDA2
:1009E000412A4FEA970EC7F3400B00BFDDE9000232
:1009F00002EB800A4A6898464FF00009B0EE420ABE
:100A0000B4465FEA0E0025D092ED001ADCED001A24
:100A100002EB8302DCED010A01EE810A92ED001A7D
:100A200002EB8302401ED2ED001A02EB830200EEBD
:100A3000810A9CED021ADCED030A00040CF1100C93
:100A4000000C01EE210A92ED001A02EB830200EE87
:100A5000810AD9D117F0030026D0ACF10404A2EB2F
:100A6000830210F0010F08D002EB8302D4ED010ADB
:100A700092ED001A241D00EE810A5FEA0B0013D0EC
:100A800002EB830CD4ED010A9CED001A02EBC302C9
:100A9000401E00EE810AD4ED020A92ED001A04F124
:100AA000080400EE810AEBD109F10100AAEC010A69
:100AB0001FFA80F9486800EB8902A8F101001FFACB
:100AC00080F8B8F1000F99D1009806EB870618441A
:100AD00080B20090681E05042D0C87D102B0002062
:100AE000BDE8F08F0000000070B405880E884468EF
:100AF000D1F804C05368B54208D14088498888427B
:100B000001BF11888D425188884203D070BC6FF0BC
:100B10000200704705FB00F1880827D094ED001A09
:100B2000DCED000A94ED010ADCED011A31EE601AE9
:100B3000D4ED020A70EE611A9CED020A83ED001AF0
:100B4000C3ED011A94ED031ADCED031A30EEC00A6E
:100B5000401E71EE610A83ED020A04F11004C3ED38
:100B6000030A03F110030CF1100CD7D111F00300AC
:100B700030D0B0F1004F30D200282BDD211F1B1FD9
:100B8000ACF1040210F0010F0AD091ED010AD2ED90
:100B9000010A091D121D30EE600A83ED010A1B1DBA
:100BA000400817D091ED010AD2ED010A401E30EE47
:100BB000600A83ED010A91ED020AD2ED020A01F109
:100BC000080102F1080230EE600A83ED020A03F127
:100BD0000803E7D170BC00207047B4EC010A401E46
:100BE000FCEC010A30EE600AA3EC010AF5D1F1E752
:100BF0002DE9F04F02884768B0F802804888D1F8A4
:100C0000049082B04FF0000A1646824207BF09885E
:100C100088456FF0020002B018BFBDE8F08F4FEAC0
:100C2000980B02EB42000190C8F34000CDF80000A1
:100C300009EB8A01BBF1000F33D0019801EB820C64
:100C400001EB80043B46E64601EBC2054FEA0B0090
:100C500093ED000A401E81ED000A93ED010A01EBBD
:100C600002118CED000A93ED020A0CEB021C85EDDB
:100C7000000A93ED030A05EB021584ED000A04EB6C
:100C8000021403F11003E3D10EEB820000EB8200AB
:100C900000EB8201ABF10100504307EB0B1701EBB6
:100CA000001118F0030C21D03B1FA1EB82011CF0B6
:100CB000010F06D093ED010A01EB82011B1D81EDAE
:100CC000000A009880B100BF93ED010A01EB820495
:100CD00001EBC20184ED000A93ED020A401E81ED92
:100CE000000A03F10803EFD107EB8C070AF10100BA
:100CF0001FFA80FA701E0604360C99D102B000204B
:100D0000BDE8F08F2DE9F05F0546002092469B4636
:100D100088460646814640241BE028464146474611
:100D2000224600F060F853465A46C01A914110D34B
:100D300011461846224600F047F82D1A67EB0108C5
:100D40004F4622460120002100F03EF817EB000933
:100D50004E41201EA4F10104DFDC484631462A46FC
:100D60004346BDE8F09F40EA01039B0703D009E03A
:100D700008C9121F08C0042AFAD203E011F8013B87
:100D800000F8013B521EF9D27047D2B201E000F8E0
:100D9000012B491EFBD270470022F6E710B513461F
:100DA0000A4604461946FFF7F0FF204610BD30B54D
:100DB00004460020034600E05B1C934203D2E05C43
:100DC000CD5C401BF8D030BD202A04DB203A00FA6D
:100DD00002F1002070479140C2F1200320FA03F392
:100DE000194390407047202A04DB203A21FA02F090
:100DF0000021704721FA02F3D040C2F12002914055
:100E00000843194670470000064C074D06E0E068AD
:100E100040F0010394E8070098471034AC42F6D341
:100E2000FFF7B6F928DF000848DF000870B58C1816
:100E300010F8015B15F0070301D110F8013B2A11EE
:100E400006D110F8012B03E010F8016B01F8016BDB
:100E50005B1EF9D12B0705D40023521E0DD401F8D7
:100E6000013BFAE710F8013BCB1A921C03E013F8A0
:100E7000015B01F8015B521EF9D5A142D8D30020D5
:100E800070BD000010B501221021024803F0B2FA33
:100E900010BD00000000024010B5002210210248E1
:100EA00003F0A8FA10BD00000000024070470000E7
:100EB00010B501221146024803F09CFA10BD000053
:100EC0000004024010B500220121024803F092FA0A
:100ED00010BD00000004024010B5044600BF2046CB
:100EE00000F050F90028FAD110BD000010B50446FA
:100EF000FFF7D2FF922000F0B1F9062295491220A7
:100F000000F08CF9FFF7BEFF92484078000200B273
:100F1000904909780843904908800846B0F90000D4
:100F200000EE100AB8EEC00A8C48D0ED000A20EEA0
:100F3000200AD4ED080A20EE200A84ED000A854834
:100F4000C078000200B2834989780843824908804A
:100F50000846B0F9000000EE100AB8EEC00A7F485B
:100F6000D0ED000A20EE200AD4ED080A20EE200A77
:100F700084ED010A77484079000200B27549097989
:100F80000843754908800846B0F9000000EE100AD1
:100F9000B8EEC00A7148D0ED000A20EE200AD4ED68
:100FA000080A20EE200A84ED020AFFF78BFF0822D0
:100FB0006849002000F032F9FFF77AFF65480078B1
:100FC0000F284FD166480078F0B36248C07800021D
:100FD00000B26049897808435F49088094ED090AA6
:100FE0000846B0F9000000EE900AF8EEE00A5D480D
:100FF00090ED001A10EE810A84ED030A55484079FD
:10100000000200B25349097908435349088094ED1E
:101010000A0A0846B0F9000000EE900AF8EEE00A6D
:10102000504890ED001A10EE810A84ED040A4948F8
:10103000C079000200B247498979084346490880CF
:1010400094ED0B0A084600E00DE0B0F9000000EE58
:10105000900AF8EEE00A434890ED001A10EE810A7B
:1010600084ED050A44E03B48C078000200B23949EB
:1010700089780843384908800846B0F9000000EE36
:10108000100AB8EEC00A3748D0ED000A20EE200A58
:1010900084ED030A2F484079000200B22D490979F6
:1010A00008432D4908800846B0F9000000EE100AF8
:1010B000B8EEC00A2B48D0ED000A20EE200A84EDDD
:1010C000040A2448C079000200B222498979084301
:1010D000214908800846B0F9000000EE100AB8EE79
:1010E000C00A2048D0ED000A20EE200A84ED050A4F
:1010F000FFF7D2FEA22000F0B1F80222154922200B
:1011000000F08CF8FFF7BEFE12480078C0001149CD
:10111000497840EA6110104908800846B0F900009B
:10112000B0F5806F05DB08460088A0F5006000B2CE
:1011300008800948B0F9000000EE100AF8EEC00A75
:10114000B4EE001AB3EE070A00EE810A84ED070A36
:1011500010BD0000B2010020BA0100207001002083
:101160008001002074010020704710B5044620461D
:101170000AF0AEFC10BD10B50446204609F0E2FDB1
:1011800010BD000010B5044600201C490870FFF790
:101190008DFEFFF7E9FF09F0E5FB184909780843E0
:1011A0001649087009F09AFC144909780843134954
:1011B00008701CB1124800F02BF91CE09FED110AD9
:1011C0000F4880ED090A9FED100A80ED0A0A9FED95
:1011D0000F0A80ED0B0A9FED0E0A80ED0C0A90EDD0
:1011E0000C0ADFED0C0A80EE801A80ED081A9FEDE4
:1011F0000A0A80ED060A0148007810BD7801002037
:1012000094570020C07EB33B4288E0BBCB30A33A6A
:10121000B39B1C41C3F51C410000204270B506463B
:101220000C46154646F0800000F018F806E0552000
:1012300000F014F82070641C681EC5B2002DF6D1B1
:1012400070BD70B504460D4644F0800000F006F80D
:10125000552000F003F8287070BD000001B582B081
:101260004FF47A70012301AA02A90090024803F00A
:10127000E9FF9DF804000EBD0C08002070B505467E
:101280000C462846FFF7EAFF2046FFF7E7FF70BD50
:10129000D2ED020A92ED021AB6EE000A00EEC10A81
:1012A000D2ED030A92ED031A00EEC10AD0ED000A56
:1012B00020EE200AD2ED010A92ED021A60EE810AB8
:1012C00092ED001AD2ED031A41EE610A90ED011A77
:1012D00000EE810AD2ED010A92ED031A60EE810A56
:1012E00092ED001AD2ED021A41EE210A90ED021A97
:1012F00000EE810AF0EE000A20EE200A81ED000ADD
:1013000092ED010AD2ED020A20EE200AD2ED000A87
:1013100092ED031A00EE810AD0ED000A60EE200A79
:1013200092ED011AD2ED011AB6EE000A01EE610A41
:10133000D2ED031A92ED032AB0EE401A01EEC21A62
:10134000D0ED011AB0EE600A01EE210AD2ED020AD8
:1013500092ED031A60EE810A92ED001AD2ED011AA5
:1013600041EE610A90ED021A00EE810AF0EE000AE9
:1013700020EE200A81ED010A92ED010AD2ED030A66
:1013800020EE200AD2ED000A92ED021A00EEC10A08
:10139000D0ED000A20EE200AD2ED020A92ED031AE7
:1013A00060EE810A92ED001AD2ED011A41EE210A97
:1013B00090ED011A00EE810A92ED011AD2ED011AA8
:1013C000F6EE000A41EE610A92ED021AD2ED021A1F
:1013D00041EE610A90ED021A00EE810AF0EE000A79
:1013E00020EE200A81ED020A704700BFFEE70000F0
:1013F00010B5024802F07EF910BD00006807002019
:1014000010B5024802F076F910BD000090070020E8
:1014100070B52DED048B88B004460020069007902F
:10142000B1EE040A00F004FC00F046FCFE4880ED3A
:10143000000A00BF00F040FCFB48D0ED000A30EE8F
:10144000600ADFEDFA0AB4EEE00AF1EE10FA14DDFC
:101450009FEDF70A84ED090A9FEDF60A84ED0A0A6A
:101460009FEDF50A84ED0B0A9FEDF40A84ED0C0A5A
:101470009FEDF30A84ED060A59E29FEDF20A00F0AF
:10148000D7FB9FEDF10A84ED0C0A9FEDEF0A84ED86
:10149000090A9FEDED0A84ED0A0A9FEDEB0A84ED3F
:1014A0000B0A002673E1FFF7F7FC9220FFF7D6FE48
:1014B000062206A91220FFF7B1FEFFF7E3FC9DF814
:1014C0001900000200B29DF8181040EA010500EE74
:1014D000105AB8EEC00ADD48D0ED000A20EE200A0E
:1014E00084ED000A9DF81B00000200B29DF81A105E
:1014F00040EA010500EE105AB8EEC00AD348D0ED1C
:10150000000A20EE200A84ED010A9DF81D00000269
:1015100000B29DF81C1040EA010500EE105AB8EE2A
:10152000C00ACA48D0ED000A20EE200A84ED020A63
:10153000D4ED000A60EEA00A94ED011AD4ED011A70
:1015400041EE210A94ED021AD4ED021A41EE210A6D
:10155000B0EE600A09F08EF9B0EE408A94ED0C0A04
:1015600030EE080A84ED0C0AFFF7ACFC082206A94D
:101570000020FFF753FEFFF79BFC9DF818000F2893
:1015800050D19DF81B00000200B29DF81A1040EAED
:10159000010500EE105AB8EEC00AAD48D0ED000AC1
:1015A00020EE200A84ED030A94ED090AD4ED030A23
:1015B00030EE200A84ED090A9DF81D00000200B2F9
:1015C0009DF81C1040EA010500EE105AB8EEC00A62
:1015D0009F48D0ED000A20EE200A84ED040A94ED25
:1015E0000A0AD4ED040A30EE200A84ED0A0A9DF8B6
:1015F0001F00000200B29DF81E1040EA010500EE37
:10160000105AB8EEC00A9248D0ED000A20EE200A27
:1016100084ED050A94ED0B0AD4ED050A30EE200A9C
:1016200084ED0B0A06BBF0EE488AB0EE489A002023
:1016300017E004F10C0101EB800191ED000A03A910
:1016400001EB800181ED000A04F10C0101EB800146
:1016500091ED000A694601EB800181ED000A411C11
:10166000C8B20328E5DB49E0B4EEE88AF1EE10FAEF
:1016700001DDF0EE488AB4EEC98AF1EE10FA01D22B
:10168000B0EE489A002037E004F10C0101EB800134
:1016900091ED000A03A901EB8001D1ED000AB4EE3F
:1016A000E00AF1EE10FA0ADD04F10C0101EB800111
:1016B00091ED000A03A901EB800181ED000A04F11C
:1016C0000C0101EB800191ED000A694601EB8001FC
:1016D000D1ED000AB4EEE00AF1EE10FA0AD204F1FC
:1016E0000C0101EB800191ED000A694601EB8001DC
:1016F00081ED000A411CC8B20328C5DB38EEC90AD7
:10170000544880ED000A002012E003A901EB80019B
:1017100091ED000A694601EB8001D1ED000A30EE3F
:10172000600A4D4901EB800181ED000A411CC8B2FD
:101730000328EADB474890ED000AF6EE000AB4EE13
:10174000E00AF1EE10FA1BDC434890ED000ADFEDF1
:10175000430AB4EEE00AF1EE10FA11DC90ED010A52
:10176000DFED3E0AB4EEE00AF1EE10FA08DC90ED8F
:10177000020ADFED3A0AB4EEE00AF1EE10FA00DDFB
:101780000AE09FED370A00F053FA701C86B2354824
:1017900000888642FFF687AE00BFD4ED0C0A3148C0
:1017A000008800EE100AB8EE400A80EE801A84ED40
:1017B0000C1A002015E004F1240101EB8001D1EDA9
:1017C000000A2849098800EE101AB8EE400A80EE97
:1017D000801A04F1240101EB800181ED001A411C03
:1017E000C8B20328E7DBFFF757FBA220FFF736FD5F
:1017F000022206A92220FFF711FDFFF743FB9DF807
:101800001800C0009DF8191040EA6115B5F5806F09
:1018100002DBA5F5006005B200EE105AF8EEC00A32
:10182000B4EE001A20E00000AC010020000070427D
:10183000C07EB33B4288E0BBCB30A33AB39B1C4194
:10184000000020420AD7A33B0000000070010020E6
:10185000740100207C010020C85700209A99193E8D
:101860006F12033AB0010020B3EE070A00EE810ABE
:1018700084ED060A34480088401C00B232490880D2
:10188000324890ED000AF6EE000AB4EEE00AF1EEFE
:1018900010FA3FF7CFAD94ED0C0ADFED2D0A30EED4
:1018A000600AB0EEC00AF6EE000AB4EEE00AF1EE0D
:1018B00010FAEEDC274890ED000A5FED180AB4EE4E
:1018C000E00AF1EE10FAE4DC90ED010A5FED1D0A8A
:1018D000B4EEE00AF1EE10FADBDC90ED020A5FED07
:1018E000210AB4EEE00AF1EE10FAD2DC94ED090A16
:1018F000B0EEC00ADFED180AB4EEE00AF1EE10FA1D
:10190000C7DC94ED0A0AB0EEC00ADFED130AB4EEAC
:10191000E00AF1EE10FABCDC94ED0B0AB0EEC00A5E
:10192000DFED0D0AB4EEE00AF1EE10FAB1DC00BF13
:1019300094ED0C0ADFED090A80EE801A84ED081A96
:1019400008B0BDEC048B70BD820100207C0100203A
:10195000CDCC1C41C85700200AD7233CC3F51C41FD
:1019600010B5024802F02AFA10BD0000D00B00208A
:1019700010B5024802F022FA10BD0000900C0020C1
:1019800010B5024802F01AFA10BD000064080020E9
:1019900010B5024802F012FA10BD0000C408002081
:1019A00010B5024802F00AFA10BD0000700B0020CA
:1019B00010B5024802F002FA10BD0000300C002001
:1019C00010B5024802F0FAF910BD0000100B00201B
:1019D0000146087810381823B0FBF3F20848805C01
:1019E000C865032A05D908686FF30900001D8865DA
:1019F00003E008686FF309008865886D7047000090
:101A000000D30008014600208A6A8B69CBB932B145
:101A1000012A0DD0022A03D0032A10D10EE000BF04
:101A2000CB6A03F08073B3F1807F00D1012007E01F
:101A3000CB6AB3F1C07F00D1012001E000E000BF1C
:101A400034E08B69B3F5005F1AD132B1012A07D0B7
:101A5000022A03D0032A11D10AE000BF01200EE0C0
:101A6000CB6A03F08073B3F1807F00D1012006E0E0
:101A7000CB6AB3F1C07F00D1012000E000BF15E0C8
:101A800032B1012A05D0022A04D0032A0CD103E086
:101A900000BF00BF012008E0CB6A03F08073B3F100
:101AA000807F00D1012000E000BF00BF704730B54B
:101AB0000468246824F4802405682C60046863604A
:101AC0008468402C04D10468A2600468E16003E0EB
:101AD0000468A1600468E26030BD000008B54148B8
:101AE0000068006800F0200060B100BF0020009096
:101AF0003C480068006800903A48006840680090E0
:101B000000BF6EE03848006800F01000002868D080
:101B100000BF002000903348006800680090314802
:101B200000684068009000BF00BF3048006800684F
:101B300000F4002058BB2D480068006820F0010028
:101B40002A4909680860294800684068C0F12400F3
:101B500027490880242025490968486023480068EF
:101B6000006840F400202149096808601F480068A7
:101B7000006840F001001D49096808601C480088A1
:101B800012282ED11B491C480AF028FC29E01748CE
:101B90000068006820F001001449096808601348D3
:101BA00000684068C0F124001149088024200F49D2
:101BB000096848601148806A20F400200F49886253
:101BC0000A480068006840F0010008490968086098
:101BD00007480088122804D10649074824300AF033
:101BE000FDFB08BD880A002000480040D00B002003
:101BF000BC010020D457002005580020006002409E
:101C000008B508484068009007490098096888426C
:101C100004D206480068401C044908600249009844
:101C2000086008BD001000E0500000204C000020BB
:101C30000C494868F0EE400A00BF0A494968091A91
:101C400001EE101AF8EE411A074991ED001AB8EEAC
:101C5000411A20EE811AF4EEC11AF1EE10FAECD31B
:101C600070470000001000E04000002010B52DED8E
:101C7000028B82B004460E484068019020680199AA
:101C8000081A00EE100AF8EE400A0A4890ED000A21
:101C9000B8EE400A80EE801AB0EE418A01982060CA
:101CA000FFF7AEFFB0EE480A02B0BDEC028B10BDEC
:101CB000001000E04000002010B52DED028B00F078
:101CC00059F80F4890ED000AB8EE400A808800EEFF
:101CD000900AF8EE600A9FED0B1A00EE810A0848A0
:101CE000C08800EE900AF8EE600A9FED071A00EE39
:101CF000810AB0EE408AB0EE480ABDEC028B10BDFE
:101D0000380000206F12833ABD37863512490968C2
:101D100041F08071104A11600021104A5160114653
:101D2000096841F0010111600D4941430D4A1160FC
:101D3000114609684FF47A72B1FBF2F10A4A116058
:101D400008490968064AB1FBF2F1084A116000210E
:101D5000074A116070470000FCED00E0001000E051
:101D600040420F00400000204400002048000020B6
:101D70004C00002038B5294840680090FFF740FF2C
:101D8000274800684FF0FF31A0FB01310098181878
:101D900041F10001234A03C223480023214902687C
:101DA00003C9FEF7AFFF214A03C220480CC81E48F2
:101DB00000680024A2FB001503FB005002FB040294
:101DC0001848D0E90030591A60EB0200184AC2E9FD
:101DD0000010164800681749086017480023144986
:101DE000026803C9FEF78EFF124988800846808882
:101DF0001149096841430E48D0E90030591A60F191
:101E000000000E4AC2E900100D4800230B49026889
:101E100003C9FEF777FF0749C88038BD001000E00E
:101E20004C000020580000204000002060000020EE
:101E300068000020380000204400002070000020CE
:101E4000480000207047000070B504460E46154655
:101E5000A520A077512104F11E00A4F81F105B48B3
:101E600000785A490978491C584A117021210855AF
:101E700040F2013104F11E00A4F8231040F20311D6
:101E8000A4F8251052480178A4F82710017801F52C
:101E90008071A4F8291000212B20015584F82C1002
:101EA00084F82D1094F82E1065F3020184F82E109A
:101EB00094F82E0020F0380184F82E10E08D20F4E4
:101EC0007071E185608E810A8902C91C618694F86F
:101ED0002F0020F03C01103184F82F104FF448728D
:101EE000B4F8331062F38C01A4F833104FF4347259
:101EF000A18E62F34F11A1864FF42A72B4F8371005
:101F000062F38C01A4F837104FF4B472218F62F39E
:101F10004F112187002184F83A1084F83B100121E9
:101F200084F83C1094F83D1065F3020184F83D10EC
:101F300094F83D0020F0380184F83D10B4F83D00DD
:101F400020F47071A4F83D10B4F84100810A8902B0
:101F5000C91CA4F8411094F83E0020F03C01103157
:101F600084F83E104FF48762B4F8421062F38C019B
:101F7000A4F842104FF43472B4F8431062F34F11D6
:101F8000A4F8431040F2C442B4F8461062F38C0146
:101F9000A4F846104FF4B472B4F8471062F34F112E
:101FA000A4F84710052104F11E0008F0C7FCB4F89E
:101FB0001F0000F1090104F11E0008F0A7FC5A22DD
:101FC00004F11E01034804F0B9FA70BDE6000020D8
:101FD000D3110020440A002070B504460E46154671
:101FE000A520A077512104F11E00A4F81F10A148DC
:101FF0000078A0490978491C9E4A11702121085592
:1020000040F2013104F11E00A4F8231040F2031144
:10201000A4F8251098480178A4F82710017801F554
:102020008071A4F8291095480078A8B994F82F0079
:1020300020F03C011C3184F82F1094F83E0020F071
:102040003C011C3184F83E1094F84D0020F03C0116
:102050001C3184F84D102EE088480078012815D1F5
:1020600094F82F0020F03C01083184F82F1094F8E8
:102070003E0020F03C01083184F83E1094F84D00F9
:1020800020F03C01083184F84D1014E094F82F0042
:1020900020F03C010C3184F82F1094F83E0020F021
:1020A0003C010C3184F83E1094F84D0020F03C01C6
:1020B0000C3184F84D1000212B200155012184F8AA
:1020C0002C10002184F82D1094F82E1065F30201D5
:1020D00084F82E1094F82E0020F0380184F82E1089
:1020E000E08D20F470714031E185608E810A8902B3
:1020F000323161864FF44872B4F8331062F38C01C8
:10210000A4F833105022A18E62F34F11A1864FF430
:102110008C62B4F8371062F38C01A4F837105022A7
:10212000218F62F34F112187002184F83A10012199
:1021300084F83B1084F83C1094F83D1065F30201DC
:1021400084F83D1094F83D0020F03801103184F8F7
:102150003D10B4F83D0020F470714031A4F83D10FA
:102160000022E18F62F38E11E187B4F83F1062F331
:10217000CF11A4F83F10B4F84100810A8902491D2B
:10218000A4F841104FF45C72B4F8421062F38C0171
:10219000A4F842103722B4F8431062F34F11A4F8A8
:1021A0004310B4F84500810A89021931A4F845109A
:1021B000002184F84910012184F84A10022184F892
:1021C0004B1094F84C1065F3020184F84C1094F80D
:1021D0004C0020F03801103184F84C10B4F84C0059
:1021E00020F470714031A4F84C100022B4F84D1066
:1021F00062F38E11A4F84D10B4F84E1062F3CF11B3
:10220000A4F84E10B4F85000810A8902491DA4F8C0
:1022100050104FF48262B4F8511062F38C01A4F8AC
:1022200051103722B4F8521062F34F11A4F8521033
:10223000B4F85400810A89021931A4F85410052118
:1022400004F11E0008F07AFBB4F81F0000F1090148
:1022500004F11E0008F05AFB5A2204F11E0108483E
:10226000FEF7A5FD5A2204F11E01064804F066F9A6
:1022700070BD0000E6000020D3110020D80000202F
:1022800053110020440A002070B504460E4615463E
:10229000A520A077512104F11E00A4F81F10AA4820
:1022A0000078A9490978491CA74A117021210855CD
:1022B00040F2013104F11E00A4F8231040F2031192
:1022C000A4F82510A1480178A4F82710017801F599
:1022D0008071A4F829109E480078012802D09D48FA
:1022E0000078A8B994F82F0020F03C011C3184F844
:1022F0002F1094F83E0020F03C011C3184F83E1071
:1023000094F84D0020F03C011C3184F84D1048E059
:1023100090480078012815D194F82F0020F03C0156
:10232000083184F82F1094F83E0020F03C01083169
:1023300084F83E1094F84D0020F03C01083184F8F8
:102340004D102EE084480078012815D194F82F0014
:1023500020F03C010C3184F82F1094F83E0020F05E
:102360003C010C3184F83E1094F84D0020F03C0103
:102370000C3184F84D1014E094F82F0020F03C014B
:102380000C3184F82F1094F83E0020F03C010C3101
:1023900084F83E1094F84D0020F03C010C3184F894
:1023A0004D1000212B200155022184F82C10002112
:1023B00084F82D1094F82E1065F3020184F82E1085
:1023C00094F82E0020F0380184F82E10E08D20F4CF
:1023D00070718031E185608E810A890224316186C5
:1023E0004FF45C72B4F8331062F38C01A4F833102C
:1023F0005522A18E62F34F11A1864FF48262B4F888
:10240000371062F38C01A4F83710B922218F62F3E0
:102410004F112187002184F83A10022184F83B10E3
:10242000012184F83C1094F83D1065F3020184F812
:102430003D1094F83D0020F03801103184F83D1033
:10244000B4F83D0020F470718031A4F83D100022F2
:10245000E18F62F38E11E187B4F83F1062F3CF1180
:10246000A4F83F10B4F84100810A8902491DA4F87C
:1024700041104FF48262B4F8421062F38C01A4F868
:102480004210B922B4F8431062F34F11A4F843107C
:10249000B4F84500810A89021E31A4F845100021D4
:1024A00084F84910022184F84A1084F84B1094F8FB
:1024B0004C1065F3020184F84C1094F84C0020F0A5
:1024C000380184F84C10B4F84C0020F4707180315D
:1024D000A4F84C10B4F85000810A89022431A4F801
:1024E00050104FF48262B4F8511062F38C01A4F8DA
:1024F0005110B922B4F8521062F34F11A4F85210DF
:1025000040F27A32B4F8551062F38C01A4F85510F9
:10251000B922B4F8561062F34F11A4F856100521F1
:1025200004F11E0008F00AFAB4F81F0000F10901D6
:1025300004F11E0008F0EAF95A2204F11E010748CE
:1025400003F0FCFF70BD0000E6000020D311002066
:10255000E0000020D8000020E1000020440A002014
:1025600070B504460E461546A520A077512104F10A
:102570001E00A4F81F10AB480078AA490978491C2E
:10258000A84A11702121085540F2013104F11E00C2
:10259000A4F8231040F20311A4F82510A2480178F2
:1025A000A4F82710017801F58071A4F82910002102
:1025B0002B200155032184F82C10002184F82D10C4
:1025C00094F82E1065F3020184F82E1094F82E0072
:1025D00020F03801083184F82E1094F82F0020F0F4
:1025E0003C01203184F82F10E08D20F47071C0314F
:1025F000E185608E810A8902491D618640F20E6282
:10260000B4F8331062F38C01A4F833104FF45C7209
:10261000A18E62F34F11A18640F23A72B4F83710DE
:1026200062F38C01A4F837104FF44372218F62F3E8
:102630004F1121877D48007801287DD194F83E0014
:1026400020F03C01083184F83E1094F84D0020F051
:102650003C01083184F84D1094F85C0020F03C01F6
:10266000083184F85C10002184F83A10032184F8C2
:102670003B10012184F83C1094F83D1065F30201F1
:1026800084F83D1094F83D0020F0380184F83D10A6
:10269000B4F83D0020F47071C031A4F83D10B4F8D6
:1026A0004100810A89021431A4F8411040F25962B4
:1026B000B4F8421062F38C01A4F842104FF4437254
:1026C000B4F8431062F34F11A4F8431040F259627A
:1026D000B4F8461062F38C01A4F846104FF4397236
:1026E000B4F8471062F34F11A4F84710002184F8A2
:1026F0004910032184F84A10022184F84B1094F801
:102700004C1065F3020184F84C1094F84C0020F052
:10271000380184F84C10B4F84C0020F47071C031CA
:10272000A4F84C10B4F85000810A89021431A4F8BE
:10273000501040F2EF6200E05FE0B4F8511062F335
:102740008C01A4F851104FF44372B4F8521062F3A4
:102750004F11A4F8521040F2EF62B4F8551062F332
:102760008C01A4F855104FF43972B4F8561062F386
:102770004F11A4F85610002184F85810032184F852
:10278000591084F85A1094F85B1065F3020184F82C
:102790005B1094F85B0020F0380184F85B10B4F80B
:1027A0005B0020F47071C031A4F85B10B4F85F00D6
:1027B000810A89020A31A4F85F1040F20E62B4F86F
:1027C000601062F38C01A4F860104FF43972B4F811
:1027D000611062F34F11A4F8611040F23A72B4F83C
:1027E000641062F38C01A4F864104FF43972B4F8E9
:1027F000651062F34F11A4F86510052104F11E0065
:1028000008F09CF8B4F81F0000F1090104F11E0063
:1028100008F07CF85A2204F11E01054803F08EFEF0
:1028200070BD0000E6000020D3110020DE00002073
:10283000440A002070B504460E461546A520A07730
:10284000512104F11E00A4F81F1095480078944906
:102850000978491C924A11702121085540F2013132
:1028600004F11E00A4F8231040F20311A4F825106F
:102870008C480178A4F82710017801F58071A4F83C
:1028800029108948007838B994F83E0020F03C01BE
:10289000091D84F83E1006E094F83E0020F03C014B
:1028A000203184F83E10002184F83A10042184F885
:1028B0003B10012184F83C1094F83D1065F30201AF
:1028C00084F83D1094F83D0020F0380184F83D1064
:1028D000B4F83D0020F4707101F58071A4F83D104A
:1028E000B4F84100810A89025031A4F8411040F245
:1028F0001772B4F8421062F38C01A4F8421040F24F
:102900003E32B4F8431062F34F11A4F8431040F282
:10291000C762B4F8461062F38C01A4F8461040F286
:102920003E32B4F8471062F34F11A4F847105F48E5
:10293000007838B994F82F0020F03C01091D84F884
:102940002F1006E094F82F0020F03C01203184F88D
:102950002F1000212B200155042184F82C10002178
:1029600084F82D1094F82E1065F3020184F82E10CF
:1029700094F82E0020F0380184F82E10E08D20F419
:10298000707101F58071E185608E810A8902503194
:10299000618640F23162B4F8331062F38C01A4F81E
:1029A000331040F23E32A18E62F34F11A18640F205
:1029B0008162B4F8371062F38C01A4F8371040F24A
:1029C0003E32218F62F34F11218739480078012868
:1029D00007D194F84D0020F03C01083184F84D10E7
:1029E00006E094F84D0020F03C01203184F84D10B1
:1029F000002184F84910042184F84A10022184F847
:102A00004B1094F84C1065F3020184F84C1094F8C4
:102A10004C0020F0380184F84C10B4F84C0020F43D
:102A2000707101F58071A4F84C10B4F85000810A5F
:102A300089023231A4F850104FF4C862B4F8511032
:102A400062F38C01A4F851104FF41672B4F85210CE
:102A500062F34F11A4F852104FF4E162B4F855102C
:102A600062F38C01A4F855104FF41672B4F85610A6
:102A700062F34F11A4F85610052104F11E0007F06F
:102A80005DFFB4F81F0000F1090104F11E0007F01A
:102A90003DFF5A2204F11E01064803F04FFD70BDB0
:102AA000E6000020D3110020DC000020DD00002023
:102AB000DB000020440A002070B58EB004460E46AC
:102AC0001546A52084F87800332104F17800A4F895
:102AD0007910FE480078FD490978491CFB4A1170BD
:102AE0007B21085540F2013104F17800A4F87D10F3
:102AF0004FF48871A4F87F10F5480178A4F881108C
:102B0000017801F58071A4F883100021852001551A
:102B1000052184F88610002184F8871094F8881025
:102B200065F3020184F8881094F8880020F03801D9
:102B3000383184F88810B4F8880020F4707101F5F9
:102B4000A071A4F8881094F8890020F03C0110319D
:102B500084F889101422B4F8891062F38E11A4F855
:102B60008910B4F88C00810A8902C91CA4F88C1061
:102B70003222B4F88D1062F38C01A4F88D104FF45A
:102B80005C72B4F88E1062F34F11A4F88E10D1A2CB
:102B900007CA0BAB07C32D2104F19400FEF7FCF824
:102BA0000B99C4F894100C99C4F898109DF834103F
:102BB00084F89C100922B4F88A1062F3CF11A4F8AB
:102BC0008A10052104F1780007F0B8FEB4F8790006
:102BD00000F1090104F1780007F098FE3C2204F1AD
:102BE0007801BF4803F0AAFC232008F071FFBD481C
:102BF0000078F0B9BCA103C9CDE9030194F88900BC
:102C000020F03C01083184F889100522B4F88A10BC
:102C100062F3CF11A4F88A102D2104F19400FEF77D
:102C2000BBF898200399C4F894109DF81010015532
:102C3000D1E0AC48007801281ED1ADA00068049016
:102C400094F8890020F03C01083184F889100322AF
:102C5000B4F88A1062F3CF11A4F88A102D2104F180
:102C60009400FEF799F89620BDF81010A4F894107F
:102C70009DF812100155AEE09A48007802281ED146
:102C80009CA00068049094F8890020F03C01083171
:102C900084F889100322B4F88A1062F3CF11A4F8E3
:102CA0008A102D2104F19400FEF776F89620BDF8E5
:102CB0001010A4F894109DF8121001558BE089486B
:102CC0000078032821D18CA207CA02AB07C394F86D
:102CD000890020F03C01083184F889100922B4F8F9
:102CE0008A1062F3CF11A4F88A102D2104F1940008
:102CF000FEF752F80299C4F894100399C4F898109A
:102D00009DF8101084F89C1065E07648007804283F
:102D10001DD17CA103C9CDE9030194F8890020F0FD
:102D20003C01083184F889100822B4F88A1062F353
:102D3000CF11A4F88A102D2104F19400FEF72CF88D
:102D40000399C4F894100499C4F8981043E06548B6
:102D5000007805281ED16DA103C9CDE9030194F8BF
:102D6000890020F03C01083184F889100522B4F86C
:102D70008A1062F3CF11A4F88A102D2104F1940077
:102D8000FEF70AF898200399C4F894109DF81010E3
:102D9000015520E05FA103C9CDE9030194F8890042
:102DA00020F03C010C3184F889100622B4F88A1016
:102DB00062F3CF11A4F88A102D2104F19400FDF7DD
:102DC000EBFF04F178000399C4F89410BDF81010DB
:102DD000A4F8981000BF002185200155052184F832
:102DE0008610012184F8871094F8881065F3020199
:102DF00084F8881094F8880020F03801383184F87D
:102E00008810B4F8880020F4707101F5A071A4F85E
:102E100088101422B4F8891062F38E11A4F8891076
:102E2000B4F88C00810A8902C91CA4F88C103222E3
:102E3000B4F88D1062F38C01A4F88D1040F23E328C
:102E4000B4F88E1062F34F11A4F88E10052104F12E
:102E5000780007F073FDB4F8790000F1090104F17E
:102E6000780007F053FD3C2204F178011C4803F080
:102E700065FB232008F02CFE00218520015505214B
:102E800084F88610022184F8871094F8881065F37E
:102E9000020184F8881094F8880020F03801383155
:102EA00084F88810B4F8880020F4707101F5A071DE
:102EB000A4F8881094F8890020F03C01103184F8BF
:102EC00089101422B4F8891028E00000E6000020E0
:102ED000D31100204D6F76655F6D6F646500000053
:102EE000440A0020DA000020484F4D450000000051
:102EF000417500004167000045584348414E474531
:102F000000000000476F75446F6E670057414954D9
:102F1000000000004552524F5200000062F38E1133
:102F2000A4F88910B4F88C00810A8902C91CA4F89D
:102F30008C103222B4F88D1062F38C01A4F88D103D
:102F40004FF44372B4F88E1062F34F11A4F88E1050
:102F5000C0A207CA08AB07C32D2104F19400FDF7F6
:102F60001BFF0899C4F894100999C4F89810082216
:102F7000B4F88A1062F3CF11A4F88A10052104F185
:102F8000780007F0DBFCB4F8790000F1090104F1E6
:102F9000780007F0BBFC3C2204F17801B04803F054
:102FA000CDFA232008F094FDAE48007828BBAEA2ED
:102FB00007CA02AB07C394F8890020F03C0108312E
:102FC00084F889100B22B4F88A1062F3CF11A4F8A8
:102FD0008A102D2104F19400FDF7DEFE0299C4F859
:102FE00094100399C4F89810BDF81010A4F89C1020
:102FF0009DF8121084F89E1069E09A480078012824
:103000001FD19CA30FCBCDE90323CDE9010194F897
:10301000890020F03C01083184F889100D22B4F8B1
:103020008A1062F3CF11A4F88A102D2104F19400C4
:10303000FDF7B2FE0D2201A904F19400FDF793FE05
:1030400045E08848007802281FD18EA30FCBCDE938
:103050000323CDE9010194F8890020F03C010831F7
:1030600084F889100D22B4F88A1062F3CF11A4F805
:103070008A102D2104F19400FDF78EFE0D2201A986
:1030800004F19400FDF76FFE21E0AFF2781103C95F
:10309000CDE9030194F8890020F03C010C3184F85B
:1030A00089100622B4F88A1062F3CF11A4F88A10AE
:1030B0002D2104F19400FDF76FFE04F178000399CF
:1030C000C4F89410BDF81010A4F8981000BF0021A7
:1030D00085200155052184F88610032184F8871086
:1030E00094F8881065F3020184F8881094F8880039
:1030F00020F03801383184F88810B4F8880020F4C2
:10310000707101F5A071A4F888101422B4F8891028
:1031100062F38E11A4F88910B4F88C00810A890238
:10312000C91CA4F88C103222B4F88D1062F38C0103
:10313000A4F88D1040F2DA22B4F88E1062F34F1129
:10314000A4F88E10052104F1780007F0F7FBB4F81D
:10315000790000F1090104F1780007F0D7FB3C2267
:1031600004F178013E4803F0E9F9232008F0B0FCAF
:10317000002185200155052184F88610042184F85A
:10318000871094F8881065F3020184F8881094F889
:10319000880020F03801383184F88810B4F88800AD
:1031A00020F4707101F5A071A4F8881094F88900DA
:1031B00020F03C01103184F889101422B4F88910F1
:1031C00062F38E11A4F88910B4F88C00810A890288
:1031D000C91CA4F88C104FF4C862B4F88D1062F3C7
:1031E0008C01A4F88D104FF42A72B4F88E1062F39B
:1031F0004F11A4F88E1027A207CA05AB07C32D21D3
:1032000004F19400FDF7C8FD04F178000599C4F8B5
:1032100094100699C4F89810BDF81C10A4F89C10DE
:103220000A22B4F88A1062F3CF11A4F88A1005219B
:1032300007F084FBB4F8790000F1090104F178008B
:1032400007F064FB3C2204F17801054803F076F9AD
:103250000EB070BD41524D5F4D4F4445000000001F
:10326000440A0020D90000204E585F434F4E54526C
:103270004F4C00004F4E455F4B45595F4D4F444505
:103280000000000053454C465F434F4E54524F4C94
:103290000000000053756B65725F6D6F6465000020
:1032A00010B5012000F09EFF10BD10B5082000F001
:1032B00099FF10BD10B5102000F094FF10BD10B59F
:1032C000202000F08FFF10BDD2ED020A92ED021A0D
:1032D000B6EE000A00EEC10AD2ED030A92ED031A1F
:1032E00000EEC10AD0ED000A20EE200AD2ED010A5C
:1032F00092ED021A60EE810A92ED001AD2ED031AE5
:1033000041EE210A90ED011A00EE810AD2ED010A88
:1033100092ED031A60EE810A92ED001AD2ED021AC4
:1033200041EE610A90ED021A00EE810AF0EE000A09
:1033300020EE200A81ED000A92ED010AD2ED020A88
:1033400020EE200AD2ED000A92ED031A00EEC10A27
:10335000D0ED000A60EE200A92ED011AD2ED011ABA
:10336000B6EE000A01EE610AD2ED031A92ED032ACD
:10337000B0EE401A01EEC21AD0ED011AB0EE600AAA
:1033800001EE210AD2ED020A92ED031A60EE810AE3
:1033900092ED001AD2ED011A41EE210A90ED021AC7
:1033A00000EE810AF0EE000A20EE200A81ED010A0B
:1033B00092ED010AD2ED030A20EE200AD2ED000AB6
:1033C00092ED021A00EE810AD0ED000A20EE200AEA
:1033D000D2ED020A92ED031A60EE810A92ED001A14
:1033E000D2ED011A41EE610A90ED011A00EE810A58
:1033F00092ED011AD2ED011AF6EE000A41EE610AD1
:1034000092ED021AD2ED021A41EE610A90ED021A13
:1034100000EE810AF0EE000A20EE200A81ED020A99
:10342000704772B600BFFEE710B5024692F8203032
:10343000012B01D0022B06D11068406908431468A3
:103440006061002010BD506A40F48020506201206D
:10345000F8E70000F0B504460A46216894F82050C9
:10346000012D01D0022D7ED1424901F5007108687D
:1034700040F001000860086820F47C50086008688B
:10348000566A40EA06200860107D00F01F06012001
:1034900000FA06F3C8699843C861A1F50071D069C4
:1034A000C8B9D1F80C029843C1F80C02908880B2D8
:1034B000968940EA064601F51070576940F8376072
:1034C000108880B2168940EA064601F510705769E7
:1034D00000EBC7004660D069012819D1D1F80C0271
:1034E0001843C1F80C02908880B2168840EA06465C
:1034F00001F51070576940F83760908980B21689DD
:1035000040EA064601F51070576900EBC7004660B7
:10351000906928B9D1F804029843C1F8040204E084
:10352000D1F804021843C1F80402106928B9D1F88F
:1035300014029843C1F8140204E0D1F814021843AD
:10354000C1F81402106A012804D1D1F81C021843F2
:10355000C1F81C02D1F8000220F00100C1F80002FD
:103560000020F0BDFFE7606A40F480206062012027
:10357000F7E7000000640040704770B5044694F817
:103580002050012D01D0022D7DD151B92068C06895
:1035900000F0030080B9606A40F40010606201200E
:1035A00070BD2068006900F0030028B9606A40F42B
:1035B000001060620120F3E7206800F5D87000EB8E
:1035C0000110006800F004009060906840B9206825
:1035D00000F5D87000EB01100068400D106007E0A6
:1035E000206800F5D87000EB01100068C00850603A
:1035F000206800F5D87000EB0110006800F00200B0
:10360000D060206800F5D87000EB0110406800F031
:103610000F001061206800F5D87000EB01104068C1
:1036200000F47F40000A9061206800F5D87000EB3C
:1036300001104068000C5061206800F5D87000EB64
:10364000011080681870206800F5D87000EB011038
:10365000806800F47F40000A5870206800F5D87038
:1036600000EB0110806800F47F00000C9870206867
:1036700000F5D87000EB01108068000ED87020684B
:1036800000F5D87000E02FE000EB0110C068187161
:10369000206800F5D87000EB0110C06800F47F408E
:1036A000000A5871206800F5D87000EB0110C0685E
:1036B00000F47F00000C9871206800F5D87000EBD2
:1036C0000110C068000ED87131B92068C06840F0A0
:1036D00020002668F06005E02068006940F02000C6
:1036E0002668306100205BE7606A40F480206062F9
:1036F000012055E72DE9F05F044600252068466962
:103700002068D0F80490206887682068D0F80CA062
:103710002068D0F810B02068D0F8188006F00100BA
:10372000002855D007F00100C0B101202168886051
:1037300007F0020018B1204600F0CFFA0EE007F0C3
:10374000040010B145F4006508E007F0080010B16E
:1037500045F4805502E0204600F0BEFA07F4807080
:10376000C8B14FF480702168886007F4007018B108
:10377000204600F0B4FA0EE007F4806010B145F482
:10378000005508E007F4006010B145F4804502E000
:10379000204600F0A3FA07F48030C8B14FF480301F
:1037A0002168886007F4003018B1204600F099FACB
:1037B0000EE007F4802010B145F4004508E007F45E
:1037C000002010B145F4803502E0204600F088FA70
:1037D00006F0080038B10AF0100020B145F4007579
:1037E00010202168C86006F0040040B10AF008000B
:1037F00028B108202168C860204600F00DFA06F0C4
:10380000020038B12068C06800F0030010B1204603
:1038100000F004FA06F0400038B10BF0100020B1BF
:1038200045F4806510202168086106F0200040B151
:103830000BF0080028B1082021680861204600F03C
:1038400019FA06F0100038B12068006900F0030092
:1038500010B1204600F00FFA06F4003040B109F034
:10386000100028B1102021684860204600F004FABA
:1038700006F4803040B109F0080028B10820216822
:103880004860204600F02EFA06F4004088B309F0A4
:10389000040078B306F4807020B108F0010008B18C
:1038A00045F0010506F4007020B108F0020008B1EF
:1038B00045F0020506F4806020B108F0040008B16C
:1038C00045F0040506F40060A0B108F0700088B16E
:1038D00008F07000402817D006DC10280BD02028F4
:1038E0000CD0302819D10CE0502810D0602814D109
:1038F00010E01DE019E045F008050FE045F0100567
:103900000CE045F0200509E045F0400506E045F0F3
:10391000800503E045F4807500E000BF00BF20682B
:10392000806920F070002168886104202168486067
:103930002DB1606A284360622046FFF71DFEBDE896
:10394000F09F70B504460CB9012070BD94F82000BA
:1039500010B9204600F0B0F82068006840F001007F
:103960002168086000F04CFD05460DE000F048FDC0
:10397000401B0A2808D9606A40F4003060620520C4
:1039800084F820000120E0E72068406800F0010092
:103990000028EBD02068006820F002002168086051
:1039A00000F02EFD05460DE000F02AFD401B0A2820
:1039B00008D9606A40F400306062052084F8200075
:1039C0000120C2E72068406800F002000028EBD127
:1039D000207E012806D12068006840F08000216820
:1039E000086005E02068006820F080002168086019
:1039F000607E012806D12068006840F04000216800
:103A0000086005E02068006820F040002168086038
:103A1000A07E012806D12068006840F020002168BF
:103A2000086005E02068006820F020002168086038
:103A3000E07E012806D12068006820F0100021688F
:103A4000086005E02068006840F010002168086008
:103A5000207F012806D12068006840F00800216816
:103A6000086005E02068006820F008002168086010
:103A7000607F012806D12068006840F004002168BA
:103A8000086005E02068006820F0040021680860F4
:103A9000D4E9020108432169084361690843616868
:103AA000491E08432168C86100206062012084F833
:103AB0002000002049E7000010B586B0044614211C
:103AC00001A8FDF769F94E492068884241D14D4867
:103AD0000068401C4B4908600846006801280FD167
:103AE00000BF002000904848006840F00070464940
:103AF00008600846006800F00070009000BF00BF3A
:103B000000BF0020009040481038006840F00800D6
:103B10003D49103908600846006800F00800009030
:103B200000BF00BF032001900220029000200390FC
:103B3000032004900920059001A9344800F060FB9F
:103B400000220521142000F06BFE142000F058FE26
:103B500054E02F492068884250D100BF00200090D7
:103B60002948006840F080602749086008460068DE
:103B700000F08060009000BF00BF22480068401C39
:103B8000204908600846006801280FD100BF0020C6
:103B900000901D48006840F000701B49086008460E
:103BA000006800F00070009000BF00BF00BF002060
:103BB000009015481038006840F002001249103992
:103BC00008600846006800F00200009000BF00BFD7
:103BD00060200190022002900020039003200490B6
:103BE0000920059001A90B4800F00AFB00220521DD
:103BF000402000F015FE402000F002FE06B010BD8F
:103C0000006400401800002040380240000C0240D0
:103C100000680040000402407047000010B58AB000
:103C2000044601AB03AA00212046FFF7A6FC0F487B
:103C3000844218D10398022804D101A90C4807F046
:103C4000FFFB10E00398042805D101A908481030B3
:103C500007F040FC07E00398062804D101A90448B6
:103C6000203007F081FC0AB010BD0000680700207A
:103C7000FC0E002070477047704770B5044694F8FA
:103C80002000012822D1022084F82000206800684A
:103C900020F001002168086000F0B2FB05460DE04D
:103CA00000F0AEFB401B0A2808D9606A40F40030DF
:103CB0006062052084F82000012070BD2068406803
:103CC00000F001000028EBD16062F6E7606A40F482
:103CD000002060620120F0E770477047704770472E
:103CE00070477047704770B50446A56D00F088FBBB
:103CF000064694F83500022808D08020606500BF91
:103D0000002084F8340000BF012070BD20680068E6
:103D100020F01600216808602068406920F08000CB
:103D200021684861206C08B9A06C28B1206800683F
:103D300020F00800216808602068006820F0010079
:103D40002168086010E000F05BFB801B05280BD9A0
:103D500020206065032084F8350000BF002084F82F
:103D6000340000BF0320D0E72068006800F00100A5
:103D70000028E8D194F85C103F208840A86001201A
:103D800084F8350000BF002084F8340000BF00BF75
:103D9000BBE7014691F83500022803D08020486532
:103DA00001207047052081F835000868006820F080
:103DB00001000A6810600020F3E70000F8B504462F
:103DC000002000908C4800684FF41651B0FBF1F7CA
:103DD000A56D2E6894F85C1008208840304098B19A
:103DE0002068006800F0040070B12068006820F0CE
:103DF00004002168086094F85C1008208840A860DE
:103E0000606D40F00100606594F85C10012088400E
:103E1000304068B12068406900F0800040B194F8FB
:103E20005C1001208840A860606D40F00200606571
:103E300094F85C1004208840304068B12068006825
:103E400000F0020040B194F85C1004208840A860A3
:103E5000606D40F00400606594F85C1010208840AC
:103E6000304078B32068006800F0080050B394F840
:103E70005C1010208840A8602068006800F4802052
:103E800080B12068006800F4002028B9206CC8B117
:103E90002046216C884715E0A06C98B12046A16CA3
:103EA00088470FE02068006800F4807028B9206817
:103EB000006820F0080021680860206C10B12046DE
:103EC000216C884794F85C102020884030400028FE
:103ED00065D02068006800F0100000285FD094F8DA
:103EE0005C1020208840A86094F83500052828D16F
:103EF0002068006820F0160021680860206840698A
:103F000020F0800021684861206C08B9A06C28B1BD
:103F10002068006820F008002168086094F85C10B0
:103F20003F208840A860012084F8350000BF0020B1
:103F300084F8340000BF206D10B12046216D884701
:103F4000F8BD2068006800F4802080B12068006817
:103F500000F4002028B9606C10B12046616C8847DD
:103F60001DE0E06BD8B12046E16B884717E0206880
:103F7000006800F4807068B92068006820F01000C4
:103F800021680860012084F8350000BF002084F813
:103F9000340000BFE06B10B12046E16B8847606DD4
:103FA00038B3606D00F00100F0B1052084F83500F1
:103FB0002068006820F001002168086000BF0098B8
:103FC000401C0090B84200D905E02068006800F06D
:103FD00001000028F3D100BF012084F8350000BFA4
:103FE000002084F8340000BFE06C10B12046E16C82
:103FF000884700BFA4E70000280000202DE9F04119
:104000000446002500F0FCF9074614B90120BDE87C
:10401000F081606A00B100BF022084F8350000BF63
:10402000002084F8340000BF2068006820F0010000
:10403000216808600AE000F0E3F9C01B052805D9F3
:1040400020206065032084F83500E0E720680068E0
:1040500000F001000028EED12068056821480540E5
:10406000D4E901010843E168084321690843616913
:104070000843A1690843E1690843216A08430543ED
:10408000606A042803D1D4E90B0108430543206882
:1040900005602068456925F00705606A0543606A88
:1040A00004280DD1A06A0543E06A48B12046FDF717
:1040B000A9FC28B140206065012084F83500A6E7FE
:1040C000206845612046FDF783FC064694F85C10A5
:1040D0003F208840B06000206065012084F83500F2
:1040E000002094E73F8010F02DE9F04104460D4692
:1040F00016461F464FF0000800BF94F83400012810
:1041000002D10220BDE8F081012084F8340000BF14
:1041100094F83500012811D1022084F835000020E0
:1041200060653B46324629462046FDF7C0FC2068C4
:10413000006840F001002168086006E000BF002030
:1041400084F8340000BF4FF002084046DAE72DE95A
:10415000F04704460D4616461F464FF00008D4F8B7
:10416000589000BF94F83400012802D10220BDE825
:10417000F087012084F8340000BF94F8350001284E
:1041800025D1022084F83500002060653B46324688
:1041900029462046FDF78BFC94F85C103F208840B0
:1041A000C9F808002068006840F01600216808601F
:1041B000206C28B12068006840F008002168086081
:1041C0002068006840F001002168086006E000BF38
:1041D000002084F8340000BF4FF002084046C6E7D4
:1041E0007047000010B5044604480068204020B124
:1041F000024804602046FFF7F3FF10BD143C014065
:10420000F8B502460B460025002400200021D6E028
:10421000012606FA01F51E6806EA0504AC4274D1CF
:104220001E7906F00306012E04D01E7906F003065F
:10423000022E13D190684F000326BE40B0434F00BA
:10424000DE68BE4030439060506801268E40B04327
:104250001E79C6F300168E40304350601E7906F07A
:104260000306032E09D0D0684F000326BE40B0439A
:104270004F009E68BE403043D0601E7906F00306B2
:10428000022E13D1CF0802F1200656F827004E0760
:10429000F70E0F26BE40B0434F07FF0E1E69BE400B
:1042A0003043CF0802F1200646F8270010684F007F
:1042B0000326BE40B0431E7906F003064F00BE4001
:1042C000304310605E6806F44036002E76D000BFA2
:1042D000002600963C4E366846F480463A4F3E60D3
:1042E0003E46366806F48046009600BF00BF374E53
:1042F0008F0856F827008E07370F0F26BE40B043B1
:10430000334EB24202D1002624E057E0314EB24291
:1043100001D101261EE0304EB24201D1022619E041
:104320002E4EB24201D1032614E02D4EB24201D1ED
:1043300004260FE02B4EB24201D105260AE02A4E98
:10434000B24201D1062605E0284EB24201D107262D
:1043500000E008268F073F0FBE4030431B4E8F08FA
:1043600046F82700224E3068A0435E6806F48016A7
:1043700006B120431E4E3060361D3068A0435E6893
:1043800006F4001606B12043194E361D3060184E53
:10439000361F3068A0435E6806F4003606B120433D
:1043A000134E361F3060361F3068A0435E6806F437
:1043B000803606B120430E4E083E3060491C10295D
:1043C000FFF426AFF8BD0000443802400838014031
:1043D000000002400004024000080240000C0240BD
:1043E000001002400014024000180240001C02406D
:1043F000083C01400AB1816101E00B048361704710
:1044000001480068704700001C00002070B5044699
:104410000CB9012070BD94F83D0028B9002084F843
:104420003C00204600F0DAF8242084F83D002068A3
:10443000006820F00100216808602068006840F4EE
:104440000040216808602068006820F4004021686E
:10445000086000F021FB05465C496068884206D888
:104460005B48854201D2012007E0002005E0594861
:10447000854201D2012000E00020012800D1C9E7D7
:104480005548B5FBF0F62068406820F03F00304307
:10449000216848604D496068884201D8701C07E077
:1044A0004FF4967070434FF47A71B0FBF1F0401CFA
:1044B0002168096A21F03F010843216808624349E5
:1044C0006068884214D8681E61684900B0FBF1F04A
:1044D000401CC0F30B00042801D204203DE0681EFC
:1044E00061684900B0FBF1F0401CC0F30B0034E000
:1044F000A06838B9681E616801EB4101B0FBF1F0BA
:10450000401C0AE0681E616801EBC10202EB011168
:10451000B0FBF1F0401C40F48040C0F30B0008B940
:1045200001201AE0A06848B9681E616801EB4101EA
:10453000B0FBF1F0401CC0F30B000CE0681E61689A
:1045400001EBC10202EB0111B0FBF1F0401CC0F322
:104550000B0040F4804040F400402168C9694CF6EB
:10456000FF72914308432168C861D4E907010843F9
:104570002168096821F0C001084321680860D4E976
:10458000031008432168896848F2FF3291430843C9
:1045900021688860D4E9050108432168C96821F0D1
:1045A000FF0108432168C8602068006840F00100EE
:1045B0002168086000202064202084F83D0000204D
:1045C000206384F83E0000BF24E70000A0860100BD
:1045D00080841E0000093D0040420F0010B586B0E7
:1045E0000446142101A8FCF7D7FB2A492068884219
:1045F0004DD100BF002000902748006840F0040023
:10460000254908600846006800F00400009000BFDB
:1046100000BF00BF002000900846006840F0010085
:1046200008600846006800F00100009000BF00BF6D
:10463000481501901220029000200390032004905E
:104640000420059001A91548FFF7DAFD4FF48070AA
:104650000190122002900020039003200490042077
:10466000059001A90E48FFF7CBFD00BF0020009088
:1046700009481030006840F4000007491031086014
:104680000846006800F40000009000BF00BF06B0BC
:1046900010BD0000005C00403038024000080240BD
:1046A00000000240034800680349097808440149B2
:1046B000086070471C0000202400002010B50D4841
:1046C000006840F400700B4908600846006840F438
:1046D000806008600846006840F48070086003202D
:1046E00000F0DCF80F2000F007F800F05FF8002081
:1046F00010BD0000003C02402DE9F04188B00446A6
:104700000027B84600BF002001902348006840F011
:104710002000214908600846006800F02000019050
:1047200000BF00BF02A903A800F08EF9069F1FB9C1
:1047300000F0B2F9054602E000F0AEF94500174876
:10474000B5FBF0F0A0F1010815481649086040F2E9
:10475000E7311448C160C0F8048000210161816024
:10476000816100F01BFF064696B90E4800F0F8FF85
:1047700006466EB9372000F043F8102C07D200220D
:104780002146372000F04CF80748046000E001267D
:10479000304608B0BDE8F0814038024040420F008A
:1047A00000140040F00C00202000002008B500BFDD
:1047B000002000901148006840F480400F490860D4
:1047C0000846006800F48040009000BF00BF00BFB2
:1047D00000200090081F006840F08050091F08600A
:1047E0000846006800F08050009000BF00BF002223
:1047F0000F21901E00F014F808BD0000443802405C
:1048000001460846002809DB00F01F0301229A40F8
:1048100043099B0003F1E023C3F8002100BF704768
:104820002DE9F05F80460D461646002705F0B8FDDD
:10483000074639462A46334601F00700C0F1070A09
:10484000BAF1040F02D94FF0040A01E0C0F1070ADF
:10485000D14600F1040ABAF1070F02D24FF0000A64
:1048600001E0A0F1030AD4464FF0010A0AFA09FA5E
:10487000AAF1010A0AEA020A0AFA0CFA4FF0010B3D
:104880000BFA0CFBABF1010B0BEA030B4AEA0B042E
:104890002146404605F08CFDBDE8F09F00BF00F0CA
:1048A0000702064B19684FF6FF031940044B0B43F0
:1048B00043EA0221014B196000BF70470CED00E094
:1048C0000000FA0570B504460D460CB9012070BD14
:1048D0005848006800F00700A84209D255490D70F9
:1048E0000846006800F00700A84201D00120EEE76A
:1048F000207800F0020002281DD1207800F004008A
:10490000042805D14C48006840F4E0504A4908604A
:10491000207800F00800082805D14748006840F4D6
:104920006040454908604448006820F0F000A168F4
:10493000084341490860207800F00100A8B360688E
:10494000012807D13C4808380068C0F34040B8B996
:104950000120BCE76068022802D06068032807D104
:10496000354808380068C0F3406048B90120AEE718
:10497000314808380068C0F3400008B90120A6E7B4
:104980002D48006820F00300616808432A49086048
:10499000FFF736FD064609E0FFF732FD801B41F2C6
:1049A0008831884202D9032091E707E02248006855
:1049B00000F00C006168B0EB810FEDD11D4800687C
:1049C00000F00700A84209D91A490D70084600688E
:1049D00000F00700A84201D0012078E7207800F01D
:1049E0000400042807D11448006820F4E050E1686E
:1049F000084311490860207800F00800082808D111
:104A00000D48006820F46040216940EAC1000A496D
:104A1000086000F061F808490968C1F30311074A0A
:104A2000515CC8400649086006480068FFF764FE0C
:104A300000204CE7003C02400838024008D3000840
:104A400028000020200000200F2202600D4A12687A
:104A500002F0030242600B4A126802F0F002826028
:104A6000084A126802F4E052C260064A126802F470
:104A70006042D2080261044A126802F007020A602A
:104A80007047000008380240003C024001480068BE
:104A9000704700002800002000B5FFF7F7FF044929
:104AA0000968C1F38221034A515CC84000BD00007F
:104AB0000838024018D3000800B5FFF7E7FF0449A3
:104AC0000968C1F34231034A515CC84000BD00008F
:104AD0000838024018D300082DE9F04700240025CB
:104AE0000026A1462548006800F00C0020B10428EB
:104AF00005D008283AD105E0DFF8849039E0DFF8E6
:104B0000849036E01D48001F006800F03F041B48F9
:104B1000001F006800F4800078B11A481749091F87
:104B20000968C1F38811A0FB0170014622460023E9
:104B30003846FCF7E7F805460EE011480F49091F13
:104B40000968C1F38811A0FB0170014622460023C9
:104B50003846FCF7D7F805460848001F0068C0F340
:104B60000140401C4600B5FBF6F902E0DFF810906A
:104B700000BF00BF4846BDE8F0870000083802408B
:104B80000024F40040787D01F8B504460CB90120FA
:104B9000F8BD207800F00100002874D0F9480068C2
:104BA00000F00C0004280DD0F648006800F00C005E
:104BB000082813D1F348001F006800F48000B0F506
:104BC000800F0BD1EF4808380068C0F34040002840
:104BD00059D06068002856D10120D9E700BF60682D
:104BE000B0F5803F08D1E7480838006840F48030CD
:104BF000E449083908601EE06068B0F5A02F0DD1C7
:104C0000E0480838006840F48020DE490839086030
:104C10000846006840F4803008600CE0D948083845
:104C2000006820F48030D7490839086008460068D9
:104C300020F48020086000BF606890B1FFF7E0FBBF
:104C4000054606E0FFF7DCFB401B642801D9032082
:104C50009EE7CC4808380068C0F340400028F1D0F7
:104C600011E0FFF7CDFB054606E0FFF7C9FB401B4F
:104C7000642801D903208BE7C24808380068C0F3D4
:104C800040400028F1D1207800F0020002285FD1D6
:104C9000BC48006800F00C0058B1BA48006800F049
:104CA0000C0008281CD1B748001F006800F48000E1
:104CB000B0B9B44808380068C0F3400020B1E068DB
:104CC000012801D0012063E7AE480838006820F0D1
:104CD000F800216940EAC100AA490839086037E0B4
:104CE000E06800B30120A8490860FFF789FB05468A
:104CF00006E0FFF785FB401B022801D9032047E7A8
:104D0000A04808380068C0F340000028F1D09D4852
:104D10000838006820F0F800216940EAC10099498C
:104D20000839086014E0002097490860FFF768FB25
:104D3000054606E0FFF764FB401B022801D903206B
:104D400026E7904808380068C0F340000028F1D1F9
:104D5000207800F0080008282CD16069A8B1012053
:104D60008A490860FFF74CFB054606E0FFF748FB61
:104D7000401B022801D903200AE782486C300068F2
:104D8000C0F340000028F1D014E000207F49086003
:104D9000FFF736FB054606E0FFF732FB401B022813
:104DA00001D90320F4E677486C300068C0F3400076
:104DB0000028F1D1207800F00400042870D10027E9
:104DC00070483830006800F0805090B900BF002073
:104DD00000906C483830006840F0805069493831A4
:104DE00008600846006800F08050009000BF00BFD7
:104DF00001276748006800F48070B0B96448006813
:104E000040F4807062490860FFF7FAFA054606E050
:104E1000FFF7F6FA401B022801D90320B8E65C48E8
:104E2000006800F480700028F2D000BFA06801285C
:104E300008D154486830006840F001005149683199
:104E400008601DE0A06805280DD14E486830006854
:104E500040F004004B49683108600846006840F0A3
:104E6000010008600CE047486830006820F001004D
:104E70004449683108600846006820F00400086072
:104E800000BFA068A8B1FFF7BBFA054609E0FFF72D
:104E9000B7FA401B41F28831884202D9032077E6F5
:104EA00026E0384868300068C0F340000028EED0A3
:104EB00013E0FFF7A5FA054608E0FFF7A1FA401B4B
:104EC00041F28831884201D9032061E62D486830DB
:104ED0000068C0F340000028EFD1012F07D1294816
:104EE0003830006820F0805026493831086000BF13
:104EF000A069002845D02348006800F00C0008286D
:104F00005DD0A069022845D100201F490866FFF73F
:104F100077FA054606E0FFF773FA401B022801D92D
:104F2000032035E6174808380068C0F340600028C1
:104F3000F1D1D4E907010843616A40EA81110122F5
:104F4000A06AC2EB500041EA00412C20005D41EA1A
:104F500000600C49091F086001200B490866FFF733
:104F60004FFA054606E0FFF74BFA401B022801D92D
:104F700003200DE6034808380068C0F340600028AD
:104F8000F1D049E00838024000004742800E474215
:104F900000700040002021490866FFF731FA0546FD
:104FA00006E0FFF72DFA401B022801D90320EFE5A8
:104FB0001B480068C0F340600028F2D12CE0A069D3
:104FC000012800D1E4E51648001D0668A069012803
:104FD00020D006F48001E06981421BD106F03F0138
:104FE000206A814216D147F6C0703040616AB0EB4A
:104FF000811F0FD106F440310122A06AC2EB50009C
:10500000B1EB004F06D106F070612C20005DB1EBD2
:10501000006F01D00120BBE50020B9E50000474248
:105020000038024010B504460CB9012010BD606A7A
:1050300038B96068B0F5827F00D105E00021E161F8
:1050400002E00021216161610021A16294F8510018
:1050500028B9002084F85000204600F047F80220CC
:1050600084F851002068006820F040002168086042
:10507000A08800F48270218901F404410843A189C9
:1050800001F400610843217C01F002010843217D05
:1050900001F001010843218B01F400710843217FD5
:1050A00001F0380108432021095D01F08001084327
:1050B000218D01F400510843216808600421A06992
:1050C00001EA104094F8241001F01001084321680F
:1050D00048602068C06920F400602168C861002031
:1050E0006065012084F8510000209FE710B586B06C
:1050F0000446142101A8FBF74FFE4B492068884263
:105100007ED100BF002000904848006840F48050E5
:10511000464908600846006800F48050009000BFCF
:1051200000BF00BF0020009040481438006840F0E5
:1051300002003E49143908600846006800F0020089
:10514000009000BF00BF00BF00200090084600682C
:1051500040F0010008600846006800F0010000907F
:1051600000BF00BF18200190022002900020039091
:10517000032004900520059001A92D48FFF740F871
:1051800080200190022002900020039003200490D0
:105190000520059001A92748FFF732F8264827493E
:1051A00008604FF0C0604860002124488160C16001
:1051B0004FF480610161002141618161C1614FF45F
:1051C0004031016200214162FEF718FF08B1FEF78D
:1051D00028F900BF1948E064846300BF16481830FE
:1051E000174908604FF0C060486040211448816052
:1051F0000021C1604FF4806101610021416100E044
:1052000010E08161C1614FF400310162002141620F
:10521000FEF7F4FE08B1FEF704F900BF0848A064E9
:10522000846300BF06B010BD003001404438024026
:105230000004024000000240406402406408002074
:10524000C40800202DE9FF5F0446884691461D46AC
:105250000E9E012002900020019000BF94F85000A3
:10526000012803D1022004B0BDE8F09F012084F89A
:10527000500000BFFFF7C4F8074694F851B06068CB
:105280000390AA46BBF1010F0BD00398B0F5827FC3
:1052900004D1A06810B9BBF1040F02D00220019024
:1052A000DBE0B8F1000F03D0B9F1000F00D015B961
:1052B00001200190D1E094F85100042802D005208B
:1052C00084F8510000206065C4F83890E587A58710
:1052D000C4F83080E586A586206460642068006894
:1052E00000F04000402805D02068006840F04000F1
:1052F00021680860E068B0F5006F4AD1606810B1BD
:10530000BAF1010F09D1206B00882168C860206BB9
:10531000801C2063E08E401EE08633E020688068B9
:1053200000F00200022810D1E08E70B1029801282E
:105330000BD1206B00882168C860206B801C206323
:10534000E08E401EE086002002902068806800F019
:10535000010068B1E08F58B12068C068A16B088077
:10536000A06B801CA063E08F401EE08701200290AC
:10537000FFF746F8C01BB04204D3701C10B10320E5
:1053800001906AE0E08E0028C8D1E08F0028C5D1E6
:105390004AE0606810B1BAF1010F09D1206B0078C2
:1053A00021680873206B401C2063E08E401EE0865D
:1053B00034E02068806800F00200022810D1E08EFE
:1053C00070B1029801280BD1206B00782168087316
:1053D000206B401C2063E08E401EE086002002907F
:1053E0002068806800F0010068B1E08F58B1206843
:1053F000C068A16B0870A06B401CA063E08F401ECA
:10540000E08701200290FEF7FBFFC01BB04201D3F2
:10541000701C00B916B9032001901EE0E08E002830
:10542000C7D1E08F0028C4D13A463146204604F067
:1054300069F820B101200190202060650DE0A0688E
:1054400050B900BF002000902068C068009020681C
:105450008068009000BF00BF00BF012084F85100A9
:1054600000BF002084F8500000BF0198FBE67047A1
:10547000704710B50346002200BF93F83C00012896
:1054800001D1022010BD012083F83C0000BF22F0B2
:10549000FF00CC6840EA040222F440708C6840EAC5
:1054A000040222F480604C6840EA040222F40060A6
:1054B0000C6840EA040222F480500C6940EA0402BD
:1054C00022F400504C6940EA040222F48040CC6986
:1054D00040EA04021868426400BF002083F83C00E0
:1054E00000BF00BFCEE7000030B502460B4600BF4C
:1054F00092F83C00012801D1022030BD012082F841
:105500003C0000BF022082F83D001068446810682B
:10551000816824F070041868044310684460184DD2
:105520001068A8421BD01068B0F1804F17D0154DFD
:105530001068A84213D0144D1068A8420FD0134D24
:105540001068A8420BD0124D1068A84207D0114D28
:105550001068A84203D0104D1068A84205D121F070
:1055600080015868014310688160012082F83D0085
:1055700000BF002082F83C0000BF00BFBDE7000074
:10558000000001400004004000080040000C004002
:1055900000040140004001400018004010B50446DE
:1055A0000CB9012010BD94F83D0028B9002084F802
:1055B0003C00204600F026F8022084F83D00211D22
:1055C000206804F0C9F8012084F8460000BF84F880
:1055D0003E0001213F200155402001554120015549
:1055E00000BF00BF012084F8420043200155442041
:1055F00001554520015500BF012084F83D000020E1
:10560000D0E7000008B52A4A016891420FD100BFD7
:10561000002100912749096841F00201254A1160E3
:105620001146096801F00201009100BF3FE0224AE3
:10563000016891420FD100BF002100911D49096806
:1056400041F004011B4A11601146096801F0040190
:10565000009100BF2BE0194A0168914211D100BFAF
:10566000002100911349091D096841F00201114A06
:10567000121D11601146096801F00201009100BF7E
:1056800015E00F4A0168914211D100BF002100913D
:105690000849091D096841F40031064A121D1160CC
:1056A0001146096801F40031009100BF00BF08BD38
:1056B000000400404038024000080040000401405F
:1056C00000440140014691F83D00012801D001202D
:1056D0007047022081F83D001A4B086898421BD0A1
:1056E0000868B0F1804F17D0174B0868984213D064
:1056F000164B086898420FD0154B086898420BD09B
:10570000144B0868984207D0134B0868984203D09E
:10571000124B086898420CD10868806800F00702B4
:10572000062A0CD00868006840F001000B68186079
:1057300005E00868006840F001000B681860002070
:10574000C6E70000000001400004004000080040DF
:10575000000C0040000401400040014000180040DF
:10576000014691F83D00012801D001207047022038
:1057700081F83D000868C06840F001000B68D860FF
:105780001A4B086898421BD00868B0F1804F17D0B8
:10579000174B0868984213D0164B086898420FD0F0
:1057A000154B086898420BD0144B0868984207D0F4
:1057B000134B0868984203D0124B086898420CD1EA
:1057C0000868806800F00702062A0CD008680068A4
:1057D00040F001000B68186005E00868006840F0C0
:1057E00001000B6818600020C0E7000000000140C5
:1057F0000004004000080040000C0040000401408C
:1058000000400140001800402DE9F04104460D46DB
:10581000002700BF94F83C00012802D10220BDE817
:10582000F081012084F83C0000BF022084F83D0094
:105830002068866826F0770626F47F462068866012
:105840002868502833D00CDC202850D004DC0028F5
:105850004BD0102851D149E0302849D040284CD1B4
:1058600039E060282DD0702807D0B0F5805F03D0D4
:10587000B0F5005F41D10DE041E0D5E902136A685F
:10588000206803F0E6FF2068866846F07706206807
:10589000866034E0D5E902136A68206803F0D9FF16
:1058A0002068806840F480402168886027E0EA68CA
:1058B0006968206804F0BEF85021206803F0D4FF26
:1058C0001DE0EA686968206804F0C7F86021206874
:1058D00003F0CAFF13E0EA686968206804F0AAF8D8
:1058E0004021206803F0C0FF09E000BF00BF00BFF7
:1058F0002968206803F0B8FF01E0012700BF00BF5E
:10590000012084F83D0000BF002084F83C0000BF67
:10591000384684E7704710B5044620680069C0F334
:105920004000D8B12068C068C0F34000B0B16FF04B
:10593000020021680861012020772068806900F05A
:10594000030018B12046FFF7E5FF05E0204600F010
:1059500051F9204600F005FA002020772068006900
:10596000C0F38000D8B12068C068C0F38000B0B137
:105970006FF00400216808610220207720688069A8
:1059800000F4407018B12046FFF7C4FF05E0204640
:1059900000F030F9204600F0E4F90020207720687C
:1059A0000069C0F3C000D8B12068C068C0F3C0006F
:1059B000B0B16FF0080021680861042020772068EA
:1059C000C06900F0030018B12046FFF7A3FF05E00F
:1059D000204600F00FF9204600F0C3F900202077A0
:1059E00020680069C0F30010D8B12068C068C0F317
:1059F0000010B0B16FF01000216808610820207716
:105A00002068C06900F4407018B12046FFF782FF9B
:105A100005E0204600F0EEF8204600F0A2F9002054
:105A200020772068006900F0010058B12068C06844
:105A300000F0010030B16FF00100216808612046DC
:105A400000F016FA20680069C0F3C01058B1206851
:105A5000C068C0F3C01030B16FF0800021680861E9
:105A60002046FFF704FD20680069C0F3801058B19C
:105A70002068C068C0F3801030B16FF0400021682A
:105A80000861204600F000FA20680069C0F3401069
:105A900058B12068C068C0F3401030B16FF02000EA
:105AA000216808612046FFF7E3FC10BD10B586B001
:105AB0000446142101A8FBF76FF946492068884283
:105AC0001DD100BF002000904348006840F0040052
:105AD000414908600846006800F00400009000BFDB
