:020000040800F2
:1000000050C8002055030008A5570008E54C00081B
:1000100091540008790C0008CDB2000800000000DF
:100020000000000000000000000000009502000831
:10003000C113000800000000F1020008BF790008A9
:100040006F0300086F0300086F0300086F030008C8
:100050006F0300086F0300086F0300086F030008B8
:100060006F0300086F0300086F0300086F030008A8
:10007000151100086F030008251100086F03000820
:1000800035110008451100086F0300086F030008D0
:100090007D0C00086F0300086F0300086F03000861
:1000A0006F0300086F0300086F0300086F03000868
:1000B0006F0300086F0300086F0300086F03000858
:1000C0006F0300086F0300086F0300086F03000848
:1000D0006F0300086F0300085D8800086F030008C5
:1000E0006F0300086F0300086F0300086F03000828
:1000F0006F0300086F0300086F0300086F03000818
:100100006F0300086F0300086F0300086F03000807
:100110006F0300086F0300086F0300086F030008F7
:100120006F03000855110008651100086F030008EF
:100130006F0300086F0300086F0300086F030008D7
:100140008D0C00086F0300086F0300084D5A00086B
:100150006F030008751100088511000881890008E7
:100160006F0300086F0300086F0300086F030008A7
:100170006F0300086F0300086F0300080000000011
:100180006F0300086F0300086580000831820008D3
:100190006F0300086F0300086F0300086F03000877
:1001A00000000000000000006F03000800F002F8EB
:1001B00000F060F80AA090E8000C82448344AAF1A1
:1001C0000107DA4501D100F055F8AFF2090EBAE89F
:1001D0000F0013F0010F18BFFB1A43F0010318477B
:1001E000BC300100DC3001000A444FF0000C10F874
:1001F000013B13F0070408BF10F8014B1D1108BFA5
:1002000010F8015B641E05D010F8016B641E01F844
:10021000016BF9D113F0080F1EBF10F8014BAD1C94
:100220000C1B09D16D1E58BF01F801CBFAD505E0B2
:1002300014F8016B01F8016B6D1EF9D59142D6D30C
:10024000704700000023002400250026103A28BF34
:1002500078C1FBD8520728BF30C148BF0B60704738
:100260001FB511F01BFD9DE8030000F059FB1FBDF9
:1002700010B510BD00F0D7FB1146FFF7F1FF0EF0EF
:1002800061FE00F0F5FB03B4FFF7F2FF03BC0BF0D7
:1002900006FA00002C4B19680868B0E8F04F80F3AC
:1002A0000988BFF36F8F4FF0000080F3118870470B
:1002B0000000000008480068006880F308884FF0DC
:1002C000000080F3148862B661B6BFF34F8FBFF3AE
:1002D0006F8F00DF00BF00BF08ED00E0DFF80C000B
:1002E000016841F470010160704700BF88ED00E0D3
:1002F000EFF30980BFF36F8F134B1A681EF0100FD6
:1003000008BF20ED108A20E9F04F106009B44FF0CB
:10031000500080F31188BFF34F8FBFF36F8F10F041
:1003200031F84FF0000080F3118809BC19680868A3
:10033000B0E8F04F1EF0100F08BFB0EC108A80F349
:100340000988BFF36F8F704734000020EFF30580FA
:10035000704700000948804709480047FEE7FEE76C
:10036000FEE7FEE7FEE7FEE7FEE7FEE7FEE7FEE765
:1003700004480549054A064B70470000897A000881
:10038000AD0100085088002050C8002050A800206F
:1003900050A800209FED1A1AF5EE000A40EE010A5F
:1003A000BDEEE00AF5EEC00A10EE100AF1EE10FA0A
:1003B00038BF401E00EE100A1349F7EE001AB8EEDF
:1003C000C00A30EEC00ADFED0F0A20EE200AFCEE74
:1003D000C00A10EE900AC0F3080000EE900A01EB8C
:1003E0008000F8EE600A90ED011A70EE600A90ED60
:1003F000000A71EEE01A21EE800A00EE810A7047D1
:1004000083F9223E00000044402A0108DFED190A6A
:10041000B5EEC00A60EE200ABDEEE01A11EE100A39
:10042000F1EE10FA38BF401E00EE100A1349F7EE45
:10043000001AB8EEC00A30EEC00ADFED0F0A60EE17
:10044000200ABCEEE00A10EE100AC0F3080000EE2D
:10045000100A01EB8000B8EE400A90ED011A70EE30
:10046000C00A90ED000A71EEE01A21EE800A00EE5B
:10047000810A704783F9223E00000044402A0108A7
:1004800001804280436070472DE9F04F82B046689A
:1004900053680193058847884B880020009008889E
:1004A000874201BFB2F800C06545528893421EBF23
:1004B0006FF0020002B0BDE8F08F9FED412A4FEAD5
:1004C000970EC7F3400B00BFDDE9000202EB800A84
:1004D0004A6898464FF00009B0EE420AB4465FEA17
:1004E0000E0025D092ED001ADCED001A02EB83021B
:1004F000DCED010A01EE810A92ED001A02EB8302A3
:10050000401ED2ED001A02EB830200EE810A9CED40
:10051000021ADCED030A00040CF1100C000C01EED1
:10052000210A92ED001A02EB830200EE810AD9D172
:1005300017F0030026D0ACF10404A2EB830210F004
:10054000010F08D002EB8302D4ED010A92ED001AEC
:10055000241D00EE810A5FEA0B0013D002EB830C2E
:10056000D4ED010A9CED001A02EBC302401E00EE1E
:10057000810AD4ED020A92ED001A04F1080400EE9B
:10058000810AEBD109F10100AAEC010A1FFA80F9F6
:10059000486800EB8902A8F101001FFA80F8B8F161
:1005A000000F99D1009806EB8706184480B200909E
:1005B000681E05042D0C87D102B00020BDE8F08F25
:1005C00000000000704770B5064600F08DF9056820
:1005D00006F10B0020F00704B4429CBF002070BD60
:1005E0002B466A68BAB11068A04210D304F1080122
:1005F00088423CBF5068586007D351681019416069
:100600001168091B016058601460101D70BD13460D
:100610005268002AE7D12146284600F06DF90028EB
:10062000DED170BD70B50446051F00F05DF90068AD
:10063000002C14BF446870BD002C18BFAC423CBFF6
:1006400020466468F8D301680A18AA4218BF4560BA
:1006500003D12A6805461144016028684119A14266
:100660001CBF6C6070BD61686960216808442860C7
:1006700070BD53EA020C00F069802DE9F04B4FF099
:100680000006002B1FBFB3FA83F503FA05F424FA22
:1006900005F65E4012BF1643B2FA82F502FA05F47F
:1006A000C5F120051EBF22FA05FC44EA0C042035E2
:1006B00056EA044C4FEA144418BF641C4FF000087B
:1006C0004FF00009904271EB030C39D3002919BF98
:1006D000B1FA81F701FA07F6B0FA80F700FA07F6E7
:1006E000C7F120071EBF20FA07FC46EA0C06203798
:1006F000B6FBF4FCA7EB0507103F07F01F0BCBF18F
:1007000020060CFA0BFB2CFA06F644BFB346002673
:10071000202FA4BF5E464FF0000B5BEA060C08BF1B
:100720004FF0010B19EB0B09ABFB027C48EB060801
:10073000C01B06FB02CC0BFB03CC71EB0C01C1E729
:100740000B46024641464846BDE8F08B13B54FF0D4
:1007500000004FF00001AFF30080BDE81C4070477F
:10076000032A40F2308010F0030C00F0158011F8DD
:10077000013BBCF1020F624498BF11F801CB00F8B5
:10078000013B38BF11F8013BA2F1040298BF00F809
:1007900001CB38BF00F8013B11F0030300F02580C6
:1007A000083AC0F0088051F8043B083A51F804CBED
:1007B000A0E80810F5E7121D5CBF51F8043B40F8B3
:1007C000043BAFF30080D20724BF11F8013B11F8BE
:1007D00001CB48BF11F8012B24BF00F8013B00F802
:1007E00001CB48BF00F8012B704710B5203AC0F08C
:1007F0000B80B1E81850203AA0E81850B1E8185022
:10080000A0E81850BFF4F5AF5FEA027C24BFB1E85E
:100810001850A0E8185044BF18C918C0BDE81040CF
:100820005FEA827C24BF51F8043B40F8043B08BFD8
:100830007047D20728BF31F8023B48BF11F8012B9F
:1008400028BF20F8023B48BF00F8012B70474FF04B
:1008500000020429C0F0128010F0030C00F01B808D
:10086000CCF1040CBCF1020F18BF00F8012BA8BF9B
:1008700020F8022BA1EB0C0100F00DB85FEAC17C5F
:1008800024BF00F8012B00F8012B48BF00F8012B12
:1008900070474FF0000200B5134694469646203943
:1008A00022BFA0E80C50A0E80C50B1F12001BFF429
:1008B000F7AF090728BFA0E80C5048BF0CC05DF88F
:1008C00004EB890028BF40F8042B08BF704748BFDD
:1008D00020F8022B11F0804F18BF00F8012B704751
:1008E000704770477047704700487047F88700208E
:1008F000704770477047704738B504460A46002075
:100900006946AFF30080002808BF38BD0246009951
:10091000204600F04FF8012038BD012000F07CB8DF
:10092000F8B5AFF30080054600200C46102000BF4C
:100930000646A819A0420DD9324669460020AFF3F9
:100940000080070008BF00F067F80098A04218BFB9
:100950000546C419FFF7C8FF05600746F01D20F0E3
:1009600007004619284600F00AF8B44208BFF8BD4F
:10097000A21B31463868BDE8F84000F01BB80021E2
:100980000160C0E9011070471020704710B500F0F9
:100990000DF8006810BD10B5044600F007F80460BB
:1009A00010BD000000487047F087002000487047E5
:1009B000F0870020034640688C46002818BF884214
:1009C0003CBF03464068F8D318681844884207D0F3
:1009D0000CF1030020F00700001D411A521A0146D5
:1009E000081D0A60FFF71EBE1FB584B000200A9CD8
:1009F00006AB04AA02A90094AFF3008018B1DDE9A8
:100A0000020108B010BD0348204000F03FF800206C
:100A10000146F6E70000207C10B500F03FF8BDE885
:100A2000104000F02EB87546FFF7BCFFAE4605003B
:100A30006946534620F00700854618B020B5FFF7F9
:100A400097FCBDE820404FF000064FF000074FF044
:100A500000084FF0000B21F00701AC46ACE8C009DC
:100A6000ACE8C009ACE8C009ACE8C0098D467047E5
:100A700010B50446AFF300802046BDE81040FFF7F4
:100A800002BC002801D00AF00ABE704710B500F081
:100A900047F8BDE81040FFF7F4BF000010B501288B
:100AA00005D0002103A000F021F8012010BD09A10C
:100AB000F8E7000053494752544D454D3A204F75D1
:100AC00074206F662068656170206D656D6F727946
:100AD000000000003A2048656170206D656D6F72FE
:100AE0007920636F727275707465640070B5054625
:100AF0000C460A2000E06D1C0AF0D3FD35B12878C1
:100B00000028F8D102E0641C0AF0CBFD14B1207873
:100B10000028F8D1BDE870400A200AF0C2BD0000EC
:100B200010B5022803D0410103D50DA112E0002029
:100B300010BD010101D50FA10CE0C10001D511A12B
:100B400008E0810001D512A104E0400001D513A105
:100B500000E0002115A0FFF7C9FF012010BD000033
:100B6000496E76616C6964204F7065726174696F5B
:100B70006E000000446976696465204279205A65F8
:100B8000726F00004F766572666C6F770000000030
:100B9000556E646572666C6F77000000496E65780B
:100BA00061637420526573756C7400005349474645
:100BB00050453A2041726974686D657469632065B7
:100BC0007863657074696F6E3A2000000FB410B5D9
:100BD0002DED0A8B86B0182225496846FFF705FEE1
:100BE0009FED240AB0EE408A002436E0684600EB10
:100BF000840090ED000A10EE101A084610F098FFDD
:100C000041EC1A0B12A800EB840090ED000A10EEE4
:100C1000101A084610F08CFF41EC1C0BB0EE4C0A89
:100C2000F0EE6C0A0AF0BCFCB0EE40BAF0EE60BA2E
:100C300053EC1A2B51EC1B0B10F0A4F941EC190BDF
:100C40000FF0C2FE08EE900AF4EEC88AF1EE10FA38
:100C500001DDB0EE688A601CC4B2062CC6DBB0EEC3
:100C6000480A06B0BDEC0A8B10BC5DF814FB00000E
:100C7000BC2601080000000000BFFEE710B50248D6
:100C800000F03FFE10BD00001407002010B5024820
:100C900000F037FE10BD00003C0700201FB50446E1
:100CA000D4ED000AB0EE600A10209FED301ADFED9F
:100CB000300A0DF077FF80B2ADF80400D4ED010AE0
:100CC000B0EE600A10209FED2B1ADFED2B0A0DF01D
:100CD00069FF80B2ADF80600D4ED020AB0EE600AFA
:100CE00010209FED241ADFED240A0DF05BFF80B287
:100CF000ADF80800D4ED030AB0EE600A10209FEDB5
:100D00001D1ADFED1D0A0DF04DFF80B2ADF80A008F
:100D10004FF408701949086000208860C8600820F6
:100D20000861BDF80400001215490870BDF8040000
:100D30004870BDF8060000128870BDF80600C87043
:100D4000BDF8080000120871BDF808004871BDF830
:100D50000A0000128871BDF80A00C8716B460A4685
:100D60000649084800F0CBFB1FBD000000004842C8
:100D7000000048C2DA0FC940DA0FC9C0A85B0020E2
:100D80001D0100203C0700207FB504460D46164695
:100D9000D4ED040AB0EE600A10209FED271ADFEDB3
:100DA000270A0DF0FFFE80B2ADF80C00D4ED050A65
:100DB000B0EE600A10209FED201ADFED200A0DF042
:100DC000F1FE80B2ADF80E0040F221201C4908600F
:100DD00000208860C86008200861BDF80C0000127F
:100DE00018490870BDF80C004870BDF80E000012DC
:100DF0008870BDF80E00C8701348007818B9281222
:100E000008714D7107E010480078012803D10020D7
:100E10000C49087148710D48007800020949887131
:100E20000B4890F8AC05C8716B460A46044909485E
:100E300000F065FB7FBD0000DA0FC940DA0FC9C0C2
:100E4000A85B00201D01002028010020EC000020EC
:100E5000DC5B00203C0700200FB438B504460E4888
:100E6000046000200C498860C86008200861FF20E9
:100E70000A49087048708870C87008714871887194
:100E8000FD20C8716B460A46034905A800F037FBF0
:100E900038BC5DF814FB00007C5B002014010020CE
:100EA0000FB438B504460E48046000200C49886031
:100EB000C86008200861FF200A49087048708870DF
:100EC000C870087148718871FC20C8716B460A4669
:100ED000034905A800F013FB38BC5DF814FB0000C3
:100EE0007C5B0020140100200FB42DED060B2DE9D2
:100EF000F0432DED068B81B0B0EE40AAB0EE608AD3
:100F0000F0EE418AB0EE619AF0EE429A044610206B
:100F10009FED2F1ADFED2F0AB0EE4A0A0DF042FEC8
:100F200085B20C20B3EE041AFBEE040AB0EE480AB8
:100F30000DF038FE86B20C209FED271ADFED270A50
:100F4000B0EE680A0DF02EFE87B20C20B1EE041A46
:100F5000DFED220AB0EE490A0DF024FE1FFA80F8F8
:100F60000C20B2EE041AFAEE040AB0EE690A0DF093
:100F700019FE1FFA80F91A48046000201849886099
:100F8000C860082008612812164908704D70C6F321
:100F9000071088703007000E40EA2720C8700F71D4
:100FA000C8F3071048714FEA0870000E40EA292084
:100FB000887181F807906B460A46094915A800F028
:100FC0009EFA01B0BDEC068BBDE8F0035DF82CFB8A
:100FD000DC0F4940DC0F49C00000FA43000000006C
:100FE0007C5B002014010020F8B507460C4615462E
:100FF0001E464FF400700D49086000208860C860EC
:1010000008200861380A0A4908704F70200A887061
:10101000CC70280A08714D71300A8871CE716B4608
:101020000A460249034800F06AFAF8BD645B0020F2
:101030000C0100201407002038B5044640F2FF10D0
:101040000C49086000208860C86008200861200AF8
:10105000094908704C7000208870C8700871487188
:101060008871C8716B460A460249044800F047FA85
:1010700038BD00007C5B0020140100201407002014
:101080000346042B15D007DC7BB1012B0ED0022BBD
:101090000DD0032B12D10BE0202B0BD0212B0AD02B
:1010A000222B09D0232B09D107E008E007E006E056
:1010B00005E004E003E002E001E000E000BF00BF63
:1010C000002070470020704710B5002204490548F1
:1010D00007F07BFF0449034807F068FF002010BDBC
:1010E000EC780020106C0020EC70002070B50446F5
:1010F0000D462146034807F059FF024807F022FF3A
:10110000002070BD106C002010B503460C46002175
:10111000084610BD10B5024801F082F910BD00006C
:10112000CC09002010B5024801F07AF910BD00008A
:101130006C09002010B5024801F072F910BD0000E2
:10114000EC0A002010B5024801F06AF910BD000059
:101150004C0B002010B5024801F062F910BD0000F0
:10116000AC0B002010B5024801F05AF910BD000088
:101170002C0A002010B5024801F052F910BD000001
:101180000C0C002010B5024801F04AF910BD000017
:101190008C0A00200146087810381823B0FBF3F2BF
:1011A0000848805CC865032A05D908686FF3090000
:1011B000001D886503E008686FF309008865886D85
:1011C00070470000C41F0108014600208A6A8B692D
:1011D000CBB932B1012A0DD0022A03D0032A10D193
:1011E0000EE000BFCB6A03F08073B3F1807F00D1C3
:1011F000012007E0CB6AB3F1C07F00D1012001E0FC
:1012000000E000BF34E08B69B3F5005F1AD132B162
:10121000012A07D0022A03D0032A11D10AE000BF15
:1012200001200EE0CB6A03F08073B3F1807F00D120
:10123000012006E0CB6AB3F1C07F00D1012000E0BD
:1012400000BF15E032B1012A05D0022A04D0032ADA
:101250000CD103E000BF00BF012008E0CB6A03F01F
:101260008073B3F1807F00D1012000E000BF00BF98
:10127000704730B50468246824F4802405682C6025
:10128000046863608468402C04D10468A260046828
:10129000E16003E00468A1600468E26030BD000022
:1012A00008B50848406800900749009809688842D6
:1012B00004D206480068401C0449086002490098AE
:1012C000086008BD001000E0B8000020B400002055
:1012D0000C494868F0EE400A00BF0A494968091AFB
:1012E00001EE101AF8EE411A074991ED001AB8EE16
:1012F000411A20EE811AF4EEC11AF1EE10FAECD385
:1013000070470000001000E0A800002010B52DED8F
:10131000028B82B004460E48406801902068019913
:10132000081A00EE100AF8EE400A0A4890ED000A8A
:10133000B8EE400A80EE801AB0EE418A0198206033
:10134000FFF7AEFFB0EE480A02B0BDEC028B10BD55
:10135000001000E0A80000201249096841F08071E7
:10136000104A11600021104A51601146096841F08D
:10137000010111600D4941430D4A11601146096890
:101380004FF47A72B1FBF2F10A4A11600849096818
:10139000064AB1FBF2F1084A11600021074A1160C8
:1013A00070470000FCED00E0001000E040420F003C
:1013B000A8000020AC000020B0000020B4000020F5
:1013C000704772B600BFFEE770B52DED068B05467F
:1013D0000C46D5ED000AB0EE600A0AF0D5F8F0EE42
:1013E000408AD5ED010AB0EE600A0AF0CDF8F0EEC1
:1013F00040AAD5ED020AB0EE600A0AF0C5F8B0EED8
:10140000408AD5ED000AB0EE600A0AF0D3F8B0EEDB
:1014100040AAD5ED010AB0EE600A0AF0CBF8F0EE72
:10142000409AD5ED020AB0EE600A0AF0C3F8B0EEB9
:10143000409A28EE2A0A84ED000A28EE290A20EEB6
:101440000A0A09EE680A84ED010A28EE290A20EE4C
:10145000280A09EE0A0A84ED020A29EE2A0A84ED16
:10146000030A29EE290A20EE0A0A08EE280A84ED6A
:10147000040A29EE290A20EE280A08EE4A0A84ED19
:10148000050AB1EE690A84ED060A2AEE8A0A84ED9D
:10149000070A2AEEA80A84ED080ABDEC068B70BD87
:1014A00070B50A480468001D0568001D06683444CC
:1014B00054B108220649204603F016FC04220449D0
:1014C0001031284603F010FC70BD0000107AFF1F99
:1014D0000204002010B5024692F82030012B01D002
:1014E000022B06D11068406908431468606100202F
:1014F00010BD506A40F4802050620120F8E7F0B53A
:1015000004460D461E4694F8207020688368A8683B
:1015100000B900E000BF012F01D0022F7DD103F000
:10152000806030B903F0006018B903F080500028E3
:101530007ED0C3F30161012088403060A86860B9A3
:10154000B5F800C0E86840EA4C5C206800F5C0705F
:1015500000EB0110C0F800C00FE0D5E901C040EA7F
:10156000CC00D5F80CC040EA0C00D4F800C00CF553
:10157000C07C0CEB011CCCF80000D5F810C0206832
:1015800000F5C07000EB0110C0F804C0287D0128F0
:101590000ED1206800F5C07000EB0110406840F4E7
:1015A000807C206800F5C07000EB0110C0F804C01A
:1015B000D079000692F806C040EA0C4092F805C0C7
:1015C00040EA0C2092F804C040EA0C00D4F800C0B5
:1015D0000CF5C07C0CEB011CCCF80C00D07800069C
:1015E00092F802C040EA0C4092F801C040EA0C2098
:1015F00092F800C040EA0C00D4F800C00CF5C07CA2
:101600000CEB011CCCF80800206800F5C07000EB62
:101610000110006840F0010C01E00FE008E02068D4
:1016200000F5C07000EB0110C0F800C00020F0BD54
:10163000606A40F4001060620120F8E7606A40F4DC
:10164000802060620120F2E7F0B504460A46216876
:1016500094F82050012D01D0022D7ED1424901F590
:101660000071086840F001000860086820F47C50B0
:1016700008600868566A40EA06200860107D00F09D
:101680001F06012000FA06F3C8699843C861A1F556
:101690000071D069C8B9D1F80C029843C1F80C02A6
:1016A000908880B2968940EA064601F51070576925
:1016B00040F83760108880B2168940EA064601F586
:1016C0001070576900EBC7004660D069012819D136
:1016D000D1F80C021843C1F80C02908880B2168829
:1016E00040EA064601F51070576940F83760908966
:1016F00080B2168940EA064601F51070576900EB82
:10170000C7004660906928B9D1F804029843C1F82F
:10171000040204E0D1F804021843C1F8040210697D
:1017200028B9D1F814029843C1F8140204E0D1F8A2
:1017300014021843C1F81402106A012804D1D1F828
:101740001C021843C1F81C02D1F8000220F001006D
:10175000C1F800020020F0BDFFE7606A40F480207D
:1017600060620120F7E7000000640040704770B538
:10177000044694F82050012D01D0022D7DD151B99D
:101780002068C06800F0030080B9606A40F400106F
:101790006062012070BD2068006900F0030028B974
:1017A000606A40F4001060620120F3E7206800F5F1
:1017B000D87000EB0110006800F0040090609068A1
:1017C00040B9206800F5D87000EB01100068400DAA
:1017D000106007E0206800F5D87000EB0110006889
:1017E000C0085060206800F5D87000EB0110006858
:1017F00000F00200D060206800F5D87000EB011006
:10180000406800F00F00082802D30820106108E0AB
:10181000206800F5D87000EB0110406800F00F0060
:101820001061206800F5D87000EB0110406800F4EA
:101830007F40000A9061206800F5D87000EB01102D
:101840004068000C5061206800F5D87000EB011072
:1018500080681870206800F5D87000EB011080686F
:1018600000F47F40000A5870206800F5D87000EB43
:101870000110806800F47F0000E03CE0000C9870EC
:10188000206800F5D87000EB01108068000ED87059
:10189000206800F5D87000EB0110C068187120684E
:1018A00000F5D87000EB0110C06800F47F40000A1A
:1018B0005871206800F5D87000EB0110C06800F482
:1018C0007F00000C9871206800F5D87000EB0110C3
:1018D000C068000ED87131B92068C06840F020009F
:1018E0002668F06005E02068006940F02000266866
:1018F000306100204EE7606A40F480206062012081
:1019000048E72DE9F05F0446002520684669206815
:10191000D0F80490206887682068D0F80CA0206870
:10192000D0F810B02068D0F8188006F00100002828
:1019300055D007F00100C0B101202168886007F090
:10194000020018B1204600F0FAFC0EE007F0040097
:1019500010B145F4006508E007F0080010B145F447
:10196000805502E0204600F0E9FC07F48070C8B121
:101970004FF480702168886007F4007018B1204629
:1019800000F0DFFC0EE007F4806010B145F4005574
:1019900008E007F4006010B145F4804502E02046FD
:1019A00000F0CEFC07F48030C8B14FF480302168DD
:1019B000886007F4003018B1204600F0C4FC0EE047
:1019C00007F4802010B145F4004508E007F400203A
:1019D00010B145F4803502E0204600F0B3FC06F07B
:1019E000080038B10AF0100020B145F4007510204D
:1019F0002168C86006F0040040B10AF0080028B170
:101A000008202168C860204600F00EFA06F00200A7
:101A100038B12068C06800F0030010B1204600F023
:101A200005FA06F0400038B10BF0100020B145F483
:101A3000806510202168086106F0200040B10BF09D
:101A4000080028B1082021680861204600F044FC05
:101A500006F0100038B12068006900F0030010B1F2
:101A6000204600F03AFC06F4003040B109F01000C6
:101A700028B1102021684860204600F02FFC06F4B1
:101A8000803040B109F0080028B108202168486082
:101A9000204600F059FC06F4004088B309F0040029
:101AA00078B306F4807020B108F0010008B145F069
:101AB000010506F4007020B108F0020008B145F0FD
:101AC000020506F4806020B108F0040008B145F07A
:101AD000040506F40060A0B108F0700088B108F0B9
:101AE0007000402817D006DC10280BD020280CD01E
:101AF000302819D10CE0502810D0602814D110E003
:101B00001DE019E045F008050FE045F010050CE078
:101B100045F0200509E045F0400506E045F0800568
:101B200003E045F4807500E000BF00BF20688069D5
:101B300020F07000216888610420216848602DB180
:101B4000606A284360622046FFF710FEBDE8F09F00
:101B500070B504460CB9012070BD94F8200010B98E
:101B6000204600F0AFF82068006840F001002168CE
:101B7000086000F091FF05460DE000F08DFF401B6E
:101B80000A2808D9606A40F400306062052084F8B1
:101B900020000120E0E72068406800F001000028F4
:101BA000EBD02068006820F002002168086000F097
:101BB00073FF05460DE000F06FFF401B0A2808D9AF
:101BC000606A40F400306062052084F82000012043
:101BD000C2E72068406800F002000028EBD1207EB8
:101BE000012806D12068006840F080002168086064
:101BF00005E02068006820F0800021680860607EB1
:101C0000012806D12068006840F040002168086083
:101C100005E02068006820F0400021680860A07E90
:101C2000012806D12068006840F020002168086083
:101C300005E02068006820F0200021680860E07E50
:101C4000012806D12068006820F010002168086093
:101C500005E02068006840F0100021680860207FDF
:101C6000012806D12068006840F00800216808605B
:101C700005E02068006820F0080021680860607FA7
:101C8000012806D12068006840F00400216808603F
:101C900005E02068006820F0040021680860D4E9AD
:101CA0000201084321690843616908436168491ECC
:101CB00008432168C86100206062012084F8200088
:101CC000002049E710B586B00446142101A8FEF7AC
:101CD000E0FD4F492068884241D14E480068401CD1
:101CE0004C4908600846006801280FD100BF002059
:101CF00000904948006840F0007047490860084675
:101D0000006800F00070009000BF00BF00BF00201E
:101D1000009041481038006840F008003E491039F2
:101D200008600846006800F00800009000BF00BF8F
:101D300003200190022002900020039003200490D1
:101D40000920059001A9354800F090FD00220521E9
:101D5000142000F035FF142000F01EFF55E030493C
:101D60002068884251D100BF002000902A480068B6
:101D700040F08060284908600846006800F08060F4
:101D8000009000BF00BF23480068401C2149086044
:101D90000846006801280FD100BF002000901E48AF
:101DA000006840F000701C4908600846006800F0B8
:101DB0000070009000BF00BF00BF002000901648D8
:101DC0001038006840F002001349103908600846D6
:101DD000006800F00200009000BF00BF4FF44050C8
:101DE000019002200290002003900320049009201B
:101DF000059001A90B4800F039FD00220521402083
:101E000000F0DEFE402000F0C7FE06B010BD00006E
:101E1000006400402000002040380240000C0240D6
:101E200000680040000402407047000010B58AB00E
:101E3000044601AB03AA00212046FFF798FCFE48A8
:101E4000844276D10398A0F2012005286FD2DFE802
:101E500000F003040506070000BF00BF00BF00BF7D
:101E60000398401EF54908700846007800EB4000D2
:101E7000F34931F8200000B2F049097801EB410143
:101E8000EF4A02EB810108819DF805009DF80410DE
:101E900040EA0120E949097801EB410122F82100DB
:101EA0009DF807009DF8061040EA012000B2E349C2
:101EB000097801EB410102EB810148809DF809009E
:101EC0009DF8081040EA012000B2DC49097801EBD6
:101ED000410102EB810188809DF80A00D749097809
:101EE00001EB410102EB81018871D448007804289C
:101EF0001AD11046018EB0F93800081AB0F5805F8B
:101F000005DDD048C06E401ECE49C8660CE0CC4806
:101F1000018EB0F93800081A10F5805F04DAC9485C
:101F2000C06E401CC749C86602E002E0FFE700BF80
:101F3000C6E1C5488442FBD1039848B1022872D05B
:101F4000B0F50C7F6DD0A0F2312000286AD143E1BA
:101F50009DF806009DF8051040EA012000EE100AE9
:101F60009DF8070000019DF8081040EA111000EEEE
:101F7000900A9DF809009DF8081001F00F0140EA51
:101F8000012001EE100A9DF8040000F0F000AF49B6
:101F900008709DF8040000F00F0048709DF80400E0
:101FA00000118870F8EE401A9FEDA92A61EE821A9E
:101FB000B0EE002A61EE821ADFEDA62A81EEA22A97
:101FC000DFEDA31A72EE611A0846C0ED011AF8EEB1
:101FD000601AB3EE042A61EE821AB0EE002A61EEB6
:101FE000821ADFED9D2A81EEA22AF3EE041A72EE28
:101FF000611AC0ED021AF8EE411AB2EE042A61EE3F
:10200000821AB0EE002A21EE822ADFED932AC2EE78
:10201000221AB2EE042A71EEC21AC0ED031A4EE182
:1020200001E069E04AE19DF806009DF8051040EAEC
:10203000012000EE100A9DF8070000019DF808102D
:1020400040EA111000EE900A9DF809009DF8081072
:1020500001F00F0140EA012001EE100A9DF8040092
:1020600000F0F000794908749DF8040000F00F01B9
:10207000764841749DF80400011174488174F8EEAB
:10208000401A9FED732A61EE821AB0EE002A61EECB
:10209000821A9FED702AC1EE822ADFED6D1A72EE70
:1020A000E11AC0ED051AF8EE601AB3EE042A61EEEB
:1020B000821AB0EE002A61EE821A9FED672AC1EE05
:1020C000822AF3EE041A72EEE11AC0ED061AF8EE57
:1020D000411AB2EE042A61EE821AB0EE002A61EED5
:1020E000821A9FED5D2AC1EE822AF2EE041A72EE88
:1020F000E11AC0ED071AE2E09DF805009DF8041012
:1021000040EA012000EE100AB8EE400A534880ED84
:10211000000A9DF807009DF8061040EA012000EE35
:10212000100AB8EE400A4D4880ED010A9DF80900FA
:102130009DF8081040EA012000EE100AB8EE400AAF
:10214000464880ED020A9DF80B009DF80A1040EA0F
:10215000012000EE100AB8EE400A404880ED030A64
:102160003F48D0F8000890ED010A3E4880ED000A93
:102170003A4991ED010ABDEEC00A10EE100A102195
:10218000DFED390A9FED390A0DF0DCFD354880EDB1
:10219000010A324991ED020ABDEEC00A10EE100AA2
:1021A0001021DFED310A9FED310A0DF0CBFD2D48F6
:1021B00080ED020A294991ED030ABDEEC00A10EE36
:1021C000100A1021DFED280A9FED280A0DF0BAFD54
:1021D000244880ED030A72E09DF805009DF8041084
:1021E00040EA012000EE100AB8EE400A1B4880EDDC
:1021F000040A9DF807009DF8061040EA012000EE51
:10220000100AB8EE400A154880ED050A9DF809004D
:102210009DF8081040EA01201049088391ED040A56
:10222000BDEEC00A10EE100A1021DFED0F0A9FED7F
:102230000F0A0DF087FD1BE0140700201C01002091
:10224000D05A0020DC5B00203C0700200C5B002003
:10225000DC0F494000FF7F4700F07F45485B0020CE
:10226000C04D00202C5B0020DA0FC940DA0FC9C036
:10227000144880ED040A144991ED050ABDEEC00A28
:1022800010EE100A10215FED080A1FED080A0DF08C
:1022900059FD0C4880ED050AD0ED050AB0EE600A44
:1022A0009FED0A1ADFED0A0A0CF01CFE054880EDCE
:1022B000050A008B0749A1F8B80500E000BF00BF80
:1022C0000AB010BD2C5B0020485B0020DB0F4940AA
:1022D000DB0F49C0DC5B002070477047704770B56A
:1022E000044694F82000012822D1022084F820001E
:1022F0002068006820F001002168086000F0CCFB35
:1023000005460DE000F0C8FB401B0A2808D9606AAA
:1023100040F400306062052084F82000012070BD88
:102320002068406800F001000028EBD16062F6E709
:10233000606A40F4002060620120F0E77047704757
:102340007047704770477047704770B50446A56D79
:1023500000F0A2FB064694F83500022808D0802041
:10236000606500BF002084F8340000BF012070BD0C
:102370002068006820F01600216808602068406925
:1023800020F0800021684861206C08B9A06C28B159
:102390002068006820F00800216808602068006854
:1023A00020F001002168086010E000F075FB801B40
:1023B00005280BD920206065032084F8350000BF74
:1023C000002084F8340000BF0320D0E720680068B4
:1023D00000F001000028E8D194F85C103F2088400C
:1023E000A860012084F8350000BF002084F8340084
:1023F00000BF00BFBBE7014691F83500022803D0BB
:102400008020486501207047052081F83500086864
:10241000006820F001000A6810600020F3E7000067
:10242000F8B50446002000908C4800684FF416511F
:10243000B0FBF1F7A56D2E6894F85C100820884079
:10244000304098B12068006800F0040070B1206846
:10245000006820F004002168086094F85C100820EF
:102460008840A860606D40F00100606594F85C10E1
:1024700001208840304068B12068406900F0800049
:1024800040B194F85C1001208840A860606D40F075
:102490000200606594F85C1004208840304068B108
:1024A0002068006800F0020040B194F85C1004203D
:1024B0008840A860606D40F00400606594F85C108E
:1024C00010208840304078B32068006800F0080091
:1024D00050B394F85C1010208840A8602068006811
:1024E00000F4802080B12068006800F4002028B942
:1024F000206CC8B12046216C884715E0A06C98B1CB
:102500002046A16C88470FE02068006800F48070C6
:1025100028B92068006820F0080021680860206C55
:1025200010B12046216C884794F85C102020884028
:102530003040002865D02068006800F010000028B6
:102540005FD094F85C1020208840A86094F8350093
:10255000052828D12068006820F01600216808604E
:102560002068406920F0800021684861206C08B92B
:10257000A06C28B12068006820F00800216808607D
:1025800094F85C103F208840A860012084F8350052
:1025900000BF002084F8340000BF206D10B1204639
:1025A000216D8847F8BD2068006800F4802080B164
:1025B0002068006800F4002028B9606C10B1204643
:1025C000616C88471DE0E06BD8B12046E16B88471D
:1025D00017E02068006800F4807068B9206800681F
:1025E00020F0100021680860012084F8350000BF49
:1025F000002084F8340000BFE06B10B12046E16B8E
:102600008847606D38B3606D00F00100F0B10520BF
:1026100084F835002068006820F001002168086017
:1026200000BF0098401C0090B84200D905E0206827
:10263000006800F001000028F3D100BF012084F8F9
:10264000350000BF002084F8340000BFE06C10B1FA
:102650002046E16C884700BFA4E70000300000205E
:102660002DE9F0410446002500F016FA074614B99A
:102670000120BDE8F081606A00B100BF022084F84B
:10268000350000BF002084F8340000BF20680068D7
:1026900020F00100216808600AE000F0FDF9C01B8D
:1026A000052805D920206065032084F83500E0E77F
:1026B0002068006800F001000028EED1206805685D
:1026C00021480540D4E901010843E1680843216934
:1026D000084361690843A1690843E1690843216A25
:1026E00008430543606A042803D1D4E90B01084379
:1026F0000543206805602068456925F00705606A84
:102700000543606A04280DD1A06A0543E06A48B118
:102710002046FEF759FD28B140206065012084F86D
:102720003500A6E7206845612046FEF733FD0646E2
:1027300094F85C103F208840B06000206065012064
:1027400084F83500002094E73F8010F02DE9F04137
:1027500004460D4616461F464FF0000800BF94F889
:102760003400012802D10220BDE8F081012084F864
:10277000340000BF94F83500012811D1022084F8FC
:102780003500002060653B46324629462046FEF76C
:1027900070FD2068006840F001002168086006E0D4
:1027A00000BF002084F8340000BF4FF0020840460C
:1027B000DAE72DE9F04704460D4616461F464FF06E
:1027C0000008D4F8589000BF94F83400012802D1D2
:1027D0000220BDE8F087012084F8340000BF94F89F
:1027E0003500012825D1022084F8350000206065DD
:1027F0003B46324629462046FEF73BFD94F85C10E6
:102800003F208840C9F808002068006840F01600A2
:1028100021680860206C28B12068006840F008003A
:10282000216808602068006840F0010021680860A5
:1028300006E000BF002084F8340000BF4FF002081B
:102840004046C6E770B5044600F026F90646254620
:10285000681C10B104480078054400BF00F01CF962
:10286000801BA842FAD370BD2C000020F8B50246A8
:102870000B460025002400200021E0E0012606FA96
:1028800001F51E6806EA0504AC4274D11E7906F013
:102890000306012E04D01E7906F00306022E13D182
:1028A00090684F000326BE40B0434F00DE68BE4034
:1028B00030439060506801268E40B0431E79C6F3C5
:1028C00000168E40304350601E7906F00306032E3A
:1028D00009D0D0684F000326BE40B0434F009E6829
:1028E000BE403043D0601E7906F00306022E13D19D
:1028F000CF0802F1200656F827004E07F70E0F26E4
:10290000BE40B0434F07FF0E1E69BE403043CF08A4
:1029100002F1200646F8270010684F000326BE404B
:10292000B0431E7906F003064F00BE4030431060EE
:102930005E6806F44036002E1DD000BF00260096CB
:10294000414E366846F480463F4F3E603E4636680C
:1029500006F48046009600BF00BF3C4E8F0856F834
:1029600027008E07370F0F26BE40B043384EB242C5
:1029700002D100262EE061E0364EB24201D101269E
:1029800028E0354EB24201D1022623E0334EB24256
:1029900001D103261EE0324EB24201D1042619E0D5
:1029A000304EB24201D1052614E02F4EB24201D181
:1029B00006260FE02D4EB24201D107260AE02C4E2A
:1029C000B24201D1082605E02A4EB24201D10926C1
:1029D00000E00A268F073F0FBE4030431B4E8F0892
:1029E00046F82700244E3068A0435E6806F480163F
:1029F00006B12043204E3060361D3068A0435E682B
:102A000006F4001606B120431B4E361D30601A4EE8
:102A1000361F3068A0435E6806F4003606B12043D6
:102A2000154E361F3060361F3068A0435E6806F4CE
:102A3000803606B12043104E083E3060491C1029F4
:102A4000FFF41CAFF8BD00004438024008380140D4
:102A5000000002400004024000080240000C024056
:102A6000001002400014024000180240001C024006
:102A70000020024000240240083C01400246136945
:102A80000B400BB1012000E0002070470AB18161CA
:102A900001E00B0483617047014800687047000043
:102AA00024000020034800680349097808440149CC
:102AB00008607047240000202C00002010B50D484D
:102AC000006840F400700B4908600846006840F454
:102AD000806008600846006840F480700860032049
:102AE00000F0ACF80F2000F007F800F02BF8002001
:102AF00010BD0000003C024070B504460E4800784E
:102B00004FF47A71B1FBF0F00C490968B1FBF0F5B4
:102B1000284601F0AFFB08B1012070BD102C07D290
:102B200000222146501E00F04BF80548046001E0E9
:102B30000120F2E70020F0E72C0000203000002008
:102B40002800002008B500BF002000901148006850
:102B500040F480400F4908600846006800F4804057
:102B6000009000BF00BF00BF00200090081F006859
:102B700040F08050091F08600846006800F080504F
:102B8000009000BF00BF00220F21901E00F018F837
:102B900008BD0000443802400146084600280DDB0D
:102BA00000BF00BF00F01F0301229A4043099B00B1
:102BB00003F1E023C3F8002100BF00BF00BF70474E
:102BC0002DE9F05F80460D461646002708F094FB7D
:102BD000074639462A46334601F00700C0F1070A86
:102BE000BAF1040F02D94FF0040A01E0C0F1070A5C
:102BF000D14600F1040ABAF1070F02D24FF0000AE1
:102C000001E0A0F1030AD4464FF0010A0AFA09FADA
:102C1000AAF1010A0AEA020A0AFA0CFA4FF0010BB9
:102C20000BFA0CFBABF1010B0BEA030B4AEA0B04AA
:102C30002146404608F068FBBDE8F09F00BF00F069
:102C40000702064B19684FF6FF031940044B0B436C
:102C500043EA0221014B196000BF70470CED00E010
:102C60000000FA0570470246106841620020704774
:102C7000F0B5034615461868446A21B944EA054090
:102C80001E68B06219E01868806A04EB10440022E4
:102C900008E0186800F5827050F8220004EB104438
:102CA000501CC2B2481E9042F3D844EA0547186847
:102CB00000F582704E1E40F826700020F0BD10B561
:102CC0000446D4F8E00406F076FE10BD70B5044664
:102CD0000D4605EBC50304F1140101EB8301CA683D
:102CE0002946D4F8E00406F061FD70BD70B50446D5
:102CF0000D4605EBC50304F5157101EB8301CA68A8
:102D00002946D4F8E00406F0D5FD70BD10B50446A0
:102D1000D4F8E00406F052FE10BD2DE9F04104465F
:102D20000D4605F08000802808D105F00F0000EB6B
:102D3000C00104F1140000EB810607E005F00F006C
:102D400000EBC00104F5157000EB810631462068E8
:102D500008F07EF807463846BDE8F08170B50446B5
:102D60000E4606F0800080280AD106F00F0000EB26
:102D7000C00104F1140000EB81050120687009E036
:102D800006F00F0000EBC00104F5157000EB8105A3
:102D90000020687006F00F00287000BF94F89404BB
:102DA000012801D1022070BD012084F8940400BFE5
:102DB0002946206807F0DAFB00BF002084F894045D
:102DC00000BF00BFEFE770B504460E4606F00F00E7
:102DD0002179884201D9012070BD06F08000802849
:102DE0000AD106F00F0000EBC00104F1140000EB63
:102DF00081050120687009E006F00F0000EBC001BA
:102E000004F5157000EB8105002068700020A870A3
:102E100006F00F00287000BF94F89404012801D137
:102E20000220D9E7012084F8940400BF29462068D5
:102E300007F09AFD00BF002084F8940400BF00BF93
:102E4000CAE7024601F00F0000EBC00302F515705F
:102E500000EB8300406970472DE9F04705460E46B8
:102E600090461F464FF0000906F0800080280AD1E6
:102E700006F00F0000EBC00105F1140000EB810427
:102E80000120607009E006F00F0000EBC00105F5BD
:102E9000157000EB81040020607006F00F002070B8
:102EA000C8F30A00A0602771607808B120786083B9
:102EB000022F01D10020607100BF95F89404012811
:102EC00002D10220BDE8F087012085F8940400BFFC
:102ED0002146286807F05EFA00BF002085F89404B8
:102EE00000BF4846EEE72DE9F04105460E4617467D
:102EF000984606F00F0000EBC00105F5157000EBD9
:102F00008104E760C4F8108000206061607006F002
:102F10000F002070A879012800D1E761AA79214625
:102F2000286807F0B5FD0020BDE8F08170B50446C3
:102F30000D4605F00F002179884201D9012070BDAE
:102F400005F0800080280AD105F00F0000EBC001D9
:102F500004F1140000EB81060120707007E005EB1E
:102F6000C50104F5157000EB81060020707001208A
:102F7000B07005F00F00307000BF94F89404012881
:102F800001D10220DBE7012084F8940400BF314620
:102F9000206807F030FD05F00F0028B9A17904F290
:102FA0009C42206807F0A8FC00BF002084F894042D
:102FB00000BF00BFC3E72DE9F04105460E461746A6
:102FC000984606F00F0000EBC00105F1140000EB7D
:102FD0008104E760C4F81080002060610120607007
:102FE00006F00F002070A879012800D1E761AA79C6
:102FF0002146286807F04CFD0020BDE8F0812DE94E
:10300000FE4F0446D4F800B05E46206808F002F88F
:10301000002874D1206808F03CF808B9BDE8FE8F9C
:1030200040F608008059C0F30D20C4F8D40420688D
:1030300008F02FF800F00200022805D1206840694E
:1030400000F0020021684861206808F022F800F0D2
:103050001000102845D12068806920F010002168F8
:103060008861DBF8209009F00F0000EBC00104F547
:10307000157000EB810AC9F3434002281AD147F6C4
:10308000F07009EA000030B3C9F30A125846DAF8C2
:103090000C1008F003F8C9F30A11DAF80C00084420
:1030A000CAF80C00C9F30A11DAF814000844CAF887
:1030B000140010E0C9F3434006280CD1082204F2A2
:1030C0009C41584607F0EAFFC9F30A11DAF81400E8
:1030D0000844CAF814002068806940F01000216894
:1030E0008861206807F0D5FF00F40020B0F5002FBC
:1030F0007BD10025206807F09CFF029072E0E1E29E
:10310000029800F00100002868D0E9B2206807F0BA
:10311000B3FF804608F0010048B1012106F5306098
:1031200000EB451081602946204602F0C9FC08F0FA
:103130000800082809D1082106F5306000EB451089
:1031400081602946204602F089FC08F01000102812
:1031500005D1102106F5306000EB4510816008F0C4
:103160000200022824D1DBF8140000F0800080283F
:1031700007D140F60400805940F4806140F6040015
:10318000815105EBC50104F5157000EB810A9AF831
:103190000300012806D100208AF80300E9B2204686
:1031A00000F09BFA022106F5306000EB45108160CB
:1031B00008F02000202805D1202106F5306000EB22
:1031C0004510816008F40050B0F5005F06D14FF45F
:1031D000005106F5306000EB451081606D1C0298CF
:1031E00040080290029800288AD1206807F051FF19
:1031F00000F48020B0F5802F7DD1206807F00FFF0C
:10320000029000259AE0029800F00100002873D097
:10321000E9B2206807F017FF804608F00100F0B31C
:1032200005F00F0101208840019040F634008159DB
:10323000019821EA000040F634018851012106F589
:10324000106000EB45108160A079012824D105EBC6
:10325000C50104F1140000EB810005EBC502C16853
:1032600004F1140000EB82008068014405EBC50204
:1032700004F1140000EB8200C1606DB905EBC501DB
:1032800004F1140000EB8100006928B904F29C42AB
:103290000121206807F030FBE9B2204600E001E0A0
:1032A000FFF714FD08F00800082805D1082106F5ED
:1032B000106000EB4510816008F01000102805D167
:1032C000102106F5106000EB4510816008F0400009
:1032D000402805D1402106F5106000EB45108160C3
:1032E00008F0020002281DD12946584607F055FE75
:1032F00005EBC50101E025E01CE004F1140000EB42
:10330000810A9AF80300012806D100208AF80300F8
:10331000E9B2204600F0D8F9022106F5106000EB72
:103320004510816008F08000802803D1294620469E
:1033300002F068FC6D1C0298400802900298002878
:103340007FF461AF206807F0A4FE00F00040B0F108
:10335000004F1CD140F60400805920F0010140F6D6
:103360000400815194F8CC04012807D1002084F88E
:10337000CC0400212046FFF775FC02E0204600F057
:10338000D1FA2068406900F0004021684861206857
:1033900007F07FFE00F40060B0F5006F0ED140F63C
:1033A0000800805900F0010010B1204600F012FB27
:1033B0002068406900F4006021684861206807F0D7
:1033C00068FE00F48050B0F5805F7ED140F60400C6
:1033D000805920F0010140F604008151102120683D
:1033E00007F0DBFD002732E04FF67F3106F5106075
:1033F00000EB4710816006F5106000EB4710006895
:1034000020F4001106F5106000EB471001604FF644
:103410007F3106F5306000EB4710816006F53060C3
:1034200000EB4710006820F4001106F5306000EB57
:103430004710016006F5306000EB4710006840F06F
:10344000006106F5306000EB471001607F1C2079B9
:10345000B842C9D840F61C00805940F0011140F62E
:103460001C008151E07B70B1D6F8840840F00B015C
:10347000C6F8841840F64400805940F00B0140F62D
:10348000440081510FE040F61400805942F22B01B4
:10349000084340F614018851081F805940F00B0181
:1034A0004FF401608151D6F8000820F4FE60C6F8A0
:1034B0000008A17904F29C42206807F01DFA2068F8
:1034C000406900F48050216800E000E04861206815
:1034D00007F0DFFD00F40050B0F5005F17D1206861
:1034E00006F0C0FF206807F082FDE07100F04EFB9F
:1034F0000090E2792068009907F052FE204600F023
:10350000F9F92068406900F400502168486120689A
:1035100007F0BFFD00F00800082808D1204600F0A1
:1035200008FA2068406900F00800216848612068B6
:1035300007F0AFFD00F08000802818D1DBF81800FC
:1035400020F08000CBF8180001250DE005EBC50147
:1035500004F5157000EB8100C078012803D1E9B2B1
:103560002046FFF7DAFB6D1C2079A842EED82068D0
:1035700007F08FFD00F48010B0F5801F2DD10125DC
:1035800022E006F5106000EB4510D0F8009005EB46
:10359000C50104F1140000EB81000079012812D16B
:1035A00009F00040B0F1004F0DD1012105EBC5023B
:1035B00004F1140000EB8200C170E8B240F0800119
:1035C0002046FFF7AAFB6D1C2079A842D9D82068B5
:1035D000406900F4801021684861206807F059FDB7
:1035E00000F40010B0F5001F44D1012538E006F5C5
:1035F000306000EB4510D0F8009005EBC50104F5F4
:10360000157000EB81000079012828D109F00040F5
:10361000B0F1004F23D109F4803094F8D41401F0B4
:10362000010188421BD1012105EBC50204F515708B
:1036300000EB8200C170DBF8180040F08000CBF88E
:103640001800DBF8140000F0800040B940F60400D8
:10365000805940F4007140F60400815103E06D1C74
:103660002079A842C3D800BF2068406900F4001048
:1036700021684861206807F00CFD00F08040B0F13F
:10368000804F08D12046FFF71AFB2068406900F000
:10369000804021684861206807F0FBFC00F00400CE
:1036A00004280FD12068D0F8049009F00400042801
:1036B00002D12046FFF72AFB2068406840EA090053
:1036C0002168486000BFA9E470B504460D4629464C
:1036D000D4F8E00406F0DEF970BD70B504460D467E
:1036E0002946D4F8E00406F0F9F970BDF8B50446AF
:1036F0000CB90120F8BD266894F8950428B900207B
:1037000084F89404204600F0A1F8032084F895047E
:10371000B6F1A04F01D10021A171206807F0E4F8B3
:10372000207C8DF8000094E80F0006F0AFFE20B179
:10373000022084F895040120DCE70021206807F0CE
:10374000DDFC20B1022084F895040120D2E7002599
:1037500031E0012105EBC50204F1140000EB820009
:10376000417005EBC50104F1140000F8215005EB90
:10377000C50100EB81004583002105EBC50204F182
:10378000140000EB8200017105EBC50204F1140086
:1037900000EB8200816005EBC50204F1140000EB30
:1037A0008200C16005EBC50204F1140000EB820049
:1037B0000161681CC5B22079A842CADC00252AE054
:1037C000002105EBC50204F5157000EB8200417085
:1037D00005EBC50104F5157000F82150002105EB3B
:1037E000C50200EB8200017105EBC50204F51570FE
:1037F00000EB8200816005EBC50204F5157000EB5B
:103800008200C16005EBC50204F5157000EB820073
:103810000161681CC5B22079A842D1DC207C8DF8FA
:10382000000094E80F0006F06BFF20B1022084F83E
:10383000950401205EE700206074012084F895045F
:10384000206806F04BFF002054E7000010B586B05A
:103850000446142101A8FDF71CF82068B0F1A04F20
:1038600042D100BF002000902048006840F00100D5
:103870001E4908600846006800F00100009000BF83
:1038800000BF4FF4C050019002200290002003902E
:10389000032004900A20059001A91548FEF7E6FFD1
:1038A00000BF1248001D006840F080000F49091D4C
:1038B000086000BF002000900C481430006840F4FD
:1038C00080400A49143108600846006800F48040CE
:1038D000009000BF00BF00BF002205214320FFF77A
:1038E0006FF94320FFF758F906B010BD3038024099
:1038F0000000024070B504460125E07908B90025B2
:1039000006E0E079022801D1012501E0FDF759FD2B
:103910002946D4F8E00406F08AF9D4F8E00406F069
:1039200031F970BD10B50446D4F8E00406F060F932
:1039300010BD10B50446D4F8E00406F064F910BDDB
:1039400070B504460D4600BF94F89404012801D1D7
:10395000022070BD012084F8940400BF65742946DC
:10396000206807F0FFFB00BF002084F8940400BF2C
:1039700000BFEEE710B5044604F29C41D4F8E00421
:1039800006F06CF910BD70B50446256800BF94F8C8
:103990009404012801D1022070BD012084F8940410
:1039A00000BFE86800F0400030B1607B012803D11F
:1039B000A86B40F48030A863206807F0BFFA206845
:1039C00006F07AFE00BF002084F8940400BF00BF18
:1039D000E2E7000010B50446D4F8E00406F09BF9D5
:1039E0002068D0F8000E40F001002168C1F8000EF8
:1039F000E07A28B10348006840F0060001490860F9
:103A000010BD000010ED00E070B504460D460CB985
:103A1000012070BD5848006800F00F00A84209D28C
:103A200055490D700846006800F00F00A84201D00B
:103A30000120EEE7207800F0020002281DD1207856
:103A400000F00400042805D14C48006840F4E05020
:103A50004A490860207800F00800082805D1474846
:103A6000006840F46040454908604448006820F020
:103A7000F000A168084341490860207800F0010087
:103A8000A8B36068012807D13C4808380068C0F333
:103A90004040B8B90120BCE76068022802D06068E5
:103AA000032807D1354808380068C0F3406048B99A
:103AB0000120AEE7314808380068C0F3400008B97B
:103AC0000120A6E72D48006820F003006168084344
:103AD0002A490860FEF7E0FF064609E0FEF7DCFF32
:103AE000801B41F28831884202D9032091E707E028
:103AF0002248006800F00C006168B0EB810FEDD146
:103B00001D48006800F00F00A84209D91A490D703D
:103B10000846006800F00F00A84201D0012078E7B5
:103B2000207800F00400042807D11448006820F42D
:103B3000E050E168084311490860207800F008006F
:103B4000082808D10D48006820F46040216940EA47
:103B5000C1000A49086000F03FF808490968C1F34C
:103B60000311074A515CC8400649086006480068CE
:103B7000FEF7C2FF00204CE7003C0240083802403C
:103B8000CC1F0108300000202800002001480068F8
:103B9000704700003000002000B5FFF7F7FF044930
:103BA0000968C1F38221034A515CC84000BD00008E
:103BB00008380240DC1F010800B5FFF7E7FF0449A1
:103BC0000968C1F34231034A515CC84000BD00009E
:103BD00008380240DC1F01082DE9F04700240025C9
:103BE0000026A1462548006800F00C0020B10428FA
:103BF00005D008283AD105E0DFF8849039E0DFF8F5
:103C0000849036E01D48001F006800F03F041B4808
:103C1000001F006800F4800078B11A481749091F96
:103C20000968C1F38811A0FB0170014622460023F8
:103C30003846FCF71EFD05460EE011480F49091FE6
:103C40000968C1F38811A0FB0170014622460023D8
:103C50003846FCF70EFD05460848001F0068C0F313
:103C60000140401C4600B5FBF6F902E0DFF8109079
:103C700000BF00BF4846BDE8F0870000083802409A
:103C80000024F400001BB700F8B504460CB901206D
:103C9000F8BD207800F00100002874D0F9480068D1
:103CA00000F00C0004280DD0F648006800F00C006D
:103CB000082813D1F348001F006800F48000B0F515
:103CC000800F0BD1EF4808380068C0F3404000284F
:103CD00059D06068002856D10120D9E700BF60683C
:103CE000B0F5803F08D1E7480838006840F48030DC
:103CF000E449083908601EE06068B0F5A02F0DD1D6
:103D0000E0480838006840F48020DE49083908603F
:103D10000846006840F4803008600CE0D948083854
:103D2000006820F48030D7490839086008460068E8
:103D300020F48020086000BF606890B1FEF7ACFE00
:103D4000054606E0FEF7A8FE401B642801D90320C3
:103D50009EE7CC4808380068C0F340400028F1D006
:103D600011E0FEF799FE054606E0FEF795FE401BC2
:103D7000642801D903208BE7C24808380068C0F3E3
:103D800040400028F1D1207800F0020002285FD1E5
:103D9000BC48006800F00C0058B1BA48006800F058
:103DA0000C0008281CD1B748001F006800F48000F0
:103DB000B0B9B44808380068C0F3400020B1E068EA
:103DC000012801D0012063E7AE480838006820F0E0
:103DD000F800216940EAC100AA490839086037E0C3
:103DE000E06800B30120A8490860FEF755FE0546CB
:103DF00006E0FEF751FE401B022801D9032047E7E9
:103E0000A04808380068C0F340000028F1D09D4861
:103E10000838006820F0F800216940EAC10099499B
:103E20000839086014E0002097490860FEF734FE66
:103E3000054606E0FEF730FE401B022801D90320AC
:103E400026E7904808380068C0F340000028F1D108
:103E5000207800F0080008282CD16069A8B1012062
:103E60008A490860FEF718FE054606E0FEF714FED4
:103E7000401B022801D903200AE782486C30006801
:103E8000C0F340000028F1D014E000207F49086012
:103E9000FEF702FE054606E0FEF7FEFD401B022887
:103EA00001D90320F4E677486C300068C0F3400085
:103EB0000028F1D1207800F00400042870D10027F8
:103EC00070483830006800F0805090B900BF002082
:103ED00000906C483830006840F0805069493831B3
:103EE00008600846006800F08050009000BF00BFE6
:103EF00001276748006800F48070B0B96448006822
:103F000040F4807062490860FEF7C6FD054606E091
:103F1000FEF7C2FD401B022801D90320B8E65C4829
:103F2000006800F480700028F2D000BFA06801286B
:103F300008D154486830006840F0010051496831A8
:103F400008601DE0A06805280DD14E486830006863
:103F500040F004004B49683108600846006840F0B2
:103F6000010008600CE047486830006820F001005C
:103F70004449683108600846006820F00400086081
:103F800000BFA068A8B1FEF787FD054609E0FEF76F
:103F900083FD401B41F28831884202D9032077E635
:103FA00026E0384868300068C0F340000028EED0B2
:103FB00013E0FEF771FD054608E0FEF76DFD401BBE
:103FC00041F28831884201D9032061E62D486830EA
:103FD0000068C0F340000028EFD1012F07D1294825
:103FE0003830006820F0805026493831086000BF22
:103FF000A069002845D02348006800F00C0008287C
:104000005DD0A069022845D100201F490866FEF74F
:1040100043FD054606E0FEF73FFD401B022801D99F
:10402000032035E6174808380068C0F340600028D0
:10403000F1D1D4E907010843616A40EA8111012204
:10404000A06AC2EB500041EA00412C20005D41EA29
:1040500000600C49091F086001200B490866FEF743
:104060001BFD054606E0FEF717FD401B022801D99F
:1040700003200DE6034808380068C0F340600028BC
:10408000F1D049E00838024000004742800E474224
:1040900000700040002021490866FEF7FDFC05463F
:1040A00006E0FEF7F9FC401B022801D90320EFE5EA
:1040B0001B480068C0F340600028F2D12CE0A069E2
:1040C000012800D1E4E51648001D0668A069012812
:1040D00020D006F48001E06981421BD106F03F0147
:1040E000206A814216D147F6C0703040616AB0EB59
:1040F000811F0FD106F440310122A06AC2EB5000AB
:10410000B1EB004F06D106F070612C20005DB1EBE1
:10411000006F01D00120BBE50020B9E50000474257
:104120000038024010B504460CB9012010BD606A89
:1041300038B96068B0F5827F00D105E00021E16107
:1041400002E00021216161610021A16294F8510027
:1041500028B9002084F85000204600F047F80220DB
:1041600084F851002068006820F040002168086051
:10417000A08800F48270218901F404410843A189D8
:1041800001F400610843217C01F002010843217D14
:1041900001F001010843218B01F400710843217FE4
:1041A00001F0380108432021095D01F08001084336
:1041B000218D01F400510843216808600421A069A1
:1041C00001EA104094F8241001F01001084321681E
:1041D00048602068C06920F400602168C861002040
:1041E0006065012084F8510000209FE710B586B07B
:1041F0000446142101A8FCF74CFB1B4920688842A7
:1042000030D100BF002000901848006840F48010B2
:10421000164908600846006800F48010009000BF4E
:1042200000BF00BF0020009010481438006840F024
:1042300020000E49143908600846006800F020008C
:10424000009000BF00BF4FF4607001900220029008
:1042500000200390032004900520059001A9044844
:10426000FEF704FB06B010BD005001404438024088
:104270000014024070B504462546681EB0F1807FE8
:1042800001D301200FE0681E4FF0E02148610F21AB
:104290004FF0FF3007F038F800204FF0E021886140
:1042A00007200861002070BD704770472DE9F84F66
:1042B0000446206805682068C668206847694FF092
:1042C0000009CA4605F00F09B9F1000F0AD105F03F
:1042D000200038B106F0200020B1204604F0B3F8E9
:1042E000BDE8F88FB9F1000F7CD007F0010018B9D4
:1042F00006F49070002875D005F0010030B106F486
:10430000807018B1606C40F00100606405F004003A
:1043100030B107F0010018B1606C40F00200606439
:1043200005F0020030B107F0010018B1606C40F0F8
:104330000400606405F0080048B106F0200010B9E0
:1043400007F0010018B1606C40F008006064606C18
:10435000002846D005F0200028B106F0200010B15A
:10436000204604F070F820684069C0F3801A606C41
:1043700000F0080010B9BAF1000F2DD0204603F06C
:10438000D6FF2068406900F04000402820D100BFDF
:1043900000BF2168143151E8001F21F0400021685E
:1043A000143141E80002002AF3D100BFE06B50B1A4
:1043B0007748E16B0865E06BFEF71DF888B1E06BAC
:1043C000016D88470DE02046FFF76FFF09E009E027
:1043D0002046FFF76AFF04E02046FFF766FF002053
:1043E00060647DE7206B012878D105F0100000287B
:1043F00074D006F010000028FAD000BF0020009012
:1044000020680068009020684068009000BF00BFEE
:104410002068406900F04000402860D1E06B0068EF
:1044200040681FFA80F8B8F1000F56D0A08D4045C3
:1044300053DDA4F82E80E06BC069B0F5807F43D0D7
:1044400000BF00BF21680C3151E8001F21F48070CB
:1044500021680C3141E80002002AF3D100BF00BFFF
:1044600000BF2168143151E8001F21F001002168CC
:10447000143141E80002002AF3D100BF00BF00BFA1
:104480002168143151E8001F21F0400021681431E7
:1044900041E80002002AF3D100BF202084F8420046
:1044A0000020206300BF00BF21680C3151E8001FCD
:1044B00021F0100021680C3141E80002002AF3D1FC
:1044C00000BFE06BFDF741FF02206063A08DE28D2D
:1044D000801A81B22046FFF7E7FE01E742E0A08D97
:1044E000E18D401A1FFA80F8E08DD0B3B8F1000FCB
:1044F00037D000BF00BF21680C3151E8001F21F404
:10450000907021680C3141E80002002AF3D100BF0D
:1045100000BF00BF2168143151E8001F21F00100E5
:104520002168143141E80002002AF3D100BF2020A5
:1045300084F842000020206300BF00BF21680C31D6
:1045400051E8001F21F0100021680C3141E8000201
:10455000002AF3D100BF0220606341462046FFF7E6
:10456000A3FEBDE605F0800030B106F0800018B172
:10457000204604F0FDF8B3E605F0400030B106F047
:10458000400018B1204603F008FFA9E600BFA7E6E7
:104590006582000810B504460CB9012010BDA06961
:1045A00000B100E000BF94F8410028B9002084F871
:1045B0004000204600F02AF8242084F841002068BA
:1045C000C06820F400502168C860204603F0BAFF9C
:1045D0002068006920F490402168086120684069E3
:1045E00020F02A00216848612068C06840F400502B
:1045F0002168C86000206064202084F8410084F8AD
:1046000042000020606300BFC8E7000010B586B01C
:104610000446142101A8FCF73CF9FE4920688842B1
:104620004DD100BF00200090FB48006840F480108E
:10463000F94908600846006800F48010009000BF47
:1046400000BF00BF00200090F3481038006840F021
:104650000400F149103908600846006800F00400C1
:10466000009000BF00BF00BF002000900846006817
:1046700040F0080008600846006800F0080000905C
:1046800000BF00BF88140190022002900020039018
:10469000032004900820059001A9E048FEF7E6F801
:1046A0000420019002200290002003900320049037
:1046B0000820059001A9DA48FEF7D8F85AE2D9494E
:1046C0002068884275D100BF00200090D248006861
:1046D00040F08040D04908600846006800F0804003
:1046E000009000BF00BF00BF00200090CA481038F3
:1046F000006840F01000C84910390860084600689A
:1047000000F01000009000BF00BF4FF4C070019097
:1047100002200290002003900320049008200590BE
:1047200001A9C148FEF7A2F8C048C14908604FF08E
:10473000206048600021BE488160C1604FF4806104
:104740000161002141618161C16101624162FDF746
:1047500087FF08B1FCF735FE00BFB548E06384630E
:1047600000BFB2483038B349086080054860402136
:10477000B04881600021C1604FF480610161002177
:1047800041618161C16101624162FDF769FF08B168
:10479000FCF717FE00BFA748A063846300BF002298
:1047A00005215220FEF70CFA5220FEF7F5F9E1E15F
:1047B000FFE7A1492068884238D100BF002000905F
:1047C0009548006840F0004093490860084600683A
:1047D00000F00040009000BF00BF00BF002000902C
:1047E0008D481038006840F010008B49103908607F
:1047F0000846006800F01000009000BF00BF0320D2
:1048000001900220029000200390032004900820D1
:10481000059001A98448FEF729F8002205215320BC
:10482000FEF7CEF95320FEF7B7F9A3E183492068DC
:1048300088427DD100BF002000907748001D0068AD
:1048400040F010007449091D08600846006800F037
:104850001000009000BF00BF00BF002000906E4815
:104860001038006840F002006B49103908600846B3
:10487000006800F00200009000BF00BFC02001905F
:10488000022002900020039003200490072005904E
:1048900001A96B48FDF7EAFF6A486B4908604FF0D1
:1048A00000604860002168488160C1604FF4806109
:1048B0000161002141618161C1614FF440310162B8
:1048C00000214162FDF7CCFE08B1FCF77AFD00BF84
:1048D0005D48E063846300BF5A4878305B490860F4
:1048E0004FF0006048604021584881600021C1605D
:1048F0004FF480610161002141618161C1614FF428
:104900004031016200214162FDF7AAFE08B1FCF7C7
:1049100058FD00BF4D48A063846300BF00220521FD
:104920002520FEF74DF92520FEF736F922E1FFE7B5
:104930004749206888426BD100BF0020009036486C
:10494000006840F40030344908600846006800F40C
:104950000030009000BF00BF00BF002000902E4834
:104960001038006840F008002B49103908600846EC
:10497000006800F00800009000BF00BF60200190B8
:10498000022002900020039003200490072005904D
:1049900001A92348FDF76AFF244830302D490860FB
:1049A0004FF00060486000212A488160C1604FF4E8
:1049B00080610161002141618161C1614FF4403139
:1049C000016200214162FDF74BFE08B1FCF7F9FCE2
:1049D00000BF2048E063846300BF144848301E498C
:1049E00008604FF00060486040211B488160002152
:1049F000C1604FF480610161002141618161C16149
:104A00004FF44031016200214162FDF729FE25E0AB
:104A100035E00000005000404038024000080240ED
:104A2000000C024000780040001002405860024034
:104A30006C090020CC090020007C004000100140DF
:104A400000040240406402402C0A00208C0A00202E
:104A500000440040EC0A00204C0B002008B1FCF799
:104A6000B0FC00BF4448A063846300BF002205215E
:104A70002620FEF7A5F82620FEF78EF87AE03F49BB
:104A80002068884276D100BF002000903C48006832
:104A900040F020003A4908600846006800F0200015
:104AA000009000BF00BF00BF0020009034481438C1
:104AB000006840F040003249143908600846006838
:104AC00000F04000009000BF00BF4FF48440019010
:104AD00002200290002003900320049008200590FB
:104AE00001A92848FDF7C2FE27482849086080052B
:104AF0004860002125488160C1604FF480610161F8
:104B0000002141618161C1614FF4003101620021E6
:104B10004162FDF7A5FD08B1FCF753FC00BF1B483F
:104B2000E063846300BF18487830194908604FF08B
:104B3000206048604021164881600021C1604FF428
:104B400080610161002141618161C1610162416255
:104B5000FDF786FD08B1FCF734FC00BF0C48A063EC
:104B6000846300BF002205214720FEF729F8472073
:104B7000FEF712F806B010BD4C0B002000140140E7
:104B8000443802400018024028640240AC0B002068
:104B90000C0C002070472DE9F84F04460E461746CE
:104BA00099464FF0000A94F84100202850D106B1F0
:104BB00017B90120BDE8F88F00206064212084F837
:104BC0004100FDF769FF8246A784E784A068B0F53D
:104BD000805F04D1206910B90025B04602E0354657
:104BE0004FF000081EE05346002280212046CDF8F9
:104BF000009003F0EDFD20B1202084F84100032057
:104C0000D8E745B9B8F80000C0F30800216848604B
:104C100008F1020803E02878216848606D1CE08CE8
:104C2000401EE084E08C0028DDD153460022402164
:104C30002046CDF8009003F0CBFD20B1202084F871
:104C400041000320B6E7202084F841000020B1E7AE
:104C50000220AFE7F7B50446154694F84100202836
:104C600036D1019800B10DB90120FEBD0198206236
:104C7000A584E58400206064212084F84100154863
:104C8000A16BC8631448A16B08641448A16BC86485
:104C90000020A16B086501AE23681A1D31682B4600
:104CA000A06BFDF786FD6FF040002168086000BF33
:104CB00000BF2168143151E8001F41F080002168D5
:104CC000143141E80002002AF3D100BF0020CCE7F4
:104CD0000220CAE7C98200082183000879820008FF
:104CE0007047704700BFFEE730B50B46002100BF9C
:104CF00016E00A24B4EB107F05D9302404EB1074BD
:104D000003F8114005E0412404EB10740A3C03F859
:104D10001140000100254C00641C1D554C1CE1B2E3
:104D20009142E6DB30BD000030B599B00446602208
:104D30006D4901A8FBF759FD00201FE001A901EB17
:104D4000001191ED000A04EB800181ED000A01A938
:104D500001EB001191ED010A04F1180101EB800152
:104D600081ED000A01A901EB001191ED020A04F1A5
:104D7000300101EB800181ED000A401C0628DDDBDB
:104D8000002517E04020FBF71EFC04F17C0141F8F0
:104D9000250051F825004021FBF77BFD04F17C0143
:104DA00051F82530303901EBC50004221146FBF7DC
:104DB00067FB6D1C062DE5DB002517E04020FBF7A7
:104DC00002FC04F1EC0141F8250051F825004021D6
:104DD000FBF75FFD04F1EC0151F82530103901EBD0
:104DE000C50004221146FBF74BFB6D1C022DE5DBD1
:104DF0002420FBF7E8FB44F8A80F24212068FBF7E8
:104E000048FD54F8A8390322114604F1A000FBF72D
:104E100037FB2420FBF7D7FB44F8B40F242120688C
:104E2000FBF737FD54F8B4390322114604F1AC0006
:104E3000FBF726FB2420FBF7C6FB44F8C00F242118
:104E40002068FBF726FD54F8C0390322114604F10F
:104E5000B800FBF715FB2420FBF7B5FB44F89C0FCB
:104E600024212068FBF715FD54F89C3903221146D4
:104E700004F19400FBF704FB2420FBF7A4FB44F8A7
:104E8000FC0F24212068FBF704FD54F8FC390322B1
:104E9000114604F1F400FBF7F3FA0C20FBF793FB47
:104EA00044F8CC0F0021206801604160816054F813
:104EB000CC390122032104F1C400FBF7E1FA0C20F4
:104EC000FBF781FB44F8D80F0021206801604160A6
:104ED000816054F8D8390122032104F1D000FBF796
:104EE000CFFA19B030BD0000DC26010810B50E481D
:104EF0000E4908600320486000210C488160C160B1
:104F00004FF4102101614FF400114161002101763D
:104F100041768176C17601774177FCF719FE08B1B9
:104F2000FCF74FFA10BD0000006400401407002099
:104F300010B50E480E4908600320486000210C4857
:104F40008160C1604FF4102101614FF40011416193
:104F50000021017641768176C17601774177FCF7B1
:104F6000F7FD08B1FCF72DFA10BD00000068004005
:104F70003C07002008B500BF002000902E480068C4
:104F800040F400102C4908600846006800F4001046
:104F9000009000BF00BF00BF0020009008460068DE
:104FA00040F4800008600846006800F4800000902B
:104FB00000BF00BF002205210C20FDF701FE0C20E0
:104FC000FDF7EAFD002205210E20FDF7F9FD0E2078
:104FD000FDF7E2FD002205211020FDF7F1FD102074
:104FE000FDF7DAFD002205211120FDF7E9FD112072
:104FF000FDF7D2FD002205213920FDF7E1FD392022
:10500000FDF7CAFD002205213A20FDF7D9FD3A201F
:10501000FDF7C2FD002205214520FDF7D1FD452009
:10502000FDF7BAFD002205214620FDF7C9FD462007
:10503000FDF7B2FD08BD00003038024000B5ABB04E
:105040001C22244924A8FBF7D0FB002124A80AF045
:10505000C7F8214908601C221E491C311DA8FBF716
:10506000C4FB00211DA80AF0BBF81C4908601C22E3
:105070001849383116A8FBF7B8FB002116A80AF02A
:10508000AFF8174908601C22124954310FA8FBF7EA
:10509000ACFB00210FA80AF0A3F8124908601C22FB
:1050A0000C49703108A8FBF7A0FB002108A80AF002
:1050B00097F80C4908601C2206498C3101A8FBF7BF
:1050C00094FB002101A80AF08BF8074908602BB077
:1050D00000BD00001C1F010800000020040000208B
:1050E0000C000020100000201C00002000B587B03C
:1050F000142102A8FBF7CDFB00BF002001906648F9
:10510000006840F01000644908600846006800F03C
:105110001000019000BF00BF00BF002001900846B2
:10512000006840F0400008600846006800F0400059
:10513000019000BF00BF00BF00200190084600683A
:1051400040F0040008600846006800F00400019088
:1051500000BF00BF00BF002001900846006840F07B
:10516000010008600846006800F00100019000BFDF
:1051700000BF00BF002001900846006840F0020018
:1051800008600846006800F00200019000BF00BF00
:1051900000BF002001900846006840F00800086049
:1051A0000846006800F00800019000BF00BF00BF83
:1051B000002001900846006840F080000860084622
:1051C000006800F08000019000BF00BF00BF002019
:1051D00001900846006840F020000860084600681A
:1051E00000F02000019000BF00BF002210212B48DA
:1051F000FDF74CFC00224FF488612948FDF746FC7E
:1052000000224FF480412748FDF740FC1020029017
:105210000120039004900220059002A91F48FDF789
:1052200025FB40200290012003900020049005906F
:1052300002A91B48FDF71AFB4FF480600290012081
:10524000039004900220059002A91548FDF70EFB7B
:1052500008200290002003900120049002A9124827
:10526000FDF704FB20200290002003900120049011
:1052700002A90E48FDF7FAFA4FF48040029001208F
:105280000390022004900020059002A90548FDF734
:10529000EDFA07B000BD000030380240001C0240AB
:1052A00000140240001002400008024000000240CA
:1052B00010B50E480E4908604FF482704860002116
:1052C0000B488160C160016141614FF400718161EF
:1052D0003021C16100210162416281620A21C16203
:1052E000FEF720FF08B1FCF76CF810BD005001403C
:1052F0006407002010B50B480B4908604FF4E130FB
:105300004860002108488160C16001610C21416151
:1053100000218161C161FFF73DF908B1FCF751F847
:1053200010BD000000500040BC07002010B50B4825
:105330000B4908604FF4E130486000210848816063
:10534000C16001610C21416100218161C161FFF7F0
:1053500021F908B1FCF735F810BD000000780040D5
:105360000408002010B50B480B4908604FF4E130E9
:105370004860002108488160C16001610C214161E1
:1053800000218161C161FFF705F908B1FCF719F847
:1053900010BD0000007C00404C08002010B50B48F8
:1053A0000B4908604FF46120486000210848816083
:1053B000C16001610C21416100218161C161FFF780
:1053C000E9F808B1FBF7FDFF10BD00000010014037
:1053D0009408002010B50B480B4908604FF4612079
:1053E0004860002108488160C16001610C21416171
:1053F00000218161C161FFF7CDF808B1FBF7E1FF42
:1054000010BD000000440040DC08002010B50B482F
:105410000B4908604FF4E130486000210848816082
:10542000C16001610C21416100218161C161FFF70F
:10543000B1F808B1FBF7C5FF10BD00000014014032
:105440002409002010B500220D490E4804F06BF924
:1054500008B1FBF7B6FF0C490A4804F09DFC08B1FF
:10546000FBF7AFFF0949074803F094FD08B1FBF7CC
:10547000A8FF044804F092FD08B1FBF7A2FF10BD9D
:10548000CC030020106C0020400400201C040020ED
:1054900000BFFEE72DE9F0472DED028B8AB00446F0
:1054A000894692464FF0000800200CE004F1C40148
:1054B00001EB800191ED000A04F1DC0101EB8001B8
:1054C00081ED000A401C0628F0DB0120AD4B04F5FD
:1054D000377204F52D71009004F1F40001F06AFBBD
:1054E000074627B90AB0BDEC028BBDE8F087002063
:1054F000206000BF3DE0012102AA115400212FE0ED
:1055000000EB400304F5377202EBC30202EB8102A9
:1055100092ED000A04F5677202EBC102D2ED000AB7
:10552000B4EEE00AF1EE10FA14DC00EB400304F5EF
:10553000377202EBC30202EB810292ED000A04F51E
:10554000677202EBC102D2ED010AB4EEE00AF1EE9D
:1055500010FA03D2002202AB1A5400E000BF491C2B
:105560000629CDDB02A9095C11B12168491C216023
:10557000401C0828BFDB206800287DD09FED820AF0
:10558000B0EE408A0025002655E002A8805DE0B319
:1055900000202AE006EB460204F5377101EBC20158
:1055A00001EB8001D1ED000A06EB4602211D01EB63
:1055B000C20101EB8001C1ED000A06EB460204F5D1
:1055C000377101EBC20101EB8001D1ED000A04F556
:1055D000277101EB800191ED001A71EE600A04A9B8
:1055E00001EB8001C1ED000A401C0628D2DBDDE999
:1055F0000801CDE9000104A80FC8FBF7E7FAB4EEF3
:10560000C80AF1EE10FA04D200E003E0B0EE408ADE
:10561000F5B20FE000200BE09FED5C0A06EB4602BE
:10562000211D01EBC20101EB800181ED000A401C4C
:105630000628F1DB761C082EA7DB05EB450104F5F7
:10564000377000EBC10090ED000A84ED310A05EBE4
:10565000450104F5377000EBC10090ED010A84EDBF
:10566000320A05EB450104F5377000EBC10090EDFF
:10567000020A84ED330A00E074E005EB450104F50D
:10568000377000EBC10090ED030A84ED340A05EB9E
:10569000450104F5377000EBC10090ED040A84ED7C
:1056A000350A05EB450104F5377000EBC10090EDBC
:1056B000050A84ED360A05EB450104F5377000EB69
:1056C000C10090ED000ADFED320A30EE200A3148C9
:1056D00080ED000A05EB450104F5377000EBC100D1
:1056E00090ED010ADFED2C0A30EE200AB1EE400AFF
:1056F000284880ED010A05EB450104F5377000EB01
:10570000C10090ED020ADFED250A30EE200A2148A3
:1057100080ED020A05EB450104F5377000EBC1008E
:1057200090ED030A1B4880ED030A05EB450104F5E3
:10573000377000EBC10090ED040ADFED190A30EE7E
:10574000200A144880ED040A05EB450104F5377082
:1057500000EBC10090ED050AB1EE400A0D4880ED66
:10576000050A0CE0002008E09FED080A04F1C401DE
:1057700001EB800181ED000A401C0628F4DB00BF2C
:10578000B0E60000485A002000007A440000000003
:105790004E62103F605A002017D98E3E4260A53FEE
:1057A0006666E63F00BFFEE710B52DED028B0446AE
:1057B000B0EE408AF0EE608AD4F8060090ED010A5F
:1057C0008A4880ED000A00201DE054F8062F411C95
:1057D00002EB810191ED000A8449D1ED000A30EE1F
:1057E000600A216801EB800181ED000A6268411CBA
:1057F00002EB810191ED000AA41F02EB800181ED13
:10580000000A411C88B22188491E8142DDDCD4F89F
:1058100006102088801E01EB800090ED000A30EE1B
:10582000080A2088401E01EB800080ED000AD4F8B1
:105830000A102088401E01EB8000C0ED008AD4F8D9
:1058400002002188884204D2D4F80200401CC4F827
:105850000200102104F11A00FAF7F9FF218862888A
:10586000891A88B24AE054F8061F01EB8001D1ED95
:10587000000A216801EB800191ED001A616900EED8
:10588000101A00EE810A10EE101A616154F8061920
:1058900001EB8001D1ED000AD4F81E1000EE101AC1
:1058A00030EE800A10EE101AC4F81E10D4F806105C
:1058B00001EB8001D1ED000AD4F80A1001EB800160
:1058C00091ED001AD4F8221000EE101A00EE810AB1
:1058D00010EE101AC4F82210D4F80A1001EB80015F
:1058E000D1ED000AD4F8261000EE101A30EE800A2E
:1058F00010EE101AC4F82610411C88B2218881428B
:10590000B1DCD4F8220000EE100A208800EE900AE4
:10591000F8EE600A20EE200AD4F81E0000EE900A8D
:10592000D4F8260001EE100A00EEC10AD4F81A00DD
:1059300000EE900A208801EE100AB8EE411A20EE1F
:10594000811AD4F81E0000EE900A01EE900A00EED3
:10595000E11AC0EE010A10EE900AC4F80E009FEDA5
:10596000240A10EE100AC4F8160021886288891AE9
:1059700088B221E054F8061F01EB800191ED001A76
:10598000E16800EE101AA16800EE901A00EE810A9C
:10599000616801EB8001D1ED000A30EE600AF0EEA3
:1059A000C00A216900EE101A30EE800A10EE101ABB
:1059B0002161A41F411C88B221888142DADCD4F81D
:1059C000160000EE100A208800EE900AB8EE601A69
:1059D000C0EE010A10EE900AC4F81600D4F80E00CA
:1059E00000EE100ABDEC028B10BD0000C0030020C9
:1059F0000000000070B504460D46A41C24F8025CAB
:105A000000202060A800FAF7DEFD6060A800FAF729
:105A1000DAFDA0609FED0C0A10EE100AE0609FED29
:105A20000A0A10EE100A2061A9006068FAF731FF37
:105A3000A900A068A41EFAF72CFF102104F11A0097
:105A4000FAF705FF70BD00000000000010B5024825
:105A5000FDF7D5FA10BD0000EC8000202DE9F047DD
:105A600004460D4626683746D6F8408007F5306074
:105A700000EB4510D0F80890104880450BD909F488
:105A80000040B0F5004F06D14FF4004107F53060FB
:105A900000EB451081602046FDF76CFF074880450C
:105AA00008D9A079012805D104F29C42012120687F
:105AB00004F022FF0020BDE8F08700000A30544FB8
:105AC0002DE9F04705460C46D5F800904E46D9F82A
:105AD00040A006F5306000EB4410D0F80880A879AB
