:020000040800F2
:10000000D8A60020E9020008FB1C0008551B0008C8
:10001000F91C0008C5050008712200080000000056
:10002000000000000000000000000000290200089D
:100030009D0600080000000085020008B51D0008AC
:100040000303000803030008030300080303000878
:100050000303000803030008030300080303000868
:100060000303000803030008030300080303000858
:100070000303000803030008030300080303000848
:100080000303000803030008030300080303000838
:100090000303000803030008030300080303000828
:1000A00003030008851E000803030008030300087B
:1000B0000303000803030008030300080303000808
:1000C00003030008030300080303000803030008F8
:1000D0000303000849220008030300080303000883
:1000E00003030008030300080303000803030008D8
:1000F00003030008030300080303000803030008C8
:1001000003030008030300080303000803030008B7
:1001100003030008030300080303000803030008A7
:1001200003030008C9050008D505000803030008FB
:100130000303000803030008030300080303000887
:100140000303000803030008030300080303000877
:1001500003030008E1050008ED0500085D22000822
:100160000303000803030008030300080303000857
:100170000303000803030008030300080000000055
:10018000030300080303000800F002F800F03CF845
:100190000AA090E8000C82448344AAF10107DA45E2
:1001A00001D100F031F8AFF2090EBAE80F0013F0F8
:1001B000010F18BFFB1A43F0010318473C3A000037
:1001C0005C3A0000103A24BF78C878C1FAD85207C8
:1001D00024BF30C830C144BF04680C6070470000C1
:1001E0000023002400250026103A28BF78C1FBD840
:1001F000520728BF30C148BF0B6070471FB503F0DE
:1002000025FA1FBD10B510BD00F0ABF91146FFF780
:10021000F5FF02F0E7F900F0C9F903B4FFF7F2FFC8
:1002200003BC00F0C9F900002C4B19680868B0E85D
:10023000F04F80F30988BFF36F8F4FF0000080F319
:10024000118870470000000008480068006880F3CB
:1002500008884FF0000080F3148862B661B6BFF3DF
:100260004F8FBFF36F8F00DF00BF00BF08ED00E0CE
:10027000DFF80C00016841F470010160704700BFB5
:1002800088ED00E0EFF30980BFF36F8F134B1A681E
:100290001EF0100F08BF20ED108A20E9F04F10600B
:1002A00009B44FF0500080F31188BFF34F8FBFF3B4
:1002B0006F8F02F0E7FF4FF0000080F3118809BC58
:1002C00019680868B0E8F04F1EF0100F08BFB0ECD6
:1002D000108A80F30988BFF36F8F70471C000020DD
:1002E000EFF3058070470000094880470948004740
:1002F000FEE7FEE7FEE7FEE7FEE7FEE7FEE7FEE7D6
:10030000FEE7FEE704480549054A064B7047000032
:10031000751E000889010008D8460020D8A60020D4
:10032000D8660020D866002053EA020C00F06980ED
:100330002DE9F04B4FF00006002B1FBFB3FA83F5F9
:1003400003FA05F424FA05F65E4012BF1643B2FA2A
:1003500082F502FA05F4C5F120051EBF22FA05FC5C
:1003600044EA0C04203556EA044C4FEA144418BF02
:10037000641C4FF000084FF00009904271EB030C31
:1003800039D3002919BFB1FA81F701FA07F6B0FA9B
:1003900080F700FA07F6C7F120071EBF20FA07FC16
:1003A00046EA0C062037B6FBF4FCA7EB0507103F26
:1003B00007F01F0BCBF120060CFA0BFB2CFA06F60C
:1003C00044BFB3460026202FA4BF5E464FF0000B6B
:1003D0005BEA060C08BF4FF0010B19EB0B09ABFBF6
:1003E000027C48EB0608C01B06FB02CC0BFB03CCCF
:1003F00071EB0C01C1E70B46024641464846BDE899
:10040000F08B13B54FF000004FF00001AFF3008008
:10041000BDE81C407047032A40F2308010F0030C06
:1004200000F0158011F8013BBCF1020F624498BF47
:1004300011F801CB00F8013B38BF11F8013BA2F1E4
:10044000040298BF00F801CB38BF00F8013B11F05F
:10045000030300F02580083AC0F0088051F8043BFF
:10046000083A51F804CBA0E80810F5E7121D5CBF6C
:1004700051F8043B40F8043BAFF30080D20724BF9F
:1004800011F8013B11F801CB48BF11F8012B24BF33
:1004900000F8013B00F801CB48BF00F8012B704782
:1004A00010B5203AC0F00B80B1E81850203AA0E80F
:1004B0001850B1E81850A0E81850BFF4F5AF5FEA43
:1004C000027C24BFB1E81850A0E8185044BF18C9F6
:1004D00018C0BDE810405FEA827C24BF51F8043B9D
:1004E00040F8043B08BF7047D20728BF31F8023BF1
:1004F00048BF11F8012B28BF20F8023B48BF00F885
:10050000012B70474FF0000200B513469446964603
:10051000203922BFA0E80C50A0E80C50B1F1200116
:10052000BFF4F7AF090728BFA0E80C5048BF0CC0C4
:100530005DF804EB890028BF40F8042B08BF704722
:1005400048BF20F8022B11F0804F18BF00F8012B94
:1005500070477047704770470048704774460020E6
:1005600070477546FFF7F8FFAE46050069465346EB
:1005700020F00700854618B020B5FFF7C3FEBDE8A0
:1005800020404FF000064FF000074FF000084FF0FA
:10059000000B21F00701AC46ACE8C009ACE8C0098B
:1005A000ACE8C009ACE8C0098D4670470446AFF31B
:1005B00000802046FFF731FE01491820ABBEFEE760
:1005C00026000200FEE70000014800F02BB9000001
:1005D00038040020014800F025B90000780300200D
:1005E000014800F01FB9000098040020014800F005
:1005F00019B90000D803002001681823CAB2103AC4
:10060000B2FBF3F2054B6FF30901032A9B5CC36550
:1006100000D9091D8165084670470000AC36000806
:1006200010B5014600208B698A6A4FF0C07453B13F
:10063000B3F5005F15D072B1012A0CD0022A0AD09E
:10064000032A09D104E01AB1012A06D0022A03D1F3
:10065000C96AC90100D5012010BDC96AA142FAD0FA
:1006600010BD002AF7D0012AF2D0022AF3D0032AC3
:10067000F3D010BD30B50468256825F480252560C9
:10068000046863608368402B036803D09960006846
:10069000C26030BD9A600068C16030BD7047000024
:1006A00001F02AFE4FF47A7002F012F82B4F002668
:1006B00001243E70204601F083FF052002F008F877
:1006C000641CE4B2072CF5D3DFF89480DFF8949033
:1006D0004FF4006A4FF4805B38780028FCD1012089
:1006E000387001F0D1FE01281BD0002501242046DE
:1006F00001F0A2FE98F89810012904EB440108EBE0
:10070000C10021D080F820600125641CE4B2072CD0
:10071000EDD3012D05D002203870012001F0D8FF63
:10072000DAE7002251464C46484600F0D5FA01224D
:100730005946204600F0D0FA00224FF4806120464E
:1007400000F0CAFA3E70C7E790ED010A07EB84019A
:1007500081ED000A80F82060D7E700008C4400207B
:1007600030420020001C024072B6FEE72DE9F04145
:100770000446876D00F0B6FA054694F83500002669
:10078000022806D08020606584F834600120BDE82E
:10079000F0812068016821F016010160206841693C
:1007A00021F080014161206C08B9A06C20B1206863
:1007B000016821F0080101602068016821F0010151
:1007C00001600CE000F08EFA401B052807D92020BC
:1007D0006065032084F8350084F83460D7E720682A
:1007E0000068C007EED194F85C103F208840B860E4
:1007F000012084F8350084F834600020C7E790F8C1
:100800003510022903D08021416501207047052160
:1008100080F835100068016821F0010101600020B6
:10082000704700002DE9F84304464FF00009CDF869
:10083000009063484FF41651A56D0068B0FBF1F7C6
:100840002E6894F85C20082101FA02F030420FD0A3
:100850002068026852070BD5026822F00402026089
:1008600094F85C008140A960606D40F00100606513
:1008700094F85C104FF0010808FA01F0304208D0FB
:1008800021684969090604D5A860606D40F002003E
:10089000606594F85C1004208840304208D02168DC
:1008A0000968890704D5A860606D40F004006065A0
:1008B00094F85C1010208840304218D021680968F4
:1008C000090714D5A86020680168490304D50068A9
:1008D000000308D5A16C07E00168C90503D40168CD
:1008E00021F008010160216C09B12046884794F885
:1008F0005C1020208840304231D021680968C90648
:100900002DD5A86094F8350005282068016806D028
:10091000490347D5006800031DD4616C1CE021F039
:10092000160101602068416921F080014161206C5D
:1009300008B9A06C20B12068016821F008010160AD
:1009400094F85C103F208840A86084F8358084F8D3
:100950003490216D1FE0E16B09B120468847606D3E
:1009600000282BD0606DC00714D0052084F8350016
:100970002068016821F0010101600098401C00908E
:10098000B84203D820680068C007F6D184F83580E3
:1009900084F83490E16C002910D001B02046BDE805
:1009A000F04308470168C905D5D4016821F010015A
:1009B000016084F8358084F83490CCE7BDE8F88392
:1009C000180000202DE9F041044600F08BF905469F
:1009D0005CB1022084F83500002684F83460206879
:1009E000016821F0010101600DE00120BDE8F08106
:1009F00000F078F9401B052805D920206065032008
:100A000084F83500F2E720680068C007F0D121685B
:100A10000A6820480240D4E901031843D4E90335A9
:100A20002B43184363691843A3691843E3691843C8
:100A3000236A18431043626A042A03D1D4E90B23C2
:100A40001A431043086020684069656A20F0070176
:100A500028460D43012704280CD1A06A0543E06A0B
:100A600040B12046FFF7DCFD20B14020606584F8EE
:100A70003570BAE7206845612046FFF7BDFD94F860
:100A80005C203F2191408160666584F835700020CC
:100A9000ACE700003F8010F02DE9F0410446866D80
:100AA00090F83400002501280DD0012084F834008E
:100AB00094F835700020012F07D084F83400022507
:100AC0002846BDE8F0810220FBE7022784F8357054
:100AD00060652046FFF7CEFD94F85C103F2088400B
:100AE000B0602068016841F016010160206C20B1FF
:100AF0002068016841F0080101602068016841F048
:100B000001010160DCE700002DE9F84FDFF89C915E
:100B10000022A9F1040B03274FF00F0C09F1040A7E
:100B2000ABF1040E01250B6895402B40AB426ED112
:100B30000C7904F00304012C01D0022C15D1866835
:100B4000540007FA04F826EA0806D1F80C8008FADF
:100B500004F848EA0608C0F808804468AC430D79F8
:100B6000C5F300159540254345600C79E443A4077F
:100B700008D0C568540007FA04F6B5438E68A6404D
:100B80002E43C6600C7904F00304022C11D1D40862
:100B900000EB8406356A5407E40E0CFA04F825EAE3
:100BA0000805D1F8108008FA04F848EA0508C6F8E4
:100BB00020800568540007FA04F6B5430E7906F064
:100BC0000306A6402E4306604C6814F4403F66D0EE
:100BD000374C256845F480452560246822F00305DC
:100BE00004F480440094334C05EB0408D8F808580A
:100BF0009407260F0CFA06F4A5432F4CA04201D10E
:100C0000002424E02D4CA04202D101241FE046E044
:100C10002B4CA04201D1022419E02A4CA04201D160
:100C2000032414E0284CA04201D104240FE0274CF7
:100C3000A04201D105240AE0254CA04201D106249E
:100C400005E0244CA04201D1072400E00824B44070
:100C50002C43C8F80848D9F800404D464E689C43DC
:100C6000F60200D51C432C60DAF8004055464E6869
:100C70009C43B60200D51C432C60DBF800405D4667
:100C80004E689C43B60300D51C432C60DEF8004040
:100C900075464E689C43F60300D51C432C60521CDD
:100CA000102AFFF43FAFBDE8F88F0000083C014078
:100CB000443802400030014000000240000402407D
:100CC00000080240000C02400010024000140240E4
:100CD00000180240001C02400AB1816170470904FB
:100CE000FBE7000001488068704700000C0000200E
:100CF0000248816802781144816070470C0000202E
:100D00000B4810B5016841F400710160016841F4BD
:100D100080610160016841F480710160032000F08E
:100D200099F80F2000F006F800F04AF8002010BDF6
:100D3000003C024030B505461C4887B000240168DD
:100D400041F001010160006805A900F00100069072
:100D5000684600F02BF900F059F915494000B0FB46
:100D6000F1F11548134A491E026040F2E732C0E92A
:100D70000324C0E90114846100F038FB040012D19F
:100D80000D4800F061FB04000DD1192000F034F88B
:100D9000102D07D200222946192000F03BF8074801
:100DA000056000E0012407B0204630BD4438024011
:100DB00040420F0000000140F80400201000002015
:100DC0000C4882B0016841F480410160006800F481
:100DD000804000900748001F016841F08051016089
:100DE0000068002200F0805000900F21901E02B099
:100DF00000F010B844380240002809DB00F01F0260
:100E0000012191404009800000F1E020C0F800116C
:100E100070470000F0B40E4B1B68C3F30223C3F10C
:100E20000704042C00D904241D1D072D01D2002322
:100E300000E0DB1E012606FA04F56D1E0D409D4004
:100E40009E40761E164045EA0601F0BC01F011BA3C
:100E50000CED00E0064A00F0070110684FF6FF03B2
:100E6000184040EA01200349084310607047000021
:100E70000CED00E00000FA052DE9F0470D460400F6
:100E800065D0DFF81491D9F80000EFB200F0070048
:100E9000A84207D289F80070D9F8000000F00700D6
:100EA000A84254D120683D4E810712D5400703D592
:100EB000306840F4E05030602078000703D5306897
:100EC00040F4604030603068A16820F0F0000843D2
:100ED00030602078C0072DD030496068083901287B
:100EE00012D0022813D0032811D0096889070029DD
:100EF0002DDA316821F0030101433160FFF7F2FE82
:100F0000804641F2883A0EE009688903EFE70968F4
:100F10008901ECE7FFF7E6FEA0EB0801514502D995
:100F20000320BDE8F0873068616800F00C00B0EB8A
:100F3000810FEFD1D9F80010484601F00701A9420E
:100F400007D90770006800F00700A84201D001200F
:100F5000E7E72078400705D53068E16820F4E050E5
:100F6000084330602078000706D53068216920F4F6
:100F7000604040EAC100306000F058F83168084A2B
:100F8000C1F30311515CC840064908600648006877
:100F9000FFF7D0FE0020C4E7003C024008380240C2
:100FA000B436000818000020100000200F22026054
:100FB0000C4A136803F003034360136803F0F00363
:100FC0008360136803F4E053C36012684FF4E05386
:100FD00003EAD20202610448006800F007000860DA
:100FE0007047000008380240003C024004480549B0
:100FF00000680968044AC1F38221515CC840704707
:101000001800002008380240C4360008044805498A
:1010100000680968044AC1F34231515CC840704716
:101020001800002008380240C4360008154810B5E2
:10103000006810F00C01144813D0144B04290FD091
:1010400008290ED10F4C241F216801F03F022168AE
:10105000490207D52068C0F38810A0FB030106E011
:10106000184610BD2168C1F38811A1FB00010023BF
:10107000FFF75AF92168C1F30141491C4900B0FB4F
:10108000F1F010BD083802400024F40040787D01E2
:101090002DE9F84F040075D02078DFF838A3C00799
:1010A000AAF1040548D00AF104000168C1F38101E6
:1010B000012908D00068C0F3810002280AD1DAF8BB
:1010C0000000400206D52868800335D560680028F6
:1010D000E1D031E06068B0F5803F10D0B0F5A02FCE
:1010E000286810D020F480302860286820F4802000
:1010F00028606068A0B1FFF7F5FD06460CE028689F
:1011000040F48030F4E740F480202860F7E7FFF7F0
:10111000E9FD801B642871D828688003F7D50BE0AF
:10112000FFF7E0FD064604E0FFF7DCFD801B6428C6
:10113000F1D828688003F7D42078DFF89C928007E4
:101140004FF0000B3DD5A348001D016811F00C0FB6
:1011500008D00068C0F3810002280AD1DAF8000044
:10116000400206D42868800715D5E068012809D117
:1011700011E0E068B8B10120C9F80000FFF7B2FD46
:10118000064605E022E1FFF7ADFD801B0228C2D82C
:1011900028688007F7D52868216920F0F80040EA20
:1011A000C10028600DE0C9F800B0FFF79BFD0646BE
:1011B00004E0FFF797FD801B02281FD828688007EE
:1011C000F7D42078000722D5824F844861697037B0
:1011D00071B101210160FFF785FD064604E0FFF7CC
:1011E00081FD801B022809D838688007F7D50EE0FA
:1011F000C0F800B0FFF776FD064605E082E0FFF795
:1012000071FD801B02287DD838688007F7D42078CC
:10121000400765D56F484FF000083C300068C000BB
:101220000BD46C483C30016841F08051016000688B
:101230004FF0010800F080500090694F3868C005F9
:101240000FD4386840F480703860FFF74BFD0646D5
:1012500004E0FFF747FD801B022853D83868C0051B
:10126000F7D55C4FA0686C3701280FD00528386887
:1012700010D020F001003860386820F00400386099
:10128000A068B0B1FFF72EFD06460EE0386840F0CA
:101290000100F4E740F004003860F7E7FFF722FDB3
:1012A000811B41F28830814263D838688007F5D5C8
:1012B0000DE0FFF717FD064606E0FFF713FD811B63
:1012C00041F28830814254D838688007F5D4B8F1AB
:1012D000000F05D03F483C30016821F0805101608B
:1012E000A069B8B33B49091D0968C1F3810102290E
:1012F00046D00228584606D0C9F86000FFF7F2FC35
:10130000044639E035E04F46C9F86000FFF7EAFCD3
:10131000064604E0FFF7E6FC801B022829D828686F
:101320008001F7D4D4E907010843A16A2D4A49088E
:1013300002EB0141626A41EA8211084394F82C10E1
:1013400040EA0161CAF8001001203866FFF7CAFCC4
:10135000044605E03CE0FFF7C5FC001B022808D866
:1013600028688001F7D533E0FFF7BCFC001B02289A
:1013700002D90320BDE8F88F28688001F4D427E063
:101380000128F7D0DAF80000E26900F48001914208
:101390001CD1226A00F03F01914217D147F6C0717B
:1013A000626A0140B1EB821F10D1A26A4FF0FF3395
:1013B00000F4403103EB5202B1EB024F06D194F836
:1013C0002C1000F07060B0EB016F01D00120D1E76C
:1013D0000020CFE70438024000004742800E474219
:1013E000007000400000FFFF7047704710B5040018
:1013F00003D094F83D0010B107E0012010BD00209B
:1014000084F83C00204600F01EF8022084F83D00DD
:10141000211D206800F03CFD012084F8460084F87E
:101420003E0084F83F0084F8400084F8410084F8CE
:10143000420084F8430084F8440084F8450084F8AE
:101440003D00002010BD704790F83D10012901D0EB
:1014500001207047022180F83D100168CA6842F0FF
:101460000102CA6000681149884214D0B0F1804F6F
:1014700011D00F4988420ED00E4988420BD00E4938
:10148000884208D00D49884205D00D49884202D0D3
:101490000C49884204D1816801F00701062903D074
:1014A000016841F001010160002070470000014027
:1014B0000004004000080040000C0040000401400F
:1014C000004001400018004070472DE9F0410446FB
:1014D0000068C66805694FF00007A90713D5B10772
:1014E00011D5F91E016101202077206880698007ED
:1014F000204602D0FFF7E8FF04E000F07EF8204627
:1015000000F07CF82777680716D5700714D5216896
:101510006FF004000861022020772068806910F4D1
:10152000407F204602D0FFF7CFFF04E000F065F8CF
:10153000204600F063F82777280715D5300713D524
:1015400021686FF008000861042020772068C069D6
:101550008007204602D0FFF7B7FF04E000F04DF807
:10156000204600F04BF82777E80616D5F00614D58C
:1015700021686FF010000861082020772068C0699A
:1015800010F4407F204602D0FFF79EFF04E000F0F9
:1015900034F8204600F032F82777E80708D0F00743
:1015A00006D021686FF001000861204600F028F89D
:1015B000280608D5300606D521686FF0800008613E
:1015C0002046FFF711FF680608D5700606D521688A
:1015D0006FF040000861204600F01CF8A8060AD50C
:1015E000B00608D521686FF0200008612046BDE8EC
:1015F000F041FFF7FABEBDE8F08170477047000088
:1016000000680349884201D1FFF772BB70470000B0
:10161000000001407047704770470000F8B501684E
:1016200004460868CA684B6910F00F0F4FF00005B8
:101630005AD003F0010602F49077374365D0C10712
:1016400005D0D10503D5616C41F00101616441070A
:1016500005D5D90703D0616C41F0020161648107AF
:1016600005D5D90703D0616C41F00401616401071D
:1016700007D502F02001314303D0616C41F008012D
:101680006164616C00293BD0800604D5900602D5C8
:10169000204600F0F1FC20684069616CC0F38010C6
:1016A00001F00801014320462BD000F0B0FC206877
:1016B0004069400621D52068143050E8001F21F011
:1016C000400140E80012002AF5D1E06BA8B16E4954
:1016D0000165E06BFFF793F8002811D0E06B016D16
:1016E00001B0BDE8F040084783060ED593060CD53F
:1016F0002046BDE8F84000F0BFBC2046FFF78CFF55
:10170000F8BDFFF789FF6564F8BD266B2023012E25
:101710007DD1C6067BD5D60679D508684868009085
:1017200048694FF00206400641D5E16B0868406801
:101730000004000CE8D0A28D8242E5D9E085C8699A
:10174000B0F5807F2DD020680C3050E8001F21F4C8
:10175000807140E80012002AF5D12068143050E86A
:10176000001F21F0010140E80012002AF5D1206895
:10177000143050E8001F21F0400140E80012002A18
:10178000F5D184F84230256320680C3050E8001F02
:1017900021F0100140E80012002AF5D1E06BFEF7BD
:1017A000E5FF6663A08DE18D401A81B22AE0A08D2D
:1017B000E18D401A81B2E08D0028A5D00029A3D088
:1017C00020680C3050E8002F22F4907240E8002787
:1017D000002FF5D12068143050E8002F22F00102CC
:1017E00040E80027002FF5D184F8423025632068B7
:1017F0000C3050E8002F22F0100240E80023002BAC
:10180000F5D166632046FFF706FFF8BDFFE7050642
:101810002BD5150629D594F841002128F5D1A068CB
:10182000B0F5805F01D12069B0B1206A411C21620E
:10183000216800784860E08C401E0004000CE084C1
:10184000E3D12068C16821F08001C1602068C168CF
:1018500041F04001C160D8E7206A0088C0F3080069
:101860004860206A801C2062E5E74006CDD550061E
:10187000CBD5CA68204622F04002CA6084F84130C5
:1018800000F066F9C1E70000691F000870B50400A8
:1018900004D094F84100002510B106E0012070BD8D
:1018A00084F84050204600F023F8242084F84100BA
:1018B0002068C16821F40051C160204600F03EFC60
:1018C0002068016921F4904101612068416921F09B
:1018D0002A0141612068C16841F40051C16065641A
:1018E000202084F8410084F842006563002070BD28
:1018F0002DE9F04F87B0044614216846FEF702FE3A
:101900006B486A4B22686A4914380226032700256F
:101910004FF001094FF4007A4FF4806B9A4261D185
:101920000A6842F010020A60096801F0100105918E
:10193000016841F002010160016801F002010591B6
:10194000016841F0010101600068B84600F0010043
:10195000059080208DE841020727CDE9038769467D
:101960005448FFF7D1F8CDF800A0CDE90165CDE9E5
:10197000038769465048FFF7C7F8514E4F484FF06C
:1019800000683060C6E90185C6E9035B7561B56131
:10199000F56135625F4630467562FFF713F808B1AE
:1019A000FEF7E2FEE663B463454E444860367830A5
:1019B000E6E802084020A1C6414846F814596030C4
:1019C000B561F56135627562FEF7FCFF08B1FEF79F
:1019D000CBFEA663002205212520B463FFF71AFA87
:1019E00025205DE0374B9A425CD10A6842F0200224
:1019F0000A60096801F020010591016841F0400189
:101A00000160006802AA00F0400005904FF4804099
:101A1000CDE900064FF0080882E8A00169462A488F
:101A2000FFF772F8CDF800A0CDE90169CDE90378A0
:101A300069462548FFF768F8214E2048C036183817
:101A400030604FF02068C6E90185C6E9035B756127
:101A5000B561F56135625F4630467562FEF7B2FFEB
:101A600008B1FEF781FEE663B4631448174E603098
:101A7000E6E802084020A1C6144846F81459B561AA
:101A8000F56135627562FEF79DFF08B1FEF76CFEE9
:101A9000A663002205214720B463FFF7BBF9472066
:101AA000FFF7AAF907B0BDE8F08F00000010014071
:101AB00044380240000402400000024040640240FA
:101AC0007803002000140140001802409804002010
:101AD0007047000037B5044690F84100202801D037
:101AE00002203EBD019951B34AB32162A284E2842F
:101AF00000206064212384F84130A56B114BEB6317
:101B0000A56B114B2B64A56B104BEB64A36B186595
:101B100020681346A56B021D2846FEF7BDFF21680D
:101B20006FF0400008602068143050E8001F41F05A
:101B3000800140E80012002AF5D100203EBD0120BE
:101B40003EBD0000C31F000805200008791F0008E3
:101B500070477047FEE70000154808B5016841F47A
:101B6000800101600068002200F4800000900521DF
:101B70003920FFF74FF93920FFF73EF90022052100
:101B80003A20FFF747F93A20FFF736F900220521FE
:101B90004520FFF73FF94520FFF72EF900220521E8
:101BA0004620FFF737F9BDE808404620FFF724B983
:101BB0003038024010B596B01C2211496846FEF735
:101BC0006FFC0021684600F08FFD0E4C0C491C2272
:101BD00020601C3107A8FEF763FC002107A800F075
:101BE00083FD074960601C2238310EA8FEF758FCBF
:101BF00000210EA800F078FDA06016B010BD000016
:101C0000583600080000002070B586B014216846E0
:101C1000FEF778FC1A480025016841F04001016098
:101C2000016801F040010591016841F00101016086
:101C3000016801F001010591016841F002010160B4
:101C4000016801F002010591016841F08001016025
:101C500000680C4E00F080004FF4E0540590002224
:101C600021463046FFF738F801200094CDE9010500
:101C7000694630460395FEF747FF06B070BD000089
:101C800030380240001C02400C4810B50A4901607F
:101C90004FF4E1314160002181600C22C160C0E954
:101CA00004128161C161FFF7F1FD002803D0BDE896
:101CB0001040FEF759BD10BD00100140E8020020A1
:101CC0000C4810B50A4901604FF4E1314160002130
:101CD00081600C22C160C0E904128161C161FFF71B
:101CE000D5FD002803D0BDE81040FEF73DBD10BD76
:101CF0000014014030030020FEE7FEE7A0B04FF4DF
:101D0000FA7000F0E5FC00F0A7FF254800F0E4FBC6
:101D100000F054FB234D686000F0DEFB4FF47A7056
:101D200000F0D6FC204E4FF400674FF480584FF47B
:101D300080696C682078022822D17C22684604F1F0
:101D40000C01FEF7ADFB94E80E00154800F066FCB0
:101D50001348001D00F03AFF2870A8B10022394650
:101D60003046FEF7B9FF002241463046FEF7B4FF89
:101D7000012249463046FEF7AFFF6968002008702F
:101D8000032000F0A5FCD4E7012239463046FEF7D7
:101D9000A3FF002241463046FEF79EFF0022E8E7FF
:101DA0001445002088000020001C0240012000F0A3
:101DB0008FFCFBE710B5502080F31188BFF34F8FE5
:101DC000BFF36F8F01F07AFB18B104494FF08050D8
:101DD0000860002080F3118810BD000004ED00E0D1
:101DE00030B593B030216846FEF78CFB14210CA867
:101DF000FEF788FB1D480025016841F08051016015
:101E0000006800F0805011901948016841F4804149
:101E100001600068022400F48040119001200390CA
:101E200010200490009406940820CDE90750A820C3
:101E3000CDE9090404200B906846FFF729F908B1A1
:101E400072B6FEE70CA90F2081E831004FF4A050D4
:101E50000F904FF48050109005210CA8FFF70CF85C
:101E6000002801D072B6FEE713B030BD4038024002
:101E7000007000400248016841F470010160704741
:101E800088ED00E00148FFF720BB0000F8040020C7
:101E9000F0B50268294D2A4E2A4FDFF8ACC02B4B13
:101EA0004FF0804EA84209D0704507D0B04205D00F
:101EB000B84203D0604501D0984203D122F07004AB
:101EC0004A682243A8421BD0704519D0B04217D0AF
:101ED000B84215D0604513D0984211D01C4CA04296
:101EE0000ED01C4CA0420BD01B4CA04208D01B4C67
:101EF000A04205D01A4CA04202D01A4CA04203D1F5
:101F000022F44074CA6822434C6922F080022243C2
:101F100002608A68C2620A688262A84201D098425E
:101F200001D109690163012141610169C90703D038
:101F3000016921F001010161F0BD000000000140D4
:101F40000004004000080040000C00400004014074
:101F5000004001400044014000480140001800409A
:101F6000001C00400020004010B5806B0021C1859E
:101F7000C184FFF751FB10BD70B5846B20684069C8
:101F800094F84110C0F3C0100025212904D118B1E4
:101F9000E584204600F062F82068406994F8421019
:101FA000C0F38010222904D118B1E585204600F045
:101FB0002EF8606C40F0100060642046FFF72CFBA8
:101FC00070BD10B50146806B09680968C90516D453
:101FD0000021C1840168143151E8002F22F08002F1
:101FE00041E80023002BF5D101680C3151E8002FA6
:101FF00042F0400241E80023002BF5D110BDFFF76D
:10200000A7FD10BD10B5806BFFF7A3FD10BD0168E3
:102010000C3151E8002F22F4907241E80023002B8C
:10202000F5D10168143151E8002F22F0010241E896
:102030000023002BF5D1016B012909D101680C3176
:1020400051E8002F22F0100241E80023002BF5D1C7
:10205000202180F8421000210163704701680C3193
:1020600051E8002F22F0C00241E80023002BF5D1F7
:10207000202180F84110704708B590F842102229BD
:1020800001D0022008BD81684FF48053994201D1EC
:10209000026922B1826A99421BD049B10AE0026802
:1020A000816A5268C2F308020A80816A891C08E0CA
:1020B000016971B10168496801F07F011170816A9D
:1020C000491C8162C18D491E0904090CC18503D0D8
:1020D0001BE001684968F1E70168CA6822F0200244
:1020E000CA600168CA6822F48072CA6001684A69DD
:1020F00022F001024A61202180F842100021416350
:10210000026B012A03D0FFF7E3FC002008BD016346
:1021100001680C3151E8002F22F0100241E8002341
:10212000002BF5D101680A68D20602D50A68496811
:102130000091818DFFF76FFAE7E7000070B5044664
:1021400000680169E26821F4405111430161A1680E
:102150002069E26901436069104301432068C26855
:1021600049F20C639A430A43C26020684169A2693C
:1021700021F440711143416131492068884202D005
:102180003049884202D1FEF741FF01E0FEF72EFF01
:10219000E2690023192164253226B2F5004F6268F6
:1021A00028D0A0FB0101930F9200FEF7BDF8014675
:1021B000B0FBF5F06FF01802504301EB800006EB26
:1021C0000010B0FBF5F000F0F002B1FBF5F002EB0F
:1021D0000012B1FBF5F06FF01803584301EB8000DB
:1021E00006EB0010B0FBF5F000F00F002168104482
:1021F000886070BDA0FB010192185B41FEF794F866
:102200000146B0FBF5F00201B1FBF5F06FF01803E9
:10221000584301EB800006EBC000B0FBF5F000F086
:10222000F80002EB4002B1FBF5F0584301EB8000EF
:1022300006EBC000B0FBF5F000F00700D6E70000A9
:10224000001001400014014010B500F0B3FDBDE8DE
:1022500010400148FFF7E2B9E802002010B500F095
:1022600041FEBDE810400148FFF7D8B93003002017
:10227000FEE70907090E002804DB00F1E02080F8E2
:102280000014704700F00F0000F1E02080F8141DEA
:10229000704730B50C4605000BD0022C09D94FF61B
:1022A000FF72A11E00F08EF8291901F8020D000A34
:1022B000487030BD30B50C4605000BD0022C09D952
:1022C0004FF6FF72A11E00F093F8291901F8020DD4
:1022D000000A487030BD30B50C4605000AD0022C0B
:1022E00008D9601E81B2FF22284600F097F829190C
:1022F00001F8010C30BD000070B5074D002404EB5F
:10230000440005EBC00018210C30FEF7FBF8641CFC
:10231000E4B2082CF3D370BD30420020074B0022FA
:102320001A7001700621417082705421C1700271CF
:10233000012141710821FFF7ACBF000030420020AD
:102340002DE9F0475FEA01080446EFF3108772B603
:102350002FD0A5686DB361686069884201D9206893
:102360006061954200DD15460E1A761CAE4206DB12
:102370002A464146FEF74FF8606928440DE0A5EB78
:10238000060932464146FEF746F808EB06014A4682
:102390002068FEF740F8206848446061A068401B50
:1023A000A060E0682844E060284687F31088BDE814
:1023B000F08787F310884FF0FF30F8E70048704748
:1023C0008C44002010B558B1084C491E0BD310F8AE
:1023D000013B5340DBB234F8133083EA1222F4E7B6
:1023E0004FF6FF7010BD104610BD0000CC3900083C
:1023F00010B558B1084C491E0BD310F8013B53409F
:10240000DBB234F8133083EA1222F4E74FF6FF70A0
:1024100010BD104610BD0000CC37000810B5054CAB
:1024200003E010F8013B5340E25C491E89B2F8D248
:10243000104610BDCC36000810B5074C0146601C94
:1024400000F0A4FB0822611C0448FFF743FBBDE831
:102450001040022000F03CB930420020E802002089
:1024600010B5074C0146601C00F0A0FB0822611C5F
:102470000448FFF72FFBBDE81040022000F028B908
:1024800030420020E80200202DE9F0410025DFF86D
:102490004080104F01242E462046FFF7E1FF04EB59
:1024A000440007EBC000017A012909D080F82060C0
:1024B0000125641CE4B2072CEED32846BDE8F08168
:1024C00008EB440130F8082C4A8380F82060F0E7DC
:1024D0008C440020304200209FED290ADFED330AB2
:1024E00080ED0C0A9FED270A80ED0D0A9FED260A6C
:1024F00080ED100A9FED250A80ED110A9FED240A58
:1025000080ED140A9FED230A80ED150A9FED220A43
:1025100080ED180A9FED210A80ED190A9FED200A2F
:1025200080ED1C0A9FED1F0A80ED1D0A9FED1E0A1B
:1025300080ED200A9FED1E0AC0ED210A80ED0A0AF7
:102540009FED1C0A80ED0B0AC0ED0E0A80ED0F0A0C
:10255000F7EE000AC0ED120A80ED130AC0ED160A6C
:10256000DFED150A80ED170AC0ED1A0ADFED130A38
:1025700080ED1B0AC0ED1E0A80ED1F0A70470000A7
:10258000666636C09A993940894148C0B072A8BE83
:10259000DBF99EBF8B6CC73FC3F5C8BFC3F5C83F0F
:1025A0009A99D9BF9A99D93FDB0F49C0DB0F4940AF
:1025B000CDCC4C3F000000001CF98CBF5C8FA23FCB
:1025C00010B5064C0146601CFFF7A8FE0822611CEE
:1025D000BDE810400248FFF77DBA000030420020FD
:1025E000E8020020FEF78CFBFFF7FAFBFFF70CFB7D
:1025F000FFF7B2FAFFF748FBFFF762FB00F024FB9E
:1026000000F02AFBFFF7D6FA00F069F8FEE7014672
:102610000020842900D0C81C704700000FB400219E
:1026200070B5284C9FED281ADFED281A61704FF421
:102630008045B0EE002A05ABC9B203EB810603EB7F
:10264000410296ED010AB2F91C20C0EE010AAA422D
:1026500001DBA2F5004200EE102A03EB0112B8EEF6
:10266000C00A30EE800A20EE020A20EE210A86ED32
:10267000010A03EB810692ED0B0AD6ED010AD2EDB9
:102680000A2A00EEA20A86ED010AD2ED0C0AB4EE87
:10269000E00AF1EE10FA06D3D2ED0D0AB4EEE00A2C
:1026A000F1EE10FA01DDB0EE600A00EB8102491C88
:1026B000C9B282ED010A61700629BDD370BC5DF814
:1026C00014FB0000880000200000B443DB0F4940E9
:1026D00010B500B9012000F071FD002010BD10B54B
:1026E00000F092FD002010BD7FB50D460446416903
:1026F000B0F9080081B1A16971B1FFF788FFD4E991
:1027000005128DE80700D4E900102B46226900F07D
:10271000A8FE039004B070BDFFF779FF03A9CDE9CF
:102720000001208A2B4682B2D4E9001000F06CFE32
:10273000012801D00020EDE70398EBE72DE9F041F7
:10274000184E0F460446F5683068001D00F06EFC18
:1027500038B9306890F82C100120884031698143E5
:102760003161601C07D137B13168BDE8F0410E48D6
:10277000091D00F09FBC30682C44AC4244603168B5
:1027800005D2B06BBDE8F041091D00F07BBC706B59
:10279000091D00F077FCB06A844200D2B462BDE843
:1027A000F08100001C0000201C0600202DE9F041F3
:1027B000054600F08BFC2E4EB068401CB0603068BF
:1027C0002C4F10B1706940B32DE03560B06801281E
:1027D00029D1002404EB840007EB800000F044FCC6
:1027E000641C072CF6D323488C3000F03DFC2148B4
:1027F000A03000F039FC1F48B43000F035FC1D4813
:10280000C83000F031FC1B48DC3000F02DFC1948CA
:102810008C3070631430B06305E03068E96AC06AD8
:10282000884200D83560706A0121401C7062E86AF5
:10283000326981401143316100EB800007EB800079
:10284000291D00F037FC00F061FC706900280CD0F5
:102850003068E96AC06A884207D207494FF0805061
:102860000860BFF34F8FBFF36F8FBDE8F0810000AA
:102870001C0000204005002004ED00E010B50446D7
:1028800090F8510058B101280CD002280FD05020E8
:1028900080F31188BFF34F8FBFF36F8FFEE7206B7C
:1028A00000F048FC2046BDE8104000F043BC10BDDD
:1028B00010484FF47051420706D0C01D0D4920F05A
:1028C0000700411AC1F570510B4A00230144C2E9C7
:1028D00000030839183A21F0070111604B600B60C2
:1028E0000B1AC0E9001393604FF000405360506131
:1028F000704700003006002070000020134E144D79
:10290000A6F1C8074FF08058DFF8489011E000F0BA
:10291000DDFBF068C468201D00F088FBA868401E3D
:10292000A8606868401E686000F0F0FB2046FFF772
:10293000A5FF68680028EAD138680128F9D9C9F8E4
:102940000080BFF34F8FBFF36F8FF2E708060020C0
:102950001C00002004ED00E02DE9F0479A46DDE977
:10296000098481466FF00303206B03EB820210445D
:10297000089D20F00706700707D0502080F31188CB
:10298000BFF34F8FBFF36F8FFEE7002761B10020C9
:1029900023180A5C83F834200A5C12B1401C10280A
:1029A000F6D384F8437001E084F83470072D00D327
:1029B0000625E562C4E91157201D00F060FB04F113
:1029C000180000F05CFB2461C5F107006462A0619F
:1029D000E76484F8507052464946304600F0C0F82B
:1029E0002060B8F1000F01D0C8F80040BDE8F087C2
:1029F00030B5114900E011460A688242FBD34B68AA
:102A00005C18844203D14068184448600846436813
:102A10001C18944209D1084C183C2468A24209D0E1
:102A200052681A4442600A6812680260814200D00B
:102A3000086030BD0460F9E7700000200648416B73
:102A4000096829B1416BC968C968496881627047E2
:102A50004FF0FF31FAE700001C00002008484068F2
:102A6000401C4FF0500080F3118804D0BFF34F8F0B
:102A7000BFF36F8FFEE7BFF34F8FBFF36F8FFEE79C
:102A8000780000202DE9F0410546002600F0F2FB19
:102A9000324F386808B9FFF70BFF786905424ED10D
:102AA000C5B3083568070ED005F00700C0F108006F
:102AB0000544680707D0502080F31188BFF34F8F7B
:102AC000BFF36F8FFEE72DB37868854237D823496F
:102AD00018310846046801E0214604466068A842AF
:102AE00002D220680028F7D13868844227D00E68C7
:102AF0002068086060680836411B10290FD96019EA
:102B0000420708D0502080F31188BFF34F8FBFF3E6
:102B10006F8FFEE713E041606560FFF769FF616852
:102B20007868401A7860BA68904200D2B8607869D4
:102B300001430020C4E90001F868401CF86000F07F
:102B400023FD700707D0502080F31188BFF34F8F0B
:102B5000BFF36F8FFEE73046BDE8F08158000020DC
:102B600010B5031F4FF080741C601B1F21F0010182
:102B70001960191F044B0B6014390A60091F6FF0AC
:102B8000020244380A6010BD5D2A0008064B00228C
:102B90001A700170032141704121C170027101213D
:102BA00041710821FFF775BB30420020064B01221E
:102BB0001A7001700321417044230021C370017118
:102BC00042710821FFF765BB3042002070B5044612
:102BD0001A48A521002501701E21A0F80110C5701A
:102BE00040F20231A0F805100521FFF774FB144AEA
:102BF00012491570107801EB800554F82030401C04
:102C0000C0B2C5F8073010700628F3D35088A1F879
:102C10001F00401C094C508027212046FFF74AFB2B
:102C200027222146A4F12700FDF7F5FBA4F1270197
:102C3000BDE8704027220348FEF74CBFC345002083
:102C4000900000203003002002496422A1F16400BA
:102C500000F0ECB84843002002496422A1F164006E
:102C600000F088B9104400202DE9F04104462DED14
:102C7000028B4078032806D006286FD00220BDECD6
:102C8000028BBDE8F0812078474D00EB400005EB5A
:102C9000C0002288A0F1800120F80C2CA07881F8D7
:102CA000760028780026012720B101285DD003286E
:102CB0006BD175E020789FED3D8A00EB400005EB7D
:102CC000C000DFED3B8A10F80A1C022902D004295B
:102CD00049D11EE00721204600F002FBE8B3B4F81A
:102CE0000300217840BA00EE100A01EB410105EB28
:102CF000C101B8EE400A21F8040C217820EE080A40
:102D000001EB410105EBC10120EE280A81ED010A2A
:102D10001FE00921204600F0E3FAF0B1D4F80300E7
:102D2000A17900BA20F0FF00084300EE100A2178D4
:102D3000B8EE400A01EB410145F8310020EE080AE7
:102D4000217801EB410120EE280A05EBC10080ED5E
:102D5000010A207800EB400001E016E01BE005EBE3
:102D6000C00007721CE006721CE00721204600F03C
:102D7000B7FA50B1B4F8030041BA207800EB400034
:102D800005EBC00020F8081CE3E7207800EB4000CA
:102D900005EBC000E7E70821204600F0A1FA08B1E2
:102DA00000206CE701206AE7304200200000B443B5
:102DB000000080391A4882B00068C0062ED5194933
:102DC0000868026840680090C86B006802681303D6
:102DD00003684FF0640223F001030360C86B0068CE
:102DE0004260C86B006802680AD442F400220260A4
:102DF000C86B0068016841F0010101600A480AE0FF
:102E000022F400220260C86B0068016841F00101F1
:102E100001600548643002B0FFF726BF02B070477A
:102E200000100140E8020020E4420020F0B5274CE9
:102E300023685D6945F040055D6123685D6945F083
:102E400080055D612368DC6844F01004DC60204C80
:102E500023681D6825F001051D6023681D68ED07C6
:102E6000F7D11C4FFD14BB4202D91A4E4C3E04E070
:102E7000194EB34203D9174E503E356008E0164F45
:102E8000154E603FB83EBB4201D9F56000E0B56029
:102E9000124D9D602368D8602068016120684260FF
:102EA0002068016841F4802101602068016841F0D8
:102EB000010101600A490868026822F0010202600B
:102EC00008680268D207F7D18560F0BDE8020020EB
:102ED0007803002058640240B860024004100140AA
:102EE000D803002078B41E4908680268920604D509
:102EF00001684068009078BC70471A4A1268D20690
:102F0000F9D5026840680090C86B00680268174BEA
:102F10001503154A05684FF0640425F001050560A6
:102F200010684068C0F1640082B21A80C86B006803
:102F30004460C86B0068036802D443F4002301E0D6
:102F400023F400230360C86B0068016841F00101AD
:102F5000016078BC064901F1C800FFF7F1B9000033
:102F600030030020001401403804002084000020B9
:102F7000AC430020F0B5274C23685D6945F040055F
:102F80005D6123685D6945F080055D612368DC68EB
:102F900044F01004DC60204C23681D6825F0010516
:102FA0001D6023681D68ED07F7D11C4FFD14BB425F
:102FB00002D91A4E4C3E04E0194EB34203D9174EC3
:102FC000503E356008E0164F154E603FB83EBB429C
:102FD00001D9F56000E0B560124D9D602368D860AE
:102FE00020680161206842602068016841F4802106
:102FF00001602068016841F0010101600A49086828
:10300000026822F00102026008680268D207F7D164
:103010008560F0BD30030020380400205864024071
:10302000B86002400414014098040020D0E9013245
:1030300001699A60D0E901235A604A68824201D14D
:1030400082684A60002202610868401E08600868C1
:1030500070470000034B036003F1540008608020B8
:10306000106070479400002000F108014FF0FF321B
:10307000C0E90112C16001610021016070470021B7
:103080000161704730B50C68621C02D000F1080283
:1030900002E0026904E01A4653681D68A542FAD9A5
:1030A00053684B6099608A60516008610168491CEF
:1030B000016030BD42684A6093688B6093685960D4
:1030C000916008610168491C01607047502080F3DD
:1030D0001188BFF34F8FBFF36F8F0A494868401CB8
:1030E000486001280CD10848006810F0FF0F07D095
:1030F000502080F31188BFF34F8FBFF36F8FFEE72F
:10310000704700007800002004ED00E0084948689E
:1031100028B1401E486001D180F3118870475020CB
:1031200080F31188BFF34F8FBFF36F8FFEE700006E
:103130007800002070B500282AD0164DA0F10804B0
:1031400060686969084207D1502080F31188BFF395
:103150004F8FBFF36F8FFEE722683AB1502080F3A4
:103160001188BFF34F8FBFF36F8FFEE78843606016
:1031700000F080F860686968084468602046FFF7DE
:1031800037FC2869401C2861BDE8704000F0FCB99C
:1031900070BD0000580000204FF0E02000210161C8
:1031A000816105494FF47A720968B1FBF2F1491E59
:1031B00041610721016170471800002010B502002D
:1031C00014D00F48006B38B1502080F31188BFF342
:1031D0004F8FBFF36F8FFEE700F04CF800211046D1
:1031E000FFF7ACFA00F0D0F9002807D105494FF0FD
:1031F00080500860BFF34F8FBFF36F8F10BD00008A
:103200001C00002004ED00E010B586B000240394FB
:1032100005AA04A903A80494FFF71CFFDDE9030134
:103220000094CDE9011000230EA11048059A00F08A
:1032300018F90F490028C86211D0502080F3118876
:10324000BFF34F8FBFF36F8F4FF0FF3088620120C5
:103250004861CC6006B0BDE8104000F05BB806B035
:1032600010BD000049444C4500000000FD28000846
:103270001C0000200248016B491C016370470000DC
:103280001C000020144A106B10B10120D06170475F
:103290000020D06110691149B0FA80F0C0F11F0020
:1032A00000EB800051F820306BB101EB800000F1A1
:1032B0000803416849684160994201D14968416009
:1032C000C86810607047502080F31188BFF34F8F9B
:1032D000BFF36F8FFEE700001C00002040050020B8
:1032E00030B50C46050013D0022C11D94FF6FF72F1
:1032F000A11EFFF767F82919C2B211F8023C9A42E1
:1033000006D111F8011CB1EB102F01D1012030BD05
:10331000002030BD1CB537480168374A914207D1BB
:10332000502080F31188BFF34F8FBFF36F8FFEE7FC
:1033300000683149491E884207D1502080F3118826
:10334000BFF34F8FBFF36F8FFEE72C4908780190D2
:10335000FF20087008788DF800009DF800009DF8A7
:10336000002000F0F000904207D0502080F3118838
:10337000BFF34F8FBFF36F8FFEE79DF80000204C27
:1033800000F0500020700720A06006E0401EA06002
:103390009DF8000040008DF800009DF80000000638
:1033A000A068F3D4032807D0502080F31188BFF31E
:1033B0004F8FBFF36F8FFEE74FF44070A06001980E
:1033C00008700C482030016841F470010160016808
:1033D00041F070410160FFF7DFFE00206060FCF704
:1033E00047FF0848016841F040410160FCF72CFFAD
:1033F00000201CBD00ED00E071C20F4100E400E0C0
:103400007800002034EF00E02DE9FF5F8346DDE91E
:103410000E87994616468A469000FFF733FB050053
:103420001CD05420FFF72EFB040014D0002025638D
:1034300084F85100CDE90240CDE900874B46324681
:1034400051465846FFF788FA2046FFF7AFF90120AA
:1034500004B0BDE8F09F2846FFF76CFE4FF0FF3048
:10346000F6E7F0B585B00546DDE90B040A9EA8B184
:10347000E4B1542700972063022084F85100002013
:10348000CDE9024004AF2846CDE90067FFF764FAB2
:103490002046FFF78BF9049805B0F0BD502080F36B
:1034A0001188BFF34F8FBFF36F8FFEE7502080F37B
:1034B0001188BFF34F8FBFF36F8FFEE72DE9F04107
:1034C0002F4F0026386B28B1B869401CB8613046D0
:1034D000BDE8F081FD686D1CFD6013D1786B00685C
:1034E00038B1502080F31188BFF34F8FBFF36F8F37
:1034F000FEE7786BB96B7963B863386A401C386251
:10350000FFF79CFAB86ADFF87C80854209D3786BB4
:103510000068A0B1786BC068C4686068854211D249
:10352000B8623868C06A00EB800158F821000128B1
:1035300000D90126F8690028C9D00126C7E74FF055
:10354000FF30EDE7201DFFF771FDA06A18B104F10F
:103550001800FFF76BFDE06A01213A6981401143D1
:10356000396100EB800108EB8100211DFFF7A2FD0E
:10357000E06A3968C96A8842C9D30126C7E70000F2
:103580001C000020400500202DE9F0472C4D0024B0
:103590002746286B38B1FFF799FD286B401E28633A
:1035A000286B40B146E0502080F31188BFF34F8F65
:1035B000BFF36F8FFEE7A86822490126D0B3A1F1BF
:1035C000B4098846D8F80010E9B1D8F80C00C468EE
:1035D00004F11800FFF72AFD201DFFF727FDE06A20
:1035E0002A6906FA00F11143296100EB800109EB19
:1035F0008100211DFFF75EFDE06A2968C96A8842E3
:10360000E0D3EE61DEE70CB1FFF718FAAC693CB12C
:10361000FFF754FF00B1EE61641EF9D10020A861EC
:10362000E86938B10849012738070860BFF34F8FB0
:10363000BFF36F8FFFF76AFD3846BDE8F0870000E3
:103640001C000020F405002004ED00E04FF0407065
:10365000E1EE100A70470000CC3B0008AD1D0008E9
:1036600000000000000000008000000000000000DA
:1036700000000000E83B0008A1060008FDFF000074
:103680000000000000040000000000000000000036
:10369000D83B0008FD1C0008FDFF000000000000F2
:1036A00000040000000000000000000000061016EA
:1036B00000061016000000000000000001020304D4
:1036C000060708090000000001020304005EBCE2D6
:1036D000613FDD83C29C7E20A3FD1F419DC3217FEE
:1036E000FCA2401E5F01E3BD3E6082DC237D9FC1E2
:1036F000421CFEA0E1BF5D0380DE3C62BEE0025CD6
:10370000DF81633D7C22C09E1D43A1FF4618FAA4C1
:1037100027799BC584DA3866E5BB5907DB856739AD
:10372000BAE406581947A5FB7826C49A653BD987A1
:10373000045AB8E6A7F91B45C6987A24F8A6441A95
:1037400099C7257B3A6486D85B05E7B98CD2306E81
:10375000EDB3510F4E10F2AC2F7193CD114FADF36D
:10376000702ECC92D38D6F31B2EC0E50AFF1134D61
:10377000CE90722C6D33D18F0C52B0EE326C8ED055
:10378000530DEFB1F0AE4C1291CF2D73CA94762841
:10379000ABF517490856B4EA6937D58B5709EBB52D
:1037A00036688AD495CB2977F4AA4816E9B7550B21
:1037B00088D6346A2B7597C94A14F6A8742AC89615
:1037C000154BA9F7B6E80A54D7896B350000891163
:1037D00012239B322446AD573665BF74488CC19D79
:1037E0005AAFD3BE6CCAE5DB7EE9F7F88110080159
:1037F00093331A22A5562C47B7753E64C99C408D59
:10380000DBBF52AEEDDA64CBFFF976E802218B30F4
:10381000100299132667AF763444BD554AADC3BC38
:10382000588ED19F6EEBE7FA7CC8F5D983310A2018
:1038300091121803A7772E66B5543C45CBBD42AC18
:10384000D99E508FEFFB66EAFDD874C904428D53B0
:1038500016619F702004A9153227BB364CCEC5DFF8
:103860005EEDD7FC6888E1997AABF3BA85520C43D8
:1038700097711E60A1142805B3373A26CDDE44CFD8
:10388000DFFD56ECE9986089FBBB72AA06638F7274
:1038900014409D512225AB343006B9174EEFC7FEB8
:1038A0005CCCD5DD6AA9E3B8788AF19B87730E6298
:1038B00095501C41A3352A24B1163807CFFF46EE98
:1038C000DDDC54CDEBB962A8F99A708B0884819540
:1038D0001AA793B62CC2A5D33EE1B7F04008C91988
:1038E000522BDB3A644EED5F766DFF7C8994008548
:1038F0009BB712A6ADD224C3BFF136E0C118480968
:10390000D33B5A2AE55E6C4FF77D7E6C0AA583B4E3
:10391000188691972EE3A7F23CC0B5D14229CB3847
:10392000500AD91B666FEF7E744CFD5D8BB502A407
:1039300099961087AFF326E2BDD034C1C3394A2827
:10394000D11A580BE77F6E6EF55C7C4D0CC685D79F
:103950001EE597F42880A1913AA3B3B2444ACD5B07
:103960005669DF78600CE91D722FFB3E8DD604C7C7
:103970009FF516E4A9902081BBB332A2C55A4C4BE7
:10398000D7795E68E11C680DF33F7A2E0EE787F663
:103990001CC495D52AA1A3B03882B193466BCF7AC7
:1039A0005448DD59622DEB3C700EF91F8FF706E687
:1039B0009DD414C5ABB122A0B9923083C77B4E6AA7
:1039C000D5585C49E33D6A2CF11E780F0000C1C058
:1039D00081C1400101C3C003800241C201C6C006CB
:1039E000800741C70005C1C581C4400401CCC00C9B
:1039F000800D41CD000FC1CF81CE400E000AC1CA5B
:103A000081CB400B01C9C009800841C801D8C0184A
:103A1000801941D9001BC1DB81DA401A001EC1DECA
:103A200081DF401F01DDC01D801C41DC0014C1D4BA
:103A300081D5401501D7C017801641D601D2C012DA
:103A4000801341D30011C1D181D0401001F0C030AA
:103A5000803141F10033C1F381F240320036C1F6CA
:103A600081F7403701F5C035803441F4003CC1FC9A
:103A700081FD403D01FFC03F803E41FE01FAC03A5A
:103A8000803B41FB0039C1F981F840380028C1E88A
:103A900081E9402901EBC02B802A41EA01EEC02ECA
:103AA000802F41EF002DC1ED81EC402C01E4C024BA
:103AB000802541E50027C1E781E640260022C1E2DA
:103AC00081E3402301E1C021802041E001A0C060EA
:103AD000806141A10063C1A381A240620066C1A6CA
:103AE00081A7406701A5C065806441A4006CC1AC9A
:103AF00081AD406D01AFC06F806E41AE01AAC06A5A
:103B0000806B41AB0069C1A981A840680078C1B849
:103B100081B9407901BBC07B807A41BA01BEC07EC9
:103B2000807F41BF007DC1BD81BC407C01B4C074B9
:103B3000807541B50077C1B781B640760072C1B2D9
:103B400081B3407301B1C071807041B00050C19029
:103B5000819140510193C053805241920196C056C9
:103B6000805741970055C19581944054019CC05C99
:103B7000805D419D005FC19F819E405E005AC19A59
:103B8000819B405B0199C059805841980188C04889
:103B900080494189004BC18B818A404A004EC18EC9
:103BA000818F404F018DC04D804C418C0044C184B9
:103BB000818540450187C047804641860182C042D9
:103BC000804341830041C1818180404064656661DA
:103BD000756C745461736B00526566657265655FE0
:103BE0005461736B48616E00456E636F6465725F0C
:103BF0005461736B48616E00183C0008000000209F
:103C000094000000C4010008AC3C000894000020AF
:103C100044A60000E00100080000000000000000D1
:103C20000000000001000000100000000000000083
:103C30000024F4000000000000000000000000006C
:103C40000000000000000000000000000000000074
:103C50000000000000000000000000000000000064
:103C60000000000000000000000000000000000054
:103C70000000000000000000000000000000000044
:103C80000000000000000000000000000000000034
:103C900000000000AAAAAAAA00000000000000007C
:0C3CA000020000000000000000001111F4
:040000050800018965
:00000001FF
